{
	"LotteryContract.sol": {
		"main": {
			"abi": [
				{
					"inputs": [],
					"stateMutability": "nonpayable",
					"type": "constructor"
				},
				{
					"inputs": [],
					"name": "ENTER",
					"outputs": [],
					"stateMutability": "payable",
					"type": "function"
				},
				{
					"inputs": [],
					"name": "manager",
					"outputs": [
						{
							"internalType": "address",
							"name": "",
							"type": "address"
						}
					],
					"stateMutability": "view",
					"type": "function"
				},
				{
					"inputs": [
						{
							"internalType": "uint256",
							"name": "",
							"type": "uint256"
						}
					],
					"name": "players",
					"outputs": [
						{
							"internalType": "address payable",
							"name": "",
							"type": "address"
						}
					],
					"stateMutability": "view",
					"type": "function"
				}
			],
			"devdoc": {
				"kind": "dev",
				"methods": {},
				"version": 1
			},
			"evm": {
				"assembly": "    /* \"LotteryContract.sol\":59:747  contract main{\r... */\n  mstore(0x40, 0x80)\n    /* \"LotteryContract.sol\":152:204  constructor(){\r... */\n  callvalue\n  dup1\n  iszero\n  tag_1\n  jumpi\n  0x00\n  dup1\n  revert\ntag_1:\n  pop\n    /* \"LotteryContract.sol\":186:196  msg.sender */\n  caller\n    /* \"LotteryContract.sol\":176:183  manager */\n  0x00\n  dup1\n    /* \"LotteryContract.sol\":176:196  manager = msg.sender */\n  0x0100\n  exp\n  dup2\n  sload\n  dup2\n  0xffffffffffffffffffffffffffffffffffffffff\n  mul\n  not\n  and\n  swap1\n  dup4\n  0xffffffffffffffffffffffffffffffffffffffff\n  and\n  mul\n  or\n  swap1\n  sstore\n  pop\n    /* \"LotteryContract.sol\":59:747  contract main{\r... */\n  dataSize(sub_0)\n  dup1\n  dataOffset(sub_0)\n  0x00\n  codecopy\n  0x00\n  return\nstop\n\nsub_0: assembly {\n        /* \"LotteryContract.sol\":59:747  contract main{\r... */\n      mstore(0x40, 0x80)\n      jumpi(tag_1, lt(calldatasize, 0x04))\n      shr(0xe0, calldataload(0x00))\n      dup1\n      0x19b37417\n      eq\n      tag_2\n      jumpi\n      dup1\n      0x481c6a75\n      eq\n      tag_3\n      jumpi\n      dup1\n      0xf71d96cb\n      eq\n      tag_4\n      jumpi\n    tag_1:\n      0x00\n      dup1\n      revert\n        /* \"LotteryContract.sol\":351:694  function ENTER() payable public{\r... */\n    tag_2:\n      tag_5\n      tag_6\n      jump\t// in\n    tag_5:\n      stop\n        /* \"LotteryContract.sol\":81:103  address public manager */\n    tag_3:\n      callvalue\n      dup1\n      iszero\n      tag_7\n      jumpi\n      0x00\n      dup1\n      revert\n    tag_7:\n      pop\n      tag_8\n      tag_9\n      jump\t// in\n    tag_8:\n      mload(0x40)\n      tag_10\n      swap2\n      swap1\n      tag_11\n      jump\t// in\n    tag_10:\n      mload(0x40)\n      dup1\n      swap2\n      sub\n      swap1\n      return\n        /* \"LotteryContract.sol\":110:142  address payable[] public players */\n    tag_4:\n      callvalue\n      dup1\n      iszero\n      tag_12\n      jumpi\n      0x00\n      dup1\n      revert\n    tag_12:\n      pop\n      tag_13\n      0x04\n      dup1\n      calldatasize\n      sub\n      dup2\n      add\n      swap1\n      tag_14\n      swap2\n      swap1\n      tag_15\n      jump\t// in\n    tag_14:\n      tag_16\n      jump\t// in\n    tag_13:\n      mload(0x40)\n      tag_17\n      swap2\n      swap1\n      tag_18\n      jump\t// in\n    tag_17:\n      mload(0x40)\n      dup1\n      swap2\n      sub\n      swap1\n      return\n        /* \"LotteryContract.sol\":351:694  function ENTER() payable public{\r... */\n    tag_6:\n        /* \"LotteryContract.sol\":412:422  msg.sender */\n      caller\n        /* \"LotteryContract.sol\":401:422  manager != msg.sender */\n      0xffffffffffffffffffffffffffffffffffffffff\n      and\n        /* \"LotteryContract.sol\":401:408  manager */\n      0x00\n      dup1\n      sload\n      swap1\n      0x0100\n      exp\n      swap1\n      div\n      0xffffffffffffffffffffffffffffffffffffffff\n      and\n        /* \"LotteryContract.sol\":401:422  manager != msg.sender */\n      0xffffffffffffffffffffffffffffffffffffffff\n      and\n      eq\n      iszero\n        /* \"LotteryContract.sol\":393:469  require(manager != msg.sender, \"You can not participate as you are manager\") */\n      tag_20\n      jumpi\n      mload(0x40)\n      0x08c379a000000000000000000000000000000000000000000000000000000000\n      dup2\n      mstore\n      0x04\n      add\n      tag_21\n      swap1\n      tag_22\n      jump\t// in\n    tag_21:\n      mload(0x40)\n      dup1\n      swap2\n      sub\n      swap1\n      revert\n    tag_20:\n        /* \"LotteryContract.sol\":506:511  false */\n      0x00\n        /* \"LotteryContract.sol\":488:511  alreadyEnter() == false */\n      iszero\n      iszero\n        /* \"LotteryContract.sol\":488:502  alreadyEnter() */\n      tag_23\n        /* \"LotteryContract.sol\":488:500  alreadyEnter */\n      tag_24\n        /* \"LotteryContract.sol\":488:502  alreadyEnter() */\n      jump\t// in\n    tag_23:\n        /* \"LotteryContract.sol\":488:511  alreadyEnter() == false */\n      iszero\n      iszero\n      eq\n        /* \"LotteryContract.sol\":480:547  require(alreadyEnter() == false, \"You already joined this contest\") */\n      tag_25\n      jumpi\n      mload(0x40)\n      0x08c379a000000000000000000000000000000000000000000000000000000000\n      dup2\n      mstore\n      0x04\n      add\n      tag_26\n      swap1\n      tag_27\n      jump\t// in\n    tag_26:\n      mload(0x40)\n      dup1\n      swap2\n      sub\n      swap1\n      revert\n    tag_25:\n        /* \"LotteryContract.sol\":579:586  1 ether */\n      0x0de0b6b3a7640000\n        /* \"LotteryContract.sol\":566:575  msg.value */\n      callvalue\n        /* \"LotteryContract.sol\":566:586  msg.value == 1 ether */\n      eq\n        /* \"LotteryContract.sol\":558:642  require(msg.value == 1 ether, \"You have to pay fees of 1 ether for joining contest\") */\n      tag_28\n      jumpi\n      mload(0x40)\n      0x08c379a000000000000000000000000000000000000000000000000000000000\n      dup2\n      mstore\n      0x04\n      add\n      tag_29\n      swap1\n      tag_30\n      jump\t// in\n    tag_29:\n      mload(0x40)\n      dup1\n      swap2\n      sub\n      swap1\n      revert\n    tag_28:\n        /* \"LotteryContract.sol\":653:660  players */\n      0x01\n        /* \"LotteryContract.sol\":674:684  msg.sender */\n      caller\n        /* \"LotteryContract.sol\":653:686  players.push(payable(msg.sender)) */\n      swap1\n      dup1\n      0x01\n      dup2\n      sload\n      add\n      dup1\n      dup3\n      sstore\n      dup1\n      swap2\n      pop\n      pop\n      0x01\n      swap1\n      sub\n      swap1\n      0x00\n      mstore\n      keccak256(0x00, 0x20)\n      add\n      0x00\n      swap1\n      swap2\n      swap1\n      swap2\n      swap1\n      swap2\n      0x0100\n      exp\n      dup2\n      sload\n      dup2\n      0xffffffffffffffffffffffffffffffffffffffff\n      mul\n      not\n      and\n      swap1\n      dup4\n      0xffffffffffffffffffffffffffffffffffffffff\n      and\n      mul\n      or\n      swap1\n      sstore\n      pop\n        /* \"LotteryContract.sol\":351:694  function ENTER() payable public{\r... */\n      jump\t// out\n        /* \"LotteryContract.sol\":81:103  address public manager */\n    tag_9:\n      0x00\n      dup1\n      sload\n      swap1\n      0x0100\n      exp\n      swap1\n      div\n      0xffffffffffffffffffffffffffffffffffffffff\n      and\n      dup2\n      jump\t// out\n        /* \"LotteryContract.sol\":110:142  address payable[] public players */\n    tag_16:\n      0x01\n      dup2\n      dup2\n      sload\n      dup2\n      lt\n      tag_32\n      jumpi\n      0x00\n      dup1\n      revert\n    tag_32:\n      swap1\n      0x00\n      mstore\n      keccak256(0x00, 0x20)\n      add\n      0x00\n      swap2\n      pop\n      sload\n      swap1\n      0x0100\n      exp\n      swap1\n      div\n      0xffffffffffffffffffffffffffffffffffffffff\n      and\n      dup2\n      jump\t// out\n        /* \"LotteryContract.sol\":212:343  function alreadyEnter() private returns(bool){\r... */\n    tag_24:\n        /* \"LotteryContract.sol\":252:256  bool */\n      0x00\n        /* \"LotteryContract.sol\":272:282  uint index */\n      dup1\n        /* \"LotteryContract.sol\":285:286  0 */\n      0x00\n        /* \"LotteryContract.sol\":272:286  uint index = 0 */\n      swap1\n      pop\n        /* \"LotteryContract.sol\":297:304  players */\n      0x01\n        /* \"LotteryContract.sol\":297:311  players.length */\n      dup1\n      sload\n      swap1\n      pop\n        /* \"LotteryContract.sol\":288:293  index */\n      dup2\n        /* \"LotteryContract.sol\":288:311  index <= players.length */\n      gt\n        /* \"LotteryContract.sol\":268:335  for(uint index = 0; index <= players.length;)\r... */\n      tag_36\n      jumpi\n        /* \"LotteryContract.sol\":330:335  false */\n      0x00\n        /* \"LotteryContract.sol\":323:335  return false */\n      swap2\n      pop\n      pop\n      jump(tag_34)\n        /* \"LotteryContract.sol\":268:335  for(uint index = 0; index <= players.length;)\r... */\n    tag_36:\n      pop\n        /* \"LotteryContract.sol\":212:343  function alreadyEnter() private returns(bool){\r... */\n    tag_34:\n      swap1\n      jump\t// out\n        /* \"#utility.yul\":7:146   */\n    tag_39:\n        /* \"#utility.yul\":53:58   */\n      0x00\n        /* \"#utility.yul\":91:97   */\n      dup2\n        /* \"#utility.yul\":78:98   */\n      calldataload\n        /* \"#utility.yul\":69:98   */\n      swap1\n      pop\n        /* \"#utility.yul\":107:140   */\n      tag_41\n        /* \"#utility.yul\":134:139   */\n      dup2\n        /* \"#utility.yul\":107:140   */\n      tag_42\n      jump\t// in\n    tag_41:\n        /* \"#utility.yul\":7:146   */\n      swap3\n      swap2\n      pop\n      pop\n      jump\t// out\n        /* \"#utility.yul\":152:481   */\n    tag_15:\n        /* \"#utility.yul\":211:217   */\n      0x00\n        /* \"#utility.yul\":260:262   */\n      0x20\n        /* \"#utility.yul\":248:257   */\n      dup3\n        /* \"#utility.yul\":239:246   */\n      dup5\n        /* \"#utility.yul\":235:258   */\n      sub\n        /* \"#utility.yul\":231:263   */\n      slt\n        /* \"#utility.yul\":228:347   */\n      iszero\n      tag_44\n      jumpi\n        /* \"#utility.yul\":266:345   */\n      tag_45\n      tag_46\n      jump\t// in\n    tag_45:\n        /* \"#utility.yul\":228:347   */\n    tag_44:\n        /* \"#utility.yul\":386:387   */\n      0x00\n        /* \"#utility.yul\":411:464   */\n      tag_47\n        /* \"#utility.yul\":456:463   */\n      dup5\n        /* \"#utility.yul\":447:453   */\n      dup3\n        /* \"#utility.yul\":436:445   */\n      dup6\n        /* \"#utility.yul\":432:454   */\n      add\n        /* \"#utility.yul\":411:464   */\n      tag_39\n      jump\t// in\n    tag_47:\n        /* \"#utility.yul\":401:464   */\n      swap2\n      pop\n        /* \"#utility.yul\":357:474   */\n      pop\n        /* \"#utility.yul\":152:481   */\n      swap3\n      swap2\n      pop\n      pop\n      jump\t// out\n        /* \"#utility.yul\":487:629   */\n    tag_48:\n        /* \"#utility.yul\":590:622   */\n      tag_50\n        /* \"#utility.yul\":616:621   */\n      dup2\n        /* \"#utility.yul\":590:622   */\n      tag_51\n      jump\t// in\n    tag_50:\n        /* \"#utility.yul\":585:588   */\n      dup3\n        /* \"#utility.yul\":578:623   */\n      mstore\n        /* \"#utility.yul\":487:629   */\n      pop\n      pop\n      jump\t// out\n        /* \"#utility.yul\":635:753   */\n    tag_52:\n        /* \"#utility.yul\":722:746   */\n      tag_54\n        /* \"#utility.yul\":740:745   */\n      dup2\n        /* \"#utility.yul\":722:746   */\n      tag_55\n      jump\t// in\n    tag_54:\n        /* \"#utility.yul\":717:720   */\n      dup3\n        /* \"#utility.yul\":710:747   */\n      mstore\n        /* \"#utility.yul\":635:753   */\n      pop\n      pop\n      jump\t// out\n        /* \"#utility.yul\":759:1125   */\n    tag_56:\n        /* \"#utility.yul\":901:904   */\n      0x00\n        /* \"#utility.yul\":922:989   */\n      tag_58\n        /* \"#utility.yul\":986:988   */\n      0x1f\n        /* \"#utility.yul\":981:984   */\n      dup4\n        /* \"#utility.yul\":922:989   */\n      tag_59\n      jump\t// in\n    tag_58:\n        /* \"#utility.yul\":915:989   */\n      swap2\n      pop\n        /* \"#utility.yul\":998:1091   */\n      tag_60\n        /* \"#utility.yul\":1087:1090   */\n      dup3\n        /* \"#utility.yul\":998:1091   */\n      tag_61\n      jump\t// in\n    tag_60:\n        /* \"#utility.yul\":1116:1118   */\n      0x20\n        /* \"#utility.yul\":1111:1114   */\n      dup3\n        /* \"#utility.yul\":1107:1119   */\n      add\n        /* \"#utility.yul\":1100:1119   */\n      swap1\n      pop\n        /* \"#utility.yul\":759:1125   */\n      swap2\n      swap1\n      pop\n      jump\t// out\n        /* \"#utility.yul\":1131:1497   */\n    tag_62:\n        /* \"#utility.yul\":1273:1276   */\n      0x00\n        /* \"#utility.yul\":1294:1361   */\n      tag_64\n        /* \"#utility.yul\":1358:1360   */\n      0x2a\n        /* \"#utility.yul\":1353:1356   */\n      dup4\n        /* \"#utility.yul\":1294:1361   */\n      tag_59\n      jump\t// in\n    tag_64:\n        /* \"#utility.yul\":1287:1361   */\n      swap2\n      pop\n        /* \"#utility.yul\":1370:1463   */\n      tag_65\n        /* \"#utility.yul\":1459:1462   */\n      dup3\n        /* \"#utility.yul\":1370:1463   */\n      tag_66\n      jump\t// in\n    tag_65:\n        /* \"#utility.yul\":1488:1490   */\n      0x40\n        /* \"#utility.yul\":1483:1486   */\n      dup3\n        /* \"#utility.yul\":1479:1491   */\n      add\n        /* \"#utility.yul\":1472:1491   */\n      swap1\n      pop\n        /* \"#utility.yul\":1131:1497   */\n      swap2\n      swap1\n      pop\n      jump\t// out\n        /* \"#utility.yul\":1503:1869   */\n    tag_67:\n        /* \"#utility.yul\":1645:1648   */\n      0x00\n        /* \"#utility.yul\":1666:1733   */\n      tag_69\n        /* \"#utility.yul\":1730:1732   */\n      0x33\n        /* \"#utility.yul\":1725:1728   */\n      dup4\n        /* \"#utility.yul\":1666:1733   */\n      tag_59\n      jump\t// in\n    tag_69:\n        /* \"#utility.yul\":1659:1733   */\n      swap2\n      pop\n        /* \"#utility.yul\":1742:1835   */\n      tag_70\n        /* \"#utility.yul\":1831:1834   */\n      dup3\n        /* \"#utility.yul\":1742:1835   */\n      tag_71\n      jump\t// in\n    tag_70:\n        /* \"#utility.yul\":1860:1862   */\n      0x40\n        /* \"#utility.yul\":1855:1858   */\n      dup3\n        /* \"#utility.yul\":1851:1863   */\n      add\n        /* \"#utility.yul\":1844:1863   */\n      swap1\n      pop\n        /* \"#utility.yul\":1503:1869   */\n      swap2\n      swap1\n      pop\n      jump\t// out\n        /* \"#utility.yul\":1875:2097   */\n    tag_11:\n        /* \"#utility.yul\":1968:1972   */\n      0x00\n        /* \"#utility.yul\":2006:2008   */\n      0x20\n        /* \"#utility.yul\":1995:2004   */\n      dup3\n        /* \"#utility.yul\":1991:2009   */\n      add\n        /* \"#utility.yul\":1983:2009   */\n      swap1\n      pop\n        /* \"#utility.yul\":2019:2090   */\n      tag_73\n        /* \"#utility.yul\":2087:2088   */\n      0x00\n        /* \"#utility.yul\":2076:2085   */\n      dup4\n        /* \"#utility.yul\":2072:2089   */\n      add\n        /* \"#utility.yul\":2063:2069   */\n      dup5\n        /* \"#utility.yul\":2019:2090   */\n      tag_52\n      jump\t// in\n    tag_73:\n        /* \"#utility.yul\":1875:2097   */\n      swap3\n      swap2\n      pop\n      pop\n      jump\t// out\n        /* \"#utility.yul\":2103:2357   */\n    tag_18:\n        /* \"#utility.yul\":2212:2216   */\n      0x00\n        /* \"#utility.yul\":2250:2252   */\n      0x20\n        /* \"#utility.yul\":2239:2248   */\n      dup3\n        /* \"#utility.yul\":2235:2253   */\n      add\n        /* \"#utility.yul\":2227:2253   */\n      swap1\n      pop\n        /* \"#utility.yul\":2263:2350   */\n      tag_75\n        /* \"#utility.yul\":2347:2348   */\n      0x00\n        /* \"#utility.yul\":2336:2345   */\n      dup4\n        /* \"#utility.yul\":2332:2349   */\n      add\n        /* \"#utility.yul\":2323:2329   */\n      dup5\n        /* \"#utility.yul\":2263:2350   */\n      tag_48\n      jump\t// in\n    tag_75:\n        /* \"#utility.yul\":2103:2357   */\n      swap3\n      swap2\n      pop\n      pop\n      jump\t// out\n        /* \"#utility.yul\":2363:2782   */\n    tag_27:\n        /* \"#utility.yul\":2529:2533   */\n      0x00\n        /* \"#utility.yul\":2567:2569   */\n      0x20\n        /* \"#utility.yul\":2556:2565   */\n      dup3\n        /* \"#utility.yul\":2552:2570   */\n      add\n        /* \"#utility.yul\":2544:2570   */\n      swap1\n      pop\n        /* \"#utility.yul\":2616:2625   */\n      dup2\n        /* \"#utility.yul\":2610:2614   */\n      dup2\n        /* \"#utility.yul\":2606:2626   */\n      sub\n        /* \"#utility.yul\":2602:2603   */\n      0x00\n        /* \"#utility.yul\":2591:2600   */\n      dup4\n        /* \"#utility.yul\":2587:2604   */\n      add\n        /* \"#utility.yul\":2580:2627   */\n      mstore\n        /* \"#utility.yul\":2644:2775   */\n      tag_77\n        /* \"#utility.yul\":2770:2774   */\n      dup2\n        /* \"#utility.yul\":2644:2775   */\n      tag_56\n      jump\t// in\n    tag_77:\n        /* \"#utility.yul\":2636:2775   */\n      swap1\n      pop\n        /* \"#utility.yul\":2363:2782   */\n      swap2\n      swap1\n      pop\n      jump\t// out\n        /* \"#utility.yul\":2788:3207   */\n    tag_22:\n        /* \"#utility.yul\":2954:2958   */\n      0x00\n        /* \"#utility.yul\":2992:2994   */\n      0x20\n        /* \"#utility.yul\":2981:2990   */\n      dup3\n        /* \"#utility.yul\":2977:2995   */\n      add\n        /* \"#utility.yul\":2969:2995   */\n      swap1\n      pop\n        /* \"#utility.yul\":3041:3050   */\n      dup2\n        /* \"#utility.yul\":3035:3039   */\n      dup2\n        /* \"#utility.yul\":3031:3051   */\n      sub\n        /* \"#utility.yul\":3027:3028   */\n      0x00\n        /* \"#utility.yul\":3016:3025   */\n      dup4\n        /* \"#utility.yul\":3012:3029   */\n      add\n        /* \"#utility.yul\":3005:3052   */\n      mstore\n        /* \"#utility.yul\":3069:3200   */\n      tag_79\n        /* \"#utility.yul\":3195:3199   */\n      dup2\n        /* \"#utility.yul\":3069:3200   */\n      tag_62\n      jump\t// in\n    tag_79:\n        /* \"#utility.yul\":3061:3200   */\n      swap1\n      pop\n        /* \"#utility.yul\":2788:3207   */\n      swap2\n      swap1\n      pop\n      jump\t// out\n        /* \"#utility.yul\":3213:3632   */\n    tag_30:\n        /* \"#utility.yul\":3379:3383   */\n      0x00\n        /* \"#utility.yul\":3417:3419   */\n      0x20\n        /* \"#utility.yul\":3406:3415   */\n      dup3\n        /* \"#utility.yul\":3402:3420   */\n      add\n        /* \"#utility.yul\":3394:3420   */\n      swap1\n      pop\n        /* \"#utility.yul\":3466:3475   */\n      dup2\n        /* \"#utility.yul\":3460:3464   */\n      dup2\n        /* \"#utility.yul\":3456:3476   */\n      sub\n        /* \"#utility.yul\":3452:3453   */\n      0x00\n        /* \"#utility.yul\":3441:3450   */\n      dup4\n        /* \"#utility.yul\":3437:3454   */\n      add\n        /* \"#utility.yul\":3430:3477   */\n      mstore\n        /* \"#utility.yul\":3494:3625   */\n      tag_81\n        /* \"#utility.yul\":3620:3624   */\n      dup2\n        /* \"#utility.yul\":3494:3625   */\n      tag_67\n      jump\t// in\n    tag_81:\n        /* \"#utility.yul\":3486:3625   */\n      swap1\n      pop\n        /* \"#utility.yul\":3213:3632   */\n      swap2\n      swap1\n      pop\n      jump\t// out\n        /* \"#utility.yul\":3719:3888   */\n    tag_59:\n        /* \"#utility.yul\":3803:3814   */\n      0x00\n        /* \"#utility.yul\":3837:3843   */\n      dup3\n        /* \"#utility.yul\":3832:3835   */\n      dup3\n        /* \"#utility.yul\":3825:3844   */\n      mstore\n        /* \"#utility.yul\":3877:3881   */\n      0x20\n        /* \"#utility.yul\":3872:3875   */\n      dup3\n        /* \"#utility.yul\":3868:3882   */\n      add\n        /* \"#utility.yul\":3853:3882   */\n      swap1\n      pop\n        /* \"#utility.yul\":3719:3888   */\n      swap3\n      swap2\n      pop\n      pop\n      jump\t// out\n        /* \"#utility.yul\":3894:3990   */\n    tag_55:\n        /* \"#utility.yul\":3931:3938   */\n      0x00\n        /* \"#utility.yul\":3960:3984   */\n      tag_86\n        /* \"#utility.yul\":3978:3983   */\n      dup3\n        /* \"#utility.yul\":3960:3984   */\n      tag_87\n      jump\t// in\n    tag_86:\n        /* \"#utility.yul\":3949:3984   */\n      swap1\n      pop\n        /* \"#utility.yul\":3894:3990   */\n      swap2\n      swap1\n      pop\n      jump\t// out\n        /* \"#utility.yul\":3996:4100   */\n    tag_51:\n        /* \"#utility.yul\":4041:4048   */\n      0x00\n        /* \"#utility.yul\":4070:4094   */\n      tag_89\n        /* \"#utility.yul\":4088:4093   */\n      dup3\n        /* \"#utility.yul\":4070:4094   */\n      tag_87\n      jump\t// in\n    tag_89:\n        /* \"#utility.yul\":4059:4094   */\n      swap1\n      pop\n        /* \"#utility.yul\":3996:4100   */\n      swap2\n      swap1\n      pop\n      jump\t// out\n        /* \"#utility.yul\":4106:4232   */\n    tag_87:\n        /* \"#utility.yul\":4143:4150   */\n      0x00\n        /* \"#utility.yul\":4183:4225   */\n      0xffffffffffffffffffffffffffffffffffffffff\n        /* \"#utility.yul\":4176:4181   */\n      dup3\n        /* \"#utility.yul\":4172:4226   */\n      and\n        /* \"#utility.yul\":4161:4226   */\n      swap1\n      pop\n        /* \"#utility.yul\":4106:4232   */\n      swap2\n      swap1\n      pop\n      jump\t// out\n        /* \"#utility.yul\":4238:4315   */\n    tag_91:\n        /* \"#utility.yul\":4275:4282   */\n      0x00\n        /* \"#utility.yul\":4304:4309   */\n      dup2\n        /* \"#utility.yul\":4293:4309   */\n      swap1\n      pop\n        /* \"#utility.yul\":4238:4315   */\n      swap2\n      swap1\n      pop\n      jump\t// out\n        /* \"#utility.yul\":4444:4561   */\n    tag_46:\n        /* \"#utility.yul\":4553:4554   */\n      0x00\n        /* \"#utility.yul\":4550:4551   */\n      dup1\n        /* \"#utility.yul\":4543:4555   */\n      revert\n        /* \"#utility.yul\":4567:4748   */\n    tag_61:\n        /* \"#utility.yul\":4707:4740   */\n      0x596f7520616c7265616479206a6f696e6564207468697320636f6e7465737400\n        /* \"#utility.yul\":4703:4704   */\n      0x00\n        /* \"#utility.yul\":4695:4701   */\n      dup3\n        /* \"#utility.yul\":4691:4705   */\n      add\n        /* \"#utility.yul\":4684:4741   */\n      mstore\n        /* \"#utility.yul\":4567:4748   */\n      pop\n      jump\t// out\n        /* \"#utility.yul\":4754:4983   */\n    tag_66:\n        /* \"#utility.yul\":4894:4928   */\n      0x596f752063616e206e6f7420706172746963697061746520617320796f752061\n        /* \"#utility.yul\":4890:4891   */\n      0x00\n        /* \"#utility.yul\":4882:4888   */\n      dup3\n        /* \"#utility.yul\":4878:4892   */\n      add\n        /* \"#utility.yul\":4871:4929   */\n      mstore\n        /* \"#utility.yul\":4963:4975   */\n      0x7265206d616e6167657200000000000000000000000000000000000000000000\n        /* \"#utility.yul\":4958:4960   */\n      0x20\n        /* \"#utility.yul\":4950:4956   */\n      dup3\n        /* \"#utility.yul\":4946:4961   */\n      add\n        /* \"#utility.yul\":4939:4976   */\n      mstore\n        /* \"#utility.yul\":4754:4983   */\n      pop\n      jump\t// out\n        /* \"#utility.yul\":4989:5227   */\n    tag_71:\n        /* \"#utility.yul\":5129:5163   */\n      0x596f75206861766520746f207061792066656573206f66203120657468657220\n        /* \"#utility.yul\":5125:5126   */\n      0x00\n        /* \"#utility.yul\":5117:5123   */\n      dup3\n        /* \"#utility.yul\":5113:5127   */\n      add\n        /* \"#utility.yul\":5106:5164   */\n      mstore\n        /* \"#utility.yul\":5198:5219   */\n      0x666f72206a6f696e696e6720636f6e7465737400000000000000000000000000\n        /* \"#utility.yul\":5193:5195   */\n      0x20\n        /* \"#utility.yul\":5185:5191   */\n      dup3\n        /* \"#utility.yul\":5181:5196   */\n      add\n        /* \"#utility.yul\":5174:5220   */\n      mstore\n        /* \"#utility.yul\":4989:5227   */\n      pop\n      jump\t// out\n        /* \"#utility.yul\":5233:5355   */\n    tag_42:\n        /* \"#utility.yul\":5306:5330   */\n      tag_100\n        /* \"#utility.yul\":5324:5329   */\n      dup2\n        /* \"#utility.yul\":5306:5330   */\n      tag_91\n      jump\t// in\n    tag_100:\n        /* \"#utility.yul\":5299:5304   */\n      dup2\n        /* \"#utility.yul\":5296:5331   */\n      eq\n        /* \"#utility.yul\":5286:5349   */\n      tag_101\n      jumpi\n        /* \"#utility.yul\":5345:5346   */\n      0x00\n        /* \"#utility.yul\":5342:5343   */\n      dup1\n        /* \"#utility.yul\":5335:5347   */\n      revert\n        /* \"#utility.yul\":5286:5349   */\n    tag_101:\n        /* \"#utility.yul\":5233:5355   */\n      pop\n      jump\t// out\n\n    auxdata: 0xa264697066735822122062b7e2a98da9a033ec5ad6a99711aa8cb8afa270b54a6c2a66e0c1dc63df9c2a64736f6c63430008070033\n}\n",
				"bytecode": {
					"linkReferences": {},
					"object": "608060405234801561001057600080fd5b50336000806101000a81548173ffffffffffffffffffffffffffffffffffffffff021916908373ffffffffffffffffffffffffffffffffffffffff160217905550610593806100606000396000f3fe6080604052600436106100345760003560e01c806319b3741714610039578063481c6a7514610043578063f71d96cb1461006e575b600080fd5b6100416100ab565b005b34801561004f57600080fd5b50610058610237565b6040516100659190610385565b60405180910390f35b34801561007a57600080fd5b50610095600480360381019061009091906102d1565b61025b565b6040516100a291906103a0565b60405180910390f35b3373ffffffffffffffffffffffffffffffffffffffff1660008054906101000a900473ffffffffffffffffffffffffffffffffffffffff1673ffffffffffffffffffffffffffffffffffffffff16141561013a576040517f08c379a0000000000000000000000000000000000000000000000000000000008152600401610131906103db565b60405180910390fd5b6000151561014661029a565b151514610188576040517f08c379a000000000000000000000000000000000000000000000000000000000815260040161017f906103bb565b60405180910390fd5b670de0b6b3a764000034146101d2576040517f08c379a00000000000000000000000000000000000000000000000000000000081526004016101c9906103fb565b60405180910390fd5b6001339080600181540180825580915050600190039060005260206000200160009091909190916101000a81548173ffffffffffffffffffffffffffffffffffffffff021916908373ffffffffffffffffffffffffffffffffffffffff160217905550565b60008054906101000a900473ffffffffffffffffffffffffffffffffffffffff1681565b6001818154811061026b57600080fd5b906000526020600020016000915054906101000a900473ffffffffffffffffffffffffffffffffffffffff1681565b6000806000905060018054905081116102b75760009150506102b9565b505b90565b6000813590506102cb81610546565b92915050565b6000602082840312156102e7576102e661047a565b5b60006102f5848285016102bc565b91505092915050565b6103078161043e565b82525050565b6103168161042c565b82525050565b6000610329601f8361041b565b91506103348261047f565b602082019050919050565b600061034c602a8361041b565b9150610357826104a8565b604082019050919050565b600061036f60338361041b565b915061037a826104f7565b604082019050919050565b600060208201905061039a600083018461030d565b92915050565b60006020820190506103b560008301846102fe565b92915050565b600060208201905081810360008301526103d48161031c565b9050919050565b600060208201905081810360008301526103f48161033f565b9050919050565b6000602082019050818103600083015261041481610362565b9050919050565b600082825260208201905092915050565b600061043782610450565b9050919050565b600061044982610450565b9050919050565b600073ffffffffffffffffffffffffffffffffffffffff82169050919050565b6000819050919050565b600080fd5b7f596f7520616c7265616479206a6f696e6564207468697320636f6e7465737400600082015250565b7f596f752063616e206e6f7420706172746963697061746520617320796f75206160008201527f7265206d616e6167657200000000000000000000000000000000000000000000602082015250565b7f596f75206861766520746f207061792066656573206f6620312065746865722060008201527f666f72206a6f696e696e6720636f6e7465737400000000000000000000000000602082015250565b61054f81610470565b811461055a57600080fd5b5056fea264697066735822122062b7e2a98da9a033ec5ad6a99711aa8cb8afa270b54a6c2a66e0c1dc63df9c2a64736f6c63430008070033",
					"opcodes": "PUSH1 0x80 PUSH1 0x40 MSTORE CALLVALUE DUP1 ISZERO PUSH2 0x10 JUMPI PUSH1 0x0 DUP1 REVERT JUMPDEST POP CALLER PUSH1 0x0 DUP1 PUSH2 0x100 EXP DUP2 SLOAD DUP2 PUSH20 0xFFFFFFFFFFFFFFFFFFFFFFFFFFFFFFFFFFFFFFFF MUL NOT AND SWAP1 DUP4 PUSH20 0xFFFFFFFFFFFFFFFFFFFFFFFFFFFFFFFFFFFFFFFF AND MUL OR SWAP1 SSTORE POP PUSH2 0x593 DUP1 PUSH2 0x60 PUSH1 0x0 CODECOPY PUSH1 0x0 RETURN INVALID PUSH1 0x80 PUSH1 0x40 MSTORE PUSH1 0x4 CALLDATASIZE LT PUSH2 0x34 JUMPI PUSH1 0x0 CALLDATALOAD PUSH1 0xE0 SHR DUP1 PUSH4 0x19B37417 EQ PUSH2 0x39 JUMPI DUP1 PUSH4 0x481C6A75 EQ PUSH2 0x43 JUMPI DUP1 PUSH4 0xF71D96CB EQ PUSH2 0x6E JUMPI JUMPDEST PUSH1 0x0 DUP1 REVERT JUMPDEST PUSH2 0x41 PUSH2 0xAB JUMP JUMPDEST STOP JUMPDEST CALLVALUE DUP1 ISZERO PUSH2 0x4F JUMPI PUSH1 0x0 DUP1 REVERT JUMPDEST POP PUSH2 0x58 PUSH2 0x237 JUMP JUMPDEST PUSH1 0x40 MLOAD PUSH2 0x65 SWAP2 SWAP1 PUSH2 0x385 JUMP JUMPDEST PUSH1 0x40 MLOAD DUP1 SWAP2 SUB SWAP1 RETURN JUMPDEST CALLVALUE DUP1 ISZERO PUSH2 0x7A JUMPI PUSH1 0x0 DUP1 REVERT JUMPDEST POP PUSH2 0x95 PUSH1 0x4 DUP1 CALLDATASIZE SUB DUP2 ADD SWAP1 PUSH2 0x90 SWAP2 SWAP1 PUSH2 0x2D1 JUMP JUMPDEST PUSH2 0x25B JUMP JUMPDEST PUSH1 0x40 MLOAD PUSH2 0xA2 SWAP2 SWAP1 PUSH2 0x3A0 JUMP JUMPDEST PUSH1 0x40 MLOAD DUP1 SWAP2 SUB SWAP1 RETURN JUMPDEST CALLER PUSH20 0xFFFFFFFFFFFFFFFFFFFFFFFFFFFFFFFFFFFFFFFF AND PUSH1 0x0 DUP1 SLOAD SWAP1 PUSH2 0x100 EXP SWAP1 DIV PUSH20 0xFFFFFFFFFFFFFFFFFFFFFFFFFFFFFFFFFFFFFFFF AND PUSH20 0xFFFFFFFFFFFFFFFFFFFFFFFFFFFFFFFFFFFFFFFF AND EQ ISZERO PUSH2 0x13A JUMPI PUSH1 0x40 MLOAD PUSH32 0x8C379A000000000000000000000000000000000000000000000000000000000 DUP2 MSTORE PUSH1 0x4 ADD PUSH2 0x131 SWAP1 PUSH2 0x3DB JUMP JUMPDEST PUSH1 0x40 MLOAD DUP1 SWAP2 SUB SWAP1 REVERT JUMPDEST PUSH1 0x0 ISZERO ISZERO PUSH2 0x146 PUSH2 0x29A JUMP JUMPDEST ISZERO ISZERO EQ PUSH2 0x188 JUMPI PUSH1 0x40 MLOAD PUSH32 0x8C379A000000000000000000000000000000000000000000000000000000000 DUP2 MSTORE PUSH1 0x4 ADD PUSH2 0x17F SWAP1 PUSH2 0x3BB JUMP JUMPDEST PUSH1 0x40 MLOAD DUP1 SWAP2 SUB SWAP1 REVERT JUMPDEST PUSH8 0xDE0B6B3A7640000 CALLVALUE EQ PUSH2 0x1D2 JUMPI PUSH1 0x40 MLOAD PUSH32 0x8C379A000000000000000000000000000000000000000000000000000000000 DUP2 MSTORE PUSH1 0x4 ADD PUSH2 0x1C9 SWAP1 PUSH2 0x3FB JUMP JUMPDEST PUSH1 0x40 MLOAD DUP1 SWAP2 SUB SWAP1 REVERT JUMPDEST PUSH1 0x1 CALLER SWAP1 DUP1 PUSH1 0x1 DUP2 SLOAD ADD DUP1 DUP3 SSTORE DUP1 SWAP2 POP POP PUSH1 0x1 SWAP1 SUB SWAP1 PUSH1 0x0 MSTORE PUSH1 0x20 PUSH1 0x0 KECCAK256 ADD PUSH1 0x0 SWAP1 SWAP2 SWAP1 SWAP2 SWAP1 SWAP2 PUSH2 0x100 EXP DUP2 SLOAD DUP2 PUSH20 0xFFFFFFFFFFFFFFFFFFFFFFFFFFFFFFFFFFFFFFFF MUL NOT AND SWAP1 DUP4 PUSH20 0xFFFFFFFFFFFFFFFFFFFFFFFFFFFFFFFFFFFFFFFF AND MUL OR SWAP1 SSTORE POP JUMP JUMPDEST PUSH1 0x0 DUP1 SLOAD SWAP1 PUSH2 0x100 EXP SWAP1 DIV PUSH20 0xFFFFFFFFFFFFFFFFFFFFFFFFFFFFFFFFFFFFFFFF AND DUP2 JUMP JUMPDEST PUSH1 0x1 DUP2 DUP2 SLOAD DUP2 LT PUSH2 0x26B JUMPI PUSH1 0x0 DUP1 REVERT JUMPDEST SWAP1 PUSH1 0x0 MSTORE PUSH1 0x20 PUSH1 0x0 KECCAK256 ADD PUSH1 0x0 SWAP2 POP SLOAD SWAP1 PUSH2 0x100 EXP SWAP1 DIV PUSH20 0xFFFFFFFFFFFFFFFFFFFFFFFFFFFFFFFFFFFFFFFF AND DUP2 JUMP JUMPDEST PUSH1 0x0 DUP1 PUSH1 0x0 SWAP1 POP PUSH1 0x1 DUP1 SLOAD SWAP1 POP DUP2 GT PUSH2 0x2B7 JUMPI PUSH1 0x0 SWAP2 POP POP PUSH2 0x2B9 JUMP JUMPDEST POP JUMPDEST SWAP1 JUMP JUMPDEST PUSH1 0x0 DUP2 CALLDATALOAD SWAP1 POP PUSH2 0x2CB DUP2 PUSH2 0x546 JUMP JUMPDEST SWAP3 SWAP2 POP POP JUMP JUMPDEST PUSH1 0x0 PUSH1 0x20 DUP3 DUP5 SUB SLT ISZERO PUSH2 0x2E7 JUMPI PUSH2 0x2E6 PUSH2 0x47A JUMP JUMPDEST JUMPDEST PUSH1 0x0 PUSH2 0x2F5 DUP5 DUP3 DUP6 ADD PUSH2 0x2BC JUMP JUMPDEST SWAP2 POP POP SWAP3 SWAP2 POP POP JUMP JUMPDEST PUSH2 0x307 DUP2 PUSH2 0x43E JUMP JUMPDEST DUP3 MSTORE POP POP JUMP JUMPDEST PUSH2 0x316 DUP2 PUSH2 0x42C JUMP JUMPDEST DUP3 MSTORE POP POP JUMP JUMPDEST PUSH1 0x0 PUSH2 0x329 PUSH1 0x1F DUP4 PUSH2 0x41B JUMP JUMPDEST SWAP2 POP PUSH2 0x334 DUP3 PUSH2 0x47F JUMP JUMPDEST PUSH1 0x20 DUP3 ADD SWAP1 POP SWAP2 SWAP1 POP JUMP JUMPDEST PUSH1 0x0 PUSH2 0x34C PUSH1 0x2A DUP4 PUSH2 0x41B JUMP JUMPDEST SWAP2 POP PUSH2 0x357 DUP3 PUSH2 0x4A8 JUMP JUMPDEST PUSH1 0x40 DUP3 ADD SWAP1 POP SWAP2 SWAP1 POP JUMP JUMPDEST PUSH1 0x0 PUSH2 0x36F PUSH1 0x33 DUP4 PUSH2 0x41B JUMP JUMPDEST SWAP2 POP PUSH2 0x37A DUP3 PUSH2 0x4F7 JUMP JUMPDEST PUSH1 0x40 DUP3 ADD SWAP1 POP SWAP2 SWAP1 POP JUMP JUMPDEST PUSH1 0x0 PUSH1 0x20 DUP3 ADD SWAP1 POP PUSH2 0x39A PUSH1 0x0 DUP4 ADD DUP5 PUSH2 0x30D JUMP JUMPDEST SWAP3 SWAP2 POP POP JUMP JUMPDEST PUSH1 0x0 PUSH1 0x20 DUP3 ADD SWAP1 POP PUSH2 0x3B5 PUSH1 0x0 DUP4 ADD DUP5 PUSH2 0x2FE JUMP JUMPDEST SWAP3 SWAP2 POP POP JUMP JUMPDEST PUSH1 0x0 PUSH1 0x20 DUP3 ADD SWAP1 POP DUP2 DUP2 SUB PUSH1 0x0 DUP4 ADD MSTORE PUSH2 0x3D4 DUP2 PUSH2 0x31C JUMP JUMPDEST SWAP1 POP SWAP2 SWAP1 POP JUMP JUMPDEST PUSH1 0x0 PUSH1 0x20 DUP3 ADD SWAP1 POP DUP2 DUP2 SUB PUSH1 0x0 DUP4 ADD MSTORE PUSH2 0x3F4 DUP2 PUSH2 0x33F JUMP JUMPDEST SWAP1 POP SWAP2 SWAP1 POP JUMP JUMPDEST PUSH1 0x0 PUSH1 0x20 DUP3 ADD SWAP1 POP DUP2 DUP2 SUB PUSH1 0x0 DUP4 ADD MSTORE PUSH2 0x414 DUP2 PUSH2 0x362 JUMP JUMPDEST SWAP1 POP SWAP2 SWAP1 POP JUMP JUMPDEST PUSH1 0x0 DUP3 DUP3 MSTORE PUSH1 0x20 DUP3 ADD SWAP1 POP SWAP3 SWAP2 POP POP JUMP JUMPDEST PUSH1 0x0 PUSH2 0x437 DUP3 PUSH2 0x450 JUMP JUMPDEST SWAP1 POP SWAP2 SWAP1 POP JUMP JUMPDEST PUSH1 0x0 PUSH2 0x449 DUP3 PUSH2 0x450 JUMP JUMPDEST SWAP1 POP SWAP2 SWAP1 POP JUMP JUMPDEST PUSH1 0x0 PUSH20 0xFFFFFFFFFFFFFFFFFFFFFFFFFFFFFFFFFFFFFFFF DUP3 AND SWAP1 POP SWAP2 SWAP1 POP JUMP JUMPDEST PUSH1 0x0 DUP2 SWAP1 POP SWAP2 SWAP1 POP JUMP JUMPDEST PUSH1 0x0 DUP1 REVERT JUMPDEST PUSH32 0x596F7520616C7265616479206A6F696E6564207468697320636F6E7465737400 PUSH1 0x0 DUP3 ADD MSTORE POP JUMP JUMPDEST PUSH32 0x596F752063616E206E6F7420706172746963697061746520617320796F752061 PUSH1 0x0 DUP3 ADD MSTORE PUSH32 0x7265206D616E6167657200000000000000000000000000000000000000000000 PUSH1 0x20 DUP3 ADD MSTORE POP JUMP JUMPDEST PUSH32 0x596F75206861766520746F207061792066656573206F66203120657468657220 PUSH1 0x0 DUP3 ADD MSTORE PUSH32 0x666F72206A6F696E696E6720636F6E7465737400000000000000000000000000 PUSH1 0x20 DUP3 ADD MSTORE POP JUMP JUMPDEST PUSH2 0x54F DUP2 PUSH2 0x470 JUMP JUMPDEST DUP2 EQ PUSH2 0x55A JUMPI PUSH1 0x0 DUP1 REVERT JUMPDEST POP JUMP INVALID LOG2 PUSH5 0x6970667358 0x22 SLT KECCAK256 PUSH3 0xB7E2A9 DUP14 0xA9 LOG0 CALLER 0xEC GAS 0xD6 0xA9 SWAP8 GT 0xAA DUP13 0xB8 0xAF LOG2 PUSH17 0xB54A6C2A66E0C1DC63DF9C2A64736F6C63 NUMBER STOP ADDMOD SMOD STOP CALLER "
				},
				"gasEstimates": {
					"creation": {
						"codeDepositCost": "285400",
						"executionCost": "24590",
						"totalCost": "309990"
					},
					"external": {
						"ENTER()": "53093",
						"manager()": "2511",
						"players(uint256)": "4978"
					},
					"internal": {
						"alreadyEnter()": "2178",
						"randomToken()": "infinite"
					}
				},
				"methodIdentifiers": {
					"ENTER()": "19b37417",
					"manager()": "481c6a75",
					"players(uint256)": "f71d96cb"
				}
			},
			"storageLayout": {
				"storage": [
					{
						"astId": 3,
						"contract": "LotteryContract.sol:main",
						"label": "manager",
						"offset": 0,
						"slot": "0",
						"type": "t_address"
					},
					{
						"astId": 6,
						"contract": "LotteryContract.sol:main",
						"label": "players",
						"offset": 0,
						"slot": "1",
						"type": "t_array(t_address_payable)dyn_storage"
					}
				],
				"types": {
					"t_address": {
						"encoding": "inplace",
						"label": "address",
						"numberOfBytes": "20"
					},
					"t_address_payable": {
						"encoding": "inplace",
						"label": "address payable",
						"numberOfBytes": "20"
					},
					"t_array(t_address_payable)dyn_storage": {
						"base": "t_address_payable",
						"encoding": "dynamic_array",
						"label": "address payable[]",
						"numberOfBytes": "32"
					}
				}
			},
			"userdoc": {
				"kind": "user",
				"methods": {},
				"version": 1
			}
		}
	}
}