{
	"LotteryContract.sol": {
		"main": {
			"abi": [
				{
					"inputs": [],
					"stateMutability": "nonpayable",
					"type": "constructor"
				},
				{
					"anonymous": false,
					"inputs": [
						{
							"indexed": false,
							"internalType": "uint256",
							"name": "a",
							"type": "uint256"
						}
					],
					"name": "log",
					"type": "event"
				},
				{
					"inputs": [],
					"name": "ENTER",
					"outputs": [],
					"stateMutability": "payable",
					"type": "function"
				},
				{
					"inputs": [],
					"name": "getPlayers",
					"outputs": [
						{
							"internalType": "address payable[]",
							"name": "",
							"type": "address[]"
						}
					],
					"stateMutability": "view",
					"type": "function"
				},
				{
					"inputs": [],
					"name": "manager",
					"outputs": [
						{
							"internalType": "address",
							"name": "",
							"type": "address"
						}
					],
					"stateMutability": "view",
					"type": "function"
				},
				{
					"inputs": [],
					"name": "pickWinner",
					"outputs": [],
					"stateMutability": "nonpayable",
					"type": "function"
				},
				{
					"inputs": [
						{
							"internalType": "uint256",
							"name": "",
							"type": "uint256"
						}
					],
					"name": "players",
					"outputs": [
						{
							"internalType": "address payable",
							"name": "",
							"type": "address"
						}
					],
					"stateMutability": "view",
					"type": "function"
				}
			],
			"devdoc": {
				"kind": "dev",
				"methods": {},
				"version": 1
			},
			"evm": {
				"assembly": "    /* \"LotteryContract.sol\":59:1396  contract main{\r... */\n  mstore(0x40, 0x80)\n    /* \"LotteryContract.sol\":152:204  constructor(){\r... */\n  callvalue\n  dup1\n  iszero\n  tag_1\n  jumpi\n  0x00\n  dup1\n  revert\ntag_1:\n  pop\n    /* \"LotteryContract.sol\":186:196  msg.sender */\n  caller\n    /* \"LotteryContract.sol\":176:183  manager */\n  0x00\n  dup1\n    /* \"LotteryContract.sol\":176:196  manager = msg.sender */\n  0x0100\n  exp\n  dup2\n  sload\n  dup2\n  0xffffffffffffffffffffffffffffffffffffffff\n  mul\n  not\n  and\n  swap1\n  dup4\n  0xffffffffffffffffffffffffffffffffffffffff\n  and\n  mul\n  or\n  swap1\n  sstore\n  pop\n    /* \"LotteryContract.sol\":59:1396  contract main{\r... */\n  dataSize(sub_0)\n  dup1\n  dataOffset(sub_0)\n  0x00\n  codecopy\n  0x00\n  return\nstop\n\nsub_0: assembly {\n        /* \"LotteryContract.sol\":59:1396  contract main{\r... */\n      mstore(0x40, 0x80)\n      jumpi(tag_1, lt(calldatasize, 0x04))\n      shr(0xe0, calldataload(0x00))\n      dup1\n      0x19b37417\n      eq\n      tag_2\n      jumpi\n      dup1\n      0x481c6a75\n      eq\n      tag_3\n      jumpi\n      dup1\n      0x5d495aea\n      eq\n      tag_4\n      jumpi\n      dup1\n      0x8b5b9ccc\n      eq\n      tag_5\n      jumpi\n      dup1\n      0xf71d96cb\n      eq\n      tag_6\n      jumpi\n    tag_1:\n      0x00\n      dup1\n      revert\n        /* \"LotteryContract.sol\":467:810  function ENTER() payable public{\r... */\n    tag_2:\n      tag_7\n      tag_8\n      jump\t// in\n    tag_7:\n      stop\n        /* \"LotteryContract.sol\":81:103  address public manager */\n    tag_3:\n      callvalue\n      dup1\n      iszero\n      tag_9\n      jumpi\n      0x00\n      dup1\n      revert\n    tag_9:\n      pop\n      tag_10\n      tag_11\n      jump\t// in\n    tag_10:\n      mload(0x40)\n      tag_12\n      swap2\n      swap1\n      tag_13\n      jump\t// in\n    tag_12:\n      mload(0x40)\n      dup1\n      swap2\n      sub\n      swap1\n      return\n        /* \"LotteryContract.sol\":993:1283  function pickWinner() public{\r... */\n    tag_4:\n      callvalue\n      dup1\n      iszero\n      tag_14\n      jumpi\n      0x00\n      dup1\n      revert\n    tag_14:\n      pop\n      tag_15\n      tag_16\n      jump\t// in\n    tag_15:\n      stop\n        /* \"LotteryContract.sol\":1291:1391  function getPlayers() view public returns(address payable[] memory){\r... */\n    tag_5:\n      callvalue\n      dup1\n      iszero\n      tag_17\n      jumpi\n      0x00\n      dup1\n      revert\n    tag_17:\n      pop\n      tag_18\n      tag_19\n      jump\t// in\n    tag_18:\n      mload(0x40)\n      tag_20\n      swap2\n      swap1\n      tag_21\n      jump\t// in\n    tag_20:\n      mload(0x40)\n      dup1\n      swap2\n      sub\n      swap1\n      return\n        /* \"LotteryContract.sol\":110:142  address payable[] public players */\n    tag_6:\n      callvalue\n      dup1\n      iszero\n      tag_22\n      jumpi\n      0x00\n      dup1\n      revert\n    tag_22:\n      pop\n      tag_23\n      0x04\n      dup1\n      calldatasize\n      sub\n      dup2\n      add\n      swap1\n      tag_24\n      swap2\n      swap1\n      tag_25\n      jump\t// in\n    tag_24:\n      tag_26\n      jump\t// in\n    tag_23:\n      mload(0x40)\n      tag_27\n      swap2\n      swap1\n      tag_28\n      jump\t// in\n    tag_27:\n      mload(0x40)\n      dup1\n      swap2\n      sub\n      swap1\n      return\n        /* \"LotteryContract.sol\":467:810  function ENTER() payable public{\r... */\n    tag_8:\n        /* \"LotteryContract.sol\":528:538  msg.sender */\n      caller\n        /* \"LotteryContract.sol\":517:538  manager != msg.sender */\n      0xffffffffffffffffffffffffffffffffffffffff\n      and\n        /* \"LotteryContract.sol\":517:524  manager */\n      0x00\n      dup1\n      sload\n      swap1\n      0x0100\n      exp\n      swap1\n      div\n      0xffffffffffffffffffffffffffffffffffffffff\n      and\n        /* \"LotteryContract.sol\":517:538  manager != msg.sender */\n      0xffffffffffffffffffffffffffffffffffffffff\n      and\n      eq\n      iszero\n        /* \"LotteryContract.sol\":509:585  require(manager != msg.sender, \"You can not participate as you are manager\") */\n      tag_30\n      jumpi\n      mload(0x40)\n      0x08c379a000000000000000000000000000000000000000000000000000000000\n      dup2\n      mstore\n      0x04\n      add\n      tag_31\n      swap1\n      tag_32\n      jump\t// in\n    tag_31:\n      mload(0x40)\n      dup1\n      swap2\n      sub\n      swap1\n      revert\n    tag_30:\n        /* \"LotteryContract.sol\":622:627  false */\n      0x00\n        /* \"LotteryContract.sol\":604:627  alreadyEnter() == false */\n      iszero\n      iszero\n        /* \"LotteryContract.sol\":604:618  alreadyEnter() */\n      tag_33\n        /* \"LotteryContract.sol\":604:616  alreadyEnter */\n      tag_34\n        /* \"LotteryContract.sol\":604:618  alreadyEnter() */\n      jump\t// in\n    tag_33:\n        /* \"LotteryContract.sol\":604:627  alreadyEnter() == false */\n      iszero\n      iszero\n      eq\n        /* \"LotteryContract.sol\":596:663  require(alreadyEnter() == false, \"You already joined this contest\") */\n      tag_35\n      jumpi\n      mload(0x40)\n      0x08c379a000000000000000000000000000000000000000000000000000000000\n      dup2\n      mstore\n      0x04\n      add\n      tag_36\n      swap1\n      tag_37\n      jump\t// in\n    tag_36:\n      mload(0x40)\n      dup1\n      swap2\n      sub\n      swap1\n      revert\n    tag_35:\n        /* \"LotteryContract.sol\":695:702  1 ether */\n      0x0de0b6b3a7640000\n        /* \"LotteryContract.sol\":682:691  msg.value */\n      callvalue\n        /* \"LotteryContract.sol\":682:702  msg.value == 1 ether */\n      eq\n        /* \"LotteryContract.sol\":674:758  require(msg.value == 1 ether, \"You have to pay fees of 1 ether for joining contest\") */\n      tag_38\n      jumpi\n      mload(0x40)\n      0x08c379a000000000000000000000000000000000000000000000000000000000\n      dup2\n      mstore\n      0x04\n      add\n      tag_39\n      swap1\n      tag_40\n      jump\t// in\n    tag_39:\n      mload(0x40)\n      dup1\n      swap2\n      sub\n      swap1\n      revert\n    tag_38:\n        /* \"LotteryContract.sol\":769:776  players */\n      0x01\n        /* \"LotteryContract.sol\":790:800  msg.sender */\n      caller\n        /* \"LotteryContract.sol\":769:802  players.push(payable(msg.sender)) */\n      swap1\n      dup1\n      0x01\n      dup2\n      sload\n      add\n      dup1\n      dup3\n      sstore\n      dup1\n      swap2\n      pop\n      pop\n      0x01\n      swap1\n      sub\n      swap1\n      0x00\n      mstore\n      keccak256(0x00, 0x20)\n      add\n      0x00\n      swap1\n      swap2\n      swap1\n      swap2\n      swap1\n      swap2\n      0x0100\n      exp\n      dup2\n      sload\n      dup2\n      0xffffffffffffffffffffffffffffffffffffffff\n      mul\n      not\n      and\n      swap1\n      dup4\n      0xffffffffffffffffffffffffffffffffffffffff\n      and\n      mul\n      or\n      swap1\n      sstore\n      pop\n        /* \"LotteryContract.sol\":467:810  function ENTER() payable public{\r... */\n      jump\t// out\n        /* \"LotteryContract.sol\":81:103  address public manager */\n    tag_11:\n      0x00\n      dup1\n      sload\n      swap1\n      0x0100\n      exp\n      swap1\n      div\n      0xffffffffffffffffffffffffffffffffffffffff\n      and\n      dup2\n      jump\t// out\n        /* \"LotteryContract.sol\":993:1283  function pickWinner() public{\r... */\n    tag_16:\n        /* \"LotteryContract.sol\":1051:1061  msg.sender */\n      caller\n        /* \"LotteryContract.sol\":1040:1061  manager == msg.sender */\n      0xffffffffffffffffffffffffffffffffffffffff\n      and\n        /* \"LotteryContract.sol\":1040:1047  manager */\n      0x00\n      dup1\n      sload\n      swap1\n      0x0100\n      exp\n      swap1\n      div\n      0xffffffffffffffffffffffffffffffffffffffff\n      and\n        /* \"LotteryContract.sol\":1040:1061  manager == msg.sender */\n      0xffffffffffffffffffffffffffffffffffffffff\n      and\n      eq\n        /* \"LotteryContract.sol\":1032:1084  require(manager == msg.sender, \"You can not access\") */\n      tag_43\n      jumpi\n      mload(0x40)\n      0x08c379a000000000000000000000000000000000000000000000000000000000\n      dup2\n      mstore\n      0x04\n      add\n      tag_44\n      swap1\n      tag_45\n      jump\t// in\n    tag_44:\n      mload(0x40)\n      dup1\n      swap2\n      sub\n      swap1\n      revert\n    tag_43:\n        /* \"LotteryContract.sol\":1095:1105  uint index */\n      0x00\n        /* \"LotteryContract.sol\":1117:1124  players */\n      0x01\n        /* \"LotteryContract.sol\":1117:1131  players.length */\n      dup1\n      sload\n      swap1\n      pop\n        /* \"LotteryContract.sol\":1108:1116  random() */\n      tag_46\n        /* \"LotteryContract.sol\":1108:1114  random */\n      tag_47\n        /* \"LotteryContract.sol\":1108:1116  random() */\n      jump\t// in\n    tag_46:\n        /* \"LotteryContract.sol\":1108:1131  random()%players.length */\n      tag_48\n      swap2\n      swap1\n      tag_49\n      jump\t// in\n    tag_48:\n        /* \"LotteryContract.sol\":1095:1131  uint index = random()%players.length */\n      swap1\n      pop\n        /* \"LotteryContract.sol\":1147:1157  log(index) */\n      0xf82c50f1848136e6c140b186ea0c768b7deda5efffe42c25e96336a90b26c744\n        /* \"LotteryContract.sol\":1151:1156  index */\n      dup2\n        /* \"LotteryContract.sol\":1147:1157  log(index) */\n      mload(0x40)\n      tag_50\n      swap2\n      swap1\n      tag_51\n      jump\t// in\n    tag_50:\n      mload(0x40)\n      dup1\n      swap2\n      sub\n      swap1\n      log1\n        /* \"LotteryContract.sol\":1168:1175  players */\n      0x01\n        /* \"LotteryContract.sol\":1176:1181  index */\n      dup2\n        /* \"LotteryContract.sol\":1168:1182  players[index] */\n      dup2\n      sload\n      dup2\n      lt\n      tag_52\n      jumpi\n      tag_53\n      tag_54\n      jump\t// in\n    tag_53:\n    tag_52:\n      swap1\n      0x00\n      mstore\n      keccak256(0x00, 0x20)\n      add\n      0x00\n      swap1\n      sload\n      swap1\n      0x0100\n      exp\n      swap1\n      div\n      0xffffffffffffffffffffffffffffffffffffffff\n      and\n        /* \"LotteryContract.sol\":1168:1191  players[index].transfer */\n      0xffffffffffffffffffffffffffffffffffffffff\n      and\n        /* \"LotteryContract.sol\":1168:1214  players[index].transfer(address(this).balance) */\n      0x08fc\n        /* \"LotteryContract.sol\":1192:1213  address(this).balance */\n      selfbalance\n        /* \"LotteryContract.sol\":1168:1214  players[index].transfer(address(this).balance) */\n      swap1\n      dup2\n      iszero\n      mul\n      swap1\n      mload(0x40)\n      0x00\n      mload(0x40)\n      dup1\n      dup4\n      sub\n      dup2\n      dup6\n      dup9\n      dup9\n      call\n      swap4\n      pop\n      pop\n      pop\n      pop\n      iszero\n      dup1\n      iszero\n      tag_57\n      jumpi\n      returndatasize\n      0x00\n      dup1\n      returndatacopy\n      revert(0x00, returndatasize)\n    tag_57:\n      pop\n        /* \"LotteryContract.sol\":1257:1258  0 */\n      0x00\n        /* \"LotteryContract.sol\":1235:1259  new address payable[](0) */\n      0xffffffffffffffff\n      dup2\n      gt\n      iszero\n      tag_58\n      jumpi\n      tag_59\n      tag_60\n      jump\t// in\n    tag_59:\n    tag_58:\n      mload(0x40)\n      swap1\n      dup1\n      dup3\n      mstore\n      dup1\n      0x20\n      mul\n      0x20\n      add\n      dup3\n      add\n      0x40\n      mstore\n      dup1\n      iszero\n      tag_61\n      jumpi\n      dup2\n      0x20\n      add\n      0x20\n      dup3\n      mul\n      dup1\n      calldatasize\n      dup4\n      calldatacopy\n      dup1\n      dup3\n      add\n      swap2\n      pop\n      pop\n      swap1\n      pop\n    tag_61:\n      pop\n        /* \"LotteryContract.sol\":1225:1232  players */\n      0x01\n        /* \"LotteryContract.sol\":1225:1259  players = new address payable[](0) */\n      swap1\n      dup1\n      mload\n      swap1\n      0x20\n      add\n      swap1\n      tag_62\n      swap3\n      swap2\n      swap1\n      tag_63\n      jump\t// in\n    tag_62:\n      pop\n        /* \"LotteryContract.sol\":1021:1283  {\r... */\n      pop\n        /* \"LotteryContract.sol\":993:1283  function pickWinner() public{\r... */\n      jump\t// out\n        /* \"LotteryContract.sol\":1291:1391  function getPlayers() view public returns(address payable[] memory){\r... */\n    tag_19:\n        /* \"LotteryContract.sol\":1333:1357  address payable[] memory */\n      0x60\n        /* \"LotteryContract.sol\":1376:1383  players */\n      0x01\n        /* \"LotteryContract.sol\":1369:1383  return players */\n      dup1\n      sload\n      dup1\n      0x20\n      mul\n      0x20\n      add\n      mload(0x40)\n      swap1\n      dup2\n      add\n      0x40\n      mstore\n      dup1\n      swap3\n      swap2\n      swap1\n      dup2\n      dup2\n      mstore\n      0x20\n      add\n      dup3\n      dup1\n      sload\n      dup1\n      iszero\n      tag_65\n      jumpi\n      0x20\n      mul\n      dup3\n      add\n      swap2\n      swap1\n      0x00\n      mstore\n      keccak256(0x00, 0x20)\n      swap1\n    tag_66:\n      dup2\n      0x00\n      swap1\n      sload\n      swap1\n      0x0100\n      exp\n      swap1\n      div\n      0xffffffffffffffffffffffffffffffffffffffff\n      and\n      0xffffffffffffffffffffffffffffffffffffffff\n      and\n      dup2\n      mstore\n      0x20\n      add\n      swap1\n      0x01\n      add\n      swap1\n      dup1\n      dup4\n      gt\n      tag_66\n      jumpi\n    tag_65:\n      pop\n      pop\n      pop\n      pop\n      pop\n      swap1\n      pop\n        /* \"LotteryContract.sol\":1291:1391  function getPlayers() view public returns(address payable[] memory){\r... */\n      swap1\n      jump\t// out\n        /* \"LotteryContract.sol\":110:142  address payable[] public players */\n    tag_26:\n      0x01\n      dup2\n      dup2\n      sload\n      dup2\n      lt\n      tag_67\n      jumpi\n      0x00\n      dup1\n      revert\n    tag_67:\n      swap1\n      0x00\n      mstore\n      keccak256(0x00, 0x20)\n      add\n      0x00\n      swap2\n      pop\n      sload\n      swap1\n      0x0100\n      exp\n      swap1\n      div\n      0xffffffffffffffffffffffffffffffffffffffff\n      and\n      dup2\n      jump\t// out\n        /* \"LotteryContract.sol\":212:459  function alreadyEnter() private view returns(bool){\r... */\n    tag_34:\n        /* \"LotteryContract.sol\":257:261  bool */\n      0x00\n        /* \"LotteryContract.sol\":277:287  uint index */\n      dup1\n        /* \"LotteryContract.sol\":290:291  0 */\n      0x00\n        /* \"LotteryContract.sol\":277:291  uint index = 0 */\n      swap1\n      pop\n        /* \"LotteryContract.sol\":273:429  for(uint index = 0; index < players.length; index++){\r... */\n    tag_70:\n        /* \"LotteryContract.sol\":301:308  players */\n      0x01\n        /* \"LotteryContract.sol\":301:315  players.length */\n      dup1\n      sload\n      swap1\n      pop\n        /* \"LotteryContract.sol\":293:298  index */\n      dup2\n        /* \"LotteryContract.sol\":293:315  index < players.length */\n      lt\n        /* \"LotteryContract.sol\":273:429  for(uint index = 0; index < players.length; index++){\r... */\n      iszero\n      tag_71\n      jumpi\n        /* \"LotteryContract.sol\":361:371  msg.sender */\n      caller\n        /* \"LotteryContract.sol\":343:371  players[index] == msg.sender */\n      0xffffffffffffffffffffffffffffffffffffffff\n      and\n        /* \"LotteryContract.sol\":343:350  players */\n      0x01\n        /* \"LotteryContract.sol\":351:356  index */\n      dup3\n        /* \"LotteryContract.sol\":343:357  players[index] */\n      dup2\n      sload\n      dup2\n      lt\n      tag_73\n      jumpi\n      tag_74\n      tag_54\n      jump\t// in\n    tag_74:\n    tag_73:\n      swap1\n      0x00\n      mstore\n      keccak256(0x00, 0x20)\n      add\n      0x00\n      swap1\n      sload\n      swap1\n      0x0100\n      exp\n      swap1\n      div\n      0xffffffffffffffffffffffffffffffffffffffff\n      and\n        /* \"LotteryContract.sol\":343:371  players[index] == msg.sender */\n      0xffffffffffffffffffffffffffffffffffffffff\n      and\n      eq\n        /* \"LotteryContract.sol\":340:418  if(players[index] == msg.sender){\r... */\n      iszero\n      tag_76\n      jumpi\n        /* \"LotteryContract.sol\":398:402  true */\n      0x01\n        /* \"LotteryContract.sol\":391:402  return true */\n      swap2\n      pop\n      pop\n      jump(tag_69)\n        /* \"LotteryContract.sol\":340:418  if(players[index] == msg.sender){\r... */\n    tag_76:\n        /* \"LotteryContract.sol\":317:324  index++ */\n      dup1\n      dup1\n      tag_77\n      swap1\n      tag_78\n      jump\t// in\n    tag_77:\n      swap2\n      pop\n      pop\n        /* \"LotteryContract.sol\":273:429  for(uint index = 0; index < players.length; index++){\r... */\n      jump(tag_70)\n    tag_71:\n      pop\n        /* \"LotteryContract.sol\":446:451  false */\n      0x00\n        /* \"LotteryContract.sol\":439:451  return false */\n      swap1\n      pop\n        /* \"LotteryContract.sol\":212:459  function alreadyEnter() private view returns(bool){\r... */\n    tag_69:\n      swap1\n      jump\t// out\n        /* \"LotteryContract.sol\":844:985  function random() view private returns(uint){\r... */\n    tag_47:\n        /* \"LotteryContract.sol\":883:887  uint */\n      0x00\n        /* \"LotteryContract.sol\":911:976  sha256(abi.encodePacked(block.difficulty, block.number, players)) */\n      0x02\n        /* \"LotteryContract.sol\":935:951  block.difficulty */\n      difficulty\n        /* \"LotteryContract.sol\":953:965  block.number */\n      number\n        /* \"LotteryContract.sol\":967:974  players */\n      0x01\n        /* \"LotteryContract.sol\":918:975  abi.encodePacked(block.difficulty, block.number, players) */\n      add(0x20, mload(0x40))\n      tag_80\n      swap4\n      swap3\n      swap2\n      swap1\n      tag_81\n      jump\t// in\n    tag_80:\n      mload(0x40)\n      0x20\n      dup2\n      dup4\n      sub\n      sub\n      dup2\n      mstore\n      swap1\n      0x40\n      mstore\n        /* \"LotteryContract.sol\":911:976  sha256(abi.encodePacked(block.difficulty, block.number, players)) */\n      mload(0x40)\n      tag_82\n      swap2\n      swap1\n      tag_83\n      jump\t// in\n    tag_82:\n      0x20\n      mload(0x40)\n      dup1\n      dup4\n      sub\n      dup2\n      dup6\n      gas\n      staticcall\n      iszero\n      dup1\n      iszero\n      tag_85\n      jumpi\n      returndatasize\n      0x00\n      dup1\n      returndatacopy\n      revert(0x00, returndatasize)\n    tag_85:\n      pop\n      pop\n      pop\n      mload(0x40)\n      returndatasize\n      not(0x1f)\n      0x1f\n      dup3\n      add\n      and\n      dup3\n      add\n      dup1\n      0x40\n      mstore\n      pop\n      dup2\n      add\n      swap1\n      tag_86\n      swap2\n      swap1\n      tag_87\n      jump\t// in\n    tag_86:\n        /* \"LotteryContract.sol\":906:977  uint(sha256(abi.encodePacked(block.difficulty, block.number, players))) */\n      0x00\n      shr\n        /* \"LotteryContract.sol\":899:977  return uint(sha256(abi.encodePacked(block.difficulty, block.number, players))) */\n      swap1\n      pop\n        /* \"LotteryContract.sol\":844:985  function random() view private returns(uint){\r... */\n      swap1\n      jump\t// out\n    tag_63:\n      dup3\n      dup1\n      sload\n      dup3\n      dup3\n      sstore\n      swap1\n      0x00\n      mstore\n      keccak256(0x00, 0x20)\n      swap1\n      dup2\n      add\n      swap3\n      dup3\n      iszero\n      tag_88\n      jumpi\n      swap2\n      0x20\n      mul\n      dup3\n      add\n    tag_89:\n      dup3\n      dup2\n      gt\n      iszero\n      tag_90\n      jumpi\n      dup3\n      mload\n      dup3\n      exp(0x0100, 0x00)\n      dup2\n      sload\n      dup2\n      0xffffffffffffffffffffffffffffffffffffffff\n      mul\n      not\n      and\n      swap1\n      dup4\n      0xffffffffffffffffffffffffffffffffffffffff\n      and\n      mul\n      or\n      swap1\n      sstore\n      pop\n      swap2\n      0x20\n      add\n      swap2\n      swap1\n      0x01\n      add\n      swap1\n      jump(tag_89)\n    tag_90:\n    tag_88:\n      pop\n      swap1\n      pop\n      tag_91\n      swap2\n      swap1\n      tag_92\n      jump\t// in\n    tag_91:\n      pop\n      swap1\n      jump\t// out\n    tag_92:\n    tag_93:\n      dup1\n      dup3\n      gt\n      iszero\n      tag_94\n      jumpi\n      0x00\n      dup2\n      0x00\n      swap1\n      sstore\n      pop\n      0x01\n      add\n      jump(tag_93)\n    tag_94:\n      pop\n      swap1\n      jump\t// out\n        /* \"#utility.yul\":7:150   */\n    tag_96:\n        /* \"#utility.yul\":64:69   */\n      0x00\n        /* \"#utility.yul\":95:101   */\n      dup2\n        /* \"#utility.yul\":89:102   */\n      mload\n        /* \"#utility.yul\":80:102   */\n      swap1\n      pop\n        /* \"#utility.yul\":111:144   */\n      tag_98\n        /* \"#utility.yul\":138:143   */\n      dup2\n        /* \"#utility.yul\":111:144   */\n      tag_99\n      jump\t// in\n    tag_98:\n        /* \"#utility.yul\":7:150   */\n      swap3\n      swap2\n      pop\n      pop\n      jump\t// out\n        /* \"#utility.yul\":156:295   */\n    tag_100:\n        /* \"#utility.yul\":202:207   */\n      0x00\n        /* \"#utility.yul\":240:246   */\n      dup2\n        /* \"#utility.yul\":227:247   */\n      calldataload\n        /* \"#utility.yul\":218:247   */\n      swap1\n      pop\n        /* \"#utility.yul\":256:289   */\n      tag_102\n        /* \"#utility.yul\":283:288   */\n      dup2\n        /* \"#utility.yul\":256:289   */\n      tag_103\n      jump\t// in\n    tag_102:\n        /* \"#utility.yul\":156:295   */\n      swap3\n      swap2\n      pop\n      pop\n      jump\t// out\n        /* \"#utility.yul\":301:652   */\n    tag_87:\n        /* \"#utility.yul\":371:377   */\n      0x00\n        /* \"#utility.yul\":420:422   */\n      0x20\n        /* \"#utility.yul\":408:417   */\n      dup3\n        /* \"#utility.yul\":399:406   */\n      dup5\n        /* \"#utility.yul\":395:418   */\n      sub\n        /* \"#utility.yul\":391:423   */\n      slt\n        /* \"#utility.yul\":388:507   */\n      iszero\n      tag_105\n      jumpi\n        /* \"#utility.yul\":426:505   */\n      tag_106\n      tag_107\n      jump\t// in\n    tag_106:\n        /* \"#utility.yul\":388:507   */\n    tag_105:\n        /* \"#utility.yul\":546:547   */\n      0x00\n        /* \"#utility.yul\":571:635   */\n      tag_108\n        /* \"#utility.yul\":627:634   */\n      dup5\n        /* \"#utility.yul\":618:624   */\n      dup3\n        /* \"#utility.yul\":607:616   */\n      dup6\n        /* \"#utility.yul\":603:625   */\n      add\n        /* \"#utility.yul\":571:635   */\n      tag_96\n      jump\t// in\n    tag_108:\n        /* \"#utility.yul\":561:635   */\n      swap2\n      pop\n        /* \"#utility.yul\":517:645   */\n      pop\n        /* \"#utility.yul\":301:652   */\n      swap3\n      swap2\n      pop\n      pop\n      jump\t// out\n        /* \"#utility.yul\":658:987   */\n    tag_25:\n        /* \"#utility.yul\":717:723   */\n      0x00\n        /* \"#utility.yul\":766:768   */\n      0x20\n        /* \"#utility.yul\":754:763   */\n      dup3\n        /* \"#utility.yul\":745:752   */\n      dup5\n        /* \"#utility.yul\":741:764   */\n      sub\n        /* \"#utility.yul\":737:769   */\n      slt\n        /* \"#utility.yul\":734:853   */\n      iszero\n      tag_110\n      jumpi\n        /* \"#utility.yul\":772:851   */\n      tag_111\n      tag_107\n      jump\t// in\n    tag_111:\n        /* \"#utility.yul\":734:853   */\n    tag_110:\n        /* \"#utility.yul\":892:893   */\n      0x00\n        /* \"#utility.yul\":917:970   */\n      tag_112\n        /* \"#utility.yul\":962:969   */\n      dup5\n        /* \"#utility.yul\":953:959   */\n      dup3\n        /* \"#utility.yul\":942:951   */\n      dup6\n        /* \"#utility.yul\":938:960   */\n      add\n        /* \"#utility.yul\":917:970   */\n      tag_100\n      jump\t// in\n    tag_112:\n        /* \"#utility.yul\":907:970   */\n      swap2\n      pop\n        /* \"#utility.yul\":863:980   */\n      pop\n        /* \"#utility.yul\":658:987   */\n      swap3\n      swap2\n      pop\n      pop\n      jump\t// out\n        /* \"#utility.yul\":993:1204   */\n    tag_113:\n        /* \"#utility.yul\":1078:1088   */\n      0x00\n        /* \"#utility.yul\":1099:1161   */\n      tag_115\n        /* \"#utility.yul\":1157:1160   */\n      dup4\n        /* \"#utility.yul\":1149:1155   */\n      dup4\n        /* \"#utility.yul\":1099:1161   */\n      tag_116\n      jump\t// in\n    tag_115:\n        /* \"#utility.yul\":1193:1197   */\n      0x20\n        /* \"#utility.yul\":1188:1191   */\n      dup4\n        /* \"#utility.yul\":1184:1198   */\n      add\n        /* \"#utility.yul\":1170:1198   */\n      swap1\n      pop\n        /* \"#utility.yul\":993:1204   */\n      swap3\n      swap2\n      pop\n      pop\n      jump\t// out\n        /* \"#utility.yul\":1210:1437   */\n    tag_117:\n        /* \"#utility.yul\":1303:1313   */\n      0x00\n        /* \"#utility.yul\":1324:1394   */\n      tag_119\n        /* \"#utility.yul\":1390:1393   */\n      dup4\n        /* \"#utility.yul\":1382:1388   */\n      dup4\n        /* \"#utility.yul\":1324:1394   */\n      tag_120\n      jump\t// in\n    tag_119:\n        /* \"#utility.yul\":1426:1430   */\n      0x20\n        /* \"#utility.yul\":1421:1424   */\n      dup4\n        /* \"#utility.yul\":1417:1431   */\n      add\n        /* \"#utility.yul\":1403:1431   */\n      swap1\n      pop\n        /* \"#utility.yul\":1210:1437   */\n      swap3\n      swap2\n      pop\n      pop\n      jump\t// out\n        /* \"#utility.yul\":1443:1575   */\n    tag_116:\n        /* \"#utility.yul\":1536:1568   */\n      tag_122\n        /* \"#utility.yul\":1562:1567   */\n      dup2\n        /* \"#utility.yul\":1536:1568   */\n      tag_123\n      jump\t// in\n    tag_122:\n        /* \"#utility.yul\":1531:1534   */\n      dup3\n        /* \"#utility.yul\":1524:1569   */\n      mstore\n        /* \"#utility.yul\":1443:1575   */\n      pop\n      pop\n      jump\t// out\n        /* \"#utility.yul\":1581:1723   */\n    tag_124:\n        /* \"#utility.yul\":1684:1716   */\n      tag_126\n        /* \"#utility.yul\":1710:1715   */\n      dup2\n        /* \"#utility.yul\":1684:1716   */\n      tag_123\n      jump\t// in\n    tag_126:\n        /* \"#utility.yul\":1679:1682   */\n      dup3\n        /* \"#utility.yul\":1672:1717   */\n      mstore\n        /* \"#utility.yul\":1581:1723   */\n      pop\n      pop\n      jump\t// out\n        /* \"#utility.yul\":1729:1869   */\n    tag_120:\n        /* \"#utility.yul\":1830:1862   */\n      tag_128\n        /* \"#utility.yul\":1856:1861   */\n      dup2\n        /* \"#utility.yul\":1830:1862   */\n      tag_123\n      jump\t// in\n    tag_128:\n        /* \"#utility.yul\":1825:1828   */\n      dup3\n        /* \"#utility.yul\":1818:1863   */\n      mstore\n        /* \"#utility.yul\":1729:1869   */\n      pop\n      pop\n      jump\t// out\n        /* \"#utility.yul\":1875:1993   */\n    tag_129:\n        /* \"#utility.yul\":1962:1986   */\n      tag_131\n        /* \"#utility.yul\":1980:1985   */\n      dup2\n        /* \"#utility.yul\":1962:1986   */\n      tag_132\n      jump\t// in\n    tag_131:\n        /* \"#utility.yul\":1957:1960   */\n      dup3\n        /* \"#utility.yul\":1950:1987   */\n      mstore\n        /* \"#utility.yul\":1875:1993   */\n      pop\n      pop\n      jump\t// out\n        /* \"#utility.yul\":2045:2841   */\n    tag_133:\n        /* \"#utility.yul\":2180:2183   */\n      0x00\n        /* \"#utility.yul\":2209:2271   */\n      tag_135\n        /* \"#utility.yul\":2265:2270   */\n      dup3\n        /* \"#utility.yul\":2209:2271   */\n      tag_136\n      jump\t// in\n    tag_135:\n        /* \"#utility.yul\":2287:2381   */\n      tag_137\n        /* \"#utility.yul\":2374:2380   */\n      dup2\n        /* \"#utility.yul\":2369:2372   */\n      dup6\n        /* \"#utility.yul\":2287:2381   */\n      tag_138\n      jump\t// in\n    tag_137:\n        /* \"#utility.yul\":2280:2381   */\n      swap4\n      pop\n        /* \"#utility.yul\":2405:2469   */\n      tag_139\n        /* \"#utility.yul\":2463:2468   */\n      dup4\n        /* \"#utility.yul\":2405:2469   */\n      tag_140\n      jump\t// in\n    tag_139:\n        /* \"#utility.yul\":2492:2499   */\n      dup1\n        /* \"#utility.yul\":2523:2524   */\n      0x00\n        /* \"#utility.yul\":2508:2816   */\n    tag_141:\n        /* \"#utility.yul\":2533:2539   */\n      dup4\n        /* \"#utility.yul\":2530:2531   */\n      dup2\n        /* \"#utility.yul\":2527:2540   */\n      lt\n        /* \"#utility.yul\":2508:2816   */\n      iszero\n      tag_143\n      jumpi\n        /* \"#utility.yul\":2609:2615   */\n      dup2\n        /* \"#utility.yul\":2603:2616   */\n      mload\n        /* \"#utility.yul\":2636:2715   */\n      tag_144\n        /* \"#utility.yul\":2711:2714   */\n      dup9\n        /* \"#utility.yul\":2696:2709   */\n      dup3\n        /* \"#utility.yul\":2636:2715   */\n      tag_113\n      jump\t// in\n    tag_144:\n        /* \"#utility.yul\":2629:2715   */\n      swap8\n      pop\n        /* \"#utility.yul\":2738:2806   */\n      tag_145\n        /* \"#utility.yul\":2799:2805   */\n      dup4\n        /* \"#utility.yul\":2738:2806   */\n      tag_146\n      jump\t// in\n    tag_145:\n        /* \"#utility.yul\":2728:2806   */\n      swap3\n      pop\n        /* \"#utility.yul\":2568:2816   */\n      pop\n        /* \"#utility.yul\":2555:2556   */\n      0x01\n        /* \"#utility.yul\":2552:2553   */\n      dup2\n        /* \"#utility.yul\":2548:2557   */\n      add\n        /* \"#utility.yul\":2543:2557   */\n      swap1\n      pop\n        /* \"#utility.yul\":2508:2816   */\n      jump(tag_141)\n    tag_143:\n        /* \"#utility.yul\":2512:2526   */\n      pop\n        /* \"#utility.yul\":2832:2835   */\n      dup6\n        /* \"#utility.yul\":2825:2835   */\n      swap4\n      pop\n        /* \"#utility.yul\":2185:2841   */\n      pop\n      pop\n      pop\n        /* \"#utility.yul\":2045:2841   */\n      swap3\n      swap2\n      pop\n      pop\n      jump\t// out\n        /* \"#utility.yul\":2893:3760   */\n    tag_147:\n        /* \"#utility.yul\":3043:3046   */\n      0x00\n        /* \"#utility.yul\":3072:3131   */\n      tag_149\n        /* \"#utility.yul\":3125:3130   */\n      dup3\n        /* \"#utility.yul\":3072:3131   */\n      tag_150\n      jump\t// in\n    tag_149:\n        /* \"#utility.yul\":3147:3259   */\n      tag_151\n        /* \"#utility.yul\":3252:3258   */\n      dup2\n        /* \"#utility.yul\":3247:3250   */\n      dup6\n        /* \"#utility.yul\":3147:3259   */\n      tag_152\n      jump\t// in\n    tag_151:\n        /* \"#utility.yul\":3140:3259   */\n      swap4\n      pop\n        /* \"#utility.yul\":3283:3344   */\n      tag_153\n        /* \"#utility.yul\":3338:3343   */\n      dup4\n        /* \"#utility.yul\":3283:3344   */\n      tag_154\n      jump\t// in\n    tag_153:\n        /* \"#utility.yul\":3367:3374   */\n      dup1\n        /* \"#utility.yul\":3398:3399   */\n      0x00\n        /* \"#utility.yul\":3383:3735   */\n    tag_155:\n        /* \"#utility.yul\":3408:3414   */\n      dup4\n        /* \"#utility.yul\":3405:3406   */\n      dup2\n        /* \"#utility.yul\":3402:3415   */\n      lt\n        /* \"#utility.yul\":3383:3735   */\n      iszero\n      tag_157\n      jumpi\n        /* \"#utility.yul\":3478:3530   */\n      tag_158\n        /* \"#utility.yul\":3523:3529   */\n      dup3\n        /* \"#utility.yul\":3478:3530   */\n      tag_159\n      jump\t// in\n    tag_158:\n        /* \"#utility.yul\":3550:3637   */\n      tag_160\n        /* \"#utility.yul\":3633:3636   */\n      dup9\n        /* \"#utility.yul\":3618:3631   */\n      dup3\n        /* \"#utility.yul\":3550:3637   */\n      tag_117\n      jump\t// in\n    tag_160:\n        /* \"#utility.yul\":3543:3637   */\n      swap8\n      pop\n        /* \"#utility.yul\":3660:3725   */\n      tag_161\n        /* \"#utility.yul\":3718:3724   */\n      dup4\n        /* \"#utility.yul\":3660:3725   */\n      tag_162\n      jump\t// in\n    tag_161:\n        /* \"#utility.yul\":3650:3725   */\n      swap3\n      pop\n        /* \"#utility.yul\":3443:3735   */\n      pop\n        /* \"#utility.yul\":3430:3431   */\n      0x01\n        /* \"#utility.yul\":3427:3428   */\n      dup2\n        /* \"#utility.yul\":3423:3432   */\n      add\n        /* \"#utility.yul\":3418:3432   */\n      swap1\n      pop\n        /* \"#utility.yul\":3383:3735   */\n      jump(tag_155)\n    tag_157:\n        /* \"#utility.yul\":3387:3401   */\n      pop\n        /* \"#utility.yul\":3751:3754   */\n      dup6\n        /* \"#utility.yul\":3744:3754   */\n      swap4\n      pop\n        /* \"#utility.yul\":3048:3760   */\n      pop\n      pop\n      pop\n        /* \"#utility.yul\":2893:3760   */\n      swap3\n      swap2\n      pop\n      pop\n      jump\t// out\n        /* \"#utility.yul\":3766:4139   */\n    tag_163:\n        /* \"#utility.yul\":3870:3873   */\n      0x00\n        /* \"#utility.yul\":3898:3936   */\n      tag_165\n        /* \"#utility.yul\":3930:3935   */\n      dup3\n        /* \"#utility.yul\":3898:3936   */\n      tag_166\n      jump\t// in\n    tag_165:\n        /* \"#utility.yul\":3952:4040   */\n      tag_167\n        /* \"#utility.yul\":4033:4039   */\n      dup2\n        /* \"#utility.yul\":4028:4031   */\n      dup6\n        /* \"#utility.yul\":3952:4040   */\n      tag_168\n      jump\t// in\n    tag_167:\n        /* \"#utility.yul\":3945:4040   */\n      swap4\n      pop\n        /* \"#utility.yul\":4049:4101   */\n      tag_169\n        /* \"#utility.yul\":4094:4100   */\n      dup2\n        /* \"#utility.yul\":4089:4092   */\n      dup6\n        /* \"#utility.yul\":4082:4086   */\n      0x20\n        /* \"#utility.yul\":4075:4080   */\n      dup7\n        /* \"#utility.yul\":4071:4087   */\n      add\n        /* \"#utility.yul\":4049:4101   */\n      tag_170\n      jump\t// in\n    tag_169:\n        /* \"#utility.yul\":4126:4132   */\n      dup1\n        /* \"#utility.yul\":4121:4124   */\n      dup5\n        /* \"#utility.yul\":4117:4133   */\n      add\n        /* \"#utility.yul\":4110:4133   */\n      swap2\n      pop\n        /* \"#utility.yul\":3874:4139   */\n      pop\n        /* \"#utility.yul\":3766:4139   */\n      swap3\n      swap2\n      pop\n      pop\n      jump\t// out\n        /* \"#utility.yul\":4145:4511   */\n    tag_171:\n        /* \"#utility.yul\":4287:4290   */\n      0x00\n        /* \"#utility.yul\":4308:4375   */\n      tag_173\n        /* \"#utility.yul\":4372:4374   */\n      0x12\n        /* \"#utility.yul\":4367:4370   */\n      dup4\n        /* \"#utility.yul\":4308:4375   */\n      tag_174\n      jump\t// in\n    tag_173:\n        /* \"#utility.yul\":4301:4375   */\n      swap2\n      pop\n        /* \"#utility.yul\":4384:4477   */\n      tag_175\n        /* \"#utility.yul\":4473:4476   */\n      dup3\n        /* \"#utility.yul\":4384:4477   */\n      tag_176\n      jump\t// in\n    tag_175:\n        /* \"#utility.yul\":4502:4504   */\n      0x20\n        /* \"#utility.yul\":4497:4500   */\n      dup3\n        /* \"#utility.yul\":4493:4505   */\n      add\n        /* \"#utility.yul\":4486:4505   */\n      swap1\n      pop\n        /* \"#utility.yul\":4145:4511   */\n      swap2\n      swap1\n      pop\n      jump\t// out\n        /* \"#utility.yul\":4517:4883   */\n    tag_177:\n        /* \"#utility.yul\":4659:4662   */\n      0x00\n        /* \"#utility.yul\":4680:4747   */\n      tag_179\n        /* \"#utility.yul\":4744:4746   */\n      0x1f\n        /* \"#utility.yul\":4739:4742   */\n      dup4\n        /* \"#utility.yul\":4680:4747   */\n      tag_174\n      jump\t// in\n    tag_179:\n        /* \"#utility.yul\":4673:4747   */\n      swap2\n      pop\n        /* \"#utility.yul\":4756:4849   */\n      tag_180\n        /* \"#utility.yul\":4845:4848   */\n      dup3\n        /* \"#utility.yul\":4756:4849   */\n      tag_181\n      jump\t// in\n    tag_180:\n        /* \"#utility.yul\":4874:4876   */\n      0x20\n        /* \"#utility.yul\":4869:4872   */\n      dup3\n        /* \"#utility.yul\":4865:4877   */\n      add\n        /* \"#utility.yul\":4858:4877   */\n      swap1\n      pop\n        /* \"#utility.yul\":4517:4883   */\n      swap2\n      swap1\n      pop\n      jump\t// out\n        /* \"#utility.yul\":4889:5255   */\n    tag_182:\n        /* \"#utility.yul\":5031:5034   */\n      0x00\n        /* \"#utility.yul\":5052:5119   */\n      tag_184\n        /* \"#utility.yul\":5116:5118   */\n      0x2a\n        /* \"#utility.yul\":5111:5114   */\n      dup4\n        /* \"#utility.yul\":5052:5119   */\n      tag_174\n      jump\t// in\n    tag_184:\n        /* \"#utility.yul\":5045:5119   */\n      swap2\n      pop\n        /* \"#utility.yul\":5128:5221   */\n      tag_185\n        /* \"#utility.yul\":5217:5220   */\n      dup3\n        /* \"#utility.yul\":5128:5221   */\n      tag_186\n      jump\t// in\n    tag_185:\n        /* \"#utility.yul\":5246:5248   */\n      0x40\n        /* \"#utility.yul\":5241:5244   */\n      dup3\n        /* \"#utility.yul\":5237:5249   */\n      add\n        /* \"#utility.yul\":5230:5249   */\n      swap1\n      pop\n        /* \"#utility.yul\":4889:5255   */\n      swap2\n      swap1\n      pop\n      jump\t// out\n        /* \"#utility.yul\":5261:5627   */\n    tag_187:\n        /* \"#utility.yul\":5403:5406   */\n      0x00\n        /* \"#utility.yul\":5424:5491   */\n      tag_189\n        /* \"#utility.yul\":5488:5490   */\n      0x33\n        /* \"#utility.yul\":5483:5486   */\n      dup4\n        /* \"#utility.yul\":5424:5491   */\n      tag_174\n      jump\t// in\n    tag_189:\n        /* \"#utility.yul\":5417:5491   */\n      swap2\n      pop\n        /* \"#utility.yul\":5500:5593   */\n      tag_190\n        /* \"#utility.yul\":5589:5592   */\n      dup3\n        /* \"#utility.yul\":5500:5593   */\n      tag_191\n      jump\t// in\n    tag_190:\n        /* \"#utility.yul\":5618:5620   */\n      0x40\n        /* \"#utility.yul\":5613:5616   */\n      dup3\n        /* \"#utility.yul\":5609:5621   */\n      add\n        /* \"#utility.yul\":5602:5621   */\n      swap1\n      pop\n        /* \"#utility.yul\":5261:5627   */\n      swap2\n      swap1\n      pop\n      jump\t// out\n        /* \"#utility.yul\":5633:5751   */\n    tag_192:\n        /* \"#utility.yul\":5720:5744   */\n      tag_194\n        /* \"#utility.yul\":5738:5743   */\n      dup2\n        /* \"#utility.yul\":5720:5744   */\n      tag_195\n      jump\t// in\n    tag_194:\n        /* \"#utility.yul\":5715:5718   */\n      dup3\n        /* \"#utility.yul\":5708:5745   */\n      mstore\n        /* \"#utility.yul\":5633:5751   */\n      pop\n      pop\n      jump\t// out\n        /* \"#utility.yul\":5757:5914   */\n    tag_196:\n        /* \"#utility.yul\":5862:5907   */\n      tag_198\n        /* \"#utility.yul\":5882:5906   */\n      tag_199\n        /* \"#utility.yul\":5900:5905   */\n      dup3\n        /* \"#utility.yul\":5882:5906   */\n      tag_195\n      jump\t// in\n    tag_199:\n        /* \"#utility.yul\":5862:5907   */\n      tag_200\n      jump\t// in\n    tag_198:\n        /* \"#utility.yul\":5857:5860   */\n      dup3\n        /* \"#utility.yul\":5850:5908   */\n      mstore\n        /* \"#utility.yul\":5757:5914   */\n      pop\n      pop\n      jump\t// out\n        /* \"#utility.yul\":5920:6191   */\n    tag_83:\n        /* \"#utility.yul\":6050:6053   */\n      0x00\n        /* \"#utility.yul\":6072:6165   */\n      tag_202\n        /* \"#utility.yul\":6161:6164   */\n      dup3\n        /* \"#utility.yul\":6152:6158   */\n      dup5\n        /* \"#utility.yul\":6072:6165   */\n      tag_163\n      jump\t// in\n    tag_202:\n        /* \"#utility.yul\":6065:6165   */\n      swap2\n      pop\n        /* \"#utility.yul\":6182:6185   */\n      dup2\n        /* \"#utility.yul\":6175:6185   */\n      swap1\n      pop\n        /* \"#utility.yul\":5920:6191   */\n      swap3\n      swap2\n      pop\n      pop\n      jump\t// out\n        /* \"#utility.yul\":6197:6840   */\n    tag_81:\n        /* \"#utility.yul\":6428:6431   */\n      0x00\n        /* \"#utility.yul\":6443:6518   */\n      tag_204\n        /* \"#utility.yul\":6514:6517   */\n      dup3\n        /* \"#utility.yul\":6505:6511   */\n      dup7\n        /* \"#utility.yul\":6443:6518   */\n      tag_196\n      jump\t// in\n    tag_204:\n        /* \"#utility.yul\":6543:6545   */\n      0x20\n        /* \"#utility.yul\":6538:6541   */\n      dup3\n        /* \"#utility.yul\":6534:6546   */\n      add\n        /* \"#utility.yul\":6527:6546   */\n      swap2\n      pop\n        /* \"#utility.yul\":6556:6631   */\n      tag_205\n        /* \"#utility.yul\":6627:6630   */\n      dup3\n        /* \"#utility.yul\":6618:6624   */\n      dup6\n        /* \"#utility.yul\":6556:6631   */\n      tag_196\n      jump\t// in\n    tag_205:\n        /* \"#utility.yul\":6656:6658   */\n      0x20\n        /* \"#utility.yul\":6651:6654   */\n      dup3\n        /* \"#utility.yul\":6647:6659   */\n      add\n        /* \"#utility.yul\":6640:6659   */\n      swap2\n      pop\n        /* \"#utility.yul\":6676:6814   */\n      tag_206\n        /* \"#utility.yul\":6810:6813   */\n      dup3\n        /* \"#utility.yul\":6801:6807   */\n      dup5\n        /* \"#utility.yul\":6676:6814   */\n      tag_147\n      jump\t// in\n    tag_206:\n        /* \"#utility.yul\":6669:6814   */\n      swap2\n      pop\n        /* \"#utility.yul\":6831:6834   */\n      dup2\n        /* \"#utility.yul\":6824:6834   */\n      swap1\n      pop\n        /* \"#utility.yul\":6197:6840   */\n      swap5\n      swap4\n      pop\n      pop\n      pop\n      pop\n      jump\t// out\n        /* \"#utility.yul\":6846:7068   */\n    tag_13:\n        /* \"#utility.yul\":6939:6943   */\n      0x00\n        /* \"#utility.yul\":6977:6979   */\n      0x20\n        /* \"#utility.yul\":6966:6975   */\n      dup3\n        /* \"#utility.yul\":6962:6980   */\n      add\n        /* \"#utility.yul\":6954:6980   */\n      swap1\n      pop\n        /* \"#utility.yul\":6990:7061   */\n      tag_208\n        /* \"#utility.yul\":7058:7059   */\n      0x00\n        /* \"#utility.yul\":7047:7056   */\n      dup4\n        /* \"#utility.yul\":7043:7060   */\n      add\n        /* \"#utility.yul\":7034:7040   */\n      dup5\n        /* \"#utility.yul\":6990:7061   */\n      tag_129\n      jump\t// in\n    tag_208:\n        /* \"#utility.yul\":6846:7068   */\n      swap3\n      swap2\n      pop\n      pop\n      jump\t// out\n        /* \"#utility.yul\":7074:7328   */\n    tag_28:\n        /* \"#utility.yul\":7183:7187   */\n      0x00\n        /* \"#utility.yul\":7221:7223   */\n      0x20\n        /* \"#utility.yul\":7210:7219   */\n      dup3\n        /* \"#utility.yul\":7206:7224   */\n      add\n        /* \"#utility.yul\":7198:7224   */\n      swap1\n      pop\n        /* \"#utility.yul\":7234:7321   */\n      tag_210\n        /* \"#utility.yul\":7318:7319   */\n      0x00\n        /* \"#utility.yul\":7307:7316   */\n      dup4\n        /* \"#utility.yul\":7303:7320   */\n      add\n        /* \"#utility.yul\":7294:7300   */\n      dup5\n        /* \"#utility.yul\":7234:7321   */\n      tag_124\n      jump\t// in\n    tag_210:\n        /* \"#utility.yul\":7074:7328   */\n      swap3\n      swap2\n      pop\n      pop\n      jump\t// out\n        /* \"#utility.yul\":7334:7739   */\n    tag_21:\n        /* \"#utility.yul\":7493:7497   */\n      0x00\n        /* \"#utility.yul\":7531:7533   */\n      0x20\n        /* \"#utility.yul\":7520:7529   */\n      dup3\n        /* \"#utility.yul\":7516:7534   */\n      add\n        /* \"#utility.yul\":7508:7534   */\n      swap1\n      pop\n        /* \"#utility.yul\":7580:7589   */\n      dup2\n        /* \"#utility.yul\":7574:7578   */\n      dup2\n        /* \"#utility.yul\":7570:7590   */\n      sub\n        /* \"#utility.yul\":7566:7567   */\n      0x00\n        /* \"#utility.yul\":7555:7564   */\n      dup4\n        /* \"#utility.yul\":7551:7568   */\n      add\n        /* \"#utility.yul\":7544:7591   */\n      mstore\n        /* \"#utility.yul\":7608:7732   */\n      tag_212\n        /* \"#utility.yul\":7727:7731   */\n      dup2\n        /* \"#utility.yul\":7718:7724   */\n      dup5\n        /* \"#utility.yul\":7608:7732   */\n      tag_133\n      jump\t// in\n    tag_212:\n        /* \"#utility.yul\":7600:7732   */\n      swap1\n      pop\n        /* \"#utility.yul\":7334:7739   */\n      swap3\n      swap2\n      pop\n      pop\n      jump\t// out\n        /* \"#utility.yul\":7745:8164   */\n    tag_45:\n        /* \"#utility.yul\":7911:7915   */\n      0x00\n        /* \"#utility.yul\":7949:7951   */\n      0x20\n        /* \"#utility.yul\":7938:7947   */\n      dup3\n        /* \"#utility.yul\":7934:7952   */\n      add\n        /* \"#utility.yul\":7926:7952   */\n      swap1\n      pop\n        /* \"#utility.yul\":7998:8007   */\n      dup2\n        /* \"#utility.yul\":7992:7996   */\n      dup2\n        /* \"#utility.yul\":7988:8008   */\n      sub\n        /* \"#utility.yul\":7984:7985   */\n      0x00\n        /* \"#utility.yul\":7973:7982   */\n      dup4\n        /* \"#utility.yul\":7969:7986   */\n      add\n        /* \"#utility.yul\":7962:8009   */\n      mstore\n        /* \"#utility.yul\":8026:8157   */\n      tag_214\n        /* \"#utility.yul\":8152:8156   */\n      dup2\n        /* \"#utility.yul\":8026:8157   */\n      tag_171\n      jump\t// in\n    tag_214:\n        /* \"#utility.yul\":8018:8157   */\n      swap1\n      pop\n        /* \"#utility.yul\":7745:8164   */\n      swap2\n      swap1\n      pop\n      jump\t// out\n        /* \"#utility.yul\":8170:8589   */\n    tag_37:\n        /* \"#utility.yul\":8336:8340   */\n      0x00\n        /* \"#utility.yul\":8374:8376   */\n      0x20\n        /* \"#utility.yul\":8363:8372   */\n      dup3\n        /* \"#utility.yul\":8359:8377   */\n      add\n        /* \"#utility.yul\":8351:8377   */\n      swap1\n      pop\n        /* \"#utility.yul\":8423:8432   */\n      dup2\n        /* \"#utility.yul\":8417:8421   */\n      dup2\n        /* \"#utility.yul\":8413:8433   */\n      sub\n        /* \"#utility.yul\":8409:8410   */\n      0x00\n        /* \"#utility.yul\":8398:8407   */\n      dup4\n        /* \"#utility.yul\":8394:8411   */\n      add\n        /* \"#utility.yul\":8387:8434   */\n      mstore\n        /* \"#utility.yul\":8451:8582   */\n      tag_216\n        /* \"#utility.yul\":8577:8581   */\n      dup2\n        /* \"#utility.yul\":8451:8582   */\n      tag_177\n      jump\t// in\n    tag_216:\n        /* \"#utility.yul\":8443:8582   */\n      swap1\n      pop\n        /* \"#utility.yul\":8170:8589   */\n      swap2\n      swap1\n      pop\n      jump\t// out\n        /* \"#utility.yul\":8595:9014   */\n    tag_32:\n        /* \"#utility.yul\":8761:8765   */\n      0x00\n        /* \"#utility.yul\":8799:8801   */\n      0x20\n        /* \"#utility.yul\":8788:8797   */\n      dup3\n        /* \"#utility.yul\":8784:8802   */\n      add\n        /* \"#utility.yul\":8776:8802   */\n      swap1\n      pop\n        /* \"#utility.yul\":8848:8857   */\n      dup2\n        /* \"#utility.yul\":8842:8846   */\n      dup2\n        /* \"#utility.yul\":8838:8858   */\n      sub\n        /* \"#utility.yul\":8834:8835   */\n      0x00\n        /* \"#utility.yul\":8823:8832   */\n      dup4\n        /* \"#utility.yul\":8819:8836   */\n      add\n        /* \"#utility.yul\":8812:8859   */\n      mstore\n        /* \"#utility.yul\":8876:9007   */\n      tag_218\n        /* \"#utility.yul\":9002:9006   */\n      dup2\n        /* \"#utility.yul\":8876:9007   */\n      tag_182\n      jump\t// in\n    tag_218:\n        /* \"#utility.yul\":8868:9007   */\n      swap1\n      pop\n        /* \"#utility.yul\":8595:9014   */\n      swap2\n      swap1\n      pop\n      jump\t// out\n        /* \"#utility.yul\":9020:9439   */\n    tag_40:\n        /* \"#utility.yul\":9186:9190   */\n      0x00\n        /* \"#utility.yul\":9224:9226   */\n      0x20\n        /* \"#utility.yul\":9213:9222   */\n      dup3\n        /* \"#utility.yul\":9209:9227   */\n      add\n        /* \"#utility.yul\":9201:9227   */\n      swap1\n      pop\n        /* \"#utility.yul\":9273:9282   */\n      dup2\n        /* \"#utility.yul\":9267:9271   */\n      dup2\n        /* \"#utility.yul\":9263:9283   */\n      sub\n        /* \"#utility.yul\":9259:9260   */\n      0x00\n        /* \"#utility.yul\":9248:9257   */\n      dup4\n        /* \"#utility.yul\":9244:9261   */\n      add\n        /* \"#utility.yul\":9237:9284   */\n      mstore\n        /* \"#utility.yul\":9301:9432   */\n      tag_220\n        /* \"#utility.yul\":9427:9431   */\n      dup2\n        /* \"#utility.yul\":9301:9432   */\n      tag_187\n      jump\t// in\n    tag_220:\n        /* \"#utility.yul\":9293:9432   */\n      swap1\n      pop\n        /* \"#utility.yul\":9020:9439   */\n      swap2\n      swap1\n      pop\n      jump\t// out\n        /* \"#utility.yul\":9445:9667   */\n    tag_51:\n        /* \"#utility.yul\":9538:9542   */\n      0x00\n        /* \"#utility.yul\":9576:9578   */\n      0x20\n        /* \"#utility.yul\":9565:9574   */\n      dup3\n        /* \"#utility.yul\":9561:9579   */\n      add\n        /* \"#utility.yul\":9553:9579   */\n      swap1\n      pop\n        /* \"#utility.yul\":9589:9660   */\n      tag_222\n        /* \"#utility.yul\":9657:9658   */\n      0x00\n        /* \"#utility.yul\":9646:9655   */\n      dup4\n        /* \"#utility.yul\":9642:9659   */\n      add\n        /* \"#utility.yul\":9633:9639   */\n      dup5\n        /* \"#utility.yul\":9589:9660   */\n      tag_192\n      jump\t// in\n    tag_222:\n        /* \"#utility.yul\":9445:9667   */\n      swap3\n      swap2\n      pop\n      pop\n      jump\t// out\n        /* \"#utility.yul\":9754:9894   */\n    tag_140:\n        /* \"#utility.yul\":9829:9833   */\n      0x00\n        /* \"#utility.yul\":9852:9855   */\n      dup2\n        /* \"#utility.yul\":9844:9855   */\n      swap1\n      pop\n        /* \"#utility.yul\":9882:9886   */\n      0x20\n        /* \"#utility.yul\":9877:9880   */\n      dup3\n        /* \"#utility.yul\":9873:9887   */\n      add\n        /* \"#utility.yul\":9865:9887   */\n      swap1\n      pop\n        /* \"#utility.yul\":9754:9894   */\n      swap2\n      swap1\n      pop\n      jump\t// out\n        /* \"#utility.yul\":9900:10064   */\n    tag_154:\n        /* \"#utility.yul\":9972:9976   */\n      0x00\n        /* \"#utility.yul\":9995:9998   */\n      dup2\n        /* \"#utility.yul\":9987:9998   */\n      swap1\n      pop\n        /* \"#utility.yul\":10018:10021   */\n      dup2\n        /* \"#utility.yul\":10015:10016   */\n      0x00\n        /* \"#utility.yul\":10008:10022   */\n      mstore\n        /* \"#utility.yul\":10052:10056   */\n      0x20\n        /* \"#utility.yul\":10049:10050   */\n      0x00\n        /* \"#utility.yul\":10039:10057   */\n      keccak256\n        /* \"#utility.yul\":10031:10057   */\n      swap1\n      pop\n        /* \"#utility.yul\":9900:10064   */\n      swap2\n      swap1\n      pop\n      jump\t// out\n        /* \"#utility.yul\":10070:10192   */\n    tag_136:\n        /* \"#utility.yul\":10145:10151   */\n      0x00\n        /* \"#utility.yul\":10179:10184   */\n      dup2\n        /* \"#utility.yul\":10173:10185   */\n      mload\n        /* \"#utility.yul\":10163:10185   */\n      swap1\n      pop\n        /* \"#utility.yul\":10070:10192   */\n      swap2\n      swap1\n      pop\n      jump\t// out\n        /* \"#utility.yul\":10198:10317   */\n    tag_150:\n        /* \"#utility.yul\":10270:10276   */\n      0x00\n        /* \"#utility.yul\":10304:10309   */\n      dup2\n        /* \"#utility.yul\":10298:10310   */\n      sload\n        /* \"#utility.yul\":10288:10310   */\n      swap1\n      pop\n        /* \"#utility.yul\":10198:10317   */\n      swap2\n      swap1\n      pop\n      jump\t// out\n        /* \"#utility.yul\":10323:10421   */\n    tag_166:\n        /* \"#utility.yul\":10374:10380   */\n      0x00\n        /* \"#utility.yul\":10408:10413   */\n      dup2\n        /* \"#utility.yul\":10402:10414   */\n      mload\n        /* \"#utility.yul\":10392:10414   */\n      swap1\n      pop\n        /* \"#utility.yul\":10323:10421   */\n      swap2\n      swap1\n      pop\n      jump\t// out\n        /* \"#utility.yul\":10427:10548   */\n    tag_146:\n        /* \"#utility.yul\":10505:10509   */\n      0x00\n        /* \"#utility.yul\":10537:10541   */\n      0x20\n        /* \"#utility.yul\":10532:10535   */\n      dup3\n        /* \"#utility.yul\":10528:10542   */\n      add\n        /* \"#utility.yul\":10520:10542   */\n      swap1\n      pop\n        /* \"#utility.yul\":10427:10548   */\n      swap2\n      swap1\n      pop\n      jump\t// out\n        /* \"#utility.yul\":10554:10672   */\n    tag_162:\n        /* \"#utility.yul\":10629:10633   */\n      0x00\n        /* \"#utility.yul\":10661:10665   */\n      0x01\n        /* \"#utility.yul\":10656:10659   */\n      dup3\n        /* \"#utility.yul\":10652:10666   */\n      add\n        /* \"#utility.yul\":10644:10666   */\n      swap1\n      pop\n        /* \"#utility.yul\":10554:10672   */\n      swap2\n      swap1\n      pop\n      jump\t// out\n        /* \"#utility.yul\":10678:10870   */\n    tag_138:\n        /* \"#utility.yul\":10785:10796   */\n      0x00\n        /* \"#utility.yul\":10819:10825   */\n      dup3\n        /* \"#utility.yul\":10814:10817   */\n      dup3\n        /* \"#utility.yul\":10807:10826   */\n      mstore\n        /* \"#utility.yul\":10859:10863   */\n      0x20\n        /* \"#utility.yul\":10854:10857   */\n      dup3\n        /* \"#utility.yul\":10850:10864   */\n      add\n        /* \"#utility.yul\":10835:10864   */\n      swap1\n      pop\n        /* \"#utility.yul\":10678:10870   */\n      swap3\n      swap2\n      pop\n      pop\n      jump\t// out\n        /* \"#utility.yul\":10876:11047   */\n    tag_152:\n        /* \"#utility.yul\":11001:11012   */\n      0x00\n        /* \"#utility.yul\":11038:11041   */\n      dup2\n        /* \"#utility.yul\":11023:11041   */\n      swap1\n      pop\n        /* \"#utility.yul\":10876:11047   */\n      swap3\n      swap2\n      pop\n      pop\n      jump\t// out\n        /* \"#utility.yul\":11053:11200   */\n    tag_168:\n        /* \"#utility.yul\":11154:11165   */\n      0x00\n        /* \"#utility.yul\":11191:11194   */\n      dup2\n        /* \"#utility.yul\":11176:11194   */\n      swap1\n      pop\n        /* \"#utility.yul\":11053:11200   */\n      swap3\n      swap2\n      pop\n      pop\n      jump\t// out\n        /* \"#utility.yul\":11206:11375   */\n    tag_174:\n        /* \"#utility.yul\":11290:11301   */\n      0x00\n        /* \"#utility.yul\":11324:11330   */\n      dup3\n        /* \"#utility.yul\":11319:11322   */\n      dup3\n        /* \"#utility.yul\":11312:11331   */\n      mstore\n        /* \"#utility.yul\":11364:11368   */\n      0x20\n        /* \"#utility.yul\":11359:11362   */\n      dup3\n        /* \"#utility.yul\":11355:11369   */\n      add\n        /* \"#utility.yul\":11340:11369   */\n      swap1\n      pop\n        /* \"#utility.yul\":11206:11375   */\n      swap3\n      swap2\n      pop\n      pop\n      jump\t// out\n        /* \"#utility.yul\":11381:11528   */\n    tag_236:\n        /* \"#utility.yul\":11439:11446   */\n      0x00\n        /* \"#utility.yul\":11479:11521   */\n      0xffffffffffffffffffffffffffffffffffffffff\n        /* \"#utility.yul\":11472:11477   */\n      dup3\n        /* \"#utility.yul\":11468:11522   */\n      and\n        /* \"#utility.yul\":11457:11522   */\n      swap1\n      pop\n        /* \"#utility.yul\":11381:11528   */\n      swap2\n      swap1\n      pop\n      jump\t// out\n        /* \"#utility.yul\":11534:11630   */\n    tag_132:\n        /* \"#utility.yul\":11571:11578   */\n      0x00\n        /* \"#utility.yul\":11600:11624   */\n      tag_239\n        /* \"#utility.yul\":11618:11623   */\n      dup3\n        /* \"#utility.yul\":11600:11624   */\n      tag_240\n      jump\t// in\n    tag_239:\n        /* \"#utility.yul\":11589:11624   */\n      swap1\n      pop\n        /* \"#utility.yul\":11534:11630   */\n      swap2\n      swap1\n      pop\n      jump\t// out\n        /* \"#utility.yul\":11636:11740   */\n    tag_123:\n        /* \"#utility.yul\":11681:11688   */\n      0x00\n        /* \"#utility.yul\":11710:11734   */\n      tag_242\n        /* \"#utility.yul\":11728:11733   */\n      dup3\n        /* \"#utility.yul\":11710:11734   */\n      tag_240\n      jump\t// in\n    tag_242:\n        /* \"#utility.yul\":11699:11734   */\n      swap1\n      pop\n        /* \"#utility.yul\":11636:11740   */\n      swap2\n      swap1\n      pop\n      jump\t// out\n        /* \"#utility.yul\":11746:11823   */\n    tag_243:\n        /* \"#utility.yul\":11783:11790   */\n      0x00\n        /* \"#utility.yul\":11812:11817   */\n      dup2\n        /* \"#utility.yul\":11801:11817   */\n      swap1\n      pop\n        /* \"#utility.yul\":11746:11823   */\n      swap2\n      swap1\n      pop\n      jump\t// out\n        /* \"#utility.yul\":11829:11955   */\n    tag_240:\n        /* \"#utility.yul\":11866:11873   */\n      0x00\n        /* \"#utility.yul\":11906:11948   */\n      0xffffffffffffffffffffffffffffffffffffffff\n        /* \"#utility.yul\":11899:11904   */\n      dup3\n        /* \"#utility.yul\":11895:11949   */\n      and\n        /* \"#utility.yul\":11884:11949   */\n      swap1\n      pop\n        /* \"#utility.yul\":11829:11955   */\n      swap2\n      swap1\n      pop\n      jump\t// out\n        /* \"#utility.yul\":11961:12038   */\n    tag_195:\n        /* \"#utility.yul\":11998:12005   */\n      0x00\n        /* \"#utility.yul\":12027:12032   */\n      dup2\n        /* \"#utility.yul\":12016:12032   */\n      swap1\n      pop\n        /* \"#utility.yul\":11961:12038   */\n      swap2\n      swap1\n      pop\n      jump\t// out\n        /* \"#utility.yul\":12044:12351   */\n    tag_170:\n        /* \"#utility.yul\":12112:12113   */\n      0x00\n        /* \"#utility.yul\":12122:12235   */\n    tag_248:\n        /* \"#utility.yul\":12136:12142   */\n      dup4\n        /* \"#utility.yul\":12133:12134   */\n      dup2\n        /* \"#utility.yul\":12130:12143   */\n      lt\n        /* \"#utility.yul\":12122:12235   */\n      iszero\n      tag_250\n      jumpi\n        /* \"#utility.yul\":12221:12222   */\n      dup1\n        /* \"#utility.yul\":12216:12219   */\n      dup3\n        /* \"#utility.yul\":12212:12223   */\n      add\n        /* \"#utility.yul\":12206:12224   */\n      mload\n        /* \"#utility.yul\":12202:12203   */\n      dup2\n        /* \"#utility.yul\":12197:12200   */\n      dup5\n        /* \"#utility.yul\":12193:12204   */\n      add\n        /* \"#utility.yul\":12186:12225   */\n      mstore\n        /* \"#utility.yul\":12158:12160   */\n      0x20\n        /* \"#utility.yul\":12155:12156   */\n      dup2\n        /* \"#utility.yul\":12151:12161   */\n      add\n        /* \"#utility.yul\":12146:12161   */\n      swap1\n      pop\n        /* \"#utility.yul\":12122:12235   */\n      jump(tag_248)\n    tag_250:\n        /* \"#utility.yul\":12253:12259   */\n      dup4\n        /* \"#utility.yul\":12250:12251   */\n      dup2\n        /* \"#utility.yul\":12247:12260   */\n      gt\n        /* \"#utility.yul\":12244:12345   */\n      iszero\n      tag_251\n      jumpi\n        /* \"#utility.yul\":12333:12334   */\n      0x00\n        /* \"#utility.yul\":12324:12330   */\n      dup5\n        /* \"#utility.yul\":12319:12322   */\n      dup5\n        /* \"#utility.yul\":12315:12331   */\n      add\n        /* \"#utility.yul\":12308:12335   */\n      mstore\n        /* \"#utility.yul\":12244:12345   */\n    tag_251:\n        /* \"#utility.yul\":12093:12351   */\n      pop\n        /* \"#utility.yul\":12044:12351   */\n      pop\n      pop\n      pop\n      jump\t// out\n        /* \"#utility.yul\":12357:12539   */\n    tag_252:\n        /* \"#utility.yul\":12434:12439   */\n      0x00\n        /* \"#utility.yul\":12459:12533   */\n      tag_254\n        /* \"#utility.yul\":12498:12532   */\n      tag_255\n        /* \"#utility.yul\":12521:12531   */\n      dup4\n        /* \"#utility.yul\":12498:12532   */\n      tag_256\n      jump\t// in\n    tag_255:\n        /* \"#utility.yul\":12459:12533   */\n      tag_236\n      jump\t// in\n    tag_254:\n        /* \"#utility.yul\":12450:12533   */\n      swap1\n      pop\n        /* \"#utility.yul\":12357:12539   */\n      swap2\n      swap1\n      pop\n      jump\t// out\n        /* \"#utility.yul\":12545:12778   */\n    tag_78:\n        /* \"#utility.yul\":12584:12587   */\n      0x00\n        /* \"#utility.yul\":12607:12631   */\n      tag_258\n        /* \"#utility.yul\":12625:12630   */\n      dup3\n        /* \"#utility.yul\":12607:12631   */\n      tag_195\n      jump\t// in\n    tag_258:\n        /* \"#utility.yul\":12598:12631   */\n      swap2\n      pop\n        /* \"#utility.yul\":12653:12719   */\n      0xffffffffffffffffffffffffffffffffffffffffffffffffffffffffffffffff\n        /* \"#utility.yul\":12646:12651   */\n      dup3\n        /* \"#utility.yul\":12643:12720   */\n      eq\n        /* \"#utility.yul\":12640:12743   */\n      iszero\n      tag_259\n      jumpi\n        /* \"#utility.yul\":12723:12741   */\n      tag_260\n      tag_261\n      jump\t// in\n    tag_260:\n        /* \"#utility.yul\":12640:12743   */\n    tag_259:\n        /* \"#utility.yul\":12770:12771   */\n      0x01\n        /* \"#utility.yul\":12763:12768   */\n      dup3\n        /* \"#utility.yul\":12759:12772   */\n      add\n        /* \"#utility.yul\":12752:12772   */\n      swap1\n      pop\n        /* \"#utility.yul\":12545:12778   */\n      swap2\n      swap1\n      pop\n      jump\t// out\n        /* \"#utility.yul\":12784:12863   */\n    tag_200:\n        /* \"#utility.yul\":12823:12830   */\n      0x00\n        /* \"#utility.yul\":12852:12857   */\n      dup2\n        /* \"#utility.yul\":12841:12857   */\n      swap1\n      pop\n        /* \"#utility.yul\":12784:12863   */\n      swap2\n      swap1\n      pop\n      jump\t// out\n        /* \"#utility.yul\":12869:13045   */\n    tag_49:\n        /* \"#utility.yul\":12901:12902   */\n      0x00\n        /* \"#utility.yul\":12918:12938   */\n      tag_264\n        /* \"#utility.yul\":12936:12937   */\n      dup3\n        /* \"#utility.yul\":12918:12938   */\n      tag_195\n      jump\t// in\n    tag_264:\n        /* \"#utility.yul\":12913:12938   */\n      swap2\n      pop\n        /* \"#utility.yul\":12952:12972   */\n      tag_265\n        /* \"#utility.yul\":12970:12971   */\n      dup4\n        /* \"#utility.yul\":12952:12972   */\n      tag_195\n      jump\t// in\n    tag_265:\n        /* \"#utility.yul\":12947:12972   */\n      swap3\n      pop\n        /* \"#utility.yul\":12991:12992   */\n      dup3\n        /* \"#utility.yul\":12981:13016   */\n      tag_266\n      jumpi\n        /* \"#utility.yul\":12996:13014   */\n      tag_267\n      tag_268\n      jump\t// in\n    tag_267:\n        /* \"#utility.yul\":12981:13016   */\n    tag_266:\n        /* \"#utility.yul\":13037:13038   */\n      dup3\n        /* \"#utility.yul\":13034:13035   */\n      dup3\n        /* \"#utility.yul\":13030:13039   */\n      mod\n        /* \"#utility.yul\":13025:13039   */\n      swap1\n      pop\n        /* \"#utility.yul\":12869:13045   */\n      swap3\n      swap2\n      pop\n      pop\n      jump\t// out\n        /* \"#utility.yul\":13051:13231   */\n    tag_261:\n        /* \"#utility.yul\":13099:13176   */\n      0x4e487b7100000000000000000000000000000000000000000000000000000000\n        /* \"#utility.yul\":13096:13097   */\n      0x00\n        /* \"#utility.yul\":13089:13177   */\n      mstore\n        /* \"#utility.yul\":13196:13200   */\n      0x11\n        /* \"#utility.yul\":13193:13194   */\n      0x04\n        /* \"#utility.yul\":13186:13201   */\n      mstore\n        /* \"#utility.yul\":13220:13224   */\n      0x24\n        /* \"#utility.yul\":13217:13218   */\n      0x00\n        /* \"#utility.yul\":13210:13225   */\n      revert\n        /* \"#utility.yul\":13237:13417   */\n    tag_268:\n        /* \"#utility.yul\":13285:13362   */\n      0x4e487b7100000000000000000000000000000000000000000000000000000000\n        /* \"#utility.yul\":13282:13283   */\n      0x00\n        /* \"#utility.yul\":13275:13363   */\n      mstore\n        /* \"#utility.yul\":13382:13386   */\n      0x12\n        /* \"#utility.yul\":13379:13380   */\n      0x04\n        /* \"#utility.yul\":13372:13387   */\n      mstore\n        /* \"#utility.yul\":13406:13410   */\n      0x24\n        /* \"#utility.yul\":13403:13404   */\n      0x00\n        /* \"#utility.yul\":13396:13411   */\n      revert\n        /* \"#utility.yul\":13423:13603   */\n    tag_54:\n        /* \"#utility.yul\":13471:13548   */\n      0x4e487b7100000000000000000000000000000000000000000000000000000000\n        /* \"#utility.yul\":13468:13469   */\n      0x00\n        /* \"#utility.yul\":13461:13549   */\n      mstore\n        /* \"#utility.yul\":13568:13572   */\n      0x32\n        /* \"#utility.yul\":13565:13566   */\n      0x04\n        /* \"#utility.yul\":13558:13573   */\n      mstore\n        /* \"#utility.yul\":13592:13596   */\n      0x24\n        /* \"#utility.yul\":13589:13590   */\n      0x00\n        /* \"#utility.yul\":13582:13597   */\n      revert\n        /* \"#utility.yul\":13609:13789   */\n    tag_60:\n        /* \"#utility.yul\":13657:13734   */\n      0x4e487b7100000000000000000000000000000000000000000000000000000000\n        /* \"#utility.yul\":13654:13655   */\n      0x00\n        /* \"#utility.yul\":13647:13735   */\n      mstore\n        /* \"#utility.yul\":13754:13758   */\n      0x41\n        /* \"#utility.yul\":13751:13752   */\n      0x04\n        /* \"#utility.yul\":13744:13759   */\n      mstore\n        /* \"#utility.yul\":13778:13782   */\n      0x24\n        /* \"#utility.yul\":13775:13776   */\n      0x00\n        /* \"#utility.yul\":13768:13783   */\n      revert\n        /* \"#utility.yul\":13795:13955   */\n    tag_159:\n        /* \"#utility.yul\":13858:13863   */\n      0x00\n        /* \"#utility.yul\":13883:13948   */\n      tag_274\n        /* \"#utility.yul\":13942:13946   */\n      dup3\n        /* \"#utility.yul\":13936:13947   */\n      sload\n        /* \"#utility.yul\":13883:13948   */\n      tag_252\n      jump\t// in\n    tag_274:\n        /* \"#utility.yul\":13874:13948   */\n      swap1\n      pop\n        /* \"#utility.yul\":13795:13955   */\n      swap2\n      swap1\n      pop\n      jump\t// out\n        /* \"#utility.yul\":14084:14201   */\n    tag_107:\n        /* \"#utility.yul\":14193:14194   */\n      0x00\n        /* \"#utility.yul\":14190:14191   */\n      dup1\n        /* \"#utility.yul\":14183:14195   */\n      revert\n        /* \"#utility.yul\":14207:14309   */\n    tag_256:\n        /* \"#utility.yul\":14249:14257   */\n      0x00\n        /* \"#utility.yul\":14296:14301   */\n      dup2\n        /* \"#utility.yul\":14293:14294   */\n      0x00\n        /* \"#utility.yul\":14289:14302   */\n      shr\n        /* \"#utility.yul\":14268:14302   */\n      swap1\n      pop\n        /* \"#utility.yul\":14207:14309   */\n      swap2\n      swap1\n      pop\n      jump\t// out\n        /* \"#utility.yul\":14315:14483   */\n    tag_176:\n        /* \"#utility.yul\":14455:14475   */\n      0x596f752063616e206e6f74206163636573730000000000000000000000000000\n        /* \"#utility.yul\":14451:14452   */\n      0x00\n        /* \"#utility.yul\":14443:14449   */\n      dup3\n        /* \"#utility.yul\":14439:14453   */\n      add\n        /* \"#utility.yul\":14432:14476   */\n      mstore\n        /* \"#utility.yul\":14315:14483   */\n      pop\n      jump\t// out\n        /* \"#utility.yul\":14489:14670   */\n    tag_181:\n        /* \"#utility.yul\":14629:14662   */\n      0x596f7520616c7265616479206a6f696e6564207468697320636f6e7465737400\n        /* \"#utility.yul\":14625:14626   */\n      0x00\n        /* \"#utility.yul\":14617:14623   */\n      dup3\n        /* \"#utility.yul\":14613:14627   */\n      add\n        /* \"#utility.yul\":14606:14663   */\n      mstore\n        /* \"#utility.yul\":14489:14670   */\n      pop\n      jump\t// out\n        /* \"#utility.yul\":14676:14905   */\n    tag_186:\n        /* \"#utility.yul\":14816:14850   */\n      0x596f752063616e206e6f7420706172746963697061746520617320796f752061\n        /* \"#utility.yul\":14812:14813   */\n      0x00\n        /* \"#utility.yul\":14804:14810   */\n      dup3\n        /* \"#utility.yul\":14800:14814   */\n      add\n        /* \"#utility.yul\":14793:14851   */\n      mstore\n        /* \"#utility.yul\":14885:14897   */\n      0x7265206d616e6167657200000000000000000000000000000000000000000000\n        /* \"#utility.yul\":14880:14882   */\n      0x20\n        /* \"#utility.yul\":14872:14878   */\n      dup3\n        /* \"#utility.yul\":14868:14883   */\n      add\n        /* \"#utility.yul\":14861:14898   */\n      mstore\n        /* \"#utility.yul\":14676:14905   */\n      pop\n      jump\t// out\n        /* \"#utility.yul\":14911:15149   */\n    tag_191:\n        /* \"#utility.yul\":15051:15085   */\n      0x596f75206861766520746f207061792066656573206f66203120657468657220\n        /* \"#utility.yul\":15047:15048   */\n      0x00\n        /* \"#utility.yul\":15039:15045   */\n      dup3\n        /* \"#utility.yul\":15035:15049   */\n      add\n        /* \"#utility.yul\":15028:15086   */\n      mstore\n        /* \"#utility.yul\":15120:15141   */\n      0x666f72206a6f696e696e6720636f6e7465737400000000000000000000000000\n        /* \"#utility.yul\":15115:15117   */\n      0x20\n        /* \"#utility.yul\":15107:15113   */\n      dup3\n        /* \"#utility.yul\":15103:15118   */\n      add\n        /* \"#utility.yul\":15096:15142   */\n      mstore\n        /* \"#utility.yul\":14911:15149   */\n      pop\n      jump\t// out\n        /* \"#utility.yul\":15155:15277   */\n    tag_99:\n        /* \"#utility.yul\":15228:15252   */\n      tag_284\n        /* \"#utility.yul\":15246:15251   */\n      dup2\n        /* \"#utility.yul\":15228:15252   */\n      tag_243\n      jump\t// in\n    tag_284:\n        /* \"#utility.yul\":15221:15226   */\n      dup2\n        /* \"#utility.yul\":15218:15253   */\n      eq\n        /* \"#utility.yul\":15208:15271   */\n      tag_285\n      jumpi\n        /* \"#utility.yul\":15267:15268   */\n      0x00\n        /* \"#utility.yul\":15264:15265   */\n      dup1\n        /* \"#utility.yul\":15257:15269   */\n      revert\n        /* \"#utility.yul\":15208:15271   */\n    tag_285:\n        /* \"#utility.yul\":15155:15277   */\n      pop\n      jump\t// out\n        /* \"#utility.yul\":15283:15405   */\n    tag_103:\n        /* \"#utility.yul\":15356:15380   */\n      tag_287\n        /* \"#utility.yul\":15374:15379   */\n      dup2\n        /* \"#utility.yul\":15356:15380   */\n      tag_195\n      jump\t// in\n    tag_287:\n        /* \"#utility.yul\":15349:15354   */\n      dup2\n        /* \"#utility.yul\":15346:15381   */\n      eq\n        /* \"#utility.yul\":15336:15399   */\n      tag_288\n      jumpi\n        /* \"#utility.yul\":15395:15396   */\n      0x00\n        /* \"#utility.yul\":15392:15393   */\n      dup1\n        /* \"#utility.yul\":15385:15397   */\n      revert\n        /* \"#utility.yul\":15336:15399   */\n    tag_288:\n        /* \"#utility.yul\":15283:15405   */\n      pop\n      jump\t// out\n\n    auxdata: 0xa264697066735822122028bb5b3265b18101b9a3e7271627ec1f6a66afca485c015d31251ce81761821564736f6c63430008070033\n}\n",
				"bytecode": {
					"linkReferences": {},
					"object": "608060405234801561001057600080fd5b50336000806101000a81548173ffffffffffffffffffffffffffffffffffffffff021916908373ffffffffffffffffffffffffffffffffffffffff160217905550610f0a806100606000396000f3fe60806040526004361061004a5760003560e01c806319b374171461004f578063481c6a75146100595780635d495aea146100845780638b5b9ccc1461009b578063f71d96cb146100c6575b600080fd5b610057610103565b005b34801561006557600080fd5b5061006e61028f565b60405161007b9190610a01565b60405180910390f35b34801561009057600080fd5b506100996102b3565b005b3480156100a757600080fd5b506100b061047c565b6040516100bd9190610a37565b60405180910390f35b3480156100d257600080fd5b506100ed60048036038101906100e89190610772565b61050a565b6040516100fa9190610a1c565b60405180910390f35b3373ffffffffffffffffffffffffffffffffffffffff1660008054906101000a900473ffffffffffffffffffffffffffffffffffffffff1673ffffffffffffffffffffffffffffffffffffffff161415610192576040517f08c379a000000000000000000000000000000000000000000000000000000000815260040161018990610a99565b60405180910390fd5b6000151561019e610549565b1515146101e0576040517f08c379a00000000000000000000000000000000000000000000000000000000081526004016101d790610a79565b60405180910390fd5b670de0b6b3a7640000341461022a576040517f08c379a000000000000000000000000000000000000000000000000000000000815260040161022190610ab9565b60405180910390fd5b6001339080600181540180825580915050600190039060005260206000200160009091909190916101000a81548173ffffffffffffffffffffffffffffffffffffffff021916908373ffffffffffffffffffffffffffffffffffffffff160217905550565b60008054906101000a900473ffffffffffffffffffffffffffffffffffffffff1681565b3373ffffffffffffffffffffffffffffffffffffffff1660008054906101000a900473ffffffffffffffffffffffffffffffffffffffff1673ffffffffffffffffffffffffffffffffffffffff1614610341576040517f08c379a000000000000000000000000000000000000000000000000000000000815260040161033890610a59565b60405180910390fd5b60006001805490506103516105f6565b61035b9190610ca4565b90507ff82c50f1848136e6c140b186ea0c768b7deda5efffe42c25e96336a90b26c7448160405161038c9190610ad9565b60405180910390a1600181815481106103a8576103a7610d33565b5b9060005260206000200160009054906101000a900473ffffffffffffffffffffffffffffffffffffffff1673ffffffffffffffffffffffffffffffffffffffff166108fc479081150290604051600060405180830381858888f19350505050158015610418573d6000803e3d6000fd5b50600067ffffffffffffffff81111561043457610433610d62565b5b6040519080825280602002602001820160405280156104625781602001602082028036833780820191505090505b5060019080519060200190610478929190610674565b5050565b6060600180548060200260200160405190810160405280929190818152602001828054801561050057602002820191906000526020600020905b8160009054906101000a900473ffffffffffffffffffffffffffffffffffffffff1673ffffffffffffffffffffffffffffffffffffffff16815260200190600101908083116104b6575b5050505050905090565b6001818154811061051a57600080fd5b906000526020600020016000915054906101000a900473ffffffffffffffffffffffffffffffffffffffff1681565b600080600090505b6001805490508110156105ed573373ffffffffffffffffffffffffffffffffffffffff166001828154811061058957610588610d33565b5b9060005260206000200160009054906101000a900473ffffffffffffffffffffffffffffffffffffffff1673ffffffffffffffffffffffffffffffffffffffff1614156105da5760019150506105f3565b80806105e590610c51565b915050610551565b50600090505b90565b6000600244436001604051602001610610939291906109c8565b60405160208183030381529060405260405161062c91906109b1565b602060405180830381855afa158015610649573d6000803e3d6000fd5b5050506040513d601f19601f8201168201806040525081019061066c9190610745565b60001c905090565b8280548282559060005260206000209081019282156106ed579160200282015b828111156106ec5782518260006101000a81548173ffffffffffffffffffffffffffffffffffffffff021916908373ffffffffffffffffffffffffffffffffffffffff16021790555091602001919060010190610694565b5b5090506106fa91906106fe565b5090565b5b808211156107175760008160009055506001016106ff565b5090565b60008151905061072a81610ea6565b92915050565b60008135905061073f81610ebd565b92915050565b60006020828403121561075b5761075a610da4565b5b60006107698482850161071b565b91505092915050565b60006020828403121561078857610787610da4565b5b600061079684828501610730565b91505092915050565b60006107ab83836107cf565b60208301905092915050565b60006107c383836107ed565b60208301905092915050565b6107d881610bbe565b82525050565b6107e781610bbe565b82525050565b6107f681610bbe565b82525050565b61080581610bac565b82525050565b600061081682610b19565b6108208185610b54565b935061082b83610af4565b8060005b8381101561085c578151610843888261079f565b975061084e83610b3a565b92505060018101905061082f565b5085935050505092915050565b600061087482610b24565b61087e8185610b65565b935061088983610b04565b8060005b838110156108c15761089e82610d91565b6108a888826107b7565b97506108b383610b47565b92505060018101905061088d565b5085935050505092915050565b60006108d982610b2f565b6108e38185610b70565b93506108f3818560208601610c04565b80840191505092915050565b600061090c601283610b7b565b915061091782610db6565b602082019050919050565b600061092f601f83610b7b565b915061093a82610ddf565b602082019050919050565b6000610952602a83610b7b565b915061095d82610e08565b604082019050919050565b6000610975603383610b7b565b915061098082610e57565b604082019050919050565b61099481610bfa565b82525050565b6109ab6109a682610bfa565b610c9a565b82525050565b60006109bd82846108ce565b915081905092915050565b60006109d4828661099a565b6020820191506109e4828561099a565b6020820191506109f48284610869565b9150819050949350505050565b6000602082019050610a1660008301846107fc565b92915050565b6000602082019050610a3160008301846107de565b92915050565b60006020820190508181036000830152610a51818461080b565b905092915050565b60006020820190508181036000830152610a72816108ff565b9050919050565b60006020820190508181036000830152610a9281610922565b9050919050565b60006020820190508181036000830152610ab281610945565b9050919050565b60006020820190508181036000830152610ad281610968565b9050919050565b6000602082019050610aee600083018461098b565b92915050565b6000819050602082019050919050565b60008190508160005260206000209050919050565b600081519050919050565b600081549050919050565b600081519050919050565b6000602082019050919050565b6000600182019050919050565b600082825260208201905092915050565b600081905092915050565b600081905092915050565b600082825260208201905092915050565b600073ffffffffffffffffffffffffffffffffffffffff82169050919050565b6000610bb782610bda565b9050919050565b6000610bc982610bda565b9050919050565b6000819050919050565b600073ffffffffffffffffffffffffffffffffffffffff82169050919050565b6000819050919050565b60005b83811015610c22578082015181840152602081019050610c07565b83811115610c31576000848401525b50505050565b6000610c4a610c4583610da9565b610b8c565b9050919050565b6000610c5c82610bfa565b91507fffffffffffffffffffffffffffffffffffffffffffffffffffffffffffffffff821415610c8f57610c8e610cd5565b5b600182019050919050565b6000819050919050565b6000610caf82610bfa565b9150610cba83610bfa565b925082610cca57610cc9610d04565b5b828206905092915050565b7f4e487b7100000000000000000000000000000000000000000000000000000000600052601160045260246000fd5b7f4e487b7100000000000000000000000000000000000000000000000000000000600052601260045260246000fd5b7f4e487b7100000000000000000000000000000000000000000000000000000000600052603260045260246000fd5b7f4e487b7100000000000000000000000000000000000000000000000000000000600052604160045260246000fd5b6000610d9d8254610c37565b9050919050565b600080fd5b60008160001c9050919050565b7f596f752063616e206e6f74206163636573730000000000000000000000000000600082015250565b7f596f7520616c7265616479206a6f696e6564207468697320636f6e7465737400600082015250565b7f596f752063616e206e6f7420706172746963697061746520617320796f75206160008201527f7265206d616e6167657200000000000000000000000000000000000000000000602082015250565b7f596f75206861766520746f207061792066656573206f6620312065746865722060008201527f666f72206a6f696e696e6720636f6e7465737400000000000000000000000000602082015250565b610eaf81610bd0565b8114610eba57600080fd5b50565b610ec681610bfa565b8114610ed157600080fd5b5056fea264697066735822122028bb5b3265b18101b9a3e7271627ec1f6a66afca485c015d31251ce81761821564736f6c63430008070033",
					"opcodes": "PUSH1 0x80 PUSH1 0x40 MSTORE CALLVALUE DUP1 ISZERO PUSH2 0x10 JUMPI PUSH1 0x0 DUP1 REVERT JUMPDEST POP CALLER PUSH1 0x0 DUP1 PUSH2 0x100 EXP DUP2 SLOAD DUP2 PUSH20 0xFFFFFFFFFFFFFFFFFFFFFFFFFFFFFFFFFFFFFFFF MUL NOT AND SWAP1 DUP4 PUSH20 0xFFFFFFFFFFFFFFFFFFFFFFFFFFFFFFFFFFFFFFFF AND MUL OR SWAP1 SSTORE POP PUSH2 0xF0A DUP1 PUSH2 0x60 PUSH1 0x0 CODECOPY PUSH1 0x0 RETURN INVALID PUSH1 0x80 PUSH1 0x40 MSTORE PUSH1 0x4 CALLDATASIZE LT PUSH2 0x4A JUMPI PUSH1 0x0 CALLDATALOAD PUSH1 0xE0 SHR DUP1 PUSH4 0x19B37417 EQ PUSH2 0x4F JUMPI DUP1 PUSH4 0x481C6A75 EQ PUSH2 0x59 JUMPI DUP1 PUSH4 0x5D495AEA EQ PUSH2 0x84 JUMPI DUP1 PUSH4 0x8B5B9CCC EQ PUSH2 0x9B JUMPI DUP1 PUSH4 0xF71D96CB EQ PUSH2 0xC6 JUMPI JUMPDEST PUSH1 0x0 DUP1 REVERT JUMPDEST PUSH2 0x57 PUSH2 0x103 JUMP JUMPDEST STOP JUMPDEST CALLVALUE DUP1 ISZERO PUSH2 0x65 JUMPI PUSH1 0x0 DUP1 REVERT JUMPDEST POP PUSH2 0x6E PUSH2 0x28F JUMP JUMPDEST PUSH1 0x40 MLOAD PUSH2 0x7B SWAP2 SWAP1 PUSH2 0xA01 JUMP JUMPDEST PUSH1 0x40 MLOAD DUP1 SWAP2 SUB SWAP1 RETURN JUMPDEST CALLVALUE DUP1 ISZERO PUSH2 0x90 JUMPI PUSH1 0x0 DUP1 REVERT JUMPDEST POP PUSH2 0x99 PUSH2 0x2B3 JUMP JUMPDEST STOP JUMPDEST CALLVALUE DUP1 ISZERO PUSH2 0xA7 JUMPI PUSH1 0x0 DUP1 REVERT JUMPDEST POP PUSH2 0xB0 PUSH2 0x47C JUMP JUMPDEST PUSH1 0x40 MLOAD PUSH2 0xBD SWAP2 SWAP1 PUSH2 0xA37 JUMP JUMPDEST PUSH1 0x40 MLOAD DUP1 SWAP2 SUB SWAP1 RETURN JUMPDEST CALLVALUE DUP1 ISZERO PUSH2 0xD2 JUMPI PUSH1 0x0 DUP1 REVERT JUMPDEST POP PUSH2 0xED PUSH1 0x4 DUP1 CALLDATASIZE SUB DUP2 ADD SWAP1 PUSH2 0xE8 SWAP2 SWAP1 PUSH2 0x772 JUMP JUMPDEST PUSH2 0x50A JUMP JUMPDEST PUSH1 0x40 MLOAD PUSH2 0xFA SWAP2 SWAP1 PUSH2 0xA1C JUMP JUMPDEST PUSH1 0x40 MLOAD DUP1 SWAP2 SUB SWAP1 RETURN JUMPDEST CALLER PUSH20 0xFFFFFFFFFFFFFFFFFFFFFFFFFFFFFFFFFFFFFFFF AND PUSH1 0x0 DUP1 SLOAD SWAP1 PUSH2 0x100 EXP SWAP1 DIV PUSH20 0xFFFFFFFFFFFFFFFFFFFFFFFFFFFFFFFFFFFFFFFF AND PUSH20 0xFFFFFFFFFFFFFFFFFFFFFFFFFFFFFFFFFFFFFFFF AND EQ ISZERO PUSH2 0x192 JUMPI PUSH1 0x40 MLOAD PUSH32 0x8C379A000000000000000000000000000000000000000000000000000000000 DUP2 MSTORE PUSH1 0x4 ADD PUSH2 0x189 SWAP1 PUSH2 0xA99 JUMP JUMPDEST PUSH1 0x40 MLOAD DUP1 SWAP2 SUB SWAP1 REVERT JUMPDEST PUSH1 0x0 ISZERO ISZERO PUSH2 0x19E PUSH2 0x549 JUMP JUMPDEST ISZERO ISZERO EQ PUSH2 0x1E0 JUMPI PUSH1 0x40 MLOAD PUSH32 0x8C379A000000000000000000000000000000000000000000000000000000000 DUP2 MSTORE PUSH1 0x4 ADD PUSH2 0x1D7 SWAP1 PUSH2 0xA79 JUMP JUMPDEST PUSH1 0x40 MLOAD DUP1 SWAP2 SUB SWAP1 REVERT JUMPDEST PUSH8 0xDE0B6B3A7640000 CALLVALUE EQ PUSH2 0x22A JUMPI PUSH1 0x40 MLOAD PUSH32 0x8C379A000000000000000000000000000000000000000000000000000000000 DUP2 MSTORE PUSH1 0x4 ADD PUSH2 0x221 SWAP1 PUSH2 0xAB9 JUMP JUMPDEST PUSH1 0x40 MLOAD DUP1 SWAP2 SUB SWAP1 REVERT JUMPDEST PUSH1 0x1 CALLER SWAP1 DUP1 PUSH1 0x1 DUP2 SLOAD ADD DUP1 DUP3 SSTORE DUP1 SWAP2 POP POP PUSH1 0x1 SWAP1 SUB SWAP1 PUSH1 0x0 MSTORE PUSH1 0x20 PUSH1 0x0 KECCAK256 ADD PUSH1 0x0 SWAP1 SWAP2 SWAP1 SWAP2 SWAP1 SWAP2 PUSH2 0x100 EXP DUP2 SLOAD DUP2 PUSH20 0xFFFFFFFFFFFFFFFFFFFFFFFFFFFFFFFFFFFFFFFF MUL NOT AND SWAP1 DUP4 PUSH20 0xFFFFFFFFFFFFFFFFFFFFFFFFFFFFFFFFFFFFFFFF AND MUL OR SWAP1 SSTORE POP JUMP JUMPDEST PUSH1 0x0 DUP1 SLOAD SWAP1 PUSH2 0x100 EXP SWAP1 DIV PUSH20 0xFFFFFFFFFFFFFFFFFFFFFFFFFFFFFFFFFFFFFFFF AND DUP2 JUMP JUMPDEST CALLER PUSH20 0xFFFFFFFFFFFFFFFFFFFFFFFFFFFFFFFFFFFFFFFF AND PUSH1 0x0 DUP1 SLOAD SWAP1 PUSH2 0x100 EXP SWAP1 DIV PUSH20 0xFFFFFFFFFFFFFFFFFFFFFFFFFFFFFFFFFFFFFFFF AND PUSH20 0xFFFFFFFFFFFFFFFFFFFFFFFFFFFFFFFFFFFFFFFF AND EQ PUSH2 0x341 JUMPI PUSH1 0x40 MLOAD PUSH32 0x8C379A000000000000000000000000000000000000000000000000000000000 DUP2 MSTORE PUSH1 0x4 ADD PUSH2 0x338 SWAP1 PUSH2 0xA59 JUMP JUMPDEST PUSH1 0x40 MLOAD DUP1 SWAP2 SUB SWAP1 REVERT JUMPDEST PUSH1 0x0 PUSH1 0x1 DUP1 SLOAD SWAP1 POP PUSH2 0x351 PUSH2 0x5F6 JUMP JUMPDEST PUSH2 0x35B SWAP2 SWAP1 PUSH2 0xCA4 JUMP JUMPDEST SWAP1 POP PUSH32 0xF82C50F1848136E6C140B186EA0C768B7DEDA5EFFFE42C25E96336A90B26C744 DUP2 PUSH1 0x40 MLOAD PUSH2 0x38C SWAP2 SWAP1 PUSH2 0xAD9 JUMP JUMPDEST PUSH1 0x40 MLOAD DUP1 SWAP2 SUB SWAP1 LOG1 PUSH1 0x1 DUP2 DUP2 SLOAD DUP2 LT PUSH2 0x3A8 JUMPI PUSH2 0x3A7 PUSH2 0xD33 JUMP JUMPDEST JUMPDEST SWAP1 PUSH1 0x0 MSTORE PUSH1 0x20 PUSH1 0x0 KECCAK256 ADD PUSH1 0x0 SWAP1 SLOAD SWAP1 PUSH2 0x100 EXP SWAP1 DIV PUSH20 0xFFFFFFFFFFFFFFFFFFFFFFFFFFFFFFFFFFFFFFFF AND PUSH20 0xFFFFFFFFFFFFFFFFFFFFFFFFFFFFFFFFFFFFFFFF AND PUSH2 0x8FC SELFBALANCE SWAP1 DUP2 ISZERO MUL SWAP1 PUSH1 0x40 MLOAD PUSH1 0x0 PUSH1 0x40 MLOAD DUP1 DUP4 SUB DUP2 DUP6 DUP9 DUP9 CALL SWAP4 POP POP POP POP ISZERO DUP1 ISZERO PUSH2 0x418 JUMPI RETURNDATASIZE PUSH1 0x0 DUP1 RETURNDATACOPY RETURNDATASIZE PUSH1 0x0 REVERT JUMPDEST POP PUSH1 0x0 PUSH8 0xFFFFFFFFFFFFFFFF DUP2 GT ISZERO PUSH2 0x434 JUMPI PUSH2 0x433 PUSH2 0xD62 JUMP JUMPDEST JUMPDEST PUSH1 0x40 MLOAD SWAP1 DUP1 DUP3 MSTORE DUP1 PUSH1 0x20 MUL PUSH1 0x20 ADD DUP3 ADD PUSH1 0x40 MSTORE DUP1 ISZERO PUSH2 0x462 JUMPI DUP2 PUSH1 0x20 ADD PUSH1 0x20 DUP3 MUL DUP1 CALLDATASIZE DUP4 CALLDATACOPY DUP1 DUP3 ADD SWAP2 POP POP SWAP1 POP JUMPDEST POP PUSH1 0x1 SWAP1 DUP1 MLOAD SWAP1 PUSH1 0x20 ADD SWAP1 PUSH2 0x478 SWAP3 SWAP2 SWAP1 PUSH2 0x674 JUMP JUMPDEST POP POP JUMP JUMPDEST PUSH1 0x60 PUSH1 0x1 DUP1 SLOAD DUP1 PUSH1 0x20 MUL PUSH1 0x20 ADD PUSH1 0x40 MLOAD SWAP1 DUP2 ADD PUSH1 0x40 MSTORE DUP1 SWAP3 SWAP2 SWAP1 DUP2 DUP2 MSTORE PUSH1 0x20 ADD DUP3 DUP1 SLOAD DUP1 ISZERO PUSH2 0x500 JUMPI PUSH1 0x20 MUL DUP3 ADD SWAP2 SWAP1 PUSH1 0x0 MSTORE PUSH1 0x20 PUSH1 0x0 KECCAK256 SWAP1 JUMPDEST DUP2 PUSH1 0x0 SWAP1 SLOAD SWAP1 PUSH2 0x100 EXP SWAP1 DIV PUSH20 0xFFFFFFFFFFFFFFFFFFFFFFFFFFFFFFFFFFFFFFFF AND PUSH20 0xFFFFFFFFFFFFFFFFFFFFFFFFFFFFFFFFFFFFFFFF AND DUP2 MSTORE PUSH1 0x20 ADD SWAP1 PUSH1 0x1 ADD SWAP1 DUP1 DUP4 GT PUSH2 0x4B6 JUMPI JUMPDEST POP POP POP POP POP SWAP1 POP SWAP1 JUMP JUMPDEST PUSH1 0x1 DUP2 DUP2 SLOAD DUP2 LT PUSH2 0x51A JUMPI PUSH1 0x0 DUP1 REVERT JUMPDEST SWAP1 PUSH1 0x0 MSTORE PUSH1 0x20 PUSH1 0x0 KECCAK256 ADD PUSH1 0x0 SWAP2 POP SLOAD SWAP1 PUSH2 0x100 EXP SWAP1 DIV PUSH20 0xFFFFFFFFFFFFFFFFFFFFFFFFFFFFFFFFFFFFFFFF AND DUP2 JUMP JUMPDEST PUSH1 0x0 DUP1 PUSH1 0x0 SWAP1 POP JUMPDEST PUSH1 0x1 DUP1 SLOAD SWAP1 POP DUP2 LT ISZERO PUSH2 0x5ED JUMPI CALLER PUSH20 0xFFFFFFFFFFFFFFFFFFFFFFFFFFFFFFFFFFFFFFFF AND PUSH1 0x1 DUP3 DUP2 SLOAD DUP2 LT PUSH2 0x589 JUMPI PUSH2 0x588 PUSH2 0xD33 JUMP JUMPDEST JUMPDEST SWAP1 PUSH1 0x0 MSTORE PUSH1 0x20 PUSH1 0x0 KECCAK256 ADD PUSH1 0x0 SWAP1 SLOAD SWAP1 PUSH2 0x100 EXP SWAP1 DIV PUSH20 0xFFFFFFFFFFFFFFFFFFFFFFFFFFFFFFFFFFFFFFFF AND PUSH20 0xFFFFFFFFFFFFFFFFFFFFFFFFFFFFFFFFFFFFFFFF AND EQ ISZERO PUSH2 0x5DA JUMPI PUSH1 0x1 SWAP2 POP POP PUSH2 0x5F3 JUMP JUMPDEST DUP1 DUP1 PUSH2 0x5E5 SWAP1 PUSH2 0xC51 JUMP JUMPDEST SWAP2 POP POP PUSH2 0x551 JUMP JUMPDEST POP PUSH1 0x0 SWAP1 POP JUMPDEST SWAP1 JUMP JUMPDEST PUSH1 0x0 PUSH1 0x2 DIFFICULTY NUMBER PUSH1 0x1 PUSH1 0x40 MLOAD PUSH1 0x20 ADD PUSH2 0x610 SWAP4 SWAP3 SWAP2 SWAP1 PUSH2 0x9C8 JUMP JUMPDEST PUSH1 0x40 MLOAD PUSH1 0x20 DUP2 DUP4 SUB SUB DUP2 MSTORE SWAP1 PUSH1 0x40 MSTORE PUSH1 0x40 MLOAD PUSH2 0x62C SWAP2 SWAP1 PUSH2 0x9B1 JUMP JUMPDEST PUSH1 0x20 PUSH1 0x40 MLOAD DUP1 DUP4 SUB DUP2 DUP6 GAS STATICCALL ISZERO DUP1 ISZERO PUSH2 0x649 JUMPI RETURNDATASIZE PUSH1 0x0 DUP1 RETURNDATACOPY RETURNDATASIZE PUSH1 0x0 REVERT JUMPDEST POP POP POP PUSH1 0x40 MLOAD RETURNDATASIZE PUSH1 0x1F NOT PUSH1 0x1F DUP3 ADD AND DUP3 ADD DUP1 PUSH1 0x40 MSTORE POP DUP2 ADD SWAP1 PUSH2 0x66C SWAP2 SWAP1 PUSH2 0x745 JUMP JUMPDEST PUSH1 0x0 SHR SWAP1 POP SWAP1 JUMP JUMPDEST DUP3 DUP1 SLOAD DUP3 DUP3 SSTORE SWAP1 PUSH1 0x0 MSTORE PUSH1 0x20 PUSH1 0x0 KECCAK256 SWAP1 DUP2 ADD SWAP3 DUP3 ISZERO PUSH2 0x6ED JUMPI SWAP2 PUSH1 0x20 MUL DUP3 ADD JUMPDEST DUP3 DUP2 GT ISZERO PUSH2 0x6EC JUMPI DUP3 MLOAD DUP3 PUSH1 0x0 PUSH2 0x100 EXP DUP2 SLOAD DUP2 PUSH20 0xFFFFFFFFFFFFFFFFFFFFFFFFFFFFFFFFFFFFFFFF MUL NOT AND SWAP1 DUP4 PUSH20 0xFFFFFFFFFFFFFFFFFFFFFFFFFFFFFFFFFFFFFFFF AND MUL OR SWAP1 SSTORE POP SWAP2 PUSH1 0x20 ADD SWAP2 SWAP1 PUSH1 0x1 ADD SWAP1 PUSH2 0x694 JUMP JUMPDEST JUMPDEST POP SWAP1 POP PUSH2 0x6FA SWAP2 SWAP1 PUSH2 0x6FE JUMP JUMPDEST POP SWAP1 JUMP JUMPDEST JUMPDEST DUP1 DUP3 GT ISZERO PUSH2 0x717 JUMPI PUSH1 0x0 DUP2 PUSH1 0x0 SWAP1 SSTORE POP PUSH1 0x1 ADD PUSH2 0x6FF JUMP JUMPDEST POP SWAP1 JUMP JUMPDEST PUSH1 0x0 DUP2 MLOAD SWAP1 POP PUSH2 0x72A DUP2 PUSH2 0xEA6 JUMP JUMPDEST SWAP3 SWAP2 POP POP JUMP JUMPDEST PUSH1 0x0 DUP2 CALLDATALOAD SWAP1 POP PUSH2 0x73F DUP2 PUSH2 0xEBD JUMP JUMPDEST SWAP3 SWAP2 POP POP JUMP JUMPDEST PUSH1 0x0 PUSH1 0x20 DUP3 DUP5 SUB SLT ISZERO PUSH2 0x75B JUMPI PUSH2 0x75A PUSH2 0xDA4 JUMP JUMPDEST JUMPDEST PUSH1 0x0 PUSH2 0x769 DUP5 DUP3 DUP6 ADD PUSH2 0x71B JUMP JUMPDEST SWAP2 POP POP SWAP3 SWAP2 POP POP JUMP JUMPDEST PUSH1 0x0 PUSH1 0x20 DUP3 DUP5 SUB SLT ISZERO PUSH2 0x788 JUMPI PUSH2 0x787 PUSH2 0xDA4 JUMP JUMPDEST JUMPDEST PUSH1 0x0 PUSH2 0x796 DUP5 DUP3 DUP6 ADD PUSH2 0x730 JUMP JUMPDEST SWAP2 POP POP SWAP3 SWAP2 POP POP JUMP JUMPDEST PUSH1 0x0 PUSH2 0x7AB DUP4 DUP4 PUSH2 0x7CF JUMP JUMPDEST PUSH1 0x20 DUP4 ADD SWAP1 POP SWAP3 SWAP2 POP POP JUMP JUMPDEST PUSH1 0x0 PUSH2 0x7C3 DUP4 DUP4 PUSH2 0x7ED JUMP JUMPDEST PUSH1 0x20 DUP4 ADD SWAP1 POP SWAP3 SWAP2 POP POP JUMP JUMPDEST PUSH2 0x7D8 DUP2 PUSH2 0xBBE JUMP JUMPDEST DUP3 MSTORE POP POP JUMP JUMPDEST PUSH2 0x7E7 DUP2 PUSH2 0xBBE JUMP JUMPDEST DUP3 MSTORE POP POP JUMP JUMPDEST PUSH2 0x7F6 DUP2 PUSH2 0xBBE JUMP JUMPDEST DUP3 MSTORE POP POP JUMP JUMPDEST PUSH2 0x805 DUP2 PUSH2 0xBAC JUMP JUMPDEST DUP3 MSTORE POP POP JUMP JUMPDEST PUSH1 0x0 PUSH2 0x816 DUP3 PUSH2 0xB19 JUMP JUMPDEST PUSH2 0x820 DUP2 DUP6 PUSH2 0xB54 JUMP JUMPDEST SWAP4 POP PUSH2 0x82B DUP4 PUSH2 0xAF4 JUMP JUMPDEST DUP1 PUSH1 0x0 JUMPDEST DUP4 DUP2 LT ISZERO PUSH2 0x85C JUMPI DUP2 MLOAD PUSH2 0x843 DUP9 DUP3 PUSH2 0x79F JUMP JUMPDEST SWAP8 POP PUSH2 0x84E DUP4 PUSH2 0xB3A JUMP JUMPDEST SWAP3 POP POP PUSH1 0x1 DUP2 ADD SWAP1 POP PUSH2 0x82F JUMP JUMPDEST POP DUP6 SWAP4 POP POP POP POP SWAP3 SWAP2 POP POP JUMP JUMPDEST PUSH1 0x0 PUSH2 0x874 DUP3 PUSH2 0xB24 JUMP JUMPDEST PUSH2 0x87E DUP2 DUP6 PUSH2 0xB65 JUMP JUMPDEST SWAP4 POP PUSH2 0x889 DUP4 PUSH2 0xB04 JUMP JUMPDEST DUP1 PUSH1 0x0 JUMPDEST DUP4 DUP2 LT ISZERO PUSH2 0x8C1 JUMPI PUSH2 0x89E DUP3 PUSH2 0xD91 JUMP JUMPDEST PUSH2 0x8A8 DUP9 DUP3 PUSH2 0x7B7 JUMP JUMPDEST SWAP8 POP PUSH2 0x8B3 DUP4 PUSH2 0xB47 JUMP JUMPDEST SWAP3 POP POP PUSH1 0x1 DUP2 ADD SWAP1 POP PUSH2 0x88D JUMP JUMPDEST POP DUP6 SWAP4 POP POP POP POP SWAP3 SWAP2 POP POP JUMP JUMPDEST PUSH1 0x0 PUSH2 0x8D9 DUP3 PUSH2 0xB2F JUMP JUMPDEST PUSH2 0x8E3 DUP2 DUP6 PUSH2 0xB70 JUMP JUMPDEST SWAP4 POP PUSH2 0x8F3 DUP2 DUP6 PUSH1 0x20 DUP7 ADD PUSH2 0xC04 JUMP JUMPDEST DUP1 DUP5 ADD SWAP2 POP POP SWAP3 SWAP2 POP POP JUMP JUMPDEST PUSH1 0x0 PUSH2 0x90C PUSH1 0x12 DUP4 PUSH2 0xB7B JUMP JUMPDEST SWAP2 POP PUSH2 0x917 DUP3 PUSH2 0xDB6 JUMP JUMPDEST PUSH1 0x20 DUP3 ADD SWAP1 POP SWAP2 SWAP1 POP JUMP JUMPDEST PUSH1 0x0 PUSH2 0x92F PUSH1 0x1F DUP4 PUSH2 0xB7B JUMP JUMPDEST SWAP2 POP PUSH2 0x93A DUP3 PUSH2 0xDDF JUMP JUMPDEST PUSH1 0x20 DUP3 ADD SWAP1 POP SWAP2 SWAP1 POP JUMP JUMPDEST PUSH1 0x0 PUSH2 0x952 PUSH1 0x2A DUP4 PUSH2 0xB7B JUMP JUMPDEST SWAP2 POP PUSH2 0x95D DUP3 PUSH2 0xE08 JUMP JUMPDEST PUSH1 0x40 DUP3 ADD SWAP1 POP SWAP2 SWAP1 POP JUMP JUMPDEST PUSH1 0x0 PUSH2 0x975 PUSH1 0x33 DUP4 PUSH2 0xB7B JUMP JUMPDEST SWAP2 POP PUSH2 0x980 DUP3 PUSH2 0xE57 JUMP JUMPDEST PUSH1 0x40 DUP3 ADD SWAP1 POP SWAP2 SWAP1 POP JUMP JUMPDEST PUSH2 0x994 DUP2 PUSH2 0xBFA JUMP JUMPDEST DUP3 MSTORE POP POP JUMP JUMPDEST PUSH2 0x9AB PUSH2 0x9A6 DUP3 PUSH2 0xBFA JUMP JUMPDEST PUSH2 0xC9A JUMP JUMPDEST DUP3 MSTORE POP POP JUMP JUMPDEST PUSH1 0x0 PUSH2 0x9BD DUP3 DUP5 PUSH2 0x8CE JUMP JUMPDEST SWAP2 POP DUP2 SWAP1 POP SWAP3 SWAP2 POP POP JUMP JUMPDEST PUSH1 0x0 PUSH2 0x9D4 DUP3 DUP7 PUSH2 0x99A JUMP JUMPDEST PUSH1 0x20 DUP3 ADD SWAP2 POP PUSH2 0x9E4 DUP3 DUP6 PUSH2 0x99A JUMP JUMPDEST PUSH1 0x20 DUP3 ADD SWAP2 POP PUSH2 0x9F4 DUP3 DUP5 PUSH2 0x869 JUMP JUMPDEST SWAP2 POP DUP2 SWAP1 POP SWAP5 SWAP4 POP POP POP POP JUMP JUMPDEST PUSH1 0x0 PUSH1 0x20 DUP3 ADD SWAP1 POP PUSH2 0xA16 PUSH1 0x0 DUP4 ADD DUP5 PUSH2 0x7FC JUMP JUMPDEST SWAP3 SWAP2 POP POP JUMP JUMPDEST PUSH1 0x0 PUSH1 0x20 DUP3 ADD SWAP1 POP PUSH2 0xA31 PUSH1 0x0 DUP4 ADD DUP5 PUSH2 0x7DE JUMP JUMPDEST SWAP3 SWAP2 POP POP JUMP JUMPDEST PUSH1 0x0 PUSH1 0x20 DUP3 ADD SWAP1 POP DUP2 DUP2 SUB PUSH1 0x0 DUP4 ADD MSTORE PUSH2 0xA51 DUP2 DUP5 PUSH2 0x80B JUMP JUMPDEST SWAP1 POP SWAP3 SWAP2 POP POP JUMP JUMPDEST PUSH1 0x0 PUSH1 0x20 DUP3 ADD SWAP1 POP DUP2 DUP2 SUB PUSH1 0x0 DUP4 ADD MSTORE PUSH2 0xA72 DUP2 PUSH2 0x8FF JUMP JUMPDEST SWAP1 POP SWAP2 SWAP1 POP JUMP JUMPDEST PUSH1 0x0 PUSH1 0x20 DUP3 ADD SWAP1 POP DUP2 DUP2 SUB PUSH1 0x0 DUP4 ADD MSTORE PUSH2 0xA92 DUP2 PUSH2 0x922 JUMP JUMPDEST SWAP1 POP SWAP2 SWAP1 POP JUMP JUMPDEST PUSH1 0x0 PUSH1 0x20 DUP3 ADD SWAP1 POP DUP2 DUP2 SUB PUSH1 0x0 DUP4 ADD MSTORE PUSH2 0xAB2 DUP2 PUSH2 0x945 JUMP JUMPDEST SWAP1 POP SWAP2 SWAP1 POP JUMP JUMPDEST PUSH1 0x0 PUSH1 0x20 DUP3 ADD SWAP1 POP DUP2 DUP2 SUB PUSH1 0x0 DUP4 ADD MSTORE PUSH2 0xAD2 DUP2 PUSH2 0x968 JUMP JUMPDEST SWAP1 POP SWAP2 SWAP1 POP JUMP JUMPDEST PUSH1 0x0 PUSH1 0x20 DUP3 ADD SWAP1 POP PUSH2 0xAEE PUSH1 0x0 DUP4 ADD DUP5 PUSH2 0x98B JUMP JUMPDEST SWAP3 SWAP2 POP POP JUMP JUMPDEST PUSH1 0x0 DUP2 SWAP1 POP PUSH1 0x20 DUP3 ADD SWAP1 POP SWAP2 SWAP1 POP JUMP JUMPDEST PUSH1 0x0 DUP2 SWAP1 POP DUP2 PUSH1 0x0 MSTORE PUSH1 0x20 PUSH1 0x0 KECCAK256 SWAP1 POP SWAP2 SWAP1 POP JUMP JUMPDEST PUSH1 0x0 DUP2 MLOAD SWAP1 POP SWAP2 SWAP1 POP JUMP JUMPDEST PUSH1 0x0 DUP2 SLOAD SWAP1 POP SWAP2 SWAP1 POP JUMP JUMPDEST PUSH1 0x0 DUP2 MLOAD SWAP1 POP SWAP2 SWAP1 POP JUMP JUMPDEST PUSH1 0x0 PUSH1 0x20 DUP3 ADD SWAP1 POP SWAP2 SWAP1 POP JUMP JUMPDEST PUSH1 0x0 PUSH1 0x1 DUP3 ADD SWAP1 POP SWAP2 SWAP1 POP JUMP JUMPDEST PUSH1 0x0 DUP3 DUP3 MSTORE PUSH1 0x20 DUP3 ADD SWAP1 POP SWAP3 SWAP2 POP POP JUMP JUMPDEST PUSH1 0x0 DUP2 SWAP1 POP SWAP3 SWAP2 POP POP JUMP JUMPDEST PUSH1 0x0 DUP2 SWAP1 POP SWAP3 SWAP2 POP POP JUMP JUMPDEST PUSH1 0x0 DUP3 DUP3 MSTORE PUSH1 0x20 DUP3 ADD SWAP1 POP SWAP3 SWAP2 POP POP JUMP JUMPDEST PUSH1 0x0 PUSH20 0xFFFFFFFFFFFFFFFFFFFFFFFFFFFFFFFFFFFFFFFF DUP3 AND SWAP1 POP SWAP2 SWAP1 POP JUMP JUMPDEST PUSH1 0x0 PUSH2 0xBB7 DUP3 PUSH2 0xBDA JUMP JUMPDEST SWAP1 POP SWAP2 SWAP1 POP JUMP JUMPDEST PUSH1 0x0 PUSH2 0xBC9 DUP3 PUSH2 0xBDA JUMP JUMPDEST SWAP1 POP SWAP2 SWAP1 POP JUMP JUMPDEST PUSH1 0x0 DUP2 SWAP1 POP SWAP2 SWAP1 POP JUMP JUMPDEST PUSH1 0x0 PUSH20 0xFFFFFFFFFFFFFFFFFFFFFFFFFFFFFFFFFFFFFFFF DUP3 AND SWAP1 POP SWAP2 SWAP1 POP JUMP JUMPDEST PUSH1 0x0 DUP2 SWAP1 POP SWAP2 SWAP1 POP JUMP JUMPDEST PUSH1 0x0 JUMPDEST DUP4 DUP2 LT ISZERO PUSH2 0xC22 JUMPI DUP1 DUP3 ADD MLOAD DUP2 DUP5 ADD MSTORE PUSH1 0x20 DUP2 ADD SWAP1 POP PUSH2 0xC07 JUMP JUMPDEST DUP4 DUP2 GT ISZERO PUSH2 0xC31 JUMPI PUSH1 0x0 DUP5 DUP5 ADD MSTORE JUMPDEST POP POP POP POP JUMP JUMPDEST PUSH1 0x0 PUSH2 0xC4A PUSH2 0xC45 DUP4 PUSH2 0xDA9 JUMP JUMPDEST PUSH2 0xB8C JUMP JUMPDEST SWAP1 POP SWAP2 SWAP1 POP JUMP JUMPDEST PUSH1 0x0 PUSH2 0xC5C DUP3 PUSH2 0xBFA JUMP JUMPDEST SWAP2 POP PUSH32 0xFFFFFFFFFFFFFFFFFFFFFFFFFFFFFFFFFFFFFFFFFFFFFFFFFFFFFFFFFFFFFFFF DUP3 EQ ISZERO PUSH2 0xC8F JUMPI PUSH2 0xC8E PUSH2 0xCD5 JUMP JUMPDEST JUMPDEST PUSH1 0x1 DUP3 ADD SWAP1 POP SWAP2 SWAP1 POP JUMP JUMPDEST PUSH1 0x0 DUP2 SWAP1 POP SWAP2 SWAP1 POP JUMP JUMPDEST PUSH1 0x0 PUSH2 0xCAF DUP3 PUSH2 0xBFA JUMP JUMPDEST SWAP2 POP PUSH2 0xCBA DUP4 PUSH2 0xBFA JUMP JUMPDEST SWAP3 POP DUP3 PUSH2 0xCCA JUMPI PUSH2 0xCC9 PUSH2 0xD04 JUMP JUMPDEST JUMPDEST DUP3 DUP3 MOD SWAP1 POP SWAP3 SWAP2 POP POP JUMP JUMPDEST PUSH32 0x4E487B7100000000000000000000000000000000000000000000000000000000 PUSH1 0x0 MSTORE PUSH1 0x11 PUSH1 0x4 MSTORE PUSH1 0x24 PUSH1 0x0 REVERT JUMPDEST PUSH32 0x4E487B7100000000000000000000000000000000000000000000000000000000 PUSH1 0x0 MSTORE PUSH1 0x12 PUSH1 0x4 MSTORE PUSH1 0x24 PUSH1 0x0 REVERT JUMPDEST PUSH32 0x4E487B7100000000000000000000000000000000000000000000000000000000 PUSH1 0x0 MSTORE PUSH1 0x32 PUSH1 0x4 MSTORE PUSH1 0x24 PUSH1 0x0 REVERT JUMPDEST PUSH32 0x4E487B7100000000000000000000000000000000000000000000000000000000 PUSH1 0x0 MSTORE PUSH1 0x41 PUSH1 0x4 MSTORE PUSH1 0x24 PUSH1 0x0 REVERT JUMPDEST PUSH1 0x0 PUSH2 0xD9D DUP3 SLOAD PUSH2 0xC37 JUMP JUMPDEST SWAP1 POP SWAP2 SWAP1 POP JUMP JUMPDEST PUSH1 0x0 DUP1 REVERT JUMPDEST PUSH1 0x0 DUP2 PUSH1 0x0 SHR SWAP1 POP SWAP2 SWAP1 POP JUMP JUMPDEST PUSH32 0x596F752063616E206E6F74206163636573730000000000000000000000000000 PUSH1 0x0 DUP3 ADD MSTORE POP JUMP JUMPDEST PUSH32 0x596F7520616C7265616479206A6F696E6564207468697320636F6E7465737400 PUSH1 0x0 DUP3 ADD MSTORE POP JUMP JUMPDEST PUSH32 0x596F752063616E206E6F7420706172746963697061746520617320796F752061 PUSH1 0x0 DUP3 ADD MSTORE PUSH32 0x7265206D616E6167657200000000000000000000000000000000000000000000 PUSH1 0x20 DUP3 ADD MSTORE POP JUMP JUMPDEST PUSH32 0x596F75206861766520746F207061792066656573206F66203120657468657220 PUSH1 0x0 DUP3 ADD MSTORE PUSH32 0x666F72206A6F696E696E6720636F6E7465737400000000000000000000000000 PUSH1 0x20 DUP3 ADD MSTORE POP JUMP JUMPDEST PUSH2 0xEAF DUP2 PUSH2 0xBD0 JUMP JUMPDEST DUP2 EQ PUSH2 0xEBA JUMPI PUSH1 0x0 DUP1 REVERT JUMPDEST POP JUMP JUMPDEST PUSH2 0xEC6 DUP2 PUSH2 0xBFA JUMP JUMPDEST DUP2 EQ PUSH2 0xED1 JUMPI PUSH1 0x0 DUP1 REVERT JUMPDEST POP JUMP INVALID LOG2 PUSH5 0x6970667358 0x22 SLT KECCAK256 0x28 0xBB JUMPDEST ORIGIN PUSH6 0xB18101B9A3E7 0x27 AND 0x27 0xEC 0x1F PUSH11 0x66AFCA485C015D31251CE8 OR PUSH2 0x8215 PUSH5 0x736F6C6343 STOP ADDMOD SMOD STOP CALLER "
				},
				"gasEstimates": {
					"creation": {
						"codeDepositCost": "770000",
						"executionCost": "25071",
						"totalCost": "795071"
					},
					"external": {
						"ENTER()": "infinite",
						"getPlayers()": "infinite",
						"manager()": "2511",
						"pickWinner()": "infinite",
						"players(uint256)": "5022"
					},
					"internal": {
						"alreadyEnter()": "infinite",
						"random()": "infinite"
					}
				},
				"methodIdentifiers": {
					"ENTER()": "19b37417",
					"getPlayers()": "8b5b9ccc",
					"manager()": "481c6a75",
					"pickWinner()": "5d495aea",
					"players(uint256)": "f71d96cb"
				}
			},
			"storageLayout": {
				"storage": [
					{
						"astId": 3,
						"contract": "LotteryContract.sol:main",
						"label": "manager",
						"offset": 0,
						"slot": "0",
						"type": "t_address"
					},
					{
						"astId": 6,
						"contract": "LotteryContract.sol:main",
						"label": "players",
						"offset": 0,
						"slot": "1",
						"type": "t_array(t_address_payable)dyn_storage"
					}
				],
				"types": {
					"t_address": {
						"encoding": "inplace",
						"label": "address",
						"numberOfBytes": "20"
					},
					"t_address_payable": {
						"encoding": "inplace",
						"label": "address payable",
						"numberOfBytes": "20"
					},
					"t_array(t_address_payable)dyn_storage": {
						"base": "t_address_payable",
						"encoding": "dynamic_array",
						"label": "address payable[]",
						"numberOfBytes": "32"
					}
				}
			},
			"userdoc": {
				"kind": "user",
				"methods": {},
				"version": 1
			}
		}
	}
}