{
	"LotteryContract.sol": {
		"main": {
			"abi": [
				{
					"inputs": [],
					"stateMutability": "nonpayable",
					"type": "constructor"
				},
				{
					"anonymous": false,
					"inputs": [
						{
							"indexed": false,
							"internalType": "uint256",
							"name": "a",
							"type": "uint256"
						}
					],
					"name": "log",
					"type": "event"
				},
				{
					"inputs": [],
					"name": "ENTER",
					"outputs": [],
					"stateMutability": "payable",
					"type": "function"
				},
				{
					"inputs": [],
					"name": "manager",
					"outputs": [
						{
							"internalType": "address",
							"name": "",
							"type": "address"
						}
					],
					"stateMutability": "view",
					"type": "function"
				},
				{
					"inputs": [],
					"name": "pickWinner",
					"outputs": [],
					"stateMutability": "nonpayable",
					"type": "function"
				},
				{
					"inputs": [
						{
							"internalType": "uint256",
							"name": "",
							"type": "uint256"
						}
					],
					"name": "players",
					"outputs": [
						{
							"internalType": "address payable",
							"name": "",
							"type": "address"
						}
					],
					"stateMutability": "view",
					"type": "function"
				}
			],
			"devdoc": {
				"kind": "dev",
				"methods": {},
				"version": 1
			},
			"evm": {
				"assembly": "    /* \"LotteryContract.sol\":59:1178  contract main{\r... */\n  mstore(0x40, 0x80)\n    /* \"LotteryContract.sol\":152:228  constructor(){\r... */\n  callvalue\n  dup1\n  iszero\n  tag_1\n  jumpi\n  0x00\n  dup1\n  revert\ntag_1:\n  pop\n    /* \"LotteryContract.sol\":186:196  msg.sender */\n  caller\n    /* \"LotteryContract.sol\":176:183  manager */\n  0x00\n  dup1\n    /* \"LotteryContract.sol\":176:196  manager = msg.sender */\n  0x0100\n  exp\n  dup2\n  sload\n  dup2\n  0xffffffffffffffffffffffffffffffffffffffff\n  mul\n  not\n  and\n  swap1\n  dup4\n  0xffffffffffffffffffffffffffffffffffffffff\n  and\n  mul\n  or\n  swap1\n  sstore\n  pop\n    /* \"LotteryContract.sol\":207:220  randomToken() */\n  tag_4\n    /* \"LotteryContract.sol\":207:218  randomToken */\n  shl(0x20, tag_5)\n    /* \"LotteryContract.sol\":207:220  randomToken() */\n  0x20\n  shr\n  jump\t// in\ntag_4:\n  pop\n    /* \"LotteryContract.sol\":59:1178  contract main{\r... */\n  jump(tag_6)\n    /* \"LotteryContract.sol\":868:1014  function randomToken() view private returns(uint){\r... */\ntag_5:\n    /* \"LotteryContract.sol\":912:916  uint */\n  0x00\n    /* \"LotteryContract.sol\":940:1005  sha256(abi.encodePacked(block.difficulty, block.number, players)) */\n  0x02\n    /* \"LotteryContract.sol\":964:980  block.difficulty */\n  difficulty\n    /* \"LotteryContract.sol\":982:994  block.number */\n  number\n    /* \"LotteryContract.sol\":996:1003  players */\n  0x01\n    /* \"LotteryContract.sol\":947:1004  abi.encodePacked(block.difficulty, block.number, players) */\n  add(0x20, mload(0x40))\n  tag_8\n  swap4\n  swap3\n  swap2\n  swap1\n  tag_9\n  jump\t// in\ntag_8:\n  mload(0x40)\n  0x20\n  dup2\n  dup4\n  sub\n  sub\n  dup2\n  mstore\n  swap1\n  0x40\n  mstore\n    /* \"LotteryContract.sol\":940:1005  sha256(abi.encodePacked(block.difficulty, block.number, players)) */\n  mload(0x40)\n  tag_10\n  swap2\n  swap1\n  tag_11\n  jump\t// in\ntag_10:\n  0x20\n  mload(0x40)\n  dup1\n  dup4\n  sub\n  dup2\n  dup6\n  gas\n  staticcall\n  iszero\n  dup1\n  iszero\n  tag_13\n  jumpi\n  returndatasize\n  0x00\n  dup1\n  returndatacopy\n  revert(0x00, returndatasize)\ntag_13:\n  pop\n  pop\n  pop\n  mload(0x40)\n  returndatasize\n  not(0x1f)\n  0x1f\n  dup3\n  add\n  and\n  dup3\n  add\n  dup1\n  0x40\n  mstore\n  pop\n  dup2\n  add\n  swap1\n  tag_14\n  swap2\n  swap1\n  tag_15\n  jump\t// in\ntag_14:\n    /* \"LotteryContract.sol\":935:1006  uint(sha256(abi.encodePacked(block.difficulty, block.number, players))) */\n  0x00\n  shr\n    /* \"LotteryContract.sol\":928:1006  return uint(sha256(abi.encodePacked(block.difficulty, block.number, players))) */\n  swap1\n  pop\n    /* \"LotteryContract.sol\":868:1014  function randomToken() view private returns(uint){\r... */\n  swap1\n  jump\t// out\n    /* \"#utility.yul\":7:150   */\ntag_17:\n    /* \"#utility.yul\":64:69   */\n  0x00\n    /* \"#utility.yul\":95:101   */\n  dup2\n    /* \"#utility.yul\":89:102   */\n  mload\n    /* \"#utility.yul\":80:102   */\n  swap1\n  pop\n    /* \"#utility.yul\":111:144   */\n  tag_19\n    /* \"#utility.yul\":138:143   */\n  dup2\n    /* \"#utility.yul\":111:144   */\n  tag_20\n  jump\t// in\ntag_19:\n    /* \"#utility.yul\":7:150   */\n  swap3\n  swap2\n  pop\n  pop\n  jump\t// out\n    /* \"#utility.yul\":156:507   */\ntag_15:\n    /* \"#utility.yul\":226:232   */\n  0x00\n    /* \"#utility.yul\":275:277   */\n  0x20\n    /* \"#utility.yul\":263:272   */\n  dup3\n    /* \"#utility.yul\":254:261   */\n  dup5\n    /* \"#utility.yul\":250:273   */\n  sub\n    /* \"#utility.yul\":246:278   */\n  slt\n    /* \"#utility.yul\":243:362   */\n  iszero\n  tag_22\n  jumpi\n    /* \"#utility.yul\":281:360   */\n  tag_23\n  tag_24\n  jump\t// in\ntag_23:\n    /* \"#utility.yul\":243:362   */\ntag_22:\n    /* \"#utility.yul\":401:402   */\n  0x00\n    /* \"#utility.yul\":426:490   */\n  tag_25\n    /* \"#utility.yul\":482:489   */\n  dup5\n    /* \"#utility.yul\":473:479   */\n  dup3\n    /* \"#utility.yul\":462:471   */\n  dup6\n    /* \"#utility.yul\":458:480   */\n  add\n    /* \"#utility.yul\":426:490   */\n  tag_17\n  jump\t// in\ntag_25:\n    /* \"#utility.yul\":416:490   */\n  swap2\n  pop\n    /* \"#utility.yul\":372:500   */\n  pop\n    /* \"#utility.yul\":156:507   */\n  swap3\n  swap2\n  pop\n  pop\n  jump\t// out\n    /* \"#utility.yul\":513:740   */\ntag_26:\n    /* \"#utility.yul\":606:616   */\n  0x00\n    /* \"#utility.yul\":627:697   */\n  tag_28\n    /* \"#utility.yul\":693:696   */\n  dup4\n    /* \"#utility.yul\":685:691   */\n  dup4\n    /* \"#utility.yul\":627:697   */\n  tag_29\n  jump\t// in\ntag_28:\n    /* \"#utility.yul\":729:733   */\n  0x20\n    /* \"#utility.yul\":724:727   */\n  dup4\n    /* \"#utility.yul\":720:734   */\n  add\n    /* \"#utility.yul\":706:734   */\n  swap1\n  pop\n    /* \"#utility.yul\":513:740   */\n  swap3\n  swap2\n  pop\n  pop\n  jump\t// out\n    /* \"#utility.yul\":746:886   */\ntag_29:\n    /* \"#utility.yul\":847:879   */\n  tag_31\n    /* \"#utility.yul\":873:878   */\n  dup2\n    /* \"#utility.yul\":847:879   */\n  tag_32\n  jump\t// in\ntag_31:\n    /* \"#utility.yul\":842:845   */\n  dup3\n    /* \"#utility.yul\":835:880   */\n  mstore\n    /* \"#utility.yul\":746:886   */\n  pop\n  pop\n  jump\t// out\n    /* \"#utility.yul\":938:1805   */\ntag_33:\n    /* \"#utility.yul\":1088:1091   */\n  0x00\n    /* \"#utility.yul\":1117:1176   */\n  tag_35\n    /* \"#utility.yul\":1170:1175   */\n  dup3\n    /* \"#utility.yul\":1117:1176   */\n  tag_36\n  jump\t// in\ntag_35:\n    /* \"#utility.yul\":1192:1304   */\n  tag_37\n    /* \"#utility.yul\":1297:1303   */\n  dup2\n    /* \"#utility.yul\":1292:1295   */\n  dup6\n    /* \"#utility.yul\":1192:1304   */\n  tag_38\n  jump\t// in\ntag_37:\n    /* \"#utility.yul\":1185:1304   */\n  swap4\n  pop\n    /* \"#utility.yul\":1328:1389   */\n  tag_39\n    /* \"#utility.yul\":1383:1388   */\n  dup4\n    /* \"#utility.yul\":1328:1389   */\n  tag_40\n  jump\t// in\ntag_39:\n    /* \"#utility.yul\":1412:1419   */\n  dup1\n    /* \"#utility.yul\":1443:1444   */\n  0x00\n    /* \"#utility.yul\":1428:1780   */\ntag_41:\n    /* \"#utility.yul\":1453:1459   */\n  dup4\n    /* \"#utility.yul\":1450:1451   */\n  dup2\n    /* \"#utility.yul\":1447:1460   */\n  lt\n    /* \"#utility.yul\":1428:1780   */\n  iszero\n  tag_43\n  jumpi\n    /* \"#utility.yul\":1523:1575   */\n  tag_44\n    /* \"#utility.yul\":1568:1574   */\n  dup3\n    /* \"#utility.yul\":1523:1575   */\n  tag_45\n  jump\t// in\ntag_44:\n    /* \"#utility.yul\":1595:1682   */\n  tag_46\n    /* \"#utility.yul\":1678:1681   */\n  dup9\n    /* \"#utility.yul\":1663:1676   */\n  dup3\n    /* \"#utility.yul\":1595:1682   */\n  tag_26\n  jump\t// in\ntag_46:\n    /* \"#utility.yul\":1588:1682   */\n  swap8\n  pop\n    /* \"#utility.yul\":1705:1770   */\n  tag_47\n    /* \"#utility.yul\":1763:1769   */\n  dup4\n    /* \"#utility.yul\":1705:1770   */\n  tag_48\n  jump\t// in\ntag_47:\n    /* \"#utility.yul\":1695:1770   */\n  swap3\n  pop\n    /* \"#utility.yul\":1488:1780   */\n  pop\n    /* \"#utility.yul\":1475:1476   */\n  0x01\n    /* \"#utility.yul\":1472:1473   */\n  dup2\n    /* \"#utility.yul\":1468:1477   */\n  add\n    /* \"#utility.yul\":1463:1477   */\n  swap1\n  pop\n    /* \"#utility.yul\":1428:1780   */\n  jump(tag_41)\ntag_43:\n    /* \"#utility.yul\":1432:1446   */\n  pop\n    /* \"#utility.yul\":1796:1799   */\n  dup6\n    /* \"#utility.yul\":1789:1799   */\n  swap4\n  pop\n    /* \"#utility.yul\":1093:1805   */\n  pop\n  pop\n  pop\n    /* \"#utility.yul\":938:1805   */\n  swap3\n  swap2\n  pop\n  pop\n  jump\t// out\n    /* \"#utility.yul\":1811:2184   */\ntag_49:\n    /* \"#utility.yul\":1915:1918   */\n  0x00\n    /* \"#utility.yul\":1943:1981   */\n  tag_51\n    /* \"#utility.yul\":1975:1980   */\n  dup3\n    /* \"#utility.yul\":1943:1981   */\n  tag_52\n  jump\t// in\ntag_51:\n    /* \"#utility.yul\":1997:2085   */\n  tag_53\n    /* \"#utility.yul\":2078:2084   */\n  dup2\n    /* \"#utility.yul\":2073:2076   */\n  dup6\n    /* \"#utility.yul\":1997:2085   */\n  tag_54\n  jump\t// in\ntag_53:\n    /* \"#utility.yul\":1990:2085   */\n  swap4\n  pop\n    /* \"#utility.yul\":2094:2146   */\n  tag_55\n    /* \"#utility.yul\":2139:2145   */\n  dup2\n    /* \"#utility.yul\":2134:2137   */\n  dup6\n    /* \"#utility.yul\":2127:2131   */\n  0x20\n    /* \"#utility.yul\":2120:2125   */\n  dup7\n    /* \"#utility.yul\":2116:2132   */\n  add\n    /* \"#utility.yul\":2094:2146   */\n  tag_56\n  jump\t// in\ntag_55:\n    /* \"#utility.yul\":2171:2177   */\n  dup1\n    /* \"#utility.yul\":2166:2169   */\n  dup5\n    /* \"#utility.yul\":2162:2178   */\n  add\n    /* \"#utility.yul\":2155:2178   */\n  swap2\n  pop\n    /* \"#utility.yul\":1919:2184   */\n  pop\n    /* \"#utility.yul\":1811:2184   */\n  swap3\n  swap2\n  pop\n  pop\n  jump\t// out\n    /* \"#utility.yul\":2190:2347   */\ntag_57:\n    /* \"#utility.yul\":2295:2340   */\n  tag_59\n    /* \"#utility.yul\":2315:2339   */\n  tag_60\n    /* \"#utility.yul\":2333:2338   */\n  dup3\n    /* \"#utility.yul\":2315:2339   */\n  tag_61\n  jump\t// in\ntag_60:\n    /* \"#utility.yul\":2295:2340   */\n  tag_62\n  jump\t// in\ntag_59:\n    /* \"#utility.yul\":2290:2293   */\n  dup3\n    /* \"#utility.yul\":2283:2341   */\n  mstore\n    /* \"#utility.yul\":2190:2347   */\n  pop\n  pop\n  jump\t// out\n    /* \"#utility.yul\":2353:2624   */\ntag_11:\n    /* \"#utility.yul\":2483:2486   */\n  0x00\n    /* \"#utility.yul\":2505:2598   */\n  tag_64\n    /* \"#utility.yul\":2594:2597   */\n  dup3\n    /* \"#utility.yul\":2585:2591   */\n  dup5\n    /* \"#utility.yul\":2505:2598   */\n  tag_49\n  jump\t// in\ntag_64:\n    /* \"#utility.yul\":2498:2598   */\n  swap2\n  pop\n    /* \"#utility.yul\":2615:2618   */\n  dup2\n    /* \"#utility.yul\":2608:2618   */\n  swap1\n  pop\n    /* \"#utility.yul\":2353:2624   */\n  swap3\n  swap2\n  pop\n  pop\n  jump\t// out\n    /* \"#utility.yul\":2630:3273   */\ntag_9:\n    /* \"#utility.yul\":2861:2864   */\n  0x00\n    /* \"#utility.yul\":2876:2951   */\n  tag_66\n    /* \"#utility.yul\":2947:2950   */\n  dup3\n    /* \"#utility.yul\":2938:2944   */\n  dup7\n    /* \"#utility.yul\":2876:2951   */\n  tag_57\n  jump\t// in\ntag_66:\n    /* \"#utility.yul\":2976:2978   */\n  0x20\n    /* \"#utility.yul\":2971:2974   */\n  dup3\n    /* \"#utility.yul\":2967:2979   */\n  add\n    /* \"#utility.yul\":2960:2979   */\n  swap2\n  pop\n    /* \"#utility.yul\":2989:3064   */\n  tag_67\n    /* \"#utility.yul\":3060:3063   */\n  dup3\n    /* \"#utility.yul\":3051:3057   */\n  dup6\n    /* \"#utility.yul\":2989:3064   */\n  tag_57\n  jump\t// in\ntag_67:\n    /* \"#utility.yul\":3089:3091   */\n  0x20\n    /* \"#utility.yul\":3084:3087   */\n  dup3\n    /* \"#utility.yul\":3080:3092   */\n  add\n    /* \"#utility.yul\":3073:3092   */\n  swap2\n  pop\n    /* \"#utility.yul\":3109:3247   */\n  tag_68\n    /* \"#utility.yul\":3243:3246   */\n  dup3\n    /* \"#utility.yul\":3234:3240   */\n  dup5\n    /* \"#utility.yul\":3109:3247   */\n  tag_33\n  jump\t// in\ntag_68:\n    /* \"#utility.yul\":3102:3247   */\n  swap2\n  pop\n    /* \"#utility.yul\":3264:3267   */\n  dup2\n    /* \"#utility.yul\":3257:3267   */\n  swap1\n  pop\n    /* \"#utility.yul\":2630:3273   */\n  swap5\n  swap4\n  pop\n  pop\n  pop\n  pop\n  jump\t// out\n    /* \"#utility.yul\":3360:3524   */\ntag_40:\n    /* \"#utility.yul\":3432:3436   */\n  0x00\n    /* \"#utility.yul\":3455:3458   */\n  dup2\n    /* \"#utility.yul\":3447:3458   */\n  swap1\n  pop\n    /* \"#utility.yul\":3478:3481   */\n  dup2\n    /* \"#utility.yul\":3475:3476   */\n  0x00\n    /* \"#utility.yul\":3468:3482   */\n  mstore\n    /* \"#utility.yul\":3512:3516   */\n  0x20\n    /* \"#utility.yul\":3509:3510   */\n  0x00\n    /* \"#utility.yul\":3499:3517   */\n  keccak256\n    /* \"#utility.yul\":3491:3517   */\n  swap1\n  pop\n    /* \"#utility.yul\":3360:3524   */\n  swap2\n  swap1\n  pop\n  jump\t// out\n    /* \"#utility.yul\":3530:3649   */\ntag_36:\n    /* \"#utility.yul\":3602:3608   */\n  0x00\n    /* \"#utility.yul\":3636:3641   */\n  dup2\n    /* \"#utility.yul\":3630:3642   */\n  sload\n    /* \"#utility.yul\":3620:3642   */\n  swap1\n  pop\n    /* \"#utility.yul\":3530:3649   */\n  swap2\n  swap1\n  pop\n  jump\t// out\n    /* \"#utility.yul\":3655:3753   */\ntag_52:\n    /* \"#utility.yul\":3706:3712   */\n  0x00\n    /* \"#utility.yul\":3740:3745   */\n  dup2\n    /* \"#utility.yul\":3734:3746   */\n  mload\n    /* \"#utility.yul\":3724:3746   */\n  swap1\n  pop\n    /* \"#utility.yul\":3655:3753   */\n  swap2\n  swap1\n  pop\n  jump\t// out\n    /* \"#utility.yul\":3759:3877   */\ntag_48:\n    /* \"#utility.yul\":3834:3838   */\n  0x00\n    /* \"#utility.yul\":3866:3870   */\n  0x01\n    /* \"#utility.yul\":3861:3864   */\n  dup3\n    /* \"#utility.yul\":3857:3871   */\n  add\n    /* \"#utility.yul\":3849:3871   */\n  swap1\n  pop\n    /* \"#utility.yul\":3759:3877   */\n  swap2\n  swap1\n  pop\n  jump\t// out\n    /* \"#utility.yul\":3883:4054   */\ntag_38:\n    /* \"#utility.yul\":4008:4019   */\n  0x00\n    /* \"#utility.yul\":4045:4048   */\n  dup2\n    /* \"#utility.yul\":4030:4048   */\n  swap1\n  pop\n    /* \"#utility.yul\":3883:4054   */\n  swap3\n  swap2\n  pop\n  pop\n  jump\t// out\n    /* \"#utility.yul\":4060:4207   */\ntag_54:\n    /* \"#utility.yul\":4161:4172   */\n  0x00\n    /* \"#utility.yul\":4198:4201   */\n  dup2\n    /* \"#utility.yul\":4183:4201   */\n  swap1\n  pop\n    /* \"#utility.yul\":4060:4207   */\n  swap3\n  swap2\n  pop\n  pop\n  jump\t// out\n    /* \"#utility.yul\":4213:4360   */\ntag_77:\n    /* \"#utility.yul\":4271:4278   */\n  0x00\n    /* \"#utility.yul\":4311:4353   */\n  0xffffffffffffffffffffffffffffffffffffffff\n    /* \"#utility.yul\":4304:4309   */\n  dup3\n    /* \"#utility.yul\":4300:4354   */\n  and\n    /* \"#utility.yul\":4289:4354   */\n  swap1\n  pop\n    /* \"#utility.yul\":4213:4360   */\n  swap2\n  swap1\n  pop\n  jump\t// out\n    /* \"#utility.yul\":4366:4470   */\ntag_32:\n    /* \"#utility.yul\":4411:4418   */\n  0x00\n    /* \"#utility.yul\":4440:4464   */\n  tag_80\n    /* \"#utility.yul\":4458:4463   */\n  dup3\n    /* \"#utility.yul\":4440:4464   */\n  tag_81\n  jump\t// in\ntag_80:\n    /* \"#utility.yul\":4429:4464   */\n  swap1\n  pop\n    /* \"#utility.yul\":4366:4470   */\n  swap2\n  swap1\n  pop\n  jump\t// out\n    /* \"#utility.yul\":4476:4553   */\ntag_82:\n    /* \"#utility.yul\":4513:4520   */\n  0x00\n    /* \"#utility.yul\":4542:4547   */\n  dup2\n    /* \"#utility.yul\":4531:4547   */\n  swap1\n  pop\n    /* \"#utility.yul\":4476:4553   */\n  swap2\n  swap1\n  pop\n  jump\t// out\n    /* \"#utility.yul\":4559:4685   */\ntag_81:\n    /* \"#utility.yul\":4596:4603   */\n  0x00\n    /* \"#utility.yul\":4636:4678   */\n  0xffffffffffffffffffffffffffffffffffffffff\n    /* \"#utility.yul\":4629:4634   */\n  dup3\n    /* \"#utility.yul\":4625:4679   */\n  and\n    /* \"#utility.yul\":4614:4679   */\n  swap1\n  pop\n    /* \"#utility.yul\":4559:4685   */\n  swap2\n  swap1\n  pop\n  jump\t// out\n    /* \"#utility.yul\":4691:4768   */\ntag_61:\n    /* \"#utility.yul\":4728:4735   */\n  0x00\n    /* \"#utility.yul\":4757:4762   */\n  dup2\n    /* \"#utility.yul\":4746:4762   */\n  swap1\n  pop\n    /* \"#utility.yul\":4691:4768   */\n  swap2\n  swap1\n  pop\n  jump\t// out\n    /* \"#utility.yul\":4774:5081   */\ntag_56:\n    /* \"#utility.yul\":4842:4843   */\n  0x00\n    /* \"#utility.yul\":4852:4965   */\ntag_87:\n    /* \"#utility.yul\":4866:4872   */\n  dup4\n    /* \"#utility.yul\":4863:4864   */\n  dup2\n    /* \"#utility.yul\":4860:4873   */\n  lt\n    /* \"#utility.yul\":4852:4965   */\n  iszero\n  tag_89\n  jumpi\n    /* \"#utility.yul\":4951:4952   */\n  dup1\n    /* \"#utility.yul\":4946:4949   */\n  dup3\n    /* \"#utility.yul\":4942:4953   */\n  add\n    /* \"#utility.yul\":4936:4954   */\n  mload\n    /* \"#utility.yul\":4932:4933   */\n  dup2\n    /* \"#utility.yul\":4927:4930   */\n  dup5\n    /* \"#utility.yul\":4923:4934   */\n  add\n    /* \"#utility.yul\":4916:4955   */\n  mstore\n    /* \"#utility.yul\":4888:4890   */\n  0x20\n    /* \"#utility.yul\":4885:4886   */\n  dup2\n    /* \"#utility.yul\":4881:4891   */\n  add\n    /* \"#utility.yul\":4876:4891   */\n  swap1\n  pop\n    /* \"#utility.yul\":4852:4965   */\n  jump(tag_87)\ntag_89:\n    /* \"#utility.yul\":4983:4989   */\n  dup4\n    /* \"#utility.yul\":4980:4981   */\n  dup2\n    /* \"#utility.yul\":4977:4990   */\n  gt\n    /* \"#utility.yul\":4974:5075   */\n  iszero\n  tag_90\n  jumpi\n    /* \"#utility.yul\":5063:5064   */\n  0x00\n    /* \"#utility.yul\":5054:5060   */\n  dup5\n    /* \"#utility.yul\":5049:5052   */\n  dup5\n    /* \"#utility.yul\":5045:5061   */\n  add\n    /* \"#utility.yul\":5038:5065   */\n  mstore\n    /* \"#utility.yul\":4974:5075   */\ntag_90:\n    /* \"#utility.yul\":4823:5081   */\n  pop\n    /* \"#utility.yul\":4774:5081   */\n  pop\n  pop\n  pop\n  jump\t// out\n    /* \"#utility.yul\":5087:5269   */\ntag_91:\n    /* \"#utility.yul\":5164:5169   */\n  0x00\n    /* \"#utility.yul\":5189:5263   */\n  tag_93\n    /* \"#utility.yul\":5228:5262   */\n  tag_94\n    /* \"#utility.yul\":5251:5261   */\n  dup4\n    /* \"#utility.yul\":5228:5262   */\n  tag_95\n  jump\t// in\ntag_94:\n    /* \"#utility.yul\":5189:5263   */\n  tag_77\n  jump\t// in\ntag_93:\n    /* \"#utility.yul\":5180:5263   */\n  swap1\n  pop\n    /* \"#utility.yul\":5087:5269   */\n  swap2\n  swap1\n  pop\n  jump\t// out\n    /* \"#utility.yul\":5275:5354   */\ntag_62:\n    /* \"#utility.yul\":5314:5321   */\n  0x00\n    /* \"#utility.yul\":5343:5348   */\n  dup2\n    /* \"#utility.yul\":5332:5348   */\n  swap1\n  pop\n    /* \"#utility.yul\":5275:5354   */\n  swap2\n  swap1\n  pop\n  jump\t// out\n    /* \"#utility.yul\":5360:5520   */\ntag_45:\n    /* \"#utility.yul\":5423:5428   */\n  0x00\n    /* \"#utility.yul\":5448:5513   */\n  tag_98\n    /* \"#utility.yul\":5507:5511   */\n  dup3\n    /* \"#utility.yul\":5501:5512   */\n  sload\n    /* \"#utility.yul\":5448:5513   */\n  tag_91\n  jump\t// in\ntag_98:\n    /* \"#utility.yul\":5439:5513   */\n  swap1\n  pop\n    /* \"#utility.yul\":5360:5520   */\n  swap2\n  swap1\n  pop\n  jump\t// out\n    /* \"#utility.yul\":5649:5766   */\ntag_24:\n    /* \"#utility.yul\":5758:5759   */\n  0x00\n    /* \"#utility.yul\":5755:5756   */\n  dup1\n    /* \"#utility.yul\":5748:5760   */\n  revert\n    /* \"#utility.yul\":5772:5874   */\ntag_95:\n    /* \"#utility.yul\":5814:5822   */\n  0x00\n    /* \"#utility.yul\":5861:5866   */\n  dup2\n    /* \"#utility.yul\":5858:5859   */\n  0x00\n    /* \"#utility.yul\":5854:5867   */\n  shr\n    /* \"#utility.yul\":5833:5867   */\n  swap1\n  pop\n    /* \"#utility.yul\":5772:5874   */\n  swap2\n  swap1\n  pop\n  jump\t// out\n    /* \"#utility.yul\":5880:6002   */\ntag_20:\n    /* \"#utility.yul\":5953:5977   */\n  tag_104\n    /* \"#utility.yul\":5971:5976   */\n  dup2\n    /* \"#utility.yul\":5953:5977   */\n  tag_82\n  jump\t// in\ntag_104:\n    /* \"#utility.yul\":5946:5951   */\n  dup2\n    /* \"#utility.yul\":5943:5978   */\n  eq\n    /* \"#utility.yul\":5933:5996   */\n  tag_105\n  jumpi\n    /* \"#utility.yul\":5992:5993   */\n  0x00\n    /* \"#utility.yul\":5989:5990   */\n  dup1\n    /* \"#utility.yul\":5982:5994   */\n  revert\n    /* \"#utility.yul\":5933:5996   */\ntag_105:\n    /* \"#utility.yul\":5880:6002   */\n  pop\n  jump\t// out\n    /* \"LotteryContract.sol\":59:1178  contract main{\r... */\ntag_6:\n  dataSize(sub_0)\n  dup1\n  dataOffset(sub_0)\n  0x00\n  codecopy\n  0x00\n  return\nstop\n\nsub_0: assembly {\n        /* \"LotteryContract.sol\":59:1178  contract main{\r... */\n      mstore(0x40, 0x80)\n      jumpi(tag_1, lt(calldatasize, 0x04))\n      shr(0xe0, calldataload(0x00))\n      dup1\n      0x19b37417\n      eq\n      tag_2\n      jumpi\n      dup1\n      0x481c6a75\n      eq\n      tag_3\n      jumpi\n      dup1\n      0x5d495aea\n      eq\n      tag_4\n      jumpi\n      dup1\n      0xf71d96cb\n      eq\n      tag_5\n      jumpi\n    tag_1:\n      0x00\n      dup1\n      revert\n        /* \"LotteryContract.sol\":491:834  function ENTER() payable public{\r... */\n    tag_2:\n      tag_6\n      tag_7\n      jump\t// in\n    tag_6:\n      stop\n        /* \"LotteryContract.sol\":81:103  address public manager */\n    tag_3:\n      callvalue\n      dup1\n      iszero\n      tag_8\n      jumpi\n      0x00\n      dup1\n      revert\n    tag_8:\n      pop\n      tag_9\n      tag_10\n      jump\t// in\n    tag_9:\n      mload(0x40)\n      tag_11\n      swap2\n      swap1\n      tag_12\n      jump\t// in\n    tag_11:\n      mload(0x40)\n      dup1\n      swap2\n      sub\n      swap1\n      return\n        /* \"LotteryContract.sol\":1022:1173  function pickWinner() public{\r... */\n    tag_4:\n      callvalue\n      dup1\n      iszero\n      tag_13\n      jumpi\n      0x00\n      dup1\n      revert\n    tag_13:\n      pop\n      tag_14\n      tag_15\n      jump\t// in\n    tag_14:\n      stop\n        /* \"LotteryContract.sol\":110:142  address payable[] public players */\n    tag_5:\n      callvalue\n      dup1\n      iszero\n      tag_16\n      jumpi\n      0x00\n      dup1\n      revert\n    tag_16:\n      pop\n      tag_17\n      0x04\n      dup1\n      calldatasize\n      sub\n      dup2\n      add\n      swap1\n      tag_18\n      swap2\n      swap1\n      tag_19\n      jump\t// in\n    tag_18:\n      tag_20\n      jump\t// in\n    tag_17:\n      mload(0x40)\n      tag_21\n      swap2\n      swap1\n      tag_22\n      jump\t// in\n    tag_21:\n      mload(0x40)\n      dup1\n      swap2\n      sub\n      swap1\n      return\n        /* \"LotteryContract.sol\":491:834  function ENTER() payable public{\r... */\n    tag_7:\n        /* \"LotteryContract.sol\":552:562  msg.sender */\n      caller\n        /* \"LotteryContract.sol\":541:562  manager != msg.sender */\n      0xffffffffffffffffffffffffffffffffffffffff\n      and\n        /* \"LotteryContract.sol\":541:548  manager */\n      0x00\n      dup1\n      sload\n      swap1\n      0x0100\n      exp\n      swap1\n      div\n      0xffffffffffffffffffffffffffffffffffffffff\n      and\n        /* \"LotteryContract.sol\":541:562  manager != msg.sender */\n      0xffffffffffffffffffffffffffffffffffffffff\n      and\n      eq\n      iszero\n        /* \"LotteryContract.sol\":533:609  require(manager != msg.sender, \"You can not participate as you are manager\") */\n      tag_24\n      jumpi\n      mload(0x40)\n      0x08c379a000000000000000000000000000000000000000000000000000000000\n      dup2\n      mstore\n      0x04\n      add\n      tag_25\n      swap1\n      tag_26\n      jump\t// in\n    tag_25:\n      mload(0x40)\n      dup1\n      swap2\n      sub\n      swap1\n      revert\n    tag_24:\n        /* \"LotteryContract.sol\":646:651  false */\n      0x00\n        /* \"LotteryContract.sol\":628:651  alreadyEnter() == false */\n      iszero\n      iszero\n        /* \"LotteryContract.sol\":628:642  alreadyEnter() */\n      tag_27\n        /* \"LotteryContract.sol\":628:640  alreadyEnter */\n      tag_28\n        /* \"LotteryContract.sol\":628:642  alreadyEnter() */\n      jump\t// in\n    tag_27:\n        /* \"LotteryContract.sol\":628:651  alreadyEnter() == false */\n      iszero\n      iszero\n      eq\n        /* \"LotteryContract.sol\":620:687  require(alreadyEnter() == false, \"You already joined this contest\") */\n      tag_29\n      jumpi\n      mload(0x40)\n      0x08c379a000000000000000000000000000000000000000000000000000000000\n      dup2\n      mstore\n      0x04\n      add\n      tag_30\n      swap1\n      tag_31\n      jump\t// in\n    tag_30:\n      mload(0x40)\n      dup1\n      swap2\n      sub\n      swap1\n      revert\n    tag_29:\n        /* \"LotteryContract.sol\":719:726  1 ether */\n      0x0de0b6b3a7640000\n        /* \"LotteryContract.sol\":706:715  msg.value */\n      callvalue\n        /* \"LotteryContract.sol\":706:726  msg.value == 1 ether */\n      eq\n        /* \"LotteryContract.sol\":698:782  require(msg.value == 1 ether, \"You have to pay fees of 1 ether for joining contest\") */\n      tag_32\n      jumpi\n      mload(0x40)\n      0x08c379a000000000000000000000000000000000000000000000000000000000\n      dup2\n      mstore\n      0x04\n      add\n      tag_33\n      swap1\n      tag_34\n      jump\t// in\n    tag_33:\n      mload(0x40)\n      dup1\n      swap2\n      sub\n      swap1\n      revert\n    tag_32:\n        /* \"LotteryContract.sol\":793:800  players */\n      0x01\n        /* \"LotteryContract.sol\":814:824  msg.sender */\n      caller\n        /* \"LotteryContract.sol\":793:826  players.push(payable(msg.sender)) */\n      swap1\n      dup1\n      0x01\n      dup2\n      sload\n      add\n      dup1\n      dup3\n      sstore\n      dup1\n      swap2\n      pop\n      pop\n      0x01\n      swap1\n      sub\n      swap1\n      0x00\n      mstore\n      keccak256(0x00, 0x20)\n      add\n      0x00\n      swap1\n      swap2\n      swap1\n      swap2\n      swap1\n      swap2\n      0x0100\n      exp\n      dup2\n      sload\n      dup2\n      0xffffffffffffffffffffffffffffffffffffffff\n      mul\n      not\n      and\n      swap1\n      dup4\n      0xffffffffffffffffffffffffffffffffffffffff\n      and\n      mul\n      or\n      swap1\n      sstore\n      pop\n        /* \"LotteryContract.sol\":491:834  function ENTER() payable public{\r... */\n      jump\t// out\n        /* \"LotteryContract.sol\":81:103  address public manager */\n    tag_10:\n      0x00\n      dup1\n      sload\n      swap1\n      0x0100\n      exp\n      swap1\n      div\n      0xffffffffffffffffffffffffffffffffffffffff\n      and\n      dup2\n      jump\t// out\n        /* \"LotteryContract.sol\":1022:1173  function pickWinner() public{\r... */\n    tag_15:\n        /* \"LotteryContract.sol\":1080:1090  msg.sender */\n      caller\n        /* \"LotteryContract.sol\":1069:1090  manager == msg.sender */\n      0xffffffffffffffffffffffffffffffffffffffff\n      and\n        /* \"LotteryContract.sol\":1069:1076  manager */\n      0x00\n      dup1\n      sload\n      swap1\n      0x0100\n      exp\n      swap1\n      div\n      0xffffffffffffffffffffffffffffffffffffffff\n      and\n        /* \"LotteryContract.sol\":1069:1090  manager == msg.sender */\n      0xffffffffffffffffffffffffffffffffffffffff\n      and\n      eq\n        /* \"LotteryContract.sol\":1061:1113  require(manager == msg.sender, \"You can not access\") */\n      tag_37\n      jumpi\n      mload(0x40)\n      0x08c379a000000000000000000000000000000000000000000000000000000000\n      dup2\n      mstore\n      0x04\n      add\n      tag_38\n      swap1\n      tag_39\n      jump\t// in\n    tag_38:\n      mload(0x40)\n      dup1\n      swap2\n      sub\n      swap1\n      revert\n    tag_37:\n        /* \"LotteryContract.sol\":1124:1134  uint index */\n      0x00\n        /* \"LotteryContract.sol\":1151:1158  players */\n      0x01\n        /* \"LotteryContract.sol\":1151:1165  players.length */\n      dup1\n      sload\n      swap1\n      pop\n        /* \"LotteryContract.sol\":1137:1150  randomToken() */\n      tag_40\n        /* \"LotteryContract.sol\":1137:1148  randomToken */\n      tag_41\n        /* \"LotteryContract.sol\":1137:1150  randomToken() */\n      jump\t// in\n    tag_40:\n        /* \"LotteryContract.sol\":1137:1165  randomToken()%players.length */\n      tag_42\n      swap2\n      swap1\n      tag_43\n      jump\t// in\n    tag_42:\n        /* \"LotteryContract.sol\":1124:1165  uint index = randomToken()%players.length */\n      swap1\n      pop\n        /* \"LotteryContract.sol\":1050:1173  {\r... */\n      pop\n        /* \"LotteryContract.sol\":1022:1173  function pickWinner() public{\r... */\n      jump\t// out\n        /* \"LotteryContract.sol\":110:142  address payable[] public players */\n    tag_20:\n      0x01\n      dup2\n      dup2\n      sload\n      dup2\n      lt\n      tag_44\n      jumpi\n      0x00\n      dup1\n      revert\n    tag_44:\n      swap1\n      0x00\n      mstore\n      keccak256(0x00, 0x20)\n      add\n      0x00\n      swap2\n      pop\n      sload\n      swap1\n      0x0100\n      exp\n      swap1\n      div\n      0xffffffffffffffffffffffffffffffffffffffff\n      and\n      dup2\n      jump\t// out\n        /* \"LotteryContract.sol\":236:483  function alreadyEnter() private view returns(bool){\r... */\n    tag_28:\n        /* \"LotteryContract.sol\":281:285  bool */\n      0x00\n        /* \"LotteryContract.sol\":301:311  uint index */\n      dup1\n        /* \"LotteryContract.sol\":314:315  0 */\n      0x00\n        /* \"LotteryContract.sol\":301:315  uint index = 0 */\n      swap1\n      pop\n        /* \"LotteryContract.sol\":297:453  for(uint index = 0; index < players.length; index++){\r... */\n    tag_47:\n        /* \"LotteryContract.sol\":325:332  players */\n      0x01\n        /* \"LotteryContract.sol\":325:339  players.length */\n      dup1\n      sload\n      swap1\n      pop\n        /* \"LotteryContract.sol\":317:322  index */\n      dup2\n        /* \"LotteryContract.sol\":317:339  index < players.length */\n      lt\n        /* \"LotteryContract.sol\":297:453  for(uint index = 0; index < players.length; index++){\r... */\n      iszero\n      tag_48\n      jumpi\n        /* \"LotteryContract.sol\":385:395  msg.sender */\n      caller\n        /* \"LotteryContract.sol\":367:395  players[index] == msg.sender */\n      0xffffffffffffffffffffffffffffffffffffffff\n      and\n        /* \"LotteryContract.sol\":367:374  players */\n      0x01\n        /* \"LotteryContract.sol\":375:380  index */\n      dup3\n        /* \"LotteryContract.sol\":367:381  players[index] */\n      dup2\n      sload\n      dup2\n      lt\n      tag_50\n      jumpi\n      tag_51\n      tag_52\n      jump\t// in\n    tag_51:\n    tag_50:\n      swap1\n      0x00\n      mstore\n      keccak256(0x00, 0x20)\n      add\n      0x00\n      swap1\n      sload\n      swap1\n      0x0100\n      exp\n      swap1\n      div\n      0xffffffffffffffffffffffffffffffffffffffff\n      and\n        /* \"LotteryContract.sol\":367:395  players[index] == msg.sender */\n      0xffffffffffffffffffffffffffffffffffffffff\n      and\n      eq\n        /* \"LotteryContract.sol\":364:442  if(players[index] == msg.sender){\r... */\n      iszero\n      tag_54\n      jumpi\n        /* \"LotteryContract.sol\":422:426  true */\n      0x01\n        /* \"LotteryContract.sol\":415:426  return true */\n      swap2\n      pop\n      pop\n      jump(tag_46)\n        /* \"LotteryContract.sol\":364:442  if(players[index] == msg.sender){\r... */\n    tag_54:\n        /* \"LotteryContract.sol\":341:348  index++ */\n      dup1\n      dup1\n      tag_55\n      swap1\n      tag_56\n      jump\t// in\n    tag_55:\n      swap2\n      pop\n      pop\n        /* \"LotteryContract.sol\":297:453  for(uint index = 0; index < players.length; index++){\r... */\n      jump(tag_47)\n    tag_48:\n      pop\n        /* \"LotteryContract.sol\":470:475  false */\n      0x00\n        /* \"LotteryContract.sol\":463:475  return false */\n      swap1\n      pop\n        /* \"LotteryContract.sol\":236:483  function alreadyEnter() private view returns(bool){\r... */\n    tag_46:\n      swap1\n      jump\t// out\n        /* \"LotteryContract.sol\":868:1014  function randomToken() view private returns(uint){\r... */\n    tag_41:\n        /* \"LotteryContract.sol\":912:916  uint */\n      0x00\n        /* \"LotteryContract.sol\":940:1005  sha256(abi.encodePacked(block.difficulty, block.number, players)) */\n      0x02\n        /* \"LotteryContract.sol\":964:980  block.difficulty */\n      difficulty\n        /* \"LotteryContract.sol\":982:994  block.number */\n      number\n        /* \"LotteryContract.sol\":996:1003  players */\n      0x01\n        /* \"LotteryContract.sol\":947:1004  abi.encodePacked(block.difficulty, block.number, players) */\n      add(0x20, mload(0x40))\n      tag_58\n      swap4\n      swap3\n      swap2\n      swap1\n      tag_59\n      jump\t// in\n    tag_58:\n      mload(0x40)\n      0x20\n      dup2\n      dup4\n      sub\n      sub\n      dup2\n      mstore\n      swap1\n      0x40\n      mstore\n        /* \"LotteryContract.sol\":940:1005  sha256(abi.encodePacked(block.difficulty, block.number, players)) */\n      mload(0x40)\n      tag_60\n      swap2\n      swap1\n      tag_61\n      jump\t// in\n    tag_60:\n      0x20\n      mload(0x40)\n      dup1\n      dup4\n      sub\n      dup2\n      dup6\n      gas\n      staticcall\n      iszero\n      dup1\n      iszero\n      tag_63\n      jumpi\n      returndatasize\n      0x00\n      dup1\n      returndatacopy\n      revert(0x00, returndatasize)\n    tag_63:\n      pop\n      pop\n      pop\n      mload(0x40)\n      returndatasize\n      not(0x1f)\n      0x1f\n      dup3\n      add\n      and\n      dup3\n      add\n      dup1\n      0x40\n      mstore\n      pop\n      dup2\n      add\n      swap1\n      tag_64\n      swap2\n      swap1\n      tag_65\n      jump\t// in\n    tag_64:\n        /* \"LotteryContract.sol\":935:1006  uint(sha256(abi.encodePacked(block.difficulty, block.number, players))) */\n      0x00\n      shr\n        /* \"LotteryContract.sol\":928:1006  return uint(sha256(abi.encodePacked(block.difficulty, block.number, players))) */\n      swap1\n      pop\n        /* \"LotteryContract.sol\":868:1014  function randomToken() view private returns(uint){\r... */\n      swap1\n      jump\t// out\n        /* \"#utility.yul\":7:150   */\n    tag_67:\n        /* \"#utility.yul\":64:69   */\n      0x00\n        /* \"#utility.yul\":95:101   */\n      dup2\n        /* \"#utility.yul\":89:102   */\n      mload\n        /* \"#utility.yul\":80:102   */\n      swap1\n      pop\n        /* \"#utility.yul\":111:144   */\n      tag_69\n        /* \"#utility.yul\":138:143   */\n      dup2\n        /* \"#utility.yul\":111:144   */\n      tag_70\n      jump\t// in\n    tag_69:\n        /* \"#utility.yul\":7:150   */\n      swap3\n      swap2\n      pop\n      pop\n      jump\t// out\n        /* \"#utility.yul\":156:295   */\n    tag_71:\n        /* \"#utility.yul\":202:207   */\n      0x00\n        /* \"#utility.yul\":240:246   */\n      dup2\n        /* \"#utility.yul\":227:247   */\n      calldataload\n        /* \"#utility.yul\":218:247   */\n      swap1\n      pop\n        /* \"#utility.yul\":256:289   */\n      tag_73\n        /* \"#utility.yul\":283:288   */\n      dup2\n        /* \"#utility.yul\":256:289   */\n      tag_74\n      jump\t// in\n    tag_73:\n        /* \"#utility.yul\":156:295   */\n      swap3\n      swap2\n      pop\n      pop\n      jump\t// out\n        /* \"#utility.yul\":301:652   */\n    tag_65:\n        /* \"#utility.yul\":371:377   */\n      0x00\n        /* \"#utility.yul\":420:422   */\n      0x20\n        /* \"#utility.yul\":408:417   */\n      dup3\n        /* \"#utility.yul\":399:406   */\n      dup5\n        /* \"#utility.yul\":395:418   */\n      sub\n        /* \"#utility.yul\":391:423   */\n      slt\n        /* \"#utility.yul\":388:507   */\n      iszero\n      tag_76\n      jumpi\n        /* \"#utility.yul\":426:505   */\n      tag_77\n      tag_78\n      jump\t// in\n    tag_77:\n        /* \"#utility.yul\":388:507   */\n    tag_76:\n        /* \"#utility.yul\":546:547   */\n      0x00\n        /* \"#utility.yul\":571:635   */\n      tag_79\n        /* \"#utility.yul\":627:634   */\n      dup5\n        /* \"#utility.yul\":618:624   */\n      dup3\n        /* \"#utility.yul\":607:616   */\n      dup6\n        /* \"#utility.yul\":603:625   */\n      add\n        /* \"#utility.yul\":571:635   */\n      tag_67\n      jump\t// in\n    tag_79:\n        /* \"#utility.yul\":561:635   */\n      swap2\n      pop\n        /* \"#utility.yul\":517:645   */\n      pop\n        /* \"#utility.yul\":301:652   */\n      swap3\n      swap2\n      pop\n      pop\n      jump\t// out\n        /* \"#utility.yul\":658:987   */\n    tag_19:\n        /* \"#utility.yul\":717:723   */\n      0x00\n        /* \"#utility.yul\":766:768   */\n      0x20\n        /* \"#utility.yul\":754:763   */\n      dup3\n        /* \"#utility.yul\":745:752   */\n      dup5\n        /* \"#utility.yul\":741:764   */\n      sub\n        /* \"#utility.yul\":737:769   */\n      slt\n        /* \"#utility.yul\":734:853   */\n      iszero\n      tag_81\n      jumpi\n        /* \"#utility.yul\":772:851   */\n      tag_82\n      tag_78\n      jump\t// in\n    tag_82:\n        /* \"#utility.yul\":734:853   */\n    tag_81:\n        /* \"#utility.yul\":892:893   */\n      0x00\n        /* \"#utility.yul\":917:970   */\n      tag_83\n        /* \"#utility.yul\":962:969   */\n      dup5\n        /* \"#utility.yul\":953:959   */\n      dup3\n        /* \"#utility.yul\":942:951   */\n      dup6\n        /* \"#utility.yul\":938:960   */\n      add\n        /* \"#utility.yul\":917:970   */\n      tag_71\n      jump\t// in\n    tag_83:\n        /* \"#utility.yul\":907:970   */\n      swap2\n      pop\n        /* \"#utility.yul\":863:980   */\n      pop\n        /* \"#utility.yul\":658:987   */\n      swap3\n      swap2\n      pop\n      pop\n      jump\t// out\n        /* \"#utility.yul\":993:1220   */\n    tag_84:\n        /* \"#utility.yul\":1086:1096   */\n      0x00\n        /* \"#utility.yul\":1107:1177   */\n      tag_86\n        /* \"#utility.yul\":1173:1176   */\n      dup4\n        /* \"#utility.yul\":1165:1171   */\n      dup4\n        /* \"#utility.yul\":1107:1177   */\n      tag_87\n      jump\t// in\n    tag_86:\n        /* \"#utility.yul\":1209:1213   */\n      0x20\n        /* \"#utility.yul\":1204:1207   */\n      dup4\n        /* \"#utility.yul\":1200:1214   */\n      add\n        /* \"#utility.yul\":1186:1214   */\n      swap1\n      pop\n        /* \"#utility.yul\":993:1220   */\n      swap3\n      swap2\n      pop\n      pop\n      jump\t// out\n        /* \"#utility.yul\":1226:1368   */\n    tag_88:\n        /* \"#utility.yul\":1329:1361   */\n      tag_90\n        /* \"#utility.yul\":1355:1360   */\n      dup2\n        /* \"#utility.yul\":1329:1361   */\n      tag_91\n      jump\t// in\n    tag_90:\n        /* \"#utility.yul\":1324:1327   */\n      dup3\n        /* \"#utility.yul\":1317:1362   */\n      mstore\n        /* \"#utility.yul\":1226:1368   */\n      pop\n      pop\n      jump\t// out\n        /* \"#utility.yul\":1374:1514   */\n    tag_87:\n        /* \"#utility.yul\":1475:1507   */\n      tag_93\n        /* \"#utility.yul\":1501:1506   */\n      dup2\n        /* \"#utility.yul\":1475:1507   */\n      tag_91\n      jump\t// in\n    tag_93:\n        /* \"#utility.yul\":1470:1473   */\n      dup3\n        /* \"#utility.yul\":1463:1508   */\n      mstore\n        /* \"#utility.yul\":1374:1514   */\n      pop\n      pop\n      jump\t// out\n        /* \"#utility.yul\":1520:1638   */\n    tag_94:\n        /* \"#utility.yul\":1607:1631   */\n      tag_96\n        /* \"#utility.yul\":1625:1630   */\n      dup2\n        /* \"#utility.yul\":1607:1631   */\n      tag_97\n      jump\t// in\n    tag_96:\n        /* \"#utility.yul\":1602:1605   */\n      dup3\n        /* \"#utility.yul\":1595:1632   */\n      mstore\n        /* \"#utility.yul\":1520:1638   */\n      pop\n      pop\n      jump\t// out\n        /* \"#utility.yul\":1690:2557   */\n    tag_98:\n        /* \"#utility.yul\":1840:1843   */\n      0x00\n        /* \"#utility.yul\":1869:1928   */\n      tag_100\n        /* \"#utility.yul\":1922:1927   */\n      dup3\n        /* \"#utility.yul\":1869:1928   */\n      tag_101\n      jump\t// in\n    tag_100:\n        /* \"#utility.yul\":1944:2056   */\n      tag_102\n        /* \"#utility.yul\":2049:2055   */\n      dup2\n        /* \"#utility.yul\":2044:2047   */\n      dup6\n        /* \"#utility.yul\":1944:2056   */\n      tag_103\n      jump\t// in\n    tag_102:\n        /* \"#utility.yul\":1937:2056   */\n      swap4\n      pop\n        /* \"#utility.yul\":2080:2141   */\n      tag_104\n        /* \"#utility.yul\":2135:2140   */\n      dup4\n        /* \"#utility.yul\":2080:2141   */\n      tag_105\n      jump\t// in\n    tag_104:\n        /* \"#utility.yul\":2164:2171   */\n      dup1\n        /* \"#utility.yul\":2195:2196   */\n      0x00\n        /* \"#utility.yul\":2180:2532   */\n    tag_106:\n        /* \"#utility.yul\":2205:2211   */\n      dup4\n        /* \"#utility.yul\":2202:2203   */\n      dup2\n        /* \"#utility.yul\":2199:2212   */\n      lt\n        /* \"#utility.yul\":2180:2532   */\n      iszero\n      tag_108\n      jumpi\n        /* \"#utility.yul\":2275:2327   */\n      tag_109\n        /* \"#utility.yul\":2320:2326   */\n      dup3\n        /* \"#utility.yul\":2275:2327   */\n      tag_110\n      jump\t// in\n    tag_109:\n        /* \"#utility.yul\":2347:2434   */\n      tag_111\n        /* \"#utility.yul\":2430:2433   */\n      dup9\n        /* \"#utility.yul\":2415:2428   */\n      dup3\n        /* \"#utility.yul\":2347:2434   */\n      tag_84\n      jump\t// in\n    tag_111:\n        /* \"#utility.yul\":2340:2434   */\n      swap8\n      pop\n        /* \"#utility.yul\":2457:2522   */\n      tag_112\n        /* \"#utility.yul\":2515:2521   */\n      dup4\n        /* \"#utility.yul\":2457:2522   */\n      tag_113\n      jump\t// in\n    tag_112:\n        /* \"#utility.yul\":2447:2522   */\n      swap3\n      pop\n        /* \"#utility.yul\":2240:2532   */\n      pop\n        /* \"#utility.yul\":2227:2228   */\n      0x01\n        /* \"#utility.yul\":2224:2225   */\n      dup2\n        /* \"#utility.yul\":2220:2229   */\n      add\n        /* \"#utility.yul\":2215:2229   */\n      swap1\n      pop\n        /* \"#utility.yul\":2180:2532   */\n      jump(tag_106)\n    tag_108:\n        /* \"#utility.yul\":2184:2198   */\n      pop\n        /* \"#utility.yul\":2548:2551   */\n      dup6\n        /* \"#utility.yul\":2541:2551   */\n      swap4\n      pop\n        /* \"#utility.yul\":1845:2557   */\n      pop\n      pop\n      pop\n        /* \"#utility.yul\":1690:2557   */\n      swap3\n      swap2\n      pop\n      pop\n      jump\t// out\n        /* \"#utility.yul\":2563:2936   */\n    tag_114:\n        /* \"#utility.yul\":2667:2670   */\n      0x00\n        /* \"#utility.yul\":2695:2733   */\n      tag_116\n        /* \"#utility.yul\":2727:2732   */\n      dup3\n        /* \"#utility.yul\":2695:2733   */\n      tag_117\n      jump\t// in\n    tag_116:\n        /* \"#utility.yul\":2749:2837   */\n      tag_118\n        /* \"#utility.yul\":2830:2836   */\n      dup2\n        /* \"#utility.yul\":2825:2828   */\n      dup6\n        /* \"#utility.yul\":2749:2837   */\n      tag_119\n      jump\t// in\n    tag_118:\n        /* \"#utility.yul\":2742:2837   */\n      swap4\n      pop\n        /* \"#utility.yul\":2846:2898   */\n      tag_120\n        /* \"#utility.yul\":2891:2897   */\n      dup2\n        /* \"#utility.yul\":2886:2889   */\n      dup6\n        /* \"#utility.yul\":2879:2883   */\n      0x20\n        /* \"#utility.yul\":2872:2877   */\n      dup7\n        /* \"#utility.yul\":2868:2884   */\n      add\n        /* \"#utility.yul\":2846:2898   */\n      tag_121\n      jump\t// in\n    tag_120:\n        /* \"#utility.yul\":2923:2929   */\n      dup1\n        /* \"#utility.yul\":2918:2921   */\n      dup5\n        /* \"#utility.yul\":2914:2930   */\n      add\n        /* \"#utility.yul\":2907:2930   */\n      swap2\n      pop\n        /* \"#utility.yul\":2671:2936   */\n      pop\n        /* \"#utility.yul\":2563:2936   */\n      swap3\n      swap2\n      pop\n      pop\n      jump\t// out\n        /* \"#utility.yul\":2942:3308   */\n    tag_122:\n        /* \"#utility.yul\":3084:3087   */\n      0x00\n        /* \"#utility.yul\":3105:3172   */\n      tag_124\n        /* \"#utility.yul\":3169:3171   */\n      0x12\n        /* \"#utility.yul\":3164:3167   */\n      dup4\n        /* \"#utility.yul\":3105:3172   */\n      tag_125\n      jump\t// in\n    tag_124:\n        /* \"#utility.yul\":3098:3172   */\n      swap2\n      pop\n        /* \"#utility.yul\":3181:3274   */\n      tag_126\n        /* \"#utility.yul\":3270:3273   */\n      dup3\n        /* \"#utility.yul\":3181:3274   */\n      tag_127\n      jump\t// in\n    tag_126:\n        /* \"#utility.yul\":3299:3301   */\n      0x20\n        /* \"#utility.yul\":3294:3297   */\n      dup3\n        /* \"#utility.yul\":3290:3302   */\n      add\n        /* \"#utility.yul\":3283:3302   */\n      swap1\n      pop\n        /* \"#utility.yul\":2942:3308   */\n      swap2\n      swap1\n      pop\n      jump\t// out\n        /* \"#utility.yul\":3314:3680   */\n    tag_128:\n        /* \"#utility.yul\":3456:3459   */\n      0x00\n        /* \"#utility.yul\":3477:3544   */\n      tag_130\n        /* \"#utility.yul\":3541:3543   */\n      0x1f\n        /* \"#utility.yul\":3536:3539   */\n      dup4\n        /* \"#utility.yul\":3477:3544   */\n      tag_125\n      jump\t// in\n    tag_130:\n        /* \"#utility.yul\":3470:3544   */\n      swap2\n      pop\n        /* \"#utility.yul\":3553:3646   */\n      tag_131\n        /* \"#utility.yul\":3642:3645   */\n      dup3\n        /* \"#utility.yul\":3553:3646   */\n      tag_132\n      jump\t// in\n    tag_131:\n        /* \"#utility.yul\":3671:3673   */\n      0x20\n        /* \"#utility.yul\":3666:3669   */\n      dup3\n        /* \"#utility.yul\":3662:3674   */\n      add\n        /* \"#utility.yul\":3655:3674   */\n      swap1\n      pop\n        /* \"#utility.yul\":3314:3680   */\n      swap2\n      swap1\n      pop\n      jump\t// out\n        /* \"#utility.yul\":3686:4052   */\n    tag_133:\n        /* \"#utility.yul\":3828:3831   */\n      0x00\n        /* \"#utility.yul\":3849:3916   */\n      tag_135\n        /* \"#utility.yul\":3913:3915   */\n      0x2a\n        /* \"#utility.yul\":3908:3911   */\n      dup4\n        /* \"#utility.yul\":3849:3916   */\n      tag_125\n      jump\t// in\n    tag_135:\n        /* \"#utility.yul\":3842:3916   */\n      swap2\n      pop\n        /* \"#utility.yul\":3925:4018   */\n      tag_136\n        /* \"#utility.yul\":4014:4017   */\n      dup3\n        /* \"#utility.yul\":3925:4018   */\n      tag_137\n      jump\t// in\n    tag_136:\n        /* \"#utility.yul\":4043:4045   */\n      0x40\n        /* \"#utility.yul\":4038:4041   */\n      dup3\n        /* \"#utility.yul\":4034:4046   */\n      add\n        /* \"#utility.yul\":4027:4046   */\n      swap1\n      pop\n        /* \"#utility.yul\":3686:4052   */\n      swap2\n      swap1\n      pop\n      jump\t// out\n        /* \"#utility.yul\":4058:4424   */\n    tag_138:\n        /* \"#utility.yul\":4200:4203   */\n      0x00\n        /* \"#utility.yul\":4221:4288   */\n      tag_140\n        /* \"#utility.yul\":4285:4287   */\n      0x33\n        /* \"#utility.yul\":4280:4283   */\n      dup4\n        /* \"#utility.yul\":4221:4288   */\n      tag_125\n      jump\t// in\n    tag_140:\n        /* \"#utility.yul\":4214:4288   */\n      swap2\n      pop\n        /* \"#utility.yul\":4297:4390   */\n      tag_141\n        /* \"#utility.yul\":4386:4389   */\n      dup3\n        /* \"#utility.yul\":4297:4390   */\n      tag_142\n      jump\t// in\n    tag_141:\n        /* \"#utility.yul\":4415:4417   */\n      0x40\n        /* \"#utility.yul\":4410:4413   */\n      dup3\n        /* \"#utility.yul\":4406:4418   */\n      add\n        /* \"#utility.yul\":4399:4418   */\n      swap1\n      pop\n        /* \"#utility.yul\":4058:4424   */\n      swap2\n      swap1\n      pop\n      jump\t// out\n        /* \"#utility.yul\":4430:4587   */\n    tag_143:\n        /* \"#utility.yul\":4535:4580   */\n      tag_145\n        /* \"#utility.yul\":4555:4579   */\n      tag_146\n        /* \"#utility.yul\":4573:4578   */\n      dup3\n        /* \"#utility.yul\":4555:4579   */\n      tag_147\n      jump\t// in\n    tag_146:\n        /* \"#utility.yul\":4535:4580   */\n      tag_148\n      jump\t// in\n    tag_145:\n        /* \"#utility.yul\":4530:4533   */\n      dup3\n        /* \"#utility.yul\":4523:4581   */\n      mstore\n        /* \"#utility.yul\":4430:4587   */\n      pop\n      pop\n      jump\t// out\n        /* \"#utility.yul\":4593:4864   */\n    tag_61:\n        /* \"#utility.yul\":4723:4726   */\n      0x00\n        /* \"#utility.yul\":4745:4838   */\n      tag_150\n        /* \"#utility.yul\":4834:4837   */\n      dup3\n        /* \"#utility.yul\":4825:4831   */\n      dup5\n        /* \"#utility.yul\":4745:4838   */\n      tag_114\n      jump\t// in\n    tag_150:\n        /* \"#utility.yul\":4738:4838   */\n      swap2\n      pop\n        /* \"#utility.yul\":4855:4858   */\n      dup2\n        /* \"#utility.yul\":4848:4858   */\n      swap1\n      pop\n        /* \"#utility.yul\":4593:4864   */\n      swap3\n      swap2\n      pop\n      pop\n      jump\t// out\n        /* \"#utility.yul\":4870:5513   */\n    tag_59:\n        /* \"#utility.yul\":5101:5104   */\n      0x00\n        /* \"#utility.yul\":5116:5191   */\n      tag_152\n        /* \"#utility.yul\":5187:5190   */\n      dup3\n        /* \"#utility.yul\":5178:5184   */\n      dup7\n        /* \"#utility.yul\":5116:5191   */\n      tag_143\n      jump\t// in\n    tag_152:\n        /* \"#utility.yul\":5216:5218   */\n      0x20\n        /* \"#utility.yul\":5211:5214   */\n      dup3\n        /* \"#utility.yul\":5207:5219   */\n      add\n        /* \"#utility.yul\":5200:5219   */\n      swap2\n      pop\n        /* \"#utility.yul\":5229:5304   */\n      tag_153\n        /* \"#utility.yul\":5300:5303   */\n      dup3\n        /* \"#utility.yul\":5291:5297   */\n      dup6\n        /* \"#utility.yul\":5229:5304   */\n      tag_143\n      jump\t// in\n    tag_153:\n        /* \"#utility.yul\":5329:5331   */\n      0x20\n        /* \"#utility.yul\":5324:5327   */\n      dup3\n        /* \"#utility.yul\":5320:5332   */\n      add\n        /* \"#utility.yul\":5313:5332   */\n      swap2\n      pop\n        /* \"#utility.yul\":5349:5487   */\n      tag_154\n        /* \"#utility.yul\":5483:5486   */\n      dup3\n        /* \"#utility.yul\":5474:5480   */\n      dup5\n        /* \"#utility.yul\":5349:5487   */\n      tag_98\n      jump\t// in\n    tag_154:\n        /* \"#utility.yul\":5342:5487   */\n      swap2\n      pop\n        /* \"#utility.yul\":5504:5507   */\n      dup2\n        /* \"#utility.yul\":5497:5507   */\n      swap1\n      pop\n        /* \"#utility.yul\":4870:5513   */\n      swap5\n      swap4\n      pop\n      pop\n      pop\n      pop\n      jump\t// out\n        /* \"#utility.yul\":5519:5741   */\n    tag_12:\n        /* \"#utility.yul\":5612:5616   */\n      0x00\n        /* \"#utility.yul\":5650:5652   */\n      0x20\n        /* \"#utility.yul\":5639:5648   */\n      dup3\n        /* \"#utility.yul\":5635:5653   */\n      add\n        /* \"#utility.yul\":5627:5653   */\n      swap1\n      pop\n        /* \"#utility.yul\":5663:5734   */\n      tag_156\n        /* \"#utility.yul\":5731:5732   */\n      0x00\n        /* \"#utility.yul\":5720:5729   */\n      dup4\n        /* \"#utility.yul\":5716:5733   */\n      add\n        /* \"#utility.yul\":5707:5713   */\n      dup5\n        /* \"#utility.yul\":5663:5734   */\n      tag_94\n      jump\t// in\n    tag_156:\n        /* \"#utility.yul\":5519:5741   */\n      swap3\n      swap2\n      pop\n      pop\n      jump\t// out\n        /* \"#utility.yul\":5747:6001   */\n    tag_22:\n        /* \"#utility.yul\":5856:5860   */\n      0x00\n        /* \"#utility.yul\":5894:5896   */\n      0x20\n        /* \"#utility.yul\":5883:5892   */\n      dup3\n        /* \"#utility.yul\":5879:5897   */\n      add\n        /* \"#utility.yul\":5871:5897   */\n      swap1\n      pop\n        /* \"#utility.yul\":5907:5994   */\n      tag_158\n        /* \"#utility.yul\":5991:5992   */\n      0x00\n        /* \"#utility.yul\":5980:5989   */\n      dup4\n        /* \"#utility.yul\":5976:5993   */\n      add\n        /* \"#utility.yul\":5967:5973   */\n      dup5\n        /* \"#utility.yul\":5907:5994   */\n      tag_88\n      jump\t// in\n    tag_158:\n        /* \"#utility.yul\":5747:6001   */\n      swap3\n      swap2\n      pop\n      pop\n      jump\t// out\n        /* \"#utility.yul\":6007:6426   */\n    tag_39:\n        /* \"#utility.yul\":6173:6177   */\n      0x00\n        /* \"#utility.yul\":6211:6213   */\n      0x20\n        /* \"#utility.yul\":6200:6209   */\n      dup3\n        /* \"#utility.yul\":6196:6214   */\n      add\n        /* \"#utility.yul\":6188:6214   */\n      swap1\n      pop\n        /* \"#utility.yul\":6260:6269   */\n      dup2\n        /* \"#utility.yul\":6254:6258   */\n      dup2\n        /* \"#utility.yul\":6250:6270   */\n      sub\n        /* \"#utility.yul\":6246:6247   */\n      0x00\n        /* \"#utility.yul\":6235:6244   */\n      dup4\n        /* \"#utility.yul\":6231:6248   */\n      add\n        /* \"#utility.yul\":6224:6271   */\n      mstore\n        /* \"#utility.yul\":6288:6419   */\n      tag_160\n        /* \"#utility.yul\":6414:6418   */\n      dup2\n        /* \"#utility.yul\":6288:6419   */\n      tag_122\n      jump\t// in\n    tag_160:\n        /* \"#utility.yul\":6280:6419   */\n      swap1\n      pop\n        /* \"#utility.yul\":6007:6426   */\n      swap2\n      swap1\n      pop\n      jump\t// out\n        /* \"#utility.yul\":6432:6851   */\n    tag_31:\n        /* \"#utility.yul\":6598:6602   */\n      0x00\n        /* \"#utility.yul\":6636:6638   */\n      0x20\n        /* \"#utility.yul\":6625:6634   */\n      dup3\n        /* \"#utility.yul\":6621:6639   */\n      add\n        /* \"#utility.yul\":6613:6639   */\n      swap1\n      pop\n        /* \"#utility.yul\":6685:6694   */\n      dup2\n        /* \"#utility.yul\":6679:6683   */\n      dup2\n        /* \"#utility.yul\":6675:6695   */\n      sub\n        /* \"#utility.yul\":6671:6672   */\n      0x00\n        /* \"#utility.yul\":6660:6669   */\n      dup4\n        /* \"#utility.yul\":6656:6673   */\n      add\n        /* \"#utility.yul\":6649:6696   */\n      mstore\n        /* \"#utility.yul\":6713:6844   */\n      tag_162\n        /* \"#utility.yul\":6839:6843   */\n      dup2\n        /* \"#utility.yul\":6713:6844   */\n      tag_128\n      jump\t// in\n    tag_162:\n        /* \"#utility.yul\":6705:6844   */\n      swap1\n      pop\n        /* \"#utility.yul\":6432:6851   */\n      swap2\n      swap1\n      pop\n      jump\t// out\n        /* \"#utility.yul\":6857:7276   */\n    tag_26:\n        /* \"#utility.yul\":7023:7027   */\n      0x00\n        /* \"#utility.yul\":7061:7063   */\n      0x20\n        /* \"#utility.yul\":7050:7059   */\n      dup3\n        /* \"#utility.yul\":7046:7064   */\n      add\n        /* \"#utility.yul\":7038:7064   */\n      swap1\n      pop\n        /* \"#utility.yul\":7110:7119   */\n      dup2\n        /* \"#utility.yul\":7104:7108   */\n      dup2\n        /* \"#utility.yul\":7100:7120   */\n      sub\n        /* \"#utility.yul\":7096:7097   */\n      0x00\n        /* \"#utility.yul\":7085:7094   */\n      dup4\n        /* \"#utility.yul\":7081:7098   */\n      add\n        /* \"#utility.yul\":7074:7121   */\n      mstore\n        /* \"#utility.yul\":7138:7269   */\n      tag_164\n        /* \"#utility.yul\":7264:7268   */\n      dup2\n        /* \"#utility.yul\":7138:7269   */\n      tag_133\n      jump\t// in\n    tag_164:\n        /* \"#utility.yul\":7130:7269   */\n      swap1\n      pop\n        /* \"#utility.yul\":6857:7276   */\n      swap2\n      swap1\n      pop\n      jump\t// out\n        /* \"#utility.yul\":7282:7701   */\n    tag_34:\n        /* \"#utility.yul\":7448:7452   */\n      0x00\n        /* \"#utility.yul\":7486:7488   */\n      0x20\n        /* \"#utility.yul\":7475:7484   */\n      dup3\n        /* \"#utility.yul\":7471:7489   */\n      add\n        /* \"#utility.yul\":7463:7489   */\n      swap1\n      pop\n        /* \"#utility.yul\":7535:7544   */\n      dup2\n        /* \"#utility.yul\":7529:7533   */\n      dup2\n        /* \"#utility.yul\":7525:7545   */\n      sub\n        /* \"#utility.yul\":7521:7522   */\n      0x00\n        /* \"#utility.yul\":7510:7519   */\n      dup4\n        /* \"#utility.yul\":7506:7523   */\n      add\n        /* \"#utility.yul\":7499:7546   */\n      mstore\n        /* \"#utility.yul\":7563:7694   */\n      tag_166\n        /* \"#utility.yul\":7689:7693   */\n      dup2\n        /* \"#utility.yul\":7563:7694   */\n      tag_138\n      jump\t// in\n    tag_166:\n        /* \"#utility.yul\":7555:7694   */\n      swap1\n      pop\n        /* \"#utility.yul\":7282:7701   */\n      swap2\n      swap1\n      pop\n      jump\t// out\n        /* \"#utility.yul\":7788:7952   */\n    tag_105:\n        /* \"#utility.yul\":7860:7864   */\n      0x00\n        /* \"#utility.yul\":7883:7886   */\n      dup2\n        /* \"#utility.yul\":7875:7886   */\n      swap1\n      pop\n        /* \"#utility.yul\":7906:7909   */\n      dup2\n        /* \"#utility.yul\":7903:7904   */\n      0x00\n        /* \"#utility.yul\":7896:7910   */\n      mstore\n        /* \"#utility.yul\":7940:7944   */\n      0x20\n        /* \"#utility.yul\":7937:7938   */\n      0x00\n        /* \"#utility.yul\":7927:7945   */\n      keccak256\n        /* \"#utility.yul\":7919:7945   */\n      swap1\n      pop\n        /* \"#utility.yul\":7788:7952   */\n      swap2\n      swap1\n      pop\n      jump\t// out\n        /* \"#utility.yul\":7958:8077   */\n    tag_101:\n        /* \"#utility.yul\":8030:8036   */\n      0x00\n        /* \"#utility.yul\":8064:8069   */\n      dup2\n        /* \"#utility.yul\":8058:8070   */\n      sload\n        /* \"#utility.yul\":8048:8070   */\n      swap1\n      pop\n        /* \"#utility.yul\":7958:8077   */\n      swap2\n      swap1\n      pop\n      jump\t// out\n        /* \"#utility.yul\":8083:8181   */\n    tag_117:\n        /* \"#utility.yul\":8134:8140   */\n      0x00\n        /* \"#utility.yul\":8168:8173   */\n      dup2\n        /* \"#utility.yul\":8162:8174   */\n      mload\n        /* \"#utility.yul\":8152:8174   */\n      swap1\n      pop\n        /* \"#utility.yul\":8083:8181   */\n      swap2\n      swap1\n      pop\n      jump\t// out\n        /* \"#utility.yul\":8187:8305   */\n    tag_113:\n        /* \"#utility.yul\":8262:8266   */\n      0x00\n        /* \"#utility.yul\":8294:8298   */\n      0x01\n        /* \"#utility.yul\":8289:8292   */\n      dup3\n        /* \"#utility.yul\":8285:8299   */\n      add\n        /* \"#utility.yul\":8277:8299   */\n      swap1\n      pop\n        /* \"#utility.yul\":8187:8305   */\n      swap2\n      swap1\n      pop\n      jump\t// out\n        /* \"#utility.yul\":8311:8482   */\n    tag_103:\n        /* \"#utility.yul\":8436:8447   */\n      0x00\n        /* \"#utility.yul\":8473:8476   */\n      dup2\n        /* \"#utility.yul\":8458:8476   */\n      swap1\n      pop\n        /* \"#utility.yul\":8311:8482   */\n      swap3\n      swap2\n      pop\n      pop\n      jump\t// out\n        /* \"#utility.yul\":8488:8635   */\n    tag_119:\n        /* \"#utility.yul\":8589:8600   */\n      0x00\n        /* \"#utility.yul\":8626:8629   */\n      dup2\n        /* \"#utility.yul\":8611:8629   */\n      swap1\n      pop\n        /* \"#utility.yul\":8488:8635   */\n      swap3\n      swap2\n      pop\n      pop\n      jump\t// out\n        /* \"#utility.yul\":8641:8810   */\n    tag_125:\n        /* \"#utility.yul\":8725:8736   */\n      0x00\n        /* \"#utility.yul\":8759:8765   */\n      dup3\n        /* \"#utility.yul\":8754:8757   */\n      dup3\n        /* \"#utility.yul\":8747:8766   */\n      mstore\n        /* \"#utility.yul\":8799:8803   */\n      0x20\n        /* \"#utility.yul\":8794:8797   */\n      dup3\n        /* \"#utility.yul\":8790:8804   */\n      add\n        /* \"#utility.yul\":8775:8804   */\n      swap1\n      pop\n        /* \"#utility.yul\":8641:8810   */\n      swap3\n      swap2\n      pop\n      pop\n      jump\t// out\n        /* \"#utility.yul\":8816:8963   */\n    tag_176:\n        /* \"#utility.yul\":8874:8881   */\n      0x00\n        /* \"#utility.yul\":8914:8956   */\n      0xffffffffffffffffffffffffffffffffffffffff\n        /* \"#utility.yul\":8907:8912   */\n      dup3\n        /* \"#utility.yul\":8903:8957   */\n      and\n        /* \"#utility.yul\":8892:8957   */\n      swap1\n      pop\n        /* \"#utility.yul\":8816:8963   */\n      swap2\n      swap1\n      pop\n      jump\t// out\n        /* \"#utility.yul\":8969:9065   */\n    tag_97:\n        /* \"#utility.yul\":9006:9013   */\n      0x00\n        /* \"#utility.yul\":9035:9059   */\n      tag_179\n        /* \"#utility.yul\":9053:9058   */\n      dup3\n        /* \"#utility.yul\":9035:9059   */\n      tag_180\n      jump\t// in\n    tag_179:\n        /* \"#utility.yul\":9024:9059   */\n      swap1\n      pop\n        /* \"#utility.yul\":8969:9065   */\n      swap2\n      swap1\n      pop\n      jump\t// out\n        /* \"#utility.yul\":9071:9175   */\n    tag_91:\n        /* \"#utility.yul\":9116:9123   */\n      0x00\n        /* \"#utility.yul\":9145:9169   */\n      tag_182\n        /* \"#utility.yul\":9163:9168   */\n      dup3\n        /* \"#utility.yul\":9145:9169   */\n      tag_180\n      jump\t// in\n    tag_182:\n        /* \"#utility.yul\":9134:9169   */\n      swap1\n      pop\n        /* \"#utility.yul\":9071:9175   */\n      swap2\n      swap1\n      pop\n      jump\t// out\n        /* \"#utility.yul\":9181:9258   */\n    tag_183:\n        /* \"#utility.yul\":9218:9225   */\n      0x00\n        /* \"#utility.yul\":9247:9252   */\n      dup2\n        /* \"#utility.yul\":9236:9252   */\n      swap1\n      pop\n        /* \"#utility.yul\":9181:9258   */\n      swap2\n      swap1\n      pop\n      jump\t// out\n        /* \"#utility.yul\":9264:9390   */\n    tag_180:\n        /* \"#utility.yul\":9301:9308   */\n      0x00\n        /* \"#utility.yul\":9341:9383   */\n      0xffffffffffffffffffffffffffffffffffffffff\n        /* \"#utility.yul\":9334:9339   */\n      dup3\n        /* \"#utility.yul\":9330:9384   */\n      and\n        /* \"#utility.yul\":9319:9384   */\n      swap1\n      pop\n        /* \"#utility.yul\":9264:9390   */\n      swap2\n      swap1\n      pop\n      jump\t// out\n        /* \"#utility.yul\":9396:9473   */\n    tag_147:\n        /* \"#utility.yul\":9433:9440   */\n      0x00\n        /* \"#utility.yul\":9462:9467   */\n      dup2\n        /* \"#utility.yul\":9451:9467   */\n      swap1\n      pop\n        /* \"#utility.yul\":9396:9473   */\n      swap2\n      swap1\n      pop\n      jump\t// out\n        /* \"#utility.yul\":9479:9786   */\n    tag_121:\n        /* \"#utility.yul\":9547:9548   */\n      0x00\n        /* \"#utility.yul\":9557:9670   */\n    tag_188:\n        /* \"#utility.yul\":9571:9577   */\n      dup4\n        /* \"#utility.yul\":9568:9569   */\n      dup2\n        /* \"#utility.yul\":9565:9578   */\n      lt\n        /* \"#utility.yul\":9557:9670   */\n      iszero\n      tag_190\n      jumpi\n        /* \"#utility.yul\":9656:9657   */\n      dup1\n        /* \"#utility.yul\":9651:9654   */\n      dup3\n        /* \"#utility.yul\":9647:9658   */\n      add\n        /* \"#utility.yul\":9641:9659   */\n      mload\n        /* \"#utility.yul\":9637:9638   */\n      dup2\n        /* \"#utility.yul\":9632:9635   */\n      dup5\n        /* \"#utility.yul\":9628:9639   */\n      add\n        /* \"#utility.yul\":9621:9660   */\n      mstore\n        /* \"#utility.yul\":9593:9595   */\n      0x20\n        /* \"#utility.yul\":9590:9591   */\n      dup2\n        /* \"#utility.yul\":9586:9596   */\n      add\n        /* \"#utility.yul\":9581:9596   */\n      swap1\n      pop\n        /* \"#utility.yul\":9557:9670   */\n      jump(tag_188)\n    tag_190:\n        /* \"#utility.yul\":9688:9694   */\n      dup4\n        /* \"#utility.yul\":9685:9686   */\n      dup2\n        /* \"#utility.yul\":9682:9695   */\n      gt\n        /* \"#utility.yul\":9679:9780   */\n      iszero\n      tag_191\n      jumpi\n        /* \"#utility.yul\":9768:9769   */\n      0x00\n        /* \"#utility.yul\":9759:9765   */\n      dup5\n        /* \"#utility.yul\":9754:9757   */\n      dup5\n        /* \"#utility.yul\":9750:9766   */\n      add\n        /* \"#utility.yul\":9743:9770   */\n      mstore\n        /* \"#utility.yul\":9679:9780   */\n    tag_191:\n        /* \"#utility.yul\":9528:9786   */\n      pop\n        /* \"#utility.yul\":9479:9786   */\n      pop\n      pop\n      pop\n      jump\t// out\n        /* \"#utility.yul\":9792:9974   */\n    tag_192:\n        /* \"#utility.yul\":9869:9874   */\n      0x00\n        /* \"#utility.yul\":9894:9968   */\n      tag_194\n        /* \"#utility.yul\":9933:9967   */\n      tag_195\n        /* \"#utility.yul\":9956:9966   */\n      dup4\n        /* \"#utility.yul\":9933:9967   */\n      tag_196\n      jump\t// in\n    tag_195:\n        /* \"#utility.yul\":9894:9968   */\n      tag_176\n      jump\t// in\n    tag_194:\n        /* \"#utility.yul\":9885:9968   */\n      swap1\n      pop\n        /* \"#utility.yul\":9792:9974   */\n      swap2\n      swap1\n      pop\n      jump\t// out\n        /* \"#utility.yul\":9980:10213   */\n    tag_56:\n        /* \"#utility.yul\":10019:10022   */\n      0x00\n        /* \"#utility.yul\":10042:10066   */\n      tag_198\n        /* \"#utility.yul\":10060:10065   */\n      dup3\n        /* \"#utility.yul\":10042:10066   */\n      tag_147\n      jump\t// in\n    tag_198:\n        /* \"#utility.yul\":10033:10066   */\n      swap2\n      pop\n        /* \"#utility.yul\":10088:10154   */\n      0xffffffffffffffffffffffffffffffffffffffffffffffffffffffffffffffff\n        /* \"#utility.yul\":10081:10086   */\n      dup3\n        /* \"#utility.yul\":10078:10155   */\n      eq\n        /* \"#utility.yul\":10075:10178   */\n      iszero\n      tag_199\n      jumpi\n        /* \"#utility.yul\":10158:10176   */\n      tag_200\n      tag_201\n      jump\t// in\n    tag_200:\n        /* \"#utility.yul\":10075:10178   */\n    tag_199:\n        /* \"#utility.yul\":10205:10206   */\n      0x01\n        /* \"#utility.yul\":10198:10203   */\n      dup3\n        /* \"#utility.yul\":10194:10207   */\n      add\n        /* \"#utility.yul\":10187:10207   */\n      swap1\n      pop\n        /* \"#utility.yul\":9980:10213   */\n      swap2\n      swap1\n      pop\n      jump\t// out\n        /* \"#utility.yul\":10219:10298   */\n    tag_148:\n        /* \"#utility.yul\":10258:10265   */\n      0x00\n        /* \"#utility.yul\":10287:10292   */\n      dup2\n        /* \"#utility.yul\":10276:10292   */\n      swap1\n      pop\n        /* \"#utility.yul\":10219:10298   */\n      swap2\n      swap1\n      pop\n      jump\t// out\n        /* \"#utility.yul\":10304:10480   */\n    tag_43:\n        /* \"#utility.yul\":10336:10337   */\n      0x00\n        /* \"#utility.yul\":10353:10373   */\n      tag_204\n        /* \"#utility.yul\":10371:10372   */\n      dup3\n        /* \"#utility.yul\":10353:10373   */\n      tag_147\n      jump\t// in\n    tag_204:\n        /* \"#utility.yul\":10348:10373   */\n      swap2\n      pop\n        /* \"#utility.yul\":10387:10407   */\n      tag_205\n        /* \"#utility.yul\":10405:10406   */\n      dup4\n        /* \"#utility.yul\":10387:10407   */\n      tag_147\n      jump\t// in\n    tag_205:\n        /* \"#utility.yul\":10382:10407   */\n      swap3\n      pop\n        /* \"#utility.yul\":10426:10427   */\n      dup3\n        /* \"#utility.yul\":10416:10451   */\n      tag_206\n      jumpi\n        /* \"#utility.yul\":10431:10449   */\n      tag_207\n      tag_208\n      jump\t// in\n    tag_207:\n        /* \"#utility.yul\":10416:10451   */\n    tag_206:\n        /* \"#utility.yul\":10472:10473   */\n      dup3\n        /* \"#utility.yul\":10469:10470   */\n      dup3\n        /* \"#utility.yul\":10465:10474   */\n      mod\n        /* \"#utility.yul\":10460:10474   */\n      swap1\n      pop\n        /* \"#utility.yul\":10304:10480   */\n      swap3\n      swap2\n      pop\n      pop\n      jump\t// out\n        /* \"#utility.yul\":10486:10666   */\n    tag_201:\n        /* \"#utility.yul\":10534:10611   */\n      0x4e487b7100000000000000000000000000000000000000000000000000000000\n        /* \"#utility.yul\":10531:10532   */\n      0x00\n        /* \"#utility.yul\":10524:10612   */\n      mstore\n        /* \"#utility.yul\":10631:10635   */\n      0x11\n        /* \"#utility.yul\":10628:10629   */\n      0x04\n        /* \"#utility.yul\":10621:10636   */\n      mstore\n        /* \"#utility.yul\":10655:10659   */\n      0x24\n        /* \"#utility.yul\":10652:10653   */\n      0x00\n        /* \"#utility.yul\":10645:10660   */\n      revert\n        /* \"#utility.yul\":10672:10852   */\n    tag_208:\n        /* \"#utility.yul\":10720:10797   */\n      0x4e487b7100000000000000000000000000000000000000000000000000000000\n        /* \"#utility.yul\":10717:10718   */\n      0x00\n        /* \"#utility.yul\":10710:10798   */\n      mstore\n        /* \"#utility.yul\":10817:10821   */\n      0x12\n        /* \"#utility.yul\":10814:10815   */\n      0x04\n        /* \"#utility.yul\":10807:10822   */\n      mstore\n        /* \"#utility.yul\":10841:10845   */\n      0x24\n        /* \"#utility.yul\":10838:10839   */\n      0x00\n        /* \"#utility.yul\":10831:10846   */\n      revert\n        /* \"#utility.yul\":10858:11038   */\n    tag_52:\n        /* \"#utility.yul\":10906:10983   */\n      0x4e487b7100000000000000000000000000000000000000000000000000000000\n        /* \"#utility.yul\":10903:10904   */\n      0x00\n        /* \"#utility.yul\":10896:10984   */\n      mstore\n        /* \"#utility.yul\":11003:11007   */\n      0x32\n        /* \"#utility.yul\":11000:11001   */\n      0x04\n        /* \"#utility.yul\":10993:11008   */\n      mstore\n        /* \"#utility.yul\":11027:11031   */\n      0x24\n        /* \"#utility.yul\":11024:11025   */\n      0x00\n        /* \"#utility.yul\":11017:11032   */\n      revert\n        /* \"#utility.yul\":11044:11204   */\n    tag_110:\n        /* \"#utility.yul\":11107:11112   */\n      0x00\n        /* \"#utility.yul\":11132:11197   */\n      tag_213\n        /* \"#utility.yul\":11191:11195   */\n      dup3\n        /* \"#utility.yul\":11185:11196   */\n      sload\n        /* \"#utility.yul\":11132:11197   */\n      tag_192\n      jump\t// in\n    tag_213:\n        /* \"#utility.yul\":11123:11197   */\n      swap1\n      pop\n        /* \"#utility.yul\":11044:11204   */\n      swap2\n      swap1\n      pop\n      jump\t// out\n        /* \"#utility.yul\":11333:11450   */\n    tag_78:\n        /* \"#utility.yul\":11442:11443   */\n      0x00\n        /* \"#utility.yul\":11439:11440   */\n      dup1\n        /* \"#utility.yul\":11432:11444   */\n      revert\n        /* \"#utility.yul\":11456:11558   */\n    tag_196:\n        /* \"#utility.yul\":11498:11506   */\n      0x00\n        /* \"#utility.yul\":11545:11550   */\n      dup2\n        /* \"#utility.yul\":11542:11543   */\n      0x00\n        /* \"#utility.yul\":11538:11551   */\n      shr\n        /* \"#utility.yul\":11517:11551   */\n      swap1\n      pop\n        /* \"#utility.yul\":11456:11558   */\n      swap2\n      swap1\n      pop\n      jump\t// out\n        /* \"#utility.yul\":11564:11732   */\n    tag_127:\n        /* \"#utility.yul\":11704:11724   */\n      0x596f752063616e206e6f74206163636573730000000000000000000000000000\n        /* \"#utility.yul\":11700:11701   */\n      0x00\n        /* \"#utility.yul\":11692:11698   */\n      dup3\n        /* \"#utility.yul\":11688:11702   */\n      add\n        /* \"#utility.yul\":11681:11725   */\n      mstore\n        /* \"#utility.yul\":11564:11732   */\n      pop\n      jump\t// out\n        /* \"#utility.yul\":11738:11919   */\n    tag_132:\n        /* \"#utility.yul\":11878:11911   */\n      0x596f7520616c7265616479206a6f696e6564207468697320636f6e7465737400\n        /* \"#utility.yul\":11874:11875   */\n      0x00\n        /* \"#utility.yul\":11866:11872   */\n      dup3\n        /* \"#utility.yul\":11862:11876   */\n      add\n        /* \"#utility.yul\":11855:11912   */\n      mstore\n        /* \"#utility.yul\":11738:11919   */\n      pop\n      jump\t// out\n        /* \"#utility.yul\":11925:12154   */\n    tag_137:\n        /* \"#utility.yul\":12065:12099   */\n      0x596f752063616e206e6f7420706172746963697061746520617320796f752061\n        /* \"#utility.yul\":12061:12062   */\n      0x00\n        /* \"#utility.yul\":12053:12059   */\n      dup3\n        /* \"#utility.yul\":12049:12063   */\n      add\n        /* \"#utility.yul\":12042:12100   */\n      mstore\n        /* \"#utility.yul\":12134:12146   */\n      0x7265206d616e6167657200000000000000000000000000000000000000000000\n        /* \"#utility.yul\":12129:12131   */\n      0x20\n        /* \"#utility.yul\":12121:12127   */\n      dup3\n        /* \"#utility.yul\":12117:12132   */\n      add\n        /* \"#utility.yul\":12110:12147   */\n      mstore\n        /* \"#utility.yul\":11925:12154   */\n      pop\n      jump\t// out\n        /* \"#utility.yul\":12160:12398   */\n    tag_142:\n        /* \"#utility.yul\":12300:12334   */\n      0x596f75206861766520746f207061792066656573206f66203120657468657220\n        /* \"#utility.yul\":12296:12297   */\n      0x00\n        /* \"#utility.yul\":12288:12294   */\n      dup3\n        /* \"#utility.yul\":12284:12298   */\n      add\n        /* \"#utility.yul\":12277:12335   */\n      mstore\n        /* \"#utility.yul\":12369:12390   */\n      0x666f72206a6f696e696e6720636f6e7465737400000000000000000000000000\n        /* \"#utility.yul\":12364:12366   */\n      0x20\n        /* \"#utility.yul\":12356:12362   */\n      dup3\n        /* \"#utility.yul\":12352:12367   */\n      add\n        /* \"#utility.yul\":12345:12391   */\n      mstore\n        /* \"#utility.yul\":12160:12398   */\n      pop\n      jump\t// out\n        /* \"#utility.yul\":12404:12526   */\n    tag_70:\n        /* \"#utility.yul\":12477:12501   */\n      tag_223\n        /* \"#utility.yul\":12495:12500   */\n      dup2\n        /* \"#utility.yul\":12477:12501   */\n      tag_183\n      jump\t// in\n    tag_223:\n        /* \"#utility.yul\":12470:12475   */\n      dup2\n        /* \"#utility.yul\":12467:12502   */\n      eq\n        /* \"#utility.yul\":12457:12520   */\n      tag_224\n      jumpi\n        /* \"#utility.yul\":12516:12517   */\n      0x00\n        /* \"#utility.yul\":12513:12514   */\n      dup1\n        /* \"#utility.yul\":12506:12518   */\n      revert\n        /* \"#utility.yul\":12457:12520   */\n    tag_224:\n        /* \"#utility.yul\":12404:12526   */\n      pop\n      jump\t// out\n        /* \"#utility.yul\":12532:12654   */\n    tag_74:\n        /* \"#utility.yul\":12605:12629   */\n      tag_226\n        /* \"#utility.yul\":12623:12628   */\n      dup2\n        /* \"#utility.yul\":12605:12629   */\n      tag_147\n      jump\t// in\n    tag_226:\n        /* \"#utility.yul\":12598:12603   */\n      dup2\n        /* \"#utility.yul\":12595:12630   */\n      eq\n        /* \"#utility.yul\":12585:12648   */\n      tag_227\n      jumpi\n        /* \"#utility.yul\":12644:12645   */\n      0x00\n        /* \"#utility.yul\":12641:12642   */\n      dup1\n        /* \"#utility.yul\":12634:12646   */\n      revert\n        /* \"#utility.yul\":12585:12648   */\n    tag_227:\n        /* \"#utility.yul\":12532:12654   */\n      pop\n      jump\t// out\n\n    auxdata: 0xa2646970667358221220e9a6eaf2a662ae8ae1a826d660e3b890faf44298227235dab554ec47580b3f0f64736f6c63430008070033\n}\n",
				"bytecode": {
					"linkReferences": {},
					"object": "60806040523480156200001157600080fd5b50336000806101000a81548173ffffffffffffffffffffffffffffffffffffffff021916908373ffffffffffffffffffffffffffffffffffffffff160217905550620000626200006960201b60201c565b50620003d4565b6000600244436001604051602001620000859392919062000240565b604051602081830303815290604052604051620000a3919062000227565b602060405180830381855afa158015620000c1573d6000803e3d6000fd5b5050506040513d601f19601f82011682018060405250810190620000e6919062000105565b60001c905090565b600081519050620000ff81620003ba565b92915050565b6000602082840312156200011e576200011d620003a8565b5b60006200012e84828501620000ee565b91505092915050565b600062000145838362000151565b60208301905092915050565b6200015c81620002ed565b82525050565b60006200016f8262000294565b6200017b8185620002b7565b935062000188836200027f565b8060005b83811015620001c857620001a08262000393565b620001ac888262000137565b9750620001b983620002aa565b9250506001810190506200018c565b5085935050505092915050565b6000620001e2826200029f565b620001ee8185620002c2565b93506200020081856020860162000335565b80840191505092915050565b620002216200021b826200032b565b62000389565b82525050565b6000620002358284620001d5565b915081905092915050565b60006200024e82866200020c565b6020820191506200026082856200020c565b60208201915062000272828462000162565b9150819050949350505050565b60008190508160005260206000209050919050565b600081549050919050565b600081519050919050565b6000600182019050919050565b600081905092915050565b600081905092915050565b600073ffffffffffffffffffffffffffffffffffffffff82169050919050565b6000620002fa826200030b565b9050919050565b6000819050919050565b600073ffffffffffffffffffffffffffffffffffffffff82169050919050565b6000819050919050565b60005b838110156200035557808201518184015260208101905062000338565b8381111562000365576000848401525b50505050565b6000620003826200037c83620003ad565b620002cd565b9050919050565b6000819050919050565b6000620003a182546200036b565b9050919050565b600080fd5b60008160001c9050919050565b620003c58162000301565b8114620003d157600080fd5b50565b610b4a80620003e46000396000f3fe60806040526004361061003f5760003560e01c806319b3741714610044578063481c6a751461004e5780635d495aea14610079578063f71d96cb14610090575b600080fd5b61004c6100cd565b005b34801561005a57600080fd5b50610063610259565b60405161007091906106e6565b60405180910390f35b34801561008557600080fd5b5061008e61027d565b005b34801561009c57600080fd5b506100b760048036038101906100b291906104eb565b61032a565b6040516100c49190610701565b60405180910390f35b3373ffffffffffffffffffffffffffffffffffffffff1660008054906101000a900473ffffffffffffffffffffffffffffffffffffffff1673ffffffffffffffffffffffffffffffffffffffff16141561015c576040517f08c379a00000000000000000000000000000000000000000000000000000000081526004016101539061075c565b60405180910390fd5b60001515610168610369565b1515146101aa576040517f08c379a00000000000000000000000000000000000000000000000000000000081526004016101a19061073c565b60405180910390fd5b670de0b6b3a764000034146101f4576040517f08c379a00000000000000000000000000000000000000000000000000000000081526004016101eb9061077c565b60405180910390fd5b6001339080600181540180825580915050600190039060005260206000200160009091909190916101000a81548173ffffffffffffffffffffffffffffffffffffffff021916908373ffffffffffffffffffffffffffffffffffffffff160217905550565b60008054906101000a900473ffffffffffffffffffffffffffffffffffffffff1681565b3373ffffffffffffffffffffffffffffffffffffffff1660008054906101000a900473ffffffffffffffffffffffffffffffffffffffff1673ffffffffffffffffffffffffffffffffffffffff161461030b576040517f08c379a00000000000000000000000000000000000000000000000000000000081526004016103029061071c565b60405180910390fd5b600060018054905061031b610416565b6103259190610913565b905050565b6001818154811061033a57600080fd5b906000526020600020016000915054906101000a900473ffffffffffffffffffffffffffffffffffffffff1681565b600080600090505b60018054905081101561040d573373ffffffffffffffffffffffffffffffffffffffff16600182815481106103a9576103a86109a2565b5b9060005260206000200160009054906101000a900473ffffffffffffffffffffffffffffffffffffffff1673ffffffffffffffffffffffffffffffffffffffff1614156103fa576001915050610413565b8080610405906108c0565b915050610371565b50600090505b90565b6000600244436001604051602001610430939291906106ad565b60405160208183030381529060405260405161044c9190610696565b602060405180830381855afa158015610469573d6000803e3d6000fd5b5050506040513d601f19601f8201168201806040525081019061048c91906104be565b60001c905090565b6000815190506104a381610ae6565b92915050565b6000813590506104b881610afd565b92915050565b6000602082840312156104d4576104d36109e4565b5b60006104e284828501610494565b91505092915050565b600060208284031215610501576105006109e4565b5b600061050f848285016104a9565b91505092915050565b6000610524838361053f565b60208301905092915050565b6105398161082d565b82525050565b6105488161082d565b82525050565b6105578161081b565b82525050565b6000610568826107b1565b61057281856107d4565b935061057d8361079c565b8060005b838110156105b557610592826109d1565b61059c8882610518565b97506105a7836107c7565b925050600181019050610581565b5085935050505092915050565b60006105cd826107bc565b6105d781856107df565b93506105e7818560208601610873565b80840191505092915050565b60006106006012836107ea565b915061060b826109f6565b602082019050919050565b6000610623601f836107ea565b915061062e82610a1f565b602082019050919050565b6000610646602a836107ea565b915061065182610a48565b604082019050919050565b60006106696033836107ea565b915061067482610a97565b604082019050919050565b61069061068b82610869565b610909565b82525050565b60006106a282846105c2565b915081905092915050565b60006106b9828661067f565b6020820191506106c9828561067f565b6020820191506106d9828461055d565b9150819050949350505050565b60006020820190506106fb600083018461054e565b92915050565b60006020820190506107166000830184610530565b92915050565b60006020820190508181036000830152610735816105f3565b9050919050565b6000602082019050818103600083015261075581610616565b9050919050565b6000602082019050818103600083015261077581610639565b9050919050565b600060208201905081810360008301526107958161065c565b9050919050565b60008190508160005260206000209050919050565b600081549050919050565b600081519050919050565b6000600182019050919050565b600081905092915050565b600081905092915050565b600082825260208201905092915050565b600073ffffffffffffffffffffffffffffffffffffffff82169050919050565b600061082682610849565b9050919050565b600061083882610849565b9050919050565b6000819050919050565b600073ffffffffffffffffffffffffffffffffffffffff82169050919050565b6000819050919050565b60005b83811015610891578082015181840152602081019050610876565b838111156108a0576000848401525b50505050565b60006108b96108b4836109e9565b6107fb565b9050919050565b60006108cb82610869565b91507fffffffffffffffffffffffffffffffffffffffffffffffffffffffffffffffff8214156108fe576108fd610944565b5b600182019050919050565b6000819050919050565b600061091e82610869565b915061092983610869565b92508261093957610938610973565b5b828206905092915050565b7f4e487b7100000000000000000000000000000000000000000000000000000000600052601160045260246000fd5b7f4e487b7100000000000000000000000000000000000000000000000000000000600052601260045260246000fd5b7f4e487b7100000000000000000000000000000000000000000000000000000000600052603260045260246000fd5b60006109dd82546108a6565b9050919050565b600080fd5b60008160001c9050919050565b7f596f752063616e206e6f74206163636573730000000000000000000000000000600082015250565b7f596f7520616c7265616479206a6f696e6564207468697320636f6e7465737400600082015250565b7f596f752063616e206e6f7420706172746963697061746520617320796f75206160008201527f7265206d616e6167657200000000000000000000000000000000000000000000602082015250565b7f596f75206861766520746f207061792066656573206f6620312065746865722060008201527f666f72206a6f696e696e6720636f6e7465737400000000000000000000000000602082015250565b610aef8161083f565b8114610afa57600080fd5b50565b610b0681610869565b8114610b1157600080fd5b5056fea2646970667358221220e9a6eaf2a662ae8ae1a826d660e3b890faf44298227235dab554ec47580b3f0f64736f6c63430008070033",
					"opcodes": "PUSH1 0x80 PUSH1 0x40 MSTORE CALLVALUE DUP1 ISZERO PUSH3 0x11 JUMPI PUSH1 0x0 DUP1 REVERT JUMPDEST POP CALLER PUSH1 0x0 DUP1 PUSH2 0x100 EXP DUP2 SLOAD DUP2 PUSH20 0xFFFFFFFFFFFFFFFFFFFFFFFFFFFFFFFFFFFFFFFF MUL NOT AND SWAP1 DUP4 PUSH20 0xFFFFFFFFFFFFFFFFFFFFFFFFFFFFFFFFFFFFFFFF AND MUL OR SWAP1 SSTORE POP PUSH3 0x62 PUSH3 0x69 PUSH1 0x20 SHL PUSH1 0x20 SHR JUMP JUMPDEST POP PUSH3 0x3D4 JUMP JUMPDEST PUSH1 0x0 PUSH1 0x2 DIFFICULTY NUMBER PUSH1 0x1 PUSH1 0x40 MLOAD PUSH1 0x20 ADD PUSH3 0x85 SWAP4 SWAP3 SWAP2 SWAP1 PUSH3 0x240 JUMP JUMPDEST PUSH1 0x40 MLOAD PUSH1 0x20 DUP2 DUP4 SUB SUB DUP2 MSTORE SWAP1 PUSH1 0x40 MSTORE PUSH1 0x40 MLOAD PUSH3 0xA3 SWAP2 SWAP1 PUSH3 0x227 JUMP JUMPDEST PUSH1 0x20 PUSH1 0x40 MLOAD DUP1 DUP4 SUB DUP2 DUP6 GAS STATICCALL ISZERO DUP1 ISZERO PUSH3 0xC1 JUMPI RETURNDATASIZE PUSH1 0x0 DUP1 RETURNDATACOPY RETURNDATASIZE PUSH1 0x0 REVERT JUMPDEST POP POP POP PUSH1 0x40 MLOAD RETURNDATASIZE PUSH1 0x1F NOT PUSH1 0x1F DUP3 ADD AND DUP3 ADD DUP1 PUSH1 0x40 MSTORE POP DUP2 ADD SWAP1 PUSH3 0xE6 SWAP2 SWAP1 PUSH3 0x105 JUMP JUMPDEST PUSH1 0x0 SHR SWAP1 POP SWAP1 JUMP JUMPDEST PUSH1 0x0 DUP2 MLOAD SWAP1 POP PUSH3 0xFF DUP2 PUSH3 0x3BA JUMP JUMPDEST SWAP3 SWAP2 POP POP JUMP JUMPDEST PUSH1 0x0 PUSH1 0x20 DUP3 DUP5 SUB SLT ISZERO PUSH3 0x11E JUMPI PUSH3 0x11D PUSH3 0x3A8 JUMP JUMPDEST JUMPDEST PUSH1 0x0 PUSH3 0x12E DUP5 DUP3 DUP6 ADD PUSH3 0xEE JUMP JUMPDEST SWAP2 POP POP SWAP3 SWAP2 POP POP JUMP JUMPDEST PUSH1 0x0 PUSH3 0x145 DUP4 DUP4 PUSH3 0x151 JUMP JUMPDEST PUSH1 0x20 DUP4 ADD SWAP1 POP SWAP3 SWAP2 POP POP JUMP JUMPDEST PUSH3 0x15C DUP2 PUSH3 0x2ED JUMP JUMPDEST DUP3 MSTORE POP POP JUMP JUMPDEST PUSH1 0x0 PUSH3 0x16F DUP3 PUSH3 0x294 JUMP JUMPDEST PUSH3 0x17B DUP2 DUP6 PUSH3 0x2B7 JUMP JUMPDEST SWAP4 POP PUSH3 0x188 DUP4 PUSH3 0x27F JUMP JUMPDEST DUP1 PUSH1 0x0 JUMPDEST DUP4 DUP2 LT ISZERO PUSH3 0x1C8 JUMPI PUSH3 0x1A0 DUP3 PUSH3 0x393 JUMP JUMPDEST PUSH3 0x1AC DUP9 DUP3 PUSH3 0x137 JUMP JUMPDEST SWAP8 POP PUSH3 0x1B9 DUP4 PUSH3 0x2AA JUMP JUMPDEST SWAP3 POP POP PUSH1 0x1 DUP2 ADD SWAP1 POP PUSH3 0x18C JUMP JUMPDEST POP DUP6 SWAP4 POP POP POP POP SWAP3 SWAP2 POP POP JUMP JUMPDEST PUSH1 0x0 PUSH3 0x1E2 DUP3 PUSH3 0x29F JUMP JUMPDEST PUSH3 0x1EE DUP2 DUP6 PUSH3 0x2C2 JUMP JUMPDEST SWAP4 POP PUSH3 0x200 DUP2 DUP6 PUSH1 0x20 DUP7 ADD PUSH3 0x335 JUMP JUMPDEST DUP1 DUP5 ADD SWAP2 POP POP SWAP3 SWAP2 POP POP JUMP JUMPDEST PUSH3 0x221 PUSH3 0x21B DUP3 PUSH3 0x32B JUMP JUMPDEST PUSH3 0x389 JUMP JUMPDEST DUP3 MSTORE POP POP JUMP JUMPDEST PUSH1 0x0 PUSH3 0x235 DUP3 DUP5 PUSH3 0x1D5 JUMP JUMPDEST SWAP2 POP DUP2 SWAP1 POP SWAP3 SWAP2 POP POP JUMP JUMPDEST PUSH1 0x0 PUSH3 0x24E DUP3 DUP7 PUSH3 0x20C JUMP JUMPDEST PUSH1 0x20 DUP3 ADD SWAP2 POP PUSH3 0x260 DUP3 DUP6 PUSH3 0x20C JUMP JUMPDEST PUSH1 0x20 DUP3 ADD SWAP2 POP PUSH3 0x272 DUP3 DUP5 PUSH3 0x162 JUMP JUMPDEST SWAP2 POP DUP2 SWAP1 POP SWAP5 SWAP4 POP POP POP POP JUMP JUMPDEST PUSH1 0x0 DUP2 SWAP1 POP DUP2 PUSH1 0x0 MSTORE PUSH1 0x20 PUSH1 0x0 KECCAK256 SWAP1 POP SWAP2 SWAP1 POP JUMP JUMPDEST PUSH1 0x0 DUP2 SLOAD SWAP1 POP SWAP2 SWAP1 POP JUMP JUMPDEST PUSH1 0x0 DUP2 MLOAD SWAP1 POP SWAP2 SWAP1 POP JUMP JUMPDEST PUSH1 0x0 PUSH1 0x1 DUP3 ADD SWAP1 POP SWAP2 SWAP1 POP JUMP JUMPDEST PUSH1 0x0 DUP2 SWAP1 POP SWAP3 SWAP2 POP POP JUMP JUMPDEST PUSH1 0x0 DUP2 SWAP1 POP SWAP3 SWAP2 POP POP JUMP JUMPDEST PUSH1 0x0 PUSH20 0xFFFFFFFFFFFFFFFFFFFFFFFFFFFFFFFFFFFFFFFF DUP3 AND SWAP1 POP SWAP2 SWAP1 POP JUMP JUMPDEST PUSH1 0x0 PUSH3 0x2FA DUP3 PUSH3 0x30B JUMP JUMPDEST SWAP1 POP SWAP2 SWAP1 POP JUMP JUMPDEST PUSH1 0x0 DUP2 SWAP1 POP SWAP2 SWAP1 POP JUMP JUMPDEST PUSH1 0x0 PUSH20 0xFFFFFFFFFFFFFFFFFFFFFFFFFFFFFFFFFFFFFFFF DUP3 AND SWAP1 POP SWAP2 SWAP1 POP JUMP JUMPDEST PUSH1 0x0 DUP2 SWAP1 POP SWAP2 SWAP1 POP JUMP JUMPDEST PUSH1 0x0 JUMPDEST DUP4 DUP2 LT ISZERO PUSH3 0x355 JUMPI DUP1 DUP3 ADD MLOAD DUP2 DUP5 ADD MSTORE PUSH1 0x20 DUP2 ADD SWAP1 POP PUSH3 0x338 JUMP JUMPDEST DUP4 DUP2 GT ISZERO PUSH3 0x365 JUMPI PUSH1 0x0 DUP5 DUP5 ADD MSTORE JUMPDEST POP POP POP POP JUMP JUMPDEST PUSH1 0x0 PUSH3 0x382 PUSH3 0x37C DUP4 PUSH3 0x3AD JUMP JUMPDEST PUSH3 0x2CD JUMP JUMPDEST SWAP1 POP SWAP2 SWAP1 POP JUMP JUMPDEST PUSH1 0x0 DUP2 SWAP1 POP SWAP2 SWAP1 POP JUMP JUMPDEST PUSH1 0x0 PUSH3 0x3A1 DUP3 SLOAD PUSH3 0x36B JUMP JUMPDEST SWAP1 POP SWAP2 SWAP1 POP JUMP JUMPDEST PUSH1 0x0 DUP1 REVERT JUMPDEST PUSH1 0x0 DUP2 PUSH1 0x0 SHR SWAP1 POP SWAP2 SWAP1 POP JUMP JUMPDEST PUSH3 0x3C5 DUP2 PUSH3 0x301 JUMP JUMPDEST DUP2 EQ PUSH3 0x3D1 JUMPI PUSH1 0x0 DUP1 REVERT JUMPDEST POP JUMP JUMPDEST PUSH2 0xB4A DUP1 PUSH3 0x3E4 PUSH1 0x0 CODECOPY PUSH1 0x0 RETURN INVALID PUSH1 0x80 PUSH1 0x40 MSTORE PUSH1 0x4 CALLDATASIZE LT PUSH2 0x3F JUMPI PUSH1 0x0 CALLDATALOAD PUSH1 0xE0 SHR DUP1 PUSH4 0x19B37417 EQ PUSH2 0x44 JUMPI DUP1 PUSH4 0x481C6A75 EQ PUSH2 0x4E JUMPI DUP1 PUSH4 0x5D495AEA EQ PUSH2 0x79 JUMPI DUP1 PUSH4 0xF71D96CB EQ PUSH2 0x90 JUMPI JUMPDEST PUSH1 0x0 DUP1 REVERT JUMPDEST PUSH2 0x4C PUSH2 0xCD JUMP JUMPDEST STOP JUMPDEST CALLVALUE DUP1 ISZERO PUSH2 0x5A JUMPI PUSH1 0x0 DUP1 REVERT JUMPDEST POP PUSH2 0x63 PUSH2 0x259 JUMP JUMPDEST PUSH1 0x40 MLOAD PUSH2 0x70 SWAP2 SWAP1 PUSH2 0x6E6 JUMP JUMPDEST PUSH1 0x40 MLOAD DUP1 SWAP2 SUB SWAP1 RETURN JUMPDEST CALLVALUE DUP1 ISZERO PUSH2 0x85 JUMPI PUSH1 0x0 DUP1 REVERT JUMPDEST POP PUSH2 0x8E PUSH2 0x27D JUMP JUMPDEST STOP JUMPDEST CALLVALUE DUP1 ISZERO PUSH2 0x9C JUMPI PUSH1 0x0 DUP1 REVERT JUMPDEST POP PUSH2 0xB7 PUSH1 0x4 DUP1 CALLDATASIZE SUB DUP2 ADD SWAP1 PUSH2 0xB2 SWAP2 SWAP1 PUSH2 0x4EB JUMP JUMPDEST PUSH2 0x32A JUMP JUMPDEST PUSH1 0x40 MLOAD PUSH2 0xC4 SWAP2 SWAP1 PUSH2 0x701 JUMP JUMPDEST PUSH1 0x40 MLOAD DUP1 SWAP2 SUB SWAP1 RETURN JUMPDEST CALLER PUSH20 0xFFFFFFFFFFFFFFFFFFFFFFFFFFFFFFFFFFFFFFFF AND PUSH1 0x0 DUP1 SLOAD SWAP1 PUSH2 0x100 EXP SWAP1 DIV PUSH20 0xFFFFFFFFFFFFFFFFFFFFFFFFFFFFFFFFFFFFFFFF AND PUSH20 0xFFFFFFFFFFFFFFFFFFFFFFFFFFFFFFFFFFFFFFFF AND EQ ISZERO PUSH2 0x15C JUMPI PUSH1 0x40 MLOAD PUSH32 0x8C379A000000000000000000000000000000000000000000000000000000000 DUP2 MSTORE PUSH1 0x4 ADD PUSH2 0x153 SWAP1 PUSH2 0x75C JUMP JUMPDEST PUSH1 0x40 MLOAD DUP1 SWAP2 SUB SWAP1 REVERT JUMPDEST PUSH1 0x0 ISZERO ISZERO PUSH2 0x168 PUSH2 0x369 JUMP JUMPDEST ISZERO ISZERO EQ PUSH2 0x1AA JUMPI PUSH1 0x40 MLOAD PUSH32 0x8C379A000000000000000000000000000000000000000000000000000000000 DUP2 MSTORE PUSH1 0x4 ADD PUSH2 0x1A1 SWAP1 PUSH2 0x73C JUMP JUMPDEST PUSH1 0x40 MLOAD DUP1 SWAP2 SUB SWAP1 REVERT JUMPDEST PUSH8 0xDE0B6B3A7640000 CALLVALUE EQ PUSH2 0x1F4 JUMPI PUSH1 0x40 MLOAD PUSH32 0x8C379A000000000000000000000000000000000000000000000000000000000 DUP2 MSTORE PUSH1 0x4 ADD PUSH2 0x1EB SWAP1 PUSH2 0x77C JUMP JUMPDEST PUSH1 0x40 MLOAD DUP1 SWAP2 SUB SWAP1 REVERT JUMPDEST PUSH1 0x1 CALLER SWAP1 DUP1 PUSH1 0x1 DUP2 SLOAD ADD DUP1 DUP3 SSTORE DUP1 SWAP2 POP POP PUSH1 0x1 SWAP1 SUB SWAP1 PUSH1 0x0 MSTORE PUSH1 0x20 PUSH1 0x0 KECCAK256 ADD PUSH1 0x0 SWAP1 SWAP2 SWAP1 SWAP2 SWAP1 SWAP2 PUSH2 0x100 EXP DUP2 SLOAD DUP2 PUSH20 0xFFFFFFFFFFFFFFFFFFFFFFFFFFFFFFFFFFFFFFFF MUL NOT AND SWAP1 DUP4 PUSH20 0xFFFFFFFFFFFFFFFFFFFFFFFFFFFFFFFFFFFFFFFF AND MUL OR SWAP1 SSTORE POP JUMP JUMPDEST PUSH1 0x0 DUP1 SLOAD SWAP1 PUSH2 0x100 EXP SWAP1 DIV PUSH20 0xFFFFFFFFFFFFFFFFFFFFFFFFFFFFFFFFFFFFFFFF AND DUP2 JUMP JUMPDEST CALLER PUSH20 0xFFFFFFFFFFFFFFFFFFFFFFFFFFFFFFFFFFFFFFFF AND PUSH1 0x0 DUP1 SLOAD SWAP1 PUSH2 0x100 EXP SWAP1 DIV PUSH20 0xFFFFFFFFFFFFFFFFFFFFFFFFFFFFFFFFFFFFFFFF AND PUSH20 0xFFFFFFFFFFFFFFFFFFFFFFFFFFFFFFFFFFFFFFFF AND EQ PUSH2 0x30B JUMPI PUSH1 0x40 MLOAD PUSH32 0x8C379A000000000000000000000000000000000000000000000000000000000 DUP2 MSTORE PUSH1 0x4 ADD PUSH2 0x302 SWAP1 PUSH2 0x71C JUMP JUMPDEST PUSH1 0x40 MLOAD DUP1 SWAP2 SUB SWAP1 REVERT JUMPDEST PUSH1 0x0 PUSH1 0x1 DUP1 SLOAD SWAP1 POP PUSH2 0x31B PUSH2 0x416 JUMP JUMPDEST PUSH2 0x325 SWAP2 SWAP1 PUSH2 0x913 JUMP JUMPDEST SWAP1 POP POP JUMP JUMPDEST PUSH1 0x1 DUP2 DUP2 SLOAD DUP2 LT PUSH2 0x33A JUMPI PUSH1 0x0 DUP1 REVERT JUMPDEST SWAP1 PUSH1 0x0 MSTORE PUSH1 0x20 PUSH1 0x0 KECCAK256 ADD PUSH1 0x0 SWAP2 POP SLOAD SWAP1 PUSH2 0x100 EXP SWAP1 DIV PUSH20 0xFFFFFFFFFFFFFFFFFFFFFFFFFFFFFFFFFFFFFFFF AND DUP2 JUMP JUMPDEST PUSH1 0x0 DUP1 PUSH1 0x0 SWAP1 POP JUMPDEST PUSH1 0x1 DUP1 SLOAD SWAP1 POP DUP2 LT ISZERO PUSH2 0x40D JUMPI CALLER PUSH20 0xFFFFFFFFFFFFFFFFFFFFFFFFFFFFFFFFFFFFFFFF AND PUSH1 0x1 DUP3 DUP2 SLOAD DUP2 LT PUSH2 0x3A9 JUMPI PUSH2 0x3A8 PUSH2 0x9A2 JUMP JUMPDEST JUMPDEST SWAP1 PUSH1 0x0 MSTORE PUSH1 0x20 PUSH1 0x0 KECCAK256 ADD PUSH1 0x0 SWAP1 SLOAD SWAP1 PUSH2 0x100 EXP SWAP1 DIV PUSH20 0xFFFFFFFFFFFFFFFFFFFFFFFFFFFFFFFFFFFFFFFF AND PUSH20 0xFFFFFFFFFFFFFFFFFFFFFFFFFFFFFFFFFFFFFFFF AND EQ ISZERO PUSH2 0x3FA JUMPI PUSH1 0x1 SWAP2 POP POP PUSH2 0x413 JUMP JUMPDEST DUP1 DUP1 PUSH2 0x405 SWAP1 PUSH2 0x8C0 JUMP JUMPDEST SWAP2 POP POP PUSH2 0x371 JUMP JUMPDEST POP PUSH1 0x0 SWAP1 POP JUMPDEST SWAP1 JUMP JUMPDEST PUSH1 0x0 PUSH1 0x2 DIFFICULTY NUMBER PUSH1 0x1 PUSH1 0x40 MLOAD PUSH1 0x20 ADD PUSH2 0x430 SWAP4 SWAP3 SWAP2 SWAP1 PUSH2 0x6AD JUMP JUMPDEST PUSH1 0x40 MLOAD PUSH1 0x20 DUP2 DUP4 SUB SUB DUP2 MSTORE SWAP1 PUSH1 0x40 MSTORE PUSH1 0x40 MLOAD PUSH2 0x44C SWAP2 SWAP1 PUSH2 0x696 JUMP JUMPDEST PUSH1 0x20 PUSH1 0x40 MLOAD DUP1 DUP4 SUB DUP2 DUP6 GAS STATICCALL ISZERO DUP1 ISZERO PUSH2 0x469 JUMPI RETURNDATASIZE PUSH1 0x0 DUP1 RETURNDATACOPY RETURNDATASIZE PUSH1 0x0 REVERT JUMPDEST POP POP POP PUSH1 0x40 MLOAD RETURNDATASIZE PUSH1 0x1F NOT PUSH1 0x1F DUP3 ADD AND DUP3 ADD DUP1 PUSH1 0x40 MSTORE POP DUP2 ADD SWAP1 PUSH2 0x48C SWAP2 SWAP1 PUSH2 0x4BE JUMP JUMPDEST PUSH1 0x0 SHR SWAP1 POP SWAP1 JUMP JUMPDEST PUSH1 0x0 DUP2 MLOAD SWAP1 POP PUSH2 0x4A3 DUP2 PUSH2 0xAE6 JUMP JUMPDEST SWAP3 SWAP2 POP POP JUMP JUMPDEST PUSH1 0x0 DUP2 CALLDATALOAD SWAP1 POP PUSH2 0x4B8 DUP2 PUSH2 0xAFD JUMP JUMPDEST SWAP3 SWAP2 POP POP JUMP JUMPDEST PUSH1 0x0 PUSH1 0x20 DUP3 DUP5 SUB SLT ISZERO PUSH2 0x4D4 JUMPI PUSH2 0x4D3 PUSH2 0x9E4 JUMP JUMPDEST JUMPDEST PUSH1 0x0 PUSH2 0x4E2 DUP5 DUP3 DUP6 ADD PUSH2 0x494 JUMP JUMPDEST SWAP2 POP POP SWAP3 SWAP2 POP POP JUMP JUMPDEST PUSH1 0x0 PUSH1 0x20 DUP3 DUP5 SUB SLT ISZERO PUSH2 0x501 JUMPI PUSH2 0x500 PUSH2 0x9E4 JUMP JUMPDEST JUMPDEST PUSH1 0x0 PUSH2 0x50F DUP5 DUP3 DUP6 ADD PUSH2 0x4A9 JUMP JUMPDEST SWAP2 POP POP SWAP3 SWAP2 POP POP JUMP JUMPDEST PUSH1 0x0 PUSH2 0x524 DUP4 DUP4 PUSH2 0x53F JUMP JUMPDEST PUSH1 0x20 DUP4 ADD SWAP1 POP SWAP3 SWAP2 POP POP JUMP JUMPDEST PUSH2 0x539 DUP2 PUSH2 0x82D JUMP JUMPDEST DUP3 MSTORE POP POP JUMP JUMPDEST PUSH2 0x548 DUP2 PUSH2 0x82D JUMP JUMPDEST DUP3 MSTORE POP POP JUMP JUMPDEST PUSH2 0x557 DUP2 PUSH2 0x81B JUMP JUMPDEST DUP3 MSTORE POP POP JUMP JUMPDEST PUSH1 0x0 PUSH2 0x568 DUP3 PUSH2 0x7B1 JUMP JUMPDEST PUSH2 0x572 DUP2 DUP6 PUSH2 0x7D4 JUMP JUMPDEST SWAP4 POP PUSH2 0x57D DUP4 PUSH2 0x79C JUMP JUMPDEST DUP1 PUSH1 0x0 JUMPDEST DUP4 DUP2 LT ISZERO PUSH2 0x5B5 JUMPI PUSH2 0x592 DUP3 PUSH2 0x9D1 JUMP JUMPDEST PUSH2 0x59C DUP9 DUP3 PUSH2 0x518 JUMP JUMPDEST SWAP8 POP PUSH2 0x5A7 DUP4 PUSH2 0x7C7 JUMP JUMPDEST SWAP3 POP POP PUSH1 0x1 DUP2 ADD SWAP1 POP PUSH2 0x581 JUMP JUMPDEST POP DUP6 SWAP4 POP POP POP POP SWAP3 SWAP2 POP POP JUMP JUMPDEST PUSH1 0x0 PUSH2 0x5CD DUP3 PUSH2 0x7BC JUMP JUMPDEST PUSH2 0x5D7 DUP2 DUP6 PUSH2 0x7DF JUMP JUMPDEST SWAP4 POP PUSH2 0x5E7 DUP2 DUP6 PUSH1 0x20 DUP7 ADD PUSH2 0x873 JUMP JUMPDEST DUP1 DUP5 ADD SWAP2 POP POP SWAP3 SWAP2 POP POP JUMP JUMPDEST PUSH1 0x0 PUSH2 0x600 PUSH1 0x12 DUP4 PUSH2 0x7EA JUMP JUMPDEST SWAP2 POP PUSH2 0x60B DUP3 PUSH2 0x9F6 JUMP JUMPDEST PUSH1 0x20 DUP3 ADD SWAP1 POP SWAP2 SWAP1 POP JUMP JUMPDEST PUSH1 0x0 PUSH2 0x623 PUSH1 0x1F DUP4 PUSH2 0x7EA JUMP JUMPDEST SWAP2 POP PUSH2 0x62E DUP3 PUSH2 0xA1F JUMP JUMPDEST PUSH1 0x20 DUP3 ADD SWAP1 POP SWAP2 SWAP1 POP JUMP JUMPDEST PUSH1 0x0 PUSH2 0x646 PUSH1 0x2A DUP4 PUSH2 0x7EA JUMP JUMPDEST SWAP2 POP PUSH2 0x651 DUP3 PUSH2 0xA48 JUMP JUMPDEST PUSH1 0x40 DUP3 ADD SWAP1 POP SWAP2 SWAP1 POP JUMP JUMPDEST PUSH1 0x0 PUSH2 0x669 PUSH1 0x33 DUP4 PUSH2 0x7EA JUMP JUMPDEST SWAP2 POP PUSH2 0x674 DUP3 PUSH2 0xA97 JUMP JUMPDEST PUSH1 0x40 DUP3 ADD SWAP1 POP SWAP2 SWAP1 POP JUMP JUMPDEST PUSH2 0x690 PUSH2 0x68B DUP3 PUSH2 0x869 JUMP JUMPDEST PUSH2 0x909 JUMP JUMPDEST DUP3 MSTORE POP POP JUMP JUMPDEST PUSH1 0x0 PUSH2 0x6A2 DUP3 DUP5 PUSH2 0x5C2 JUMP JUMPDEST SWAP2 POP DUP2 SWAP1 POP SWAP3 SWAP2 POP POP JUMP JUMPDEST PUSH1 0x0 PUSH2 0x6B9 DUP3 DUP7 PUSH2 0x67F JUMP JUMPDEST PUSH1 0x20 DUP3 ADD SWAP2 POP PUSH2 0x6C9 DUP3 DUP6 PUSH2 0x67F JUMP JUMPDEST PUSH1 0x20 DUP3 ADD SWAP2 POP PUSH2 0x6D9 DUP3 DUP5 PUSH2 0x55D JUMP JUMPDEST SWAP2 POP DUP2 SWAP1 POP SWAP5 SWAP4 POP POP POP POP JUMP JUMPDEST PUSH1 0x0 PUSH1 0x20 DUP3 ADD SWAP1 POP PUSH2 0x6FB PUSH1 0x0 DUP4 ADD DUP5 PUSH2 0x54E JUMP JUMPDEST SWAP3 SWAP2 POP POP JUMP JUMPDEST PUSH1 0x0 PUSH1 0x20 DUP3 ADD SWAP1 POP PUSH2 0x716 PUSH1 0x0 DUP4 ADD DUP5 PUSH2 0x530 JUMP JUMPDEST SWAP3 SWAP2 POP POP JUMP JUMPDEST PUSH1 0x0 PUSH1 0x20 DUP3 ADD SWAP1 POP DUP2 DUP2 SUB PUSH1 0x0 DUP4 ADD MSTORE PUSH2 0x735 DUP2 PUSH2 0x5F3 JUMP JUMPDEST SWAP1 POP SWAP2 SWAP1 POP JUMP JUMPDEST PUSH1 0x0 PUSH1 0x20 DUP3 ADD SWAP1 POP DUP2 DUP2 SUB PUSH1 0x0 DUP4 ADD MSTORE PUSH2 0x755 DUP2 PUSH2 0x616 JUMP JUMPDEST SWAP1 POP SWAP2 SWAP1 POP JUMP JUMPDEST PUSH1 0x0 PUSH1 0x20 DUP3 ADD SWAP1 POP DUP2 DUP2 SUB PUSH1 0x0 DUP4 ADD MSTORE PUSH2 0x775 DUP2 PUSH2 0x639 JUMP JUMPDEST SWAP1 POP SWAP2 SWAP1 POP JUMP JUMPDEST PUSH1 0x0 PUSH1 0x20 DUP3 ADD SWAP1 POP DUP2 DUP2 SUB PUSH1 0x0 DUP4 ADD MSTORE PUSH2 0x795 DUP2 PUSH2 0x65C JUMP JUMPDEST SWAP1 POP SWAP2 SWAP1 POP JUMP JUMPDEST PUSH1 0x0 DUP2 SWAP1 POP DUP2 PUSH1 0x0 MSTORE PUSH1 0x20 PUSH1 0x0 KECCAK256 SWAP1 POP SWAP2 SWAP1 POP JUMP JUMPDEST PUSH1 0x0 DUP2 SLOAD SWAP1 POP SWAP2 SWAP1 POP JUMP JUMPDEST PUSH1 0x0 DUP2 MLOAD SWAP1 POP SWAP2 SWAP1 POP JUMP JUMPDEST PUSH1 0x0 PUSH1 0x1 DUP3 ADD SWAP1 POP SWAP2 SWAP1 POP JUMP JUMPDEST PUSH1 0x0 DUP2 SWAP1 POP SWAP3 SWAP2 POP POP JUMP JUMPDEST PUSH1 0x0 DUP2 SWAP1 POP SWAP3 SWAP2 POP POP JUMP JUMPDEST PUSH1 0x0 DUP3 DUP3 MSTORE PUSH1 0x20 DUP3 ADD SWAP1 POP SWAP3 SWAP2 POP POP JUMP JUMPDEST PUSH1 0x0 PUSH20 0xFFFFFFFFFFFFFFFFFFFFFFFFFFFFFFFFFFFFFFFF DUP3 AND SWAP1 POP SWAP2 SWAP1 POP JUMP JUMPDEST PUSH1 0x0 PUSH2 0x826 DUP3 PUSH2 0x849 JUMP JUMPDEST SWAP1 POP SWAP2 SWAP1 POP JUMP JUMPDEST PUSH1 0x0 PUSH2 0x838 DUP3 PUSH2 0x849 JUMP JUMPDEST SWAP1 POP SWAP2 SWAP1 POP JUMP JUMPDEST PUSH1 0x0 DUP2 SWAP1 POP SWAP2 SWAP1 POP JUMP JUMPDEST PUSH1 0x0 PUSH20 0xFFFFFFFFFFFFFFFFFFFFFFFFFFFFFFFFFFFFFFFF DUP3 AND SWAP1 POP SWAP2 SWAP1 POP JUMP JUMPDEST PUSH1 0x0 DUP2 SWAP1 POP SWAP2 SWAP1 POP JUMP JUMPDEST PUSH1 0x0 JUMPDEST DUP4 DUP2 LT ISZERO PUSH2 0x891 JUMPI DUP1 DUP3 ADD MLOAD DUP2 DUP5 ADD MSTORE PUSH1 0x20 DUP2 ADD SWAP1 POP PUSH2 0x876 JUMP JUMPDEST DUP4 DUP2 GT ISZERO PUSH2 0x8A0 JUMPI PUSH1 0x0 DUP5 DUP5 ADD MSTORE JUMPDEST POP POP POP POP JUMP JUMPDEST PUSH1 0x0 PUSH2 0x8B9 PUSH2 0x8B4 DUP4 PUSH2 0x9E9 JUMP JUMPDEST PUSH2 0x7FB JUMP JUMPDEST SWAP1 POP SWAP2 SWAP1 POP JUMP JUMPDEST PUSH1 0x0 PUSH2 0x8CB DUP3 PUSH2 0x869 JUMP JUMPDEST SWAP2 POP PUSH32 0xFFFFFFFFFFFFFFFFFFFFFFFFFFFFFFFFFFFFFFFFFFFFFFFFFFFFFFFFFFFFFFFF DUP3 EQ ISZERO PUSH2 0x8FE JUMPI PUSH2 0x8FD PUSH2 0x944 JUMP JUMPDEST JUMPDEST PUSH1 0x1 DUP3 ADD SWAP1 POP SWAP2 SWAP1 POP JUMP JUMPDEST PUSH1 0x0 DUP2 SWAP1 POP SWAP2 SWAP1 POP JUMP JUMPDEST PUSH1 0x0 PUSH2 0x91E DUP3 PUSH2 0x869 JUMP JUMPDEST SWAP2 POP PUSH2 0x929 DUP4 PUSH2 0x869 JUMP JUMPDEST SWAP3 POP DUP3 PUSH2 0x939 JUMPI PUSH2 0x938 PUSH2 0x973 JUMP JUMPDEST JUMPDEST DUP3 DUP3 MOD SWAP1 POP SWAP3 SWAP2 POP POP JUMP JUMPDEST PUSH32 0x4E487B7100000000000000000000000000000000000000000000000000000000 PUSH1 0x0 MSTORE PUSH1 0x11 PUSH1 0x4 MSTORE PUSH1 0x24 PUSH1 0x0 REVERT JUMPDEST PUSH32 0x4E487B7100000000000000000000000000000000000000000000000000000000 PUSH1 0x0 MSTORE PUSH1 0x12 PUSH1 0x4 MSTORE PUSH1 0x24 PUSH1 0x0 REVERT JUMPDEST PUSH32 0x4E487B7100000000000000000000000000000000000000000000000000000000 PUSH1 0x0 MSTORE PUSH1 0x32 PUSH1 0x4 MSTORE PUSH1 0x24 PUSH1 0x0 REVERT JUMPDEST PUSH1 0x0 PUSH2 0x9DD DUP3 SLOAD PUSH2 0x8A6 JUMP JUMPDEST SWAP1 POP SWAP2 SWAP1 POP JUMP JUMPDEST PUSH1 0x0 DUP1 REVERT JUMPDEST PUSH1 0x0 DUP2 PUSH1 0x0 SHR SWAP1 POP SWAP2 SWAP1 POP JUMP JUMPDEST PUSH32 0x596F752063616E206E6F74206163636573730000000000000000000000000000 PUSH1 0x0 DUP3 ADD MSTORE POP JUMP JUMPDEST PUSH32 0x596F7520616C7265616479206A6F696E6564207468697320636F6E7465737400 PUSH1 0x0 DUP3 ADD MSTORE POP JUMP JUMPDEST PUSH32 0x596F752063616E206E6F7420706172746963697061746520617320796F752061 PUSH1 0x0 DUP3 ADD MSTORE PUSH32 0x7265206D616E6167657200000000000000000000000000000000000000000000 PUSH1 0x20 DUP3 ADD MSTORE POP JUMP JUMPDEST PUSH32 0x596F75206861766520746F207061792066656573206F66203120657468657220 PUSH1 0x0 DUP3 ADD MSTORE PUSH32 0x666F72206A6F696E696E6720636F6E7465737400000000000000000000000000 PUSH1 0x20 DUP3 ADD MSTORE POP JUMP JUMPDEST PUSH2 0xAEF DUP2 PUSH2 0x83F JUMP JUMPDEST DUP2 EQ PUSH2 0xAFA JUMPI PUSH1 0x0 DUP1 REVERT JUMPDEST POP JUMP JUMPDEST PUSH2 0xB06 DUP2 PUSH2 0x869 JUMP JUMPDEST DUP2 EQ PUSH2 0xB11 JUMPI PUSH1 0x0 DUP1 REVERT JUMPDEST POP JUMP INVALID LOG2 PUSH5 0x6970667358 0x22 SLT KECCAK256 0xE9 0xA6 0xEA CALLCODE 0xA6 PUSH3 0xAE8AE1 0xA8 0x26 0xD6 PUSH1 0xE3 0xB8 SWAP1 STATICCALL DELEGATECALL TIMESTAMP SWAP9 0x22 PUSH19 0x35DAB554EC47580B3F0F64736F6C6343000807 STOP CALLER "
				},
				"gasEstimates": {
					"creation": {
						"codeDepositCost": "578000",
						"executionCost": "infinite",
						"totalCost": "infinite"
					},
					"external": {
						"ENTER()": "infinite",
						"manager()": "2511",
						"pickWinner()": "infinite",
						"players(uint256)": "5000"
					},
					"internal": {
						"alreadyEnter()": "infinite",
						"randomToken()": "infinite"
					}
				},
				"methodIdentifiers": {
					"ENTER()": "19b37417",
					"manager()": "481c6a75",
					"pickWinner()": "5d495aea",
					"players(uint256)": "f71d96cb"
				}
			},
			"storageLayout": {
				"storage": [
					{
						"astId": 3,
						"contract": "LotteryContract.sol:main",
						"label": "manager",
						"offset": 0,
						"slot": "0",
						"type": "t_address"
					},
					{
						"astId": 6,
						"contract": "LotteryContract.sol:main",
						"label": "players",
						"offset": 0,
						"slot": "1",
						"type": "t_array(t_address_payable)dyn_storage"
					}
				],
				"types": {
					"t_address": {
						"encoding": "inplace",
						"label": "address",
						"numberOfBytes": "20"
					},
					"t_address_payable": {
						"encoding": "inplace",
						"label": "address payable",
						"numberOfBytes": "20"
					},
					"t_array(t_address_payable)dyn_storage": {
						"base": "t_address_payable",
						"encoding": "dynamic_array",
						"label": "address payable[]",
						"numberOfBytes": "32"
					}
				}
			},
			"userdoc": {
				"kind": "user",
				"methods": {},
				"version": 1
			}
		}
	}
}