{
	"LotteryContract.sol": {
		"main": {
			"abi": [
				{
					"inputs": [],
					"stateMutability": "nonpayable",
					"type": "constructor"
				},
				{
					"anonymous": false,
					"inputs": [
						{
							"indexed": false,
							"internalType": "uint256",
							"name": "a",
							"type": "uint256"
						}
					],
					"name": "log",
					"type": "event"
				},
				{
					"inputs": [],
					"name": "ENTER",
					"outputs": [],
					"stateMutability": "payable",
					"type": "function"
				},
				{
					"inputs": [],
					"name": "manager",
					"outputs": [
						{
							"internalType": "address",
							"name": "",
							"type": "address"
						}
					],
					"stateMutability": "view",
					"type": "function"
				},
				{
					"inputs": [],
					"name": "pickWinner",
					"outputs": [
						{
							"internalType": "uint256",
							"name": "",
							"type": "uint256"
						}
					],
					"stateMutability": "nonpayable",
					"type": "function"
				},
				{
					"inputs": [
						{
							"internalType": "uint256",
							"name": "",
							"type": "uint256"
						}
					],
					"name": "players",
					"outputs": [
						{
							"internalType": "address payable",
							"name": "",
							"type": "address"
						}
					],
					"stateMutability": "view",
					"type": "function"
				}
			],
			"devdoc": {
				"kind": "dev",
				"methods": {},
				"version": 1
			},
			"evm": {
				"assembly": "    /* \"LotteryContract.sol\":59:1255  contract main{\r... */\n  mstore(0x40, 0x80)\n    /* \"LotteryContract.sol\":152:228  constructor(){\r... */\n  callvalue\n  dup1\n  iszero\n  tag_1\n  jumpi\n  0x00\n  dup1\n  revert\ntag_1:\n  pop\n    /* \"LotteryContract.sol\":186:196  msg.sender */\n  caller\n    /* \"LotteryContract.sol\":176:183  manager */\n  0x00\n  dup1\n    /* \"LotteryContract.sol\":176:196  manager = msg.sender */\n  0x0100\n  exp\n  dup2\n  sload\n  dup2\n  0xffffffffffffffffffffffffffffffffffffffff\n  mul\n  not\n  and\n  swap1\n  dup4\n  0xffffffffffffffffffffffffffffffffffffffff\n  and\n  mul\n  or\n  swap1\n  sstore\n  pop\n    /* \"LotteryContract.sol\":207:220  randomToken() */\n  tag_4\n    /* \"LotteryContract.sol\":207:218  randomToken */\n  shl(0x20, tag_5)\n    /* \"LotteryContract.sol\":207:220  randomToken() */\n  0x20\n  shr\n  jump\t// in\ntag_4:\n  pop\n    /* \"LotteryContract.sol\":59:1255  contract main{\r... */\n  jump(tag_6)\n    /* \"LotteryContract.sol\":868:1052  function randomToken() private returns(uint){\r... */\ntag_5:\n    /* \"LotteryContract.sol\":907:911  uint */\n  0x00\n    /* \"LotteryContract.sol\":923:929  uint a */\n  dup1\n    /* \"LotteryContract.sol\":937:1002  sha256(abi.encodePacked(block.difficulty, block.number, players)) */\n  0x02\n    /* \"LotteryContract.sol\":961:977  block.difficulty */\n  difficulty\n    /* \"LotteryContract.sol\":979:991  block.number */\n  number\n    /* \"LotteryContract.sol\":993:1000  players */\n  0x01\n    /* \"LotteryContract.sol\":944:1001  abi.encodePacked(block.difficulty, block.number, players) */\n  add(0x20, mload(0x40))\n  tag_8\n  swap4\n  swap3\n  swap2\n  swap1\n  tag_9\n  jump\t// in\ntag_8:\n  mload(0x40)\n  0x20\n  dup2\n  dup4\n  sub\n  sub\n  dup2\n  mstore\n  swap1\n  0x40\n  mstore\n    /* \"LotteryContract.sol\":937:1002  sha256(abi.encodePacked(block.difficulty, block.number, players)) */\n  mload(0x40)\n  tag_10\n  swap2\n  swap1\n  tag_11\n  jump\t// in\ntag_10:\n  0x20\n  mload(0x40)\n  dup1\n  dup4\n  sub\n  dup2\n  dup6\n  gas\n  staticcall\n  iszero\n  dup1\n  iszero\n  tag_13\n  jumpi\n  returndatasize\n  0x00\n  dup1\n  returndatacopy\n  revert(0x00, returndatasize)\ntag_13:\n  pop\n  pop\n  pop\n  mload(0x40)\n  returndatasize\n  not(0x1f)\n  0x1f\n  dup3\n  add\n  and\n  dup3\n  add\n  dup1\n  0x40\n  mstore\n  pop\n  dup2\n  add\n  swap1\n  tag_14\n  swap2\n  swap1\n  tag_15\n  jump\t// in\ntag_14:\n    /* \"LotteryContract.sol\":932:1003  uint(sha256(abi.encodePacked(block.difficulty, block.number, players))) */\n  0x00\n  shr\n    /* \"LotteryContract.sol\":923:1003  uint a = uint(sha256(abi.encodePacked(block.difficulty, block.number, players))) */\n  swap1\n  pop\n    /* \"LotteryContract.sol\":1019:1025  log(a) */\n  0xf82c50f1848136e6c140b186ea0c768b7deda5efffe42c25e96336a90b26c744\n    /* \"LotteryContract.sol\":1023:1024  a */\n  dup2\n    /* \"LotteryContract.sol\":1019:1025  log(a) */\n  mload(0x40)\n  tag_16\n  swap2\n  swap1\n  tag_17\n  jump\t// in\ntag_16:\n  mload(0x40)\n  dup1\n  swap2\n  sub\n  swap1\n  log1\n    /* \"LotteryContract.sol\":1043:1044  a */\n  dup1\n    /* \"LotteryContract.sol\":1036:1044  return a */\n  swap2\n  pop\n  pop\n    /* \"LotteryContract.sol\":868:1052  function randomToken() private returns(uint){\r... */\n  swap1\n  jump\t// out\n    /* \"#utility.yul\":7:150   */\ntag_19:\n    /* \"#utility.yul\":64:69   */\n  0x00\n    /* \"#utility.yul\":95:101   */\n  dup2\n    /* \"#utility.yul\":89:102   */\n  mload\n    /* \"#utility.yul\":80:102   */\n  swap1\n  pop\n    /* \"#utility.yul\":111:144   */\n  tag_21\n    /* \"#utility.yul\":138:143   */\n  dup2\n    /* \"#utility.yul\":111:144   */\n  tag_22\n  jump\t// in\ntag_21:\n    /* \"#utility.yul\":7:150   */\n  swap3\n  swap2\n  pop\n  pop\n  jump\t// out\n    /* \"#utility.yul\":156:507   */\ntag_15:\n    /* \"#utility.yul\":226:232   */\n  0x00\n    /* \"#utility.yul\":275:277   */\n  0x20\n    /* \"#utility.yul\":263:272   */\n  dup3\n    /* \"#utility.yul\":254:261   */\n  dup5\n    /* \"#utility.yul\":250:273   */\n  sub\n    /* \"#utility.yul\":246:278   */\n  slt\n    /* \"#utility.yul\":243:362   */\n  iszero\n  tag_24\n  jumpi\n    /* \"#utility.yul\":281:360   */\n  tag_25\n  tag_26\n  jump\t// in\ntag_25:\n    /* \"#utility.yul\":243:362   */\ntag_24:\n    /* \"#utility.yul\":401:402   */\n  0x00\n    /* \"#utility.yul\":426:490   */\n  tag_27\n    /* \"#utility.yul\":482:489   */\n  dup5\n    /* \"#utility.yul\":473:479   */\n  dup3\n    /* \"#utility.yul\":462:471   */\n  dup6\n    /* \"#utility.yul\":458:480   */\n  add\n    /* \"#utility.yul\":426:490   */\n  tag_19\n  jump\t// in\ntag_27:\n    /* \"#utility.yul\":416:490   */\n  swap2\n  pop\n    /* \"#utility.yul\":372:500   */\n  pop\n    /* \"#utility.yul\":156:507   */\n  swap3\n  swap2\n  pop\n  pop\n  jump\t// out\n    /* \"#utility.yul\":513:740   */\ntag_28:\n    /* \"#utility.yul\":606:616   */\n  0x00\n    /* \"#utility.yul\":627:697   */\n  tag_30\n    /* \"#utility.yul\":693:696   */\n  dup4\n    /* \"#utility.yul\":685:691   */\n  dup4\n    /* \"#utility.yul\":627:697   */\n  tag_31\n  jump\t// in\ntag_30:\n    /* \"#utility.yul\":729:733   */\n  0x20\n    /* \"#utility.yul\":724:727   */\n  dup4\n    /* \"#utility.yul\":720:734   */\n  add\n    /* \"#utility.yul\":706:734   */\n  swap1\n  pop\n    /* \"#utility.yul\":513:740   */\n  swap3\n  swap2\n  pop\n  pop\n  jump\t// out\n    /* \"#utility.yul\":746:886   */\ntag_31:\n    /* \"#utility.yul\":847:879   */\n  tag_33\n    /* \"#utility.yul\":873:878   */\n  dup2\n    /* \"#utility.yul\":847:879   */\n  tag_34\n  jump\t// in\ntag_33:\n    /* \"#utility.yul\":842:845   */\n  dup3\n    /* \"#utility.yul\":835:880   */\n  mstore\n    /* \"#utility.yul\":746:886   */\n  pop\n  pop\n  jump\t// out\n    /* \"#utility.yul\":938:1805   */\ntag_35:\n    /* \"#utility.yul\":1088:1091   */\n  0x00\n    /* \"#utility.yul\":1117:1176   */\n  tag_37\n    /* \"#utility.yul\":1170:1175   */\n  dup3\n    /* \"#utility.yul\":1117:1176   */\n  tag_38\n  jump\t// in\ntag_37:\n    /* \"#utility.yul\":1192:1304   */\n  tag_39\n    /* \"#utility.yul\":1297:1303   */\n  dup2\n    /* \"#utility.yul\":1292:1295   */\n  dup6\n    /* \"#utility.yul\":1192:1304   */\n  tag_40\n  jump\t// in\ntag_39:\n    /* \"#utility.yul\":1185:1304   */\n  swap4\n  pop\n    /* \"#utility.yul\":1328:1389   */\n  tag_41\n    /* \"#utility.yul\":1383:1388   */\n  dup4\n    /* \"#utility.yul\":1328:1389   */\n  tag_42\n  jump\t// in\ntag_41:\n    /* \"#utility.yul\":1412:1419   */\n  dup1\n    /* \"#utility.yul\":1443:1444   */\n  0x00\n    /* \"#utility.yul\":1428:1780   */\ntag_43:\n    /* \"#utility.yul\":1453:1459   */\n  dup4\n    /* \"#utility.yul\":1450:1451   */\n  dup2\n    /* \"#utility.yul\":1447:1460   */\n  lt\n    /* \"#utility.yul\":1428:1780   */\n  iszero\n  tag_45\n  jumpi\n    /* \"#utility.yul\":1523:1575   */\n  tag_46\n    /* \"#utility.yul\":1568:1574   */\n  dup3\n    /* \"#utility.yul\":1523:1575   */\n  tag_47\n  jump\t// in\ntag_46:\n    /* \"#utility.yul\":1595:1682   */\n  tag_48\n    /* \"#utility.yul\":1678:1681   */\n  dup9\n    /* \"#utility.yul\":1663:1676   */\n  dup3\n    /* \"#utility.yul\":1595:1682   */\n  tag_28\n  jump\t// in\ntag_48:\n    /* \"#utility.yul\":1588:1682   */\n  swap8\n  pop\n    /* \"#utility.yul\":1705:1770   */\n  tag_49\n    /* \"#utility.yul\":1763:1769   */\n  dup4\n    /* \"#utility.yul\":1705:1770   */\n  tag_50\n  jump\t// in\ntag_49:\n    /* \"#utility.yul\":1695:1770   */\n  swap3\n  pop\n    /* \"#utility.yul\":1488:1780   */\n  pop\n    /* \"#utility.yul\":1475:1476   */\n  0x01\n    /* \"#utility.yul\":1472:1473   */\n  dup2\n    /* \"#utility.yul\":1468:1477   */\n  add\n    /* \"#utility.yul\":1463:1477   */\n  swap1\n  pop\n    /* \"#utility.yul\":1428:1780   */\n  jump(tag_43)\ntag_45:\n    /* \"#utility.yul\":1432:1446   */\n  pop\n    /* \"#utility.yul\":1796:1799   */\n  dup6\n    /* \"#utility.yul\":1789:1799   */\n  swap4\n  pop\n    /* \"#utility.yul\":1093:1805   */\n  pop\n  pop\n  pop\n    /* \"#utility.yul\":938:1805   */\n  swap3\n  swap2\n  pop\n  pop\n  jump\t// out\n    /* \"#utility.yul\":1811:2184   */\ntag_51:\n    /* \"#utility.yul\":1915:1918   */\n  0x00\n    /* \"#utility.yul\":1943:1981   */\n  tag_53\n    /* \"#utility.yul\":1975:1980   */\n  dup3\n    /* \"#utility.yul\":1943:1981   */\n  tag_54\n  jump\t// in\ntag_53:\n    /* \"#utility.yul\":1997:2085   */\n  tag_55\n    /* \"#utility.yul\":2078:2084   */\n  dup2\n    /* \"#utility.yul\":2073:2076   */\n  dup6\n    /* \"#utility.yul\":1997:2085   */\n  tag_56\n  jump\t// in\ntag_55:\n    /* \"#utility.yul\":1990:2085   */\n  swap4\n  pop\n    /* \"#utility.yul\":2094:2146   */\n  tag_57\n    /* \"#utility.yul\":2139:2145   */\n  dup2\n    /* \"#utility.yul\":2134:2137   */\n  dup6\n    /* \"#utility.yul\":2127:2131   */\n  0x20\n    /* \"#utility.yul\":2120:2125   */\n  dup7\n    /* \"#utility.yul\":2116:2132   */\n  add\n    /* \"#utility.yul\":2094:2146   */\n  tag_58\n  jump\t// in\ntag_57:\n    /* \"#utility.yul\":2171:2177   */\n  dup1\n    /* \"#utility.yul\":2166:2169   */\n  dup5\n    /* \"#utility.yul\":2162:2178   */\n  add\n    /* \"#utility.yul\":2155:2178   */\n  swap2\n  pop\n    /* \"#utility.yul\":1919:2184   */\n  pop\n    /* \"#utility.yul\":1811:2184   */\n  swap3\n  swap2\n  pop\n  pop\n  jump\t// out\n    /* \"#utility.yul\":2190:2308   */\ntag_59:\n    /* \"#utility.yul\":2277:2301   */\n  tag_61\n    /* \"#utility.yul\":2295:2300   */\n  dup2\n    /* \"#utility.yul\":2277:2301   */\n  tag_62\n  jump\t// in\ntag_61:\n    /* \"#utility.yul\":2272:2275   */\n  dup3\n    /* \"#utility.yul\":2265:2302   */\n  mstore\n    /* \"#utility.yul\":2190:2308   */\n  pop\n  pop\n  jump\t// out\n    /* \"#utility.yul\":2314:2471   */\ntag_63:\n    /* \"#utility.yul\":2419:2464   */\n  tag_65\n    /* \"#utility.yul\":2439:2463   */\n  tag_66\n    /* \"#utility.yul\":2457:2462   */\n  dup3\n    /* \"#utility.yul\":2439:2463   */\n  tag_62\n  jump\t// in\ntag_66:\n    /* \"#utility.yul\":2419:2464   */\n  tag_67\n  jump\t// in\ntag_65:\n    /* \"#utility.yul\":2414:2417   */\n  dup3\n    /* \"#utility.yul\":2407:2465   */\n  mstore\n    /* \"#utility.yul\":2314:2471   */\n  pop\n  pop\n  jump\t// out\n    /* \"#utility.yul\":2477:2748   */\ntag_11:\n    /* \"#utility.yul\":2607:2610   */\n  0x00\n    /* \"#utility.yul\":2629:2722   */\n  tag_69\n    /* \"#utility.yul\":2718:2721   */\n  dup3\n    /* \"#utility.yul\":2709:2715   */\n  dup5\n    /* \"#utility.yul\":2629:2722   */\n  tag_51\n  jump\t// in\ntag_69:\n    /* \"#utility.yul\":2622:2722   */\n  swap2\n  pop\n    /* \"#utility.yul\":2739:2742   */\n  dup2\n    /* \"#utility.yul\":2732:2742   */\n  swap1\n  pop\n    /* \"#utility.yul\":2477:2748   */\n  swap3\n  swap2\n  pop\n  pop\n  jump\t// out\n    /* \"#utility.yul\":2754:3397   */\ntag_9:\n    /* \"#utility.yul\":2985:2988   */\n  0x00\n    /* \"#utility.yul\":3000:3075   */\n  tag_71\n    /* \"#utility.yul\":3071:3074   */\n  dup3\n    /* \"#utility.yul\":3062:3068   */\n  dup7\n    /* \"#utility.yul\":3000:3075   */\n  tag_63\n  jump\t// in\ntag_71:\n    /* \"#utility.yul\":3100:3102   */\n  0x20\n    /* \"#utility.yul\":3095:3098   */\n  dup3\n    /* \"#utility.yul\":3091:3103   */\n  add\n    /* \"#utility.yul\":3084:3103   */\n  swap2\n  pop\n    /* \"#utility.yul\":3113:3188   */\n  tag_72\n    /* \"#utility.yul\":3184:3187   */\n  dup3\n    /* \"#utility.yul\":3175:3181   */\n  dup6\n    /* \"#utility.yul\":3113:3188   */\n  tag_63\n  jump\t// in\ntag_72:\n    /* \"#utility.yul\":3213:3215   */\n  0x20\n    /* \"#utility.yul\":3208:3211   */\n  dup3\n    /* \"#utility.yul\":3204:3216   */\n  add\n    /* \"#utility.yul\":3197:3216   */\n  swap2\n  pop\n    /* \"#utility.yul\":3233:3371   */\n  tag_73\n    /* \"#utility.yul\":3367:3370   */\n  dup3\n    /* \"#utility.yul\":3358:3364   */\n  dup5\n    /* \"#utility.yul\":3233:3371   */\n  tag_35\n  jump\t// in\ntag_73:\n    /* \"#utility.yul\":3226:3371   */\n  swap2\n  pop\n    /* \"#utility.yul\":3388:3391   */\n  dup2\n    /* \"#utility.yul\":3381:3391   */\n  swap1\n  pop\n    /* \"#utility.yul\":2754:3397   */\n  swap5\n  swap4\n  pop\n  pop\n  pop\n  pop\n  jump\t// out\n    /* \"#utility.yul\":3403:3625   */\ntag_17:\n    /* \"#utility.yul\":3496:3500   */\n  0x00\n    /* \"#utility.yul\":3534:3536   */\n  0x20\n    /* \"#utility.yul\":3523:3532   */\n  dup3\n    /* \"#utility.yul\":3519:3537   */\n  add\n    /* \"#utility.yul\":3511:3537   */\n  swap1\n  pop\n    /* \"#utility.yul\":3547:3618   */\n  tag_75\n    /* \"#utility.yul\":3615:3616   */\n  0x00\n    /* \"#utility.yul\":3604:3613   */\n  dup4\n    /* \"#utility.yul\":3600:3617   */\n  add\n    /* \"#utility.yul\":3591:3597   */\n  dup5\n    /* \"#utility.yul\":3547:3618   */\n  tag_59\n  jump\t// in\ntag_75:\n    /* \"#utility.yul\":3403:3625   */\n  swap3\n  swap2\n  pop\n  pop\n  jump\t// out\n    /* \"#utility.yul\":3712:3876   */\ntag_42:\n    /* \"#utility.yul\":3784:3788   */\n  0x00\n    /* \"#utility.yul\":3807:3810   */\n  dup2\n    /* \"#utility.yul\":3799:3810   */\n  swap1\n  pop\n    /* \"#utility.yul\":3830:3833   */\n  dup2\n    /* \"#utility.yul\":3827:3828   */\n  0x00\n    /* \"#utility.yul\":3820:3834   */\n  mstore\n    /* \"#utility.yul\":3864:3868   */\n  0x20\n    /* \"#utility.yul\":3861:3862   */\n  0x00\n    /* \"#utility.yul\":3851:3869   */\n  keccak256\n    /* \"#utility.yul\":3843:3869   */\n  swap1\n  pop\n    /* \"#utility.yul\":3712:3876   */\n  swap2\n  swap1\n  pop\n  jump\t// out\n    /* \"#utility.yul\":3882:4001   */\ntag_38:\n    /* \"#utility.yul\":3954:3960   */\n  0x00\n    /* \"#utility.yul\":3988:3993   */\n  dup2\n    /* \"#utility.yul\":3982:3994   */\n  sload\n    /* \"#utility.yul\":3972:3994   */\n  swap1\n  pop\n    /* \"#utility.yul\":3882:4001   */\n  swap2\n  swap1\n  pop\n  jump\t// out\n    /* \"#utility.yul\":4007:4105   */\ntag_54:\n    /* \"#utility.yul\":4058:4064   */\n  0x00\n    /* \"#utility.yul\":4092:4097   */\n  dup2\n    /* \"#utility.yul\":4086:4098   */\n  mload\n    /* \"#utility.yul\":4076:4098   */\n  swap1\n  pop\n    /* \"#utility.yul\":4007:4105   */\n  swap2\n  swap1\n  pop\n  jump\t// out\n    /* \"#utility.yul\":4111:4229   */\ntag_50:\n    /* \"#utility.yul\":4186:4190   */\n  0x00\n    /* \"#utility.yul\":4218:4222   */\n  0x01\n    /* \"#utility.yul\":4213:4216   */\n  dup3\n    /* \"#utility.yul\":4209:4223   */\n  add\n    /* \"#utility.yul\":4201:4223   */\n  swap1\n  pop\n    /* \"#utility.yul\":4111:4229   */\n  swap2\n  swap1\n  pop\n  jump\t// out\n    /* \"#utility.yul\":4235:4406   */\ntag_40:\n    /* \"#utility.yul\":4360:4371   */\n  0x00\n    /* \"#utility.yul\":4397:4400   */\n  dup2\n    /* \"#utility.yul\":4382:4400   */\n  swap1\n  pop\n    /* \"#utility.yul\":4235:4406   */\n  swap3\n  swap2\n  pop\n  pop\n  jump\t// out\n    /* \"#utility.yul\":4412:4559   */\ntag_56:\n    /* \"#utility.yul\":4513:4524   */\n  0x00\n    /* \"#utility.yul\":4550:4553   */\n  dup2\n    /* \"#utility.yul\":4535:4553   */\n  swap1\n  pop\n    /* \"#utility.yul\":4412:4559   */\n  swap3\n  swap2\n  pop\n  pop\n  jump\t// out\n    /* \"#utility.yul\":4565:4712   */\ntag_84:\n    /* \"#utility.yul\":4623:4630   */\n  0x00\n    /* \"#utility.yul\":4663:4705   */\n  0xffffffffffffffffffffffffffffffffffffffff\n    /* \"#utility.yul\":4656:4661   */\n  dup3\n    /* \"#utility.yul\":4652:4706   */\n  and\n    /* \"#utility.yul\":4641:4706   */\n  swap1\n  pop\n    /* \"#utility.yul\":4565:4712   */\n  swap2\n  swap1\n  pop\n  jump\t// out\n    /* \"#utility.yul\":4718:4822   */\ntag_34:\n    /* \"#utility.yul\":4763:4770   */\n  0x00\n    /* \"#utility.yul\":4792:4816   */\n  tag_87\n    /* \"#utility.yul\":4810:4815   */\n  dup3\n    /* \"#utility.yul\":4792:4816   */\n  tag_88\n  jump\t// in\ntag_87:\n    /* \"#utility.yul\":4781:4816   */\n  swap1\n  pop\n    /* \"#utility.yul\":4718:4822   */\n  swap2\n  swap1\n  pop\n  jump\t// out\n    /* \"#utility.yul\":4828:4905   */\ntag_89:\n    /* \"#utility.yul\":4865:4872   */\n  0x00\n    /* \"#utility.yul\":4894:4899   */\n  dup2\n    /* \"#utility.yul\":4883:4899   */\n  swap1\n  pop\n    /* \"#utility.yul\":4828:4905   */\n  swap2\n  swap1\n  pop\n  jump\t// out\n    /* \"#utility.yul\":4911:5037   */\ntag_88:\n    /* \"#utility.yul\":4948:4955   */\n  0x00\n    /* \"#utility.yul\":4988:5030   */\n  0xffffffffffffffffffffffffffffffffffffffff\n    /* \"#utility.yul\":4981:4986   */\n  dup3\n    /* \"#utility.yul\":4977:5031   */\n  and\n    /* \"#utility.yul\":4966:5031   */\n  swap1\n  pop\n    /* \"#utility.yul\":4911:5037   */\n  swap2\n  swap1\n  pop\n  jump\t// out\n    /* \"#utility.yul\":5043:5120   */\ntag_62:\n    /* \"#utility.yul\":5080:5087   */\n  0x00\n    /* \"#utility.yul\":5109:5114   */\n  dup2\n    /* \"#utility.yul\":5098:5114   */\n  swap1\n  pop\n    /* \"#utility.yul\":5043:5120   */\n  swap2\n  swap1\n  pop\n  jump\t// out\n    /* \"#utility.yul\":5126:5433   */\ntag_58:\n    /* \"#utility.yul\":5194:5195   */\n  0x00\n    /* \"#utility.yul\":5204:5317   */\ntag_94:\n    /* \"#utility.yul\":5218:5224   */\n  dup4\n    /* \"#utility.yul\":5215:5216   */\n  dup2\n    /* \"#utility.yul\":5212:5225   */\n  lt\n    /* \"#utility.yul\":5204:5317   */\n  iszero\n  tag_96\n  jumpi\n    /* \"#utility.yul\":5303:5304   */\n  dup1\n    /* \"#utility.yul\":5298:5301   */\n  dup3\n    /* \"#utility.yul\":5294:5305   */\n  add\n    /* \"#utility.yul\":5288:5306   */\n  mload\n    /* \"#utility.yul\":5284:5285   */\n  dup2\n    /* \"#utility.yul\":5279:5282   */\n  dup5\n    /* \"#utility.yul\":5275:5286   */\n  add\n    /* \"#utility.yul\":5268:5307   */\n  mstore\n    /* \"#utility.yul\":5240:5242   */\n  0x20\n    /* \"#utility.yul\":5237:5238   */\n  dup2\n    /* \"#utility.yul\":5233:5243   */\n  add\n    /* \"#utility.yul\":5228:5243   */\n  swap1\n  pop\n    /* \"#utility.yul\":5204:5317   */\n  jump(tag_94)\ntag_96:\n    /* \"#utility.yul\":5335:5341   */\n  dup4\n    /* \"#utility.yul\":5332:5333   */\n  dup2\n    /* \"#utility.yul\":5329:5342   */\n  gt\n    /* \"#utility.yul\":5326:5427   */\n  iszero\n  tag_97\n  jumpi\n    /* \"#utility.yul\":5415:5416   */\n  0x00\n    /* \"#utility.yul\":5406:5412   */\n  dup5\n    /* \"#utility.yul\":5401:5404   */\n  dup5\n    /* \"#utility.yul\":5397:5413   */\n  add\n    /* \"#utility.yul\":5390:5417   */\n  mstore\n    /* \"#utility.yul\":5326:5427   */\ntag_97:\n    /* \"#utility.yul\":5175:5433   */\n  pop\n    /* \"#utility.yul\":5126:5433   */\n  pop\n  pop\n  pop\n  jump\t// out\n    /* \"#utility.yul\":5439:5621   */\ntag_98:\n    /* \"#utility.yul\":5516:5521   */\n  0x00\n    /* \"#utility.yul\":5541:5615   */\n  tag_100\n    /* \"#utility.yul\":5580:5614   */\n  tag_101\n    /* \"#utility.yul\":5603:5613   */\n  dup4\n    /* \"#utility.yul\":5580:5614   */\n  tag_102\n  jump\t// in\ntag_101:\n    /* \"#utility.yul\":5541:5615   */\n  tag_84\n  jump\t// in\ntag_100:\n    /* \"#utility.yul\":5532:5615   */\n  swap1\n  pop\n    /* \"#utility.yul\":5439:5621   */\n  swap2\n  swap1\n  pop\n  jump\t// out\n    /* \"#utility.yul\":5627:5706   */\ntag_67:\n    /* \"#utility.yul\":5666:5673   */\n  0x00\n    /* \"#utility.yul\":5695:5700   */\n  dup2\n    /* \"#utility.yul\":5684:5700   */\n  swap1\n  pop\n    /* \"#utility.yul\":5627:5706   */\n  swap2\n  swap1\n  pop\n  jump\t// out\n    /* \"#utility.yul\":5712:5872   */\ntag_47:\n    /* \"#utility.yul\":5775:5780   */\n  0x00\n    /* \"#utility.yul\":5800:5865   */\n  tag_105\n    /* \"#utility.yul\":5859:5863   */\n  dup3\n    /* \"#utility.yul\":5853:5864   */\n  sload\n    /* \"#utility.yul\":5800:5865   */\n  tag_98\n  jump\t// in\ntag_105:\n    /* \"#utility.yul\":5791:5865   */\n  swap1\n  pop\n    /* \"#utility.yul\":5712:5872   */\n  swap2\n  swap1\n  pop\n  jump\t// out\n    /* \"#utility.yul\":6001:6118   */\ntag_26:\n    /* \"#utility.yul\":6110:6111   */\n  0x00\n    /* \"#utility.yul\":6107:6108   */\n  dup1\n    /* \"#utility.yul\":6100:6112   */\n  revert\n    /* \"#utility.yul\":6124:6226   */\ntag_102:\n    /* \"#utility.yul\":6166:6174   */\n  0x00\n    /* \"#utility.yul\":6213:6218   */\n  dup2\n    /* \"#utility.yul\":6210:6211   */\n  0x00\n    /* \"#utility.yul\":6206:6219   */\n  shr\n    /* \"#utility.yul\":6185:6219   */\n  swap1\n  pop\n    /* \"#utility.yul\":6124:6226   */\n  swap2\n  swap1\n  pop\n  jump\t// out\n    /* \"#utility.yul\":6232:6354   */\ntag_22:\n    /* \"#utility.yul\":6305:6329   */\n  tag_111\n    /* \"#utility.yul\":6323:6328   */\n  dup2\n    /* \"#utility.yul\":6305:6329   */\n  tag_89\n  jump\t// in\ntag_111:\n    /* \"#utility.yul\":6298:6303   */\n  dup2\n    /* \"#utility.yul\":6295:6330   */\n  eq\n    /* \"#utility.yul\":6285:6348   */\n  tag_112\n  jumpi\n    /* \"#utility.yul\":6344:6345   */\n  0x00\n    /* \"#utility.yul\":6341:6342   */\n  dup1\n    /* \"#utility.yul\":6334:6346   */\n  revert\n    /* \"#utility.yul\":6285:6348   */\ntag_112:\n    /* \"#utility.yul\":6232:6354   */\n  pop\n  jump\t// out\n    /* \"LotteryContract.sol\":59:1255  contract main{\r... */\ntag_6:\n  dataSize(sub_0)\n  dup1\n  dataOffset(sub_0)\n  0x00\n  codecopy\n  0x00\n  return\nstop\n\nsub_0: assembly {\n        /* \"LotteryContract.sol\":59:1255  contract main{\r... */\n      mstore(0x40, 0x80)\n      jumpi(tag_1, lt(calldatasize, 0x04))\n      shr(0xe0, calldataload(0x00))\n      dup1\n      0x19b37417\n      eq\n      tag_2\n      jumpi\n      dup1\n      0x481c6a75\n      eq\n      tag_3\n      jumpi\n      dup1\n      0x5d495aea\n      eq\n      tag_4\n      jumpi\n      dup1\n      0xf71d96cb\n      eq\n      tag_5\n      jumpi\n    tag_1:\n      0x00\n      dup1\n      revert\n        /* \"LotteryContract.sol\":491:834  function ENTER() payable public{\r... */\n    tag_2:\n      tag_6\n      tag_7\n      jump\t// in\n    tag_6:\n      stop\n        /* \"LotteryContract.sol\":81:103  address public manager */\n    tag_3:\n      callvalue\n      dup1\n      iszero\n      tag_8\n      jumpi\n      0x00\n      dup1\n      revert\n    tag_8:\n      pop\n      tag_9\n      tag_10\n      jump\t// in\n    tag_9:\n      mload(0x40)\n      tag_11\n      swap2\n      swap1\n      tag_12\n      jump\t// in\n    tag_11:\n      mload(0x40)\n      dup1\n      swap2\n      sub\n      swap1\n      return\n        /* \"LotteryContract.sol\":1060:1250  function pickWinner() public returns(uint){\r... */\n    tag_4:\n      callvalue\n      dup1\n      iszero\n      tag_13\n      jumpi\n      0x00\n      dup1\n      revert\n    tag_13:\n      pop\n      tag_14\n      tag_15\n      jump\t// in\n    tag_14:\n      mload(0x40)\n      tag_16\n      swap2\n      swap1\n      tag_17\n      jump\t// in\n    tag_16:\n      mload(0x40)\n      dup1\n      swap2\n      sub\n      swap1\n      return\n        /* \"LotteryContract.sol\":110:142  address payable[] public players */\n    tag_5:\n      callvalue\n      dup1\n      iszero\n      tag_18\n      jumpi\n      0x00\n      dup1\n      revert\n    tag_18:\n      pop\n      tag_19\n      0x04\n      dup1\n      calldatasize\n      sub\n      dup2\n      add\n      swap1\n      tag_20\n      swap2\n      swap1\n      tag_21\n      jump\t// in\n    tag_20:\n      tag_22\n      jump\t// in\n    tag_19:\n      mload(0x40)\n      tag_23\n      swap2\n      swap1\n      tag_24\n      jump\t// in\n    tag_23:\n      mload(0x40)\n      dup1\n      swap2\n      sub\n      swap1\n      return\n        /* \"LotteryContract.sol\":491:834  function ENTER() payable public{\r... */\n    tag_7:\n        /* \"LotteryContract.sol\":552:562  msg.sender */\n      caller\n        /* \"LotteryContract.sol\":541:562  manager != msg.sender */\n      0xffffffffffffffffffffffffffffffffffffffff\n      and\n        /* \"LotteryContract.sol\":541:548  manager */\n      0x00\n      dup1\n      sload\n      swap1\n      0x0100\n      exp\n      swap1\n      div\n      0xffffffffffffffffffffffffffffffffffffffff\n      and\n        /* \"LotteryContract.sol\":541:562  manager != msg.sender */\n      0xffffffffffffffffffffffffffffffffffffffff\n      and\n      eq\n      iszero\n        /* \"LotteryContract.sol\":533:609  require(manager != msg.sender, \"You can not participate as you are manager\") */\n      tag_26\n      jumpi\n      mload(0x40)\n      0x08c379a000000000000000000000000000000000000000000000000000000000\n      dup2\n      mstore\n      0x04\n      add\n      tag_27\n      swap1\n      tag_28\n      jump\t// in\n    tag_27:\n      mload(0x40)\n      dup1\n      swap2\n      sub\n      swap1\n      revert\n    tag_26:\n        /* \"LotteryContract.sol\":646:651  false */\n      0x00\n        /* \"LotteryContract.sol\":628:651  alreadyEnter() == false */\n      iszero\n      iszero\n        /* \"LotteryContract.sol\":628:642  alreadyEnter() */\n      tag_29\n        /* \"LotteryContract.sol\":628:640  alreadyEnter */\n      tag_30\n        /* \"LotteryContract.sol\":628:642  alreadyEnter() */\n      jump\t// in\n    tag_29:\n        /* \"LotteryContract.sol\":628:651  alreadyEnter() == false */\n      iszero\n      iszero\n      eq\n        /* \"LotteryContract.sol\":620:687  require(alreadyEnter() == false, \"You already joined this contest\") */\n      tag_31\n      jumpi\n      mload(0x40)\n      0x08c379a000000000000000000000000000000000000000000000000000000000\n      dup2\n      mstore\n      0x04\n      add\n      tag_32\n      swap1\n      tag_33\n      jump\t// in\n    tag_32:\n      mload(0x40)\n      dup1\n      swap2\n      sub\n      swap1\n      revert\n    tag_31:\n        /* \"LotteryContract.sol\":719:726  1 ether */\n      0x0de0b6b3a7640000\n        /* \"LotteryContract.sol\":706:715  msg.value */\n      callvalue\n        /* \"LotteryContract.sol\":706:726  msg.value == 1 ether */\n      eq\n        /* \"LotteryContract.sol\":698:782  require(msg.value == 1 ether, \"You have to pay fees of 1 ether for joining contest\") */\n      tag_34\n      jumpi\n      mload(0x40)\n      0x08c379a000000000000000000000000000000000000000000000000000000000\n      dup2\n      mstore\n      0x04\n      add\n      tag_35\n      swap1\n      tag_36\n      jump\t// in\n    tag_35:\n      mload(0x40)\n      dup1\n      swap2\n      sub\n      swap1\n      revert\n    tag_34:\n        /* \"LotteryContract.sol\":793:800  players */\n      0x01\n        /* \"LotteryContract.sol\":814:824  msg.sender */\n      caller\n        /* \"LotteryContract.sol\":793:826  players.push(payable(msg.sender)) */\n      swap1\n      dup1\n      0x01\n      dup2\n      sload\n      add\n      dup1\n      dup3\n      sstore\n      dup1\n      swap2\n      pop\n      pop\n      0x01\n      swap1\n      sub\n      swap1\n      0x00\n      mstore\n      keccak256(0x00, 0x20)\n      add\n      0x00\n      swap1\n      swap2\n      swap1\n      swap2\n      swap1\n      swap2\n      0x0100\n      exp\n      dup2\n      sload\n      dup2\n      0xffffffffffffffffffffffffffffffffffffffff\n      mul\n      not\n      and\n      swap1\n      dup4\n      0xffffffffffffffffffffffffffffffffffffffff\n      and\n      mul\n      or\n      swap1\n      sstore\n      pop\n        /* \"LotteryContract.sol\":491:834  function ENTER() payable public{\r... */\n      jump\t// out\n        /* \"LotteryContract.sol\":81:103  address public manager */\n    tag_10:\n      0x00\n      dup1\n      sload\n      swap1\n      0x0100\n      exp\n      swap1\n      div\n      0xffffffffffffffffffffffffffffffffffffffff\n      and\n      dup2\n      jump\t// out\n        /* \"LotteryContract.sol\":1060:1250  function pickWinner() public returns(uint){\r... */\n    tag_15:\n        /* \"LotteryContract.sol\":1097:1101  uint */\n      0x00\n        /* \"LotteryContract.sol\":1132:1142  msg.sender */\n      caller\n        /* \"LotteryContract.sol\":1121:1142  manager == msg.sender */\n      0xffffffffffffffffffffffffffffffffffffffff\n      and\n        /* \"LotteryContract.sol\":1121:1128  manager */\n      0x00\n      dup1\n      sload\n      swap1\n      0x0100\n      exp\n      swap1\n      div\n      0xffffffffffffffffffffffffffffffffffffffff\n      and\n        /* \"LotteryContract.sol\":1121:1142  manager == msg.sender */\n      0xffffffffffffffffffffffffffffffffffffffff\n      and\n      eq\n        /* \"LotteryContract.sol\":1113:1165  require(manager == msg.sender, \"You can not access\") */\n      tag_39\n      jumpi\n      mload(0x40)\n      0x08c379a000000000000000000000000000000000000000000000000000000000\n      dup2\n      mstore\n      0x04\n      add\n      tag_40\n      swap1\n      tag_41\n      jump\t// in\n    tag_40:\n      mload(0x40)\n      dup1\n      swap2\n      sub\n      swap1\n      revert\n    tag_39:\n        /* \"LotteryContract.sol\":1176:1186  uint index */\n      0x00\n        /* \"LotteryContract.sol\":1205:1212  players */\n      0x01\n        /* \"LotteryContract.sol\":1205:1219  players.length */\n      dup1\n      sload\n      swap1\n      pop\n        /* \"LotteryContract.sol\":1189:1202  randomToken() */\n      tag_42\n        /* \"LotteryContract.sol\":1189:1200  randomToken */\n      tag_43\n        /* \"LotteryContract.sol\":1189:1202  randomToken() */\n      jump\t// in\n    tag_42:\n        /* \"LotteryContract.sol\":1189:1219  randomToken() % players.length */\n      tag_44\n      swap2\n      swap1\n      tag_45\n      jump\t// in\n    tag_44:\n        /* \"LotteryContract.sol\":1176:1219  uint index = randomToken() % players.length */\n      swap1\n      pop\n        /* \"LotteryContract.sol\":1237:1242  index */\n      dup1\n        /* \"LotteryContract.sol\":1230:1242  return index */\n      swap2\n      pop\n      pop\n        /* \"LotteryContract.sol\":1060:1250  function pickWinner() public returns(uint){\r... */\n      swap1\n      jump\t// out\n        /* \"LotteryContract.sol\":110:142  address payable[] public players */\n    tag_22:\n      0x01\n      dup2\n      dup2\n      sload\n      dup2\n      lt\n      tag_46\n      jumpi\n      0x00\n      dup1\n      revert\n    tag_46:\n      swap1\n      0x00\n      mstore\n      keccak256(0x00, 0x20)\n      add\n      0x00\n      swap2\n      pop\n      sload\n      swap1\n      0x0100\n      exp\n      swap1\n      div\n      0xffffffffffffffffffffffffffffffffffffffff\n      and\n      dup2\n      jump\t// out\n        /* \"LotteryContract.sol\":236:483  function alreadyEnter() private view returns(bool){\r... */\n    tag_30:\n        /* \"LotteryContract.sol\":281:285  bool */\n      0x00\n        /* \"LotteryContract.sol\":301:311  uint index */\n      dup1\n        /* \"LotteryContract.sol\":314:315  0 */\n      0x00\n        /* \"LotteryContract.sol\":301:315  uint index = 0 */\n      swap1\n      pop\n        /* \"LotteryContract.sol\":297:453  for(uint index = 0; index < players.length; index++){\r... */\n    tag_49:\n        /* \"LotteryContract.sol\":325:332  players */\n      0x01\n        /* \"LotteryContract.sol\":325:339  players.length */\n      dup1\n      sload\n      swap1\n      pop\n        /* \"LotteryContract.sol\":317:322  index */\n      dup2\n        /* \"LotteryContract.sol\":317:339  index < players.length */\n      lt\n        /* \"LotteryContract.sol\":297:453  for(uint index = 0; index < players.length; index++){\r... */\n      iszero\n      tag_50\n      jumpi\n        /* \"LotteryContract.sol\":385:395  msg.sender */\n      caller\n        /* \"LotteryContract.sol\":367:395  players[index] == msg.sender */\n      0xffffffffffffffffffffffffffffffffffffffff\n      and\n        /* \"LotteryContract.sol\":367:374  players */\n      0x01\n        /* \"LotteryContract.sol\":375:380  index */\n      dup3\n        /* \"LotteryContract.sol\":367:381  players[index] */\n      dup2\n      sload\n      dup2\n      lt\n      tag_52\n      jumpi\n      tag_53\n      tag_54\n      jump\t// in\n    tag_53:\n    tag_52:\n      swap1\n      0x00\n      mstore\n      keccak256(0x00, 0x20)\n      add\n      0x00\n      swap1\n      sload\n      swap1\n      0x0100\n      exp\n      swap1\n      div\n      0xffffffffffffffffffffffffffffffffffffffff\n      and\n        /* \"LotteryContract.sol\":367:395  players[index] == msg.sender */\n      0xffffffffffffffffffffffffffffffffffffffff\n      and\n      eq\n        /* \"LotteryContract.sol\":364:442  if(players[index] == msg.sender){\r... */\n      iszero\n      tag_56\n      jumpi\n        /* \"LotteryContract.sol\":422:426  true */\n      0x01\n        /* \"LotteryContract.sol\":415:426  return true */\n      swap2\n      pop\n      pop\n      jump(tag_48)\n        /* \"LotteryContract.sol\":364:442  if(players[index] == msg.sender){\r... */\n    tag_56:\n        /* \"LotteryContract.sol\":341:348  index++ */\n      dup1\n      dup1\n      tag_57\n      swap1\n      tag_58\n      jump\t// in\n    tag_57:\n      swap2\n      pop\n      pop\n        /* \"LotteryContract.sol\":297:453  for(uint index = 0; index < players.length; index++){\r... */\n      jump(tag_49)\n    tag_50:\n      pop\n        /* \"LotteryContract.sol\":470:475  false */\n      0x00\n        /* \"LotteryContract.sol\":463:475  return false */\n      swap1\n      pop\n        /* \"LotteryContract.sol\":236:483  function alreadyEnter() private view returns(bool){\r... */\n    tag_48:\n      swap1\n      jump\t// out\n        /* \"LotteryContract.sol\":868:1052  function randomToken() private returns(uint){\r... */\n    tag_43:\n        /* \"LotteryContract.sol\":907:911  uint */\n      0x00\n        /* \"LotteryContract.sol\":923:929  uint a */\n      dup1\n        /* \"LotteryContract.sol\":937:1002  sha256(abi.encodePacked(block.difficulty, block.number, players)) */\n      0x02\n        /* \"LotteryContract.sol\":961:977  block.difficulty */\n      difficulty\n        /* \"LotteryContract.sol\":979:991  block.number */\n      number\n        /* \"LotteryContract.sol\":993:1000  players */\n      0x01\n        /* \"LotteryContract.sol\":944:1001  abi.encodePacked(block.difficulty, block.number, players) */\n      add(0x20, mload(0x40))\n      tag_60\n      swap4\n      swap3\n      swap2\n      swap1\n      tag_61\n      jump\t// in\n    tag_60:\n      mload(0x40)\n      0x20\n      dup2\n      dup4\n      sub\n      sub\n      dup2\n      mstore\n      swap1\n      0x40\n      mstore\n        /* \"LotteryContract.sol\":937:1002  sha256(abi.encodePacked(block.difficulty, block.number, players)) */\n      mload(0x40)\n      tag_62\n      swap2\n      swap1\n      tag_63\n      jump\t// in\n    tag_62:\n      0x20\n      mload(0x40)\n      dup1\n      dup4\n      sub\n      dup2\n      dup6\n      gas\n      staticcall\n      iszero\n      dup1\n      iszero\n      tag_65\n      jumpi\n      returndatasize\n      0x00\n      dup1\n      returndatacopy\n      revert(0x00, returndatasize)\n    tag_65:\n      pop\n      pop\n      pop\n      mload(0x40)\n      returndatasize\n      not(0x1f)\n      0x1f\n      dup3\n      add\n      and\n      dup3\n      add\n      dup1\n      0x40\n      mstore\n      pop\n      dup2\n      add\n      swap1\n      tag_66\n      swap2\n      swap1\n      tag_67\n      jump\t// in\n    tag_66:\n        /* \"LotteryContract.sol\":932:1003  uint(sha256(abi.encodePacked(block.difficulty, block.number, players))) */\n      0x00\n      shr\n        /* \"LotteryContract.sol\":923:1003  uint a = uint(sha256(abi.encodePacked(block.difficulty, block.number, players))) */\n      swap1\n      pop\n        /* \"LotteryContract.sol\":1019:1025  log(a) */\n      0xf82c50f1848136e6c140b186ea0c768b7deda5efffe42c25e96336a90b26c744\n        /* \"LotteryContract.sol\":1023:1024  a */\n      dup2\n        /* \"LotteryContract.sol\":1019:1025  log(a) */\n      mload(0x40)\n      tag_68\n      swap2\n      swap1\n      tag_17\n      jump\t// in\n    tag_68:\n      mload(0x40)\n      dup1\n      swap2\n      sub\n      swap1\n      log1\n        /* \"LotteryContract.sol\":1043:1044  a */\n      dup1\n        /* \"LotteryContract.sol\":1036:1044  return a */\n      swap2\n      pop\n      pop\n        /* \"LotteryContract.sol\":868:1052  function randomToken() private returns(uint){\r... */\n      swap1\n      jump\t// out\n        /* \"#utility.yul\":7:150   */\n    tag_70:\n        /* \"#utility.yul\":64:69   */\n      0x00\n        /* \"#utility.yul\":95:101   */\n      dup2\n        /* \"#utility.yul\":89:102   */\n      mload\n        /* \"#utility.yul\":80:102   */\n      swap1\n      pop\n        /* \"#utility.yul\":111:144   */\n      tag_72\n        /* \"#utility.yul\":138:143   */\n      dup2\n        /* \"#utility.yul\":111:144   */\n      tag_73\n      jump\t// in\n    tag_72:\n        /* \"#utility.yul\":7:150   */\n      swap3\n      swap2\n      pop\n      pop\n      jump\t// out\n        /* \"#utility.yul\":156:295   */\n    tag_74:\n        /* \"#utility.yul\":202:207   */\n      0x00\n        /* \"#utility.yul\":240:246   */\n      dup2\n        /* \"#utility.yul\":227:247   */\n      calldataload\n        /* \"#utility.yul\":218:247   */\n      swap1\n      pop\n        /* \"#utility.yul\":256:289   */\n      tag_76\n        /* \"#utility.yul\":283:288   */\n      dup2\n        /* \"#utility.yul\":256:289   */\n      tag_77\n      jump\t// in\n    tag_76:\n        /* \"#utility.yul\":156:295   */\n      swap3\n      swap2\n      pop\n      pop\n      jump\t// out\n        /* \"#utility.yul\":301:652   */\n    tag_67:\n        /* \"#utility.yul\":371:377   */\n      0x00\n        /* \"#utility.yul\":420:422   */\n      0x20\n        /* \"#utility.yul\":408:417   */\n      dup3\n        /* \"#utility.yul\":399:406   */\n      dup5\n        /* \"#utility.yul\":395:418   */\n      sub\n        /* \"#utility.yul\":391:423   */\n      slt\n        /* \"#utility.yul\":388:507   */\n      iszero\n      tag_79\n      jumpi\n        /* \"#utility.yul\":426:505   */\n      tag_80\n      tag_81\n      jump\t// in\n    tag_80:\n        /* \"#utility.yul\":388:507   */\n    tag_79:\n        /* \"#utility.yul\":546:547   */\n      0x00\n        /* \"#utility.yul\":571:635   */\n      tag_82\n        /* \"#utility.yul\":627:634   */\n      dup5\n        /* \"#utility.yul\":618:624   */\n      dup3\n        /* \"#utility.yul\":607:616   */\n      dup6\n        /* \"#utility.yul\":603:625   */\n      add\n        /* \"#utility.yul\":571:635   */\n      tag_70\n      jump\t// in\n    tag_82:\n        /* \"#utility.yul\":561:635   */\n      swap2\n      pop\n        /* \"#utility.yul\":517:645   */\n      pop\n        /* \"#utility.yul\":301:652   */\n      swap3\n      swap2\n      pop\n      pop\n      jump\t// out\n        /* \"#utility.yul\":658:987   */\n    tag_21:\n        /* \"#utility.yul\":717:723   */\n      0x00\n        /* \"#utility.yul\":766:768   */\n      0x20\n        /* \"#utility.yul\":754:763   */\n      dup3\n        /* \"#utility.yul\":745:752   */\n      dup5\n        /* \"#utility.yul\":741:764   */\n      sub\n        /* \"#utility.yul\":737:769   */\n      slt\n        /* \"#utility.yul\":734:853   */\n      iszero\n      tag_84\n      jumpi\n        /* \"#utility.yul\":772:851   */\n      tag_85\n      tag_81\n      jump\t// in\n    tag_85:\n        /* \"#utility.yul\":734:853   */\n    tag_84:\n        /* \"#utility.yul\":892:893   */\n      0x00\n        /* \"#utility.yul\":917:970   */\n      tag_86\n        /* \"#utility.yul\":962:969   */\n      dup5\n        /* \"#utility.yul\":953:959   */\n      dup3\n        /* \"#utility.yul\":942:951   */\n      dup6\n        /* \"#utility.yul\":938:960   */\n      add\n        /* \"#utility.yul\":917:970   */\n      tag_74\n      jump\t// in\n    tag_86:\n        /* \"#utility.yul\":907:970   */\n      swap2\n      pop\n        /* \"#utility.yul\":863:980   */\n      pop\n        /* \"#utility.yul\":658:987   */\n      swap3\n      swap2\n      pop\n      pop\n      jump\t// out\n        /* \"#utility.yul\":993:1220   */\n    tag_87:\n        /* \"#utility.yul\":1086:1096   */\n      0x00\n        /* \"#utility.yul\":1107:1177   */\n      tag_89\n        /* \"#utility.yul\":1173:1176   */\n      dup4\n        /* \"#utility.yul\":1165:1171   */\n      dup4\n        /* \"#utility.yul\":1107:1177   */\n      tag_90\n      jump\t// in\n    tag_89:\n        /* \"#utility.yul\":1209:1213   */\n      0x20\n        /* \"#utility.yul\":1204:1207   */\n      dup4\n        /* \"#utility.yul\":1200:1214   */\n      add\n        /* \"#utility.yul\":1186:1214   */\n      swap1\n      pop\n        /* \"#utility.yul\":993:1220   */\n      swap3\n      swap2\n      pop\n      pop\n      jump\t// out\n        /* \"#utility.yul\":1226:1368   */\n    tag_91:\n        /* \"#utility.yul\":1329:1361   */\n      tag_93\n        /* \"#utility.yul\":1355:1360   */\n      dup2\n        /* \"#utility.yul\":1329:1361   */\n      tag_94\n      jump\t// in\n    tag_93:\n        /* \"#utility.yul\":1324:1327   */\n      dup3\n        /* \"#utility.yul\":1317:1362   */\n      mstore\n        /* \"#utility.yul\":1226:1368   */\n      pop\n      pop\n      jump\t// out\n        /* \"#utility.yul\":1374:1514   */\n    tag_90:\n        /* \"#utility.yul\":1475:1507   */\n      tag_96\n        /* \"#utility.yul\":1501:1506   */\n      dup2\n        /* \"#utility.yul\":1475:1507   */\n      tag_94\n      jump\t// in\n    tag_96:\n        /* \"#utility.yul\":1470:1473   */\n      dup3\n        /* \"#utility.yul\":1463:1508   */\n      mstore\n        /* \"#utility.yul\":1374:1514   */\n      pop\n      pop\n      jump\t// out\n        /* \"#utility.yul\":1520:1638   */\n    tag_97:\n        /* \"#utility.yul\":1607:1631   */\n      tag_99\n        /* \"#utility.yul\":1625:1630   */\n      dup2\n        /* \"#utility.yul\":1607:1631   */\n      tag_100\n      jump\t// in\n    tag_99:\n        /* \"#utility.yul\":1602:1605   */\n      dup3\n        /* \"#utility.yul\":1595:1632   */\n      mstore\n        /* \"#utility.yul\":1520:1638   */\n      pop\n      pop\n      jump\t// out\n        /* \"#utility.yul\":1690:2557   */\n    tag_101:\n        /* \"#utility.yul\":1840:1843   */\n      0x00\n        /* \"#utility.yul\":1869:1928   */\n      tag_103\n        /* \"#utility.yul\":1922:1927   */\n      dup3\n        /* \"#utility.yul\":1869:1928   */\n      tag_104\n      jump\t// in\n    tag_103:\n        /* \"#utility.yul\":1944:2056   */\n      tag_105\n        /* \"#utility.yul\":2049:2055   */\n      dup2\n        /* \"#utility.yul\":2044:2047   */\n      dup6\n        /* \"#utility.yul\":1944:2056   */\n      tag_106\n      jump\t// in\n    tag_105:\n        /* \"#utility.yul\":1937:2056   */\n      swap4\n      pop\n        /* \"#utility.yul\":2080:2141   */\n      tag_107\n        /* \"#utility.yul\":2135:2140   */\n      dup4\n        /* \"#utility.yul\":2080:2141   */\n      tag_108\n      jump\t// in\n    tag_107:\n        /* \"#utility.yul\":2164:2171   */\n      dup1\n        /* \"#utility.yul\":2195:2196   */\n      0x00\n        /* \"#utility.yul\":2180:2532   */\n    tag_109:\n        /* \"#utility.yul\":2205:2211   */\n      dup4\n        /* \"#utility.yul\":2202:2203   */\n      dup2\n        /* \"#utility.yul\":2199:2212   */\n      lt\n        /* \"#utility.yul\":2180:2532   */\n      iszero\n      tag_111\n      jumpi\n        /* \"#utility.yul\":2275:2327   */\n      tag_112\n        /* \"#utility.yul\":2320:2326   */\n      dup3\n        /* \"#utility.yul\":2275:2327   */\n      tag_113\n      jump\t// in\n    tag_112:\n        /* \"#utility.yul\":2347:2434   */\n      tag_114\n        /* \"#utility.yul\":2430:2433   */\n      dup9\n        /* \"#utility.yul\":2415:2428   */\n      dup3\n        /* \"#utility.yul\":2347:2434   */\n      tag_87\n      jump\t// in\n    tag_114:\n        /* \"#utility.yul\":2340:2434   */\n      swap8\n      pop\n        /* \"#utility.yul\":2457:2522   */\n      tag_115\n        /* \"#utility.yul\":2515:2521   */\n      dup4\n        /* \"#utility.yul\":2457:2522   */\n      tag_116\n      jump\t// in\n    tag_115:\n        /* \"#utility.yul\":2447:2522   */\n      swap3\n      pop\n        /* \"#utility.yul\":2240:2532   */\n      pop\n        /* \"#utility.yul\":2227:2228   */\n      0x01\n        /* \"#utility.yul\":2224:2225   */\n      dup2\n        /* \"#utility.yul\":2220:2229   */\n      add\n        /* \"#utility.yul\":2215:2229   */\n      swap1\n      pop\n        /* \"#utility.yul\":2180:2532   */\n      jump(tag_109)\n    tag_111:\n        /* \"#utility.yul\":2184:2198   */\n      pop\n        /* \"#utility.yul\":2548:2551   */\n      dup6\n        /* \"#utility.yul\":2541:2551   */\n      swap4\n      pop\n        /* \"#utility.yul\":1845:2557   */\n      pop\n      pop\n      pop\n        /* \"#utility.yul\":1690:2557   */\n      swap3\n      swap2\n      pop\n      pop\n      jump\t// out\n        /* \"#utility.yul\":2563:2936   */\n    tag_117:\n        /* \"#utility.yul\":2667:2670   */\n      0x00\n        /* \"#utility.yul\":2695:2733   */\n      tag_119\n        /* \"#utility.yul\":2727:2732   */\n      dup3\n        /* \"#utility.yul\":2695:2733   */\n      tag_120\n      jump\t// in\n    tag_119:\n        /* \"#utility.yul\":2749:2837   */\n      tag_121\n        /* \"#utility.yul\":2830:2836   */\n      dup2\n        /* \"#utility.yul\":2825:2828   */\n      dup6\n        /* \"#utility.yul\":2749:2837   */\n      tag_122\n      jump\t// in\n    tag_121:\n        /* \"#utility.yul\":2742:2837   */\n      swap4\n      pop\n        /* \"#utility.yul\":2846:2898   */\n      tag_123\n        /* \"#utility.yul\":2891:2897   */\n      dup2\n        /* \"#utility.yul\":2886:2889   */\n      dup6\n        /* \"#utility.yul\":2879:2883   */\n      0x20\n        /* \"#utility.yul\":2872:2877   */\n      dup7\n        /* \"#utility.yul\":2868:2884   */\n      add\n        /* \"#utility.yul\":2846:2898   */\n      tag_124\n      jump\t// in\n    tag_123:\n        /* \"#utility.yul\":2923:2929   */\n      dup1\n        /* \"#utility.yul\":2918:2921   */\n      dup5\n        /* \"#utility.yul\":2914:2930   */\n      add\n        /* \"#utility.yul\":2907:2930   */\n      swap2\n      pop\n        /* \"#utility.yul\":2671:2936   */\n      pop\n        /* \"#utility.yul\":2563:2936   */\n      swap3\n      swap2\n      pop\n      pop\n      jump\t// out\n        /* \"#utility.yul\":2942:3308   */\n    tag_125:\n        /* \"#utility.yul\":3084:3087   */\n      0x00\n        /* \"#utility.yul\":3105:3172   */\n      tag_127\n        /* \"#utility.yul\":3169:3171   */\n      0x12\n        /* \"#utility.yul\":3164:3167   */\n      dup4\n        /* \"#utility.yul\":3105:3172   */\n      tag_128\n      jump\t// in\n    tag_127:\n        /* \"#utility.yul\":3098:3172   */\n      swap2\n      pop\n        /* \"#utility.yul\":3181:3274   */\n      tag_129\n        /* \"#utility.yul\":3270:3273   */\n      dup3\n        /* \"#utility.yul\":3181:3274   */\n      tag_130\n      jump\t// in\n    tag_129:\n        /* \"#utility.yul\":3299:3301   */\n      0x20\n        /* \"#utility.yul\":3294:3297   */\n      dup3\n        /* \"#utility.yul\":3290:3302   */\n      add\n        /* \"#utility.yul\":3283:3302   */\n      swap1\n      pop\n        /* \"#utility.yul\":2942:3308   */\n      swap2\n      swap1\n      pop\n      jump\t// out\n        /* \"#utility.yul\":3314:3680   */\n    tag_131:\n        /* \"#utility.yul\":3456:3459   */\n      0x00\n        /* \"#utility.yul\":3477:3544   */\n      tag_133\n        /* \"#utility.yul\":3541:3543   */\n      0x1f\n        /* \"#utility.yul\":3536:3539   */\n      dup4\n        /* \"#utility.yul\":3477:3544   */\n      tag_128\n      jump\t// in\n    tag_133:\n        /* \"#utility.yul\":3470:3544   */\n      swap2\n      pop\n        /* \"#utility.yul\":3553:3646   */\n      tag_134\n        /* \"#utility.yul\":3642:3645   */\n      dup3\n        /* \"#utility.yul\":3553:3646   */\n      tag_135\n      jump\t// in\n    tag_134:\n        /* \"#utility.yul\":3671:3673   */\n      0x20\n        /* \"#utility.yul\":3666:3669   */\n      dup3\n        /* \"#utility.yul\":3662:3674   */\n      add\n        /* \"#utility.yul\":3655:3674   */\n      swap1\n      pop\n        /* \"#utility.yul\":3314:3680   */\n      swap2\n      swap1\n      pop\n      jump\t// out\n        /* \"#utility.yul\":3686:4052   */\n    tag_136:\n        /* \"#utility.yul\":3828:3831   */\n      0x00\n        /* \"#utility.yul\":3849:3916   */\n      tag_138\n        /* \"#utility.yul\":3913:3915   */\n      0x2a\n        /* \"#utility.yul\":3908:3911   */\n      dup4\n        /* \"#utility.yul\":3849:3916   */\n      tag_128\n      jump\t// in\n    tag_138:\n        /* \"#utility.yul\":3842:3916   */\n      swap2\n      pop\n        /* \"#utility.yul\":3925:4018   */\n      tag_139\n        /* \"#utility.yul\":4014:4017   */\n      dup3\n        /* \"#utility.yul\":3925:4018   */\n      tag_140\n      jump\t// in\n    tag_139:\n        /* \"#utility.yul\":4043:4045   */\n      0x40\n        /* \"#utility.yul\":4038:4041   */\n      dup3\n        /* \"#utility.yul\":4034:4046   */\n      add\n        /* \"#utility.yul\":4027:4046   */\n      swap1\n      pop\n        /* \"#utility.yul\":3686:4052   */\n      swap2\n      swap1\n      pop\n      jump\t// out\n        /* \"#utility.yul\":4058:4424   */\n    tag_141:\n        /* \"#utility.yul\":4200:4203   */\n      0x00\n        /* \"#utility.yul\":4221:4288   */\n      tag_143\n        /* \"#utility.yul\":4285:4287   */\n      0x33\n        /* \"#utility.yul\":4280:4283   */\n      dup4\n        /* \"#utility.yul\":4221:4288   */\n      tag_128\n      jump\t// in\n    tag_143:\n        /* \"#utility.yul\":4214:4288   */\n      swap2\n      pop\n        /* \"#utility.yul\":4297:4390   */\n      tag_144\n        /* \"#utility.yul\":4386:4389   */\n      dup3\n        /* \"#utility.yul\":4297:4390   */\n      tag_145\n      jump\t// in\n    tag_144:\n        /* \"#utility.yul\":4415:4417   */\n      0x40\n        /* \"#utility.yul\":4410:4413   */\n      dup3\n        /* \"#utility.yul\":4406:4418   */\n      add\n        /* \"#utility.yul\":4399:4418   */\n      swap1\n      pop\n        /* \"#utility.yul\":4058:4424   */\n      swap2\n      swap1\n      pop\n      jump\t// out\n        /* \"#utility.yul\":4430:4548   */\n    tag_146:\n        /* \"#utility.yul\":4517:4541   */\n      tag_148\n        /* \"#utility.yul\":4535:4540   */\n      dup2\n        /* \"#utility.yul\":4517:4541   */\n      tag_149\n      jump\t// in\n    tag_148:\n        /* \"#utility.yul\":4512:4515   */\n      dup3\n        /* \"#utility.yul\":4505:4542   */\n      mstore\n        /* \"#utility.yul\":4430:4548   */\n      pop\n      pop\n      jump\t// out\n        /* \"#utility.yul\":4554:4711   */\n    tag_150:\n        /* \"#utility.yul\":4659:4704   */\n      tag_152\n        /* \"#utility.yul\":4679:4703   */\n      tag_153\n        /* \"#utility.yul\":4697:4702   */\n      dup3\n        /* \"#utility.yul\":4679:4703   */\n      tag_149\n      jump\t// in\n    tag_153:\n        /* \"#utility.yul\":4659:4704   */\n      tag_154\n      jump\t// in\n    tag_152:\n        /* \"#utility.yul\":4654:4657   */\n      dup3\n        /* \"#utility.yul\":4647:4705   */\n      mstore\n        /* \"#utility.yul\":4554:4711   */\n      pop\n      pop\n      jump\t// out\n        /* \"#utility.yul\":4717:4988   */\n    tag_63:\n        /* \"#utility.yul\":4847:4850   */\n      0x00\n        /* \"#utility.yul\":4869:4962   */\n      tag_156\n        /* \"#utility.yul\":4958:4961   */\n      dup3\n        /* \"#utility.yul\":4949:4955   */\n      dup5\n        /* \"#utility.yul\":4869:4962   */\n      tag_117\n      jump\t// in\n    tag_156:\n        /* \"#utility.yul\":4862:4962   */\n      swap2\n      pop\n        /* \"#utility.yul\":4979:4982   */\n      dup2\n        /* \"#utility.yul\":4972:4982   */\n      swap1\n      pop\n        /* \"#utility.yul\":4717:4988   */\n      swap3\n      swap2\n      pop\n      pop\n      jump\t// out\n        /* \"#utility.yul\":4994:5637   */\n    tag_61:\n        /* \"#utility.yul\":5225:5228   */\n      0x00\n        /* \"#utility.yul\":5240:5315   */\n      tag_158\n        /* \"#utility.yul\":5311:5314   */\n      dup3\n        /* \"#utility.yul\":5302:5308   */\n      dup7\n        /* \"#utility.yul\":5240:5315   */\n      tag_150\n      jump\t// in\n    tag_158:\n        /* \"#utility.yul\":5340:5342   */\n      0x20\n        /* \"#utility.yul\":5335:5338   */\n      dup3\n        /* \"#utility.yul\":5331:5343   */\n      add\n        /* \"#utility.yul\":5324:5343   */\n      swap2\n      pop\n        /* \"#utility.yul\":5353:5428   */\n      tag_159\n        /* \"#utility.yul\":5424:5427   */\n      dup3\n        /* \"#utility.yul\":5415:5421   */\n      dup6\n        /* \"#utility.yul\":5353:5428   */\n      tag_150\n      jump\t// in\n    tag_159:\n        /* \"#utility.yul\":5453:5455   */\n      0x20\n        /* \"#utility.yul\":5448:5451   */\n      dup3\n        /* \"#utility.yul\":5444:5456   */\n      add\n        /* \"#utility.yul\":5437:5456   */\n      swap2\n      pop\n        /* \"#utility.yul\":5473:5611   */\n      tag_160\n        /* \"#utility.yul\":5607:5610   */\n      dup3\n        /* \"#utility.yul\":5598:5604   */\n      dup5\n        /* \"#utility.yul\":5473:5611   */\n      tag_101\n      jump\t// in\n    tag_160:\n        /* \"#utility.yul\":5466:5611   */\n      swap2\n      pop\n        /* \"#utility.yul\":5628:5631   */\n      dup2\n        /* \"#utility.yul\":5621:5631   */\n      swap1\n      pop\n        /* \"#utility.yul\":4994:5637   */\n      swap5\n      swap4\n      pop\n      pop\n      pop\n      pop\n      jump\t// out\n        /* \"#utility.yul\":5643:5865   */\n    tag_12:\n        /* \"#utility.yul\":5736:5740   */\n      0x00\n        /* \"#utility.yul\":5774:5776   */\n      0x20\n        /* \"#utility.yul\":5763:5772   */\n      dup3\n        /* \"#utility.yul\":5759:5777   */\n      add\n        /* \"#utility.yul\":5751:5777   */\n      swap1\n      pop\n        /* \"#utility.yul\":5787:5858   */\n      tag_162\n        /* \"#utility.yul\":5855:5856   */\n      0x00\n        /* \"#utility.yul\":5844:5853   */\n      dup4\n        /* \"#utility.yul\":5840:5857   */\n      add\n        /* \"#utility.yul\":5831:5837   */\n      dup5\n        /* \"#utility.yul\":5787:5858   */\n      tag_97\n      jump\t// in\n    tag_162:\n        /* \"#utility.yul\":5643:5865   */\n      swap3\n      swap2\n      pop\n      pop\n      jump\t// out\n        /* \"#utility.yul\":5871:6125   */\n    tag_24:\n        /* \"#utility.yul\":5980:5984   */\n      0x00\n        /* \"#utility.yul\":6018:6020   */\n      0x20\n        /* \"#utility.yul\":6007:6016   */\n      dup3\n        /* \"#utility.yul\":6003:6021   */\n      add\n        /* \"#utility.yul\":5995:6021   */\n      swap1\n      pop\n        /* \"#utility.yul\":6031:6118   */\n      tag_164\n        /* \"#utility.yul\":6115:6116   */\n      0x00\n        /* \"#utility.yul\":6104:6113   */\n      dup4\n        /* \"#utility.yul\":6100:6117   */\n      add\n        /* \"#utility.yul\":6091:6097   */\n      dup5\n        /* \"#utility.yul\":6031:6118   */\n      tag_91\n      jump\t// in\n    tag_164:\n        /* \"#utility.yul\":5871:6125   */\n      swap3\n      swap2\n      pop\n      pop\n      jump\t// out\n        /* \"#utility.yul\":6131:6550   */\n    tag_41:\n        /* \"#utility.yul\":6297:6301   */\n      0x00\n        /* \"#utility.yul\":6335:6337   */\n      0x20\n        /* \"#utility.yul\":6324:6333   */\n      dup3\n        /* \"#utility.yul\":6320:6338   */\n      add\n        /* \"#utility.yul\":6312:6338   */\n      swap1\n      pop\n        /* \"#utility.yul\":6384:6393   */\n      dup2\n        /* \"#utility.yul\":6378:6382   */\n      dup2\n        /* \"#utility.yul\":6374:6394   */\n      sub\n        /* \"#utility.yul\":6370:6371   */\n      0x00\n        /* \"#utility.yul\":6359:6368   */\n      dup4\n        /* \"#utility.yul\":6355:6372   */\n      add\n        /* \"#utility.yul\":6348:6395   */\n      mstore\n        /* \"#utility.yul\":6412:6543   */\n      tag_166\n        /* \"#utility.yul\":6538:6542   */\n      dup2\n        /* \"#utility.yul\":6412:6543   */\n      tag_125\n      jump\t// in\n    tag_166:\n        /* \"#utility.yul\":6404:6543   */\n      swap1\n      pop\n        /* \"#utility.yul\":6131:6550   */\n      swap2\n      swap1\n      pop\n      jump\t// out\n        /* \"#utility.yul\":6556:6975   */\n    tag_33:\n        /* \"#utility.yul\":6722:6726   */\n      0x00\n        /* \"#utility.yul\":6760:6762   */\n      0x20\n        /* \"#utility.yul\":6749:6758   */\n      dup3\n        /* \"#utility.yul\":6745:6763   */\n      add\n        /* \"#utility.yul\":6737:6763   */\n      swap1\n      pop\n        /* \"#utility.yul\":6809:6818   */\n      dup2\n        /* \"#utility.yul\":6803:6807   */\n      dup2\n        /* \"#utility.yul\":6799:6819   */\n      sub\n        /* \"#utility.yul\":6795:6796   */\n      0x00\n        /* \"#utility.yul\":6784:6793   */\n      dup4\n        /* \"#utility.yul\":6780:6797   */\n      add\n        /* \"#utility.yul\":6773:6820   */\n      mstore\n        /* \"#utility.yul\":6837:6968   */\n      tag_168\n        /* \"#utility.yul\":6963:6967   */\n      dup2\n        /* \"#utility.yul\":6837:6968   */\n      tag_131\n      jump\t// in\n    tag_168:\n        /* \"#utility.yul\":6829:6968   */\n      swap1\n      pop\n        /* \"#utility.yul\":6556:6975   */\n      swap2\n      swap1\n      pop\n      jump\t// out\n        /* \"#utility.yul\":6981:7400   */\n    tag_28:\n        /* \"#utility.yul\":7147:7151   */\n      0x00\n        /* \"#utility.yul\":7185:7187   */\n      0x20\n        /* \"#utility.yul\":7174:7183   */\n      dup3\n        /* \"#utility.yul\":7170:7188   */\n      add\n        /* \"#utility.yul\":7162:7188   */\n      swap1\n      pop\n        /* \"#utility.yul\":7234:7243   */\n      dup2\n        /* \"#utility.yul\":7228:7232   */\n      dup2\n        /* \"#utility.yul\":7224:7244   */\n      sub\n        /* \"#utility.yul\":7220:7221   */\n      0x00\n        /* \"#utility.yul\":7209:7218   */\n      dup4\n        /* \"#utility.yul\":7205:7222   */\n      add\n        /* \"#utility.yul\":7198:7245   */\n      mstore\n        /* \"#utility.yul\":7262:7393   */\n      tag_170\n        /* \"#utility.yul\":7388:7392   */\n      dup2\n        /* \"#utility.yul\":7262:7393   */\n      tag_136\n      jump\t// in\n    tag_170:\n        /* \"#utility.yul\":7254:7393   */\n      swap1\n      pop\n        /* \"#utility.yul\":6981:7400   */\n      swap2\n      swap1\n      pop\n      jump\t// out\n        /* \"#utility.yul\":7406:7825   */\n    tag_36:\n        /* \"#utility.yul\":7572:7576   */\n      0x00\n        /* \"#utility.yul\":7610:7612   */\n      0x20\n        /* \"#utility.yul\":7599:7608   */\n      dup3\n        /* \"#utility.yul\":7595:7613   */\n      add\n        /* \"#utility.yul\":7587:7613   */\n      swap1\n      pop\n        /* \"#utility.yul\":7659:7668   */\n      dup2\n        /* \"#utility.yul\":7653:7657   */\n      dup2\n        /* \"#utility.yul\":7649:7669   */\n      sub\n        /* \"#utility.yul\":7645:7646   */\n      0x00\n        /* \"#utility.yul\":7634:7643   */\n      dup4\n        /* \"#utility.yul\":7630:7647   */\n      add\n        /* \"#utility.yul\":7623:7670   */\n      mstore\n        /* \"#utility.yul\":7687:7818   */\n      tag_172\n        /* \"#utility.yul\":7813:7817   */\n      dup2\n        /* \"#utility.yul\":7687:7818   */\n      tag_141\n      jump\t// in\n    tag_172:\n        /* \"#utility.yul\":7679:7818   */\n      swap1\n      pop\n        /* \"#utility.yul\":7406:7825   */\n      swap2\n      swap1\n      pop\n      jump\t// out\n        /* \"#utility.yul\":7831:8053   */\n    tag_17:\n        /* \"#utility.yul\":7924:7928   */\n      0x00\n        /* \"#utility.yul\":7962:7964   */\n      0x20\n        /* \"#utility.yul\":7951:7960   */\n      dup3\n        /* \"#utility.yul\":7947:7965   */\n      add\n        /* \"#utility.yul\":7939:7965   */\n      swap1\n      pop\n        /* \"#utility.yul\":7975:8046   */\n      tag_174\n        /* \"#utility.yul\":8043:8044   */\n      0x00\n        /* \"#utility.yul\":8032:8041   */\n      dup4\n        /* \"#utility.yul\":8028:8045   */\n      add\n        /* \"#utility.yul\":8019:8025   */\n      dup5\n        /* \"#utility.yul\":7975:8046   */\n      tag_146\n      jump\t// in\n    tag_174:\n        /* \"#utility.yul\":7831:8053   */\n      swap3\n      swap2\n      pop\n      pop\n      jump\t// out\n        /* \"#utility.yul\":8140:8304   */\n    tag_108:\n        /* \"#utility.yul\":8212:8216   */\n      0x00\n        /* \"#utility.yul\":8235:8238   */\n      dup2\n        /* \"#utility.yul\":8227:8238   */\n      swap1\n      pop\n        /* \"#utility.yul\":8258:8261   */\n      dup2\n        /* \"#utility.yul\":8255:8256   */\n      0x00\n        /* \"#utility.yul\":8248:8262   */\n      mstore\n        /* \"#utility.yul\":8292:8296   */\n      0x20\n        /* \"#utility.yul\":8289:8290   */\n      0x00\n        /* \"#utility.yul\":8279:8297   */\n      keccak256\n        /* \"#utility.yul\":8271:8297   */\n      swap1\n      pop\n        /* \"#utility.yul\":8140:8304   */\n      swap2\n      swap1\n      pop\n      jump\t// out\n        /* \"#utility.yul\":8310:8429   */\n    tag_104:\n        /* \"#utility.yul\":8382:8388   */\n      0x00\n        /* \"#utility.yul\":8416:8421   */\n      dup2\n        /* \"#utility.yul\":8410:8422   */\n      sload\n        /* \"#utility.yul\":8400:8422   */\n      swap1\n      pop\n        /* \"#utility.yul\":8310:8429   */\n      swap2\n      swap1\n      pop\n      jump\t// out\n        /* \"#utility.yul\":8435:8533   */\n    tag_120:\n        /* \"#utility.yul\":8486:8492   */\n      0x00\n        /* \"#utility.yul\":8520:8525   */\n      dup2\n        /* \"#utility.yul\":8514:8526   */\n      mload\n        /* \"#utility.yul\":8504:8526   */\n      swap1\n      pop\n        /* \"#utility.yul\":8435:8533   */\n      swap2\n      swap1\n      pop\n      jump\t// out\n        /* \"#utility.yul\":8539:8657   */\n    tag_116:\n        /* \"#utility.yul\":8614:8618   */\n      0x00\n        /* \"#utility.yul\":8646:8650   */\n      0x01\n        /* \"#utility.yul\":8641:8644   */\n      dup3\n        /* \"#utility.yul\":8637:8651   */\n      add\n        /* \"#utility.yul\":8629:8651   */\n      swap1\n      pop\n        /* \"#utility.yul\":8539:8657   */\n      swap2\n      swap1\n      pop\n      jump\t// out\n        /* \"#utility.yul\":8663:8834   */\n    tag_106:\n        /* \"#utility.yul\":8788:8799   */\n      0x00\n        /* \"#utility.yul\":8825:8828   */\n      dup2\n        /* \"#utility.yul\":8810:8828   */\n      swap1\n      pop\n        /* \"#utility.yul\":8663:8834   */\n      swap3\n      swap2\n      pop\n      pop\n      jump\t// out\n        /* \"#utility.yul\":8840:8987   */\n    tag_122:\n        /* \"#utility.yul\":8941:8952   */\n      0x00\n        /* \"#utility.yul\":8978:8981   */\n      dup2\n        /* \"#utility.yul\":8963:8981   */\n      swap1\n      pop\n        /* \"#utility.yul\":8840:8987   */\n      swap3\n      swap2\n      pop\n      pop\n      jump\t// out\n        /* \"#utility.yul\":8993:9162   */\n    tag_128:\n        /* \"#utility.yul\":9077:9088   */\n      0x00\n        /* \"#utility.yul\":9111:9117   */\n      dup3\n        /* \"#utility.yul\":9106:9109   */\n      dup3\n        /* \"#utility.yul\":9099:9118   */\n      mstore\n        /* \"#utility.yul\":9151:9155   */\n      0x20\n        /* \"#utility.yul\":9146:9149   */\n      dup3\n        /* \"#utility.yul\":9142:9156   */\n      add\n        /* \"#utility.yul\":9127:9156   */\n      swap1\n      pop\n        /* \"#utility.yul\":8993:9162   */\n      swap3\n      swap2\n      pop\n      pop\n      jump\t// out\n        /* \"#utility.yul\":9168:9315   */\n    tag_184:\n        /* \"#utility.yul\":9226:9233   */\n      0x00\n        /* \"#utility.yul\":9266:9308   */\n      0xffffffffffffffffffffffffffffffffffffffff\n        /* \"#utility.yul\":9259:9264   */\n      dup3\n        /* \"#utility.yul\":9255:9309   */\n      and\n        /* \"#utility.yul\":9244:9309   */\n      swap1\n      pop\n        /* \"#utility.yul\":9168:9315   */\n      swap2\n      swap1\n      pop\n      jump\t// out\n        /* \"#utility.yul\":9321:9417   */\n    tag_100:\n        /* \"#utility.yul\":9358:9365   */\n      0x00\n        /* \"#utility.yul\":9387:9411   */\n      tag_187\n        /* \"#utility.yul\":9405:9410   */\n      dup3\n        /* \"#utility.yul\":9387:9411   */\n      tag_188\n      jump\t// in\n    tag_187:\n        /* \"#utility.yul\":9376:9411   */\n      swap1\n      pop\n        /* \"#utility.yul\":9321:9417   */\n      swap2\n      swap1\n      pop\n      jump\t// out\n        /* \"#utility.yul\":9423:9527   */\n    tag_94:\n        /* \"#utility.yul\":9468:9475   */\n      0x00\n        /* \"#utility.yul\":9497:9521   */\n      tag_190\n        /* \"#utility.yul\":9515:9520   */\n      dup3\n        /* \"#utility.yul\":9497:9521   */\n      tag_188\n      jump\t// in\n    tag_190:\n        /* \"#utility.yul\":9486:9521   */\n      swap1\n      pop\n        /* \"#utility.yul\":9423:9527   */\n      swap2\n      swap1\n      pop\n      jump\t// out\n        /* \"#utility.yul\":9533:9610   */\n    tag_191:\n        /* \"#utility.yul\":9570:9577   */\n      0x00\n        /* \"#utility.yul\":9599:9604   */\n      dup2\n        /* \"#utility.yul\":9588:9604   */\n      swap1\n      pop\n        /* \"#utility.yul\":9533:9610   */\n      swap2\n      swap1\n      pop\n      jump\t// out\n        /* \"#utility.yul\":9616:9742   */\n    tag_188:\n        /* \"#utility.yul\":9653:9660   */\n      0x00\n        /* \"#utility.yul\":9693:9735   */\n      0xffffffffffffffffffffffffffffffffffffffff\n        /* \"#utility.yul\":9686:9691   */\n      dup3\n        /* \"#utility.yul\":9682:9736   */\n      and\n        /* \"#utility.yul\":9671:9736   */\n      swap1\n      pop\n        /* \"#utility.yul\":9616:9742   */\n      swap2\n      swap1\n      pop\n      jump\t// out\n        /* \"#utility.yul\":9748:9825   */\n    tag_149:\n        /* \"#utility.yul\":9785:9792   */\n      0x00\n        /* \"#utility.yul\":9814:9819   */\n      dup2\n        /* \"#utility.yul\":9803:9819   */\n      swap1\n      pop\n        /* \"#utility.yul\":9748:9825   */\n      swap2\n      swap1\n      pop\n      jump\t// out\n        /* \"#utility.yul\":9831:10138   */\n    tag_124:\n        /* \"#utility.yul\":9899:9900   */\n      0x00\n        /* \"#utility.yul\":9909:10022   */\n    tag_196:\n        /* \"#utility.yul\":9923:9929   */\n      dup4\n        /* \"#utility.yul\":9920:9921   */\n      dup2\n        /* \"#utility.yul\":9917:9930   */\n      lt\n        /* \"#utility.yul\":9909:10022   */\n      iszero\n      tag_198\n      jumpi\n        /* \"#utility.yul\":10008:10009   */\n      dup1\n        /* \"#utility.yul\":10003:10006   */\n      dup3\n        /* \"#utility.yul\":9999:10010   */\n      add\n        /* \"#utility.yul\":9993:10011   */\n      mload\n        /* \"#utility.yul\":9989:9990   */\n      dup2\n        /* \"#utility.yul\":9984:9987   */\n      dup5\n        /* \"#utility.yul\":9980:9991   */\n      add\n        /* \"#utility.yul\":9973:10012   */\n      mstore\n        /* \"#utility.yul\":9945:9947   */\n      0x20\n        /* \"#utility.yul\":9942:9943   */\n      dup2\n        /* \"#utility.yul\":9938:9948   */\n      add\n        /* \"#utility.yul\":9933:9948   */\n      swap1\n      pop\n        /* \"#utility.yul\":9909:10022   */\n      jump(tag_196)\n    tag_198:\n        /* \"#utility.yul\":10040:10046   */\n      dup4\n        /* \"#utility.yul\":10037:10038   */\n      dup2\n        /* \"#utility.yul\":10034:10047   */\n      gt\n        /* \"#utility.yul\":10031:10132   */\n      iszero\n      tag_199\n      jumpi\n        /* \"#utility.yul\":10120:10121   */\n      0x00\n        /* \"#utility.yul\":10111:10117   */\n      dup5\n        /* \"#utility.yul\":10106:10109   */\n      dup5\n        /* \"#utility.yul\":10102:10118   */\n      add\n        /* \"#utility.yul\":10095:10122   */\n      mstore\n        /* \"#utility.yul\":10031:10132   */\n    tag_199:\n        /* \"#utility.yul\":9880:10138   */\n      pop\n        /* \"#utility.yul\":9831:10138   */\n      pop\n      pop\n      pop\n      jump\t// out\n        /* \"#utility.yul\":10144:10326   */\n    tag_200:\n        /* \"#utility.yul\":10221:10226   */\n      0x00\n        /* \"#utility.yul\":10246:10320   */\n      tag_202\n        /* \"#utility.yul\":10285:10319   */\n      tag_203\n        /* \"#utility.yul\":10308:10318   */\n      dup4\n        /* \"#utility.yul\":10285:10319   */\n      tag_204\n      jump\t// in\n    tag_203:\n        /* \"#utility.yul\":10246:10320   */\n      tag_184\n      jump\t// in\n    tag_202:\n        /* \"#utility.yul\":10237:10320   */\n      swap1\n      pop\n        /* \"#utility.yul\":10144:10326   */\n      swap2\n      swap1\n      pop\n      jump\t// out\n        /* \"#utility.yul\":10332:10565   */\n    tag_58:\n        /* \"#utility.yul\":10371:10374   */\n      0x00\n        /* \"#utility.yul\":10394:10418   */\n      tag_206\n        /* \"#utility.yul\":10412:10417   */\n      dup3\n        /* \"#utility.yul\":10394:10418   */\n      tag_149\n      jump\t// in\n    tag_206:\n        /* \"#utility.yul\":10385:10418   */\n      swap2\n      pop\n        /* \"#utility.yul\":10440:10506   */\n      0xffffffffffffffffffffffffffffffffffffffffffffffffffffffffffffffff\n        /* \"#utility.yul\":10433:10438   */\n      dup3\n        /* \"#utility.yul\":10430:10507   */\n      eq\n        /* \"#utility.yul\":10427:10530   */\n      iszero\n      tag_207\n      jumpi\n        /* \"#utility.yul\":10510:10528   */\n      tag_208\n      tag_209\n      jump\t// in\n    tag_208:\n        /* \"#utility.yul\":10427:10530   */\n    tag_207:\n        /* \"#utility.yul\":10557:10558   */\n      0x01\n        /* \"#utility.yul\":10550:10555   */\n      dup3\n        /* \"#utility.yul\":10546:10559   */\n      add\n        /* \"#utility.yul\":10539:10559   */\n      swap1\n      pop\n        /* \"#utility.yul\":10332:10565   */\n      swap2\n      swap1\n      pop\n      jump\t// out\n        /* \"#utility.yul\":10571:10650   */\n    tag_154:\n        /* \"#utility.yul\":10610:10617   */\n      0x00\n        /* \"#utility.yul\":10639:10644   */\n      dup2\n        /* \"#utility.yul\":10628:10644   */\n      swap1\n      pop\n        /* \"#utility.yul\":10571:10650   */\n      swap2\n      swap1\n      pop\n      jump\t// out\n        /* \"#utility.yul\":10656:10832   */\n    tag_45:\n        /* \"#utility.yul\":10688:10689   */\n      0x00\n        /* \"#utility.yul\":10705:10725   */\n      tag_212\n        /* \"#utility.yul\":10723:10724   */\n      dup3\n        /* \"#utility.yul\":10705:10725   */\n      tag_149\n      jump\t// in\n    tag_212:\n        /* \"#utility.yul\":10700:10725   */\n      swap2\n      pop\n        /* \"#utility.yul\":10739:10759   */\n      tag_213\n        /* \"#utility.yul\":10757:10758   */\n      dup4\n        /* \"#utility.yul\":10739:10759   */\n      tag_149\n      jump\t// in\n    tag_213:\n        /* \"#utility.yul\":10734:10759   */\n      swap3\n      pop\n        /* \"#utility.yul\":10778:10779   */\n      dup3\n        /* \"#utility.yul\":10768:10803   */\n      tag_214\n      jumpi\n        /* \"#utility.yul\":10783:10801   */\n      tag_215\n      tag_216\n      jump\t// in\n    tag_215:\n        /* \"#utility.yul\":10768:10803   */\n    tag_214:\n        /* \"#utility.yul\":10824:10825   */\n      dup3\n        /* \"#utility.yul\":10821:10822   */\n      dup3\n        /* \"#utility.yul\":10817:10826   */\n      mod\n        /* \"#utility.yul\":10812:10826   */\n      swap1\n      pop\n        /* \"#utility.yul\":10656:10832   */\n      swap3\n      swap2\n      pop\n      pop\n      jump\t// out\n        /* \"#utility.yul\":10838:11018   */\n    tag_209:\n        /* \"#utility.yul\":10886:10963   */\n      0x4e487b7100000000000000000000000000000000000000000000000000000000\n        /* \"#utility.yul\":10883:10884   */\n      0x00\n        /* \"#utility.yul\":10876:10964   */\n      mstore\n        /* \"#utility.yul\":10983:10987   */\n      0x11\n        /* \"#utility.yul\":10980:10981   */\n      0x04\n        /* \"#utility.yul\":10973:10988   */\n      mstore\n        /* \"#utility.yul\":11007:11011   */\n      0x24\n        /* \"#utility.yul\":11004:11005   */\n      0x00\n        /* \"#utility.yul\":10997:11012   */\n      revert\n        /* \"#utility.yul\":11024:11204   */\n    tag_216:\n        /* \"#utility.yul\":11072:11149   */\n      0x4e487b7100000000000000000000000000000000000000000000000000000000\n        /* \"#utility.yul\":11069:11070   */\n      0x00\n        /* \"#utility.yul\":11062:11150   */\n      mstore\n        /* \"#utility.yul\":11169:11173   */\n      0x12\n        /* \"#utility.yul\":11166:11167   */\n      0x04\n        /* \"#utility.yul\":11159:11174   */\n      mstore\n        /* \"#utility.yul\":11193:11197   */\n      0x24\n        /* \"#utility.yul\":11190:11191   */\n      0x00\n        /* \"#utility.yul\":11183:11198   */\n      revert\n        /* \"#utility.yul\":11210:11390   */\n    tag_54:\n        /* \"#utility.yul\":11258:11335   */\n      0x4e487b7100000000000000000000000000000000000000000000000000000000\n        /* \"#utility.yul\":11255:11256   */\n      0x00\n        /* \"#utility.yul\":11248:11336   */\n      mstore\n        /* \"#utility.yul\":11355:11359   */\n      0x32\n        /* \"#utility.yul\":11352:11353   */\n      0x04\n        /* \"#utility.yul\":11345:11360   */\n      mstore\n        /* \"#utility.yul\":11379:11383   */\n      0x24\n        /* \"#utility.yul\":11376:11377   */\n      0x00\n        /* \"#utility.yul\":11369:11384   */\n      revert\n        /* \"#utility.yul\":11396:11556   */\n    tag_113:\n        /* \"#utility.yul\":11459:11464   */\n      0x00\n        /* \"#utility.yul\":11484:11549   */\n      tag_221\n        /* \"#utility.yul\":11543:11547   */\n      dup3\n        /* \"#utility.yul\":11537:11548   */\n      sload\n        /* \"#utility.yul\":11484:11549   */\n      tag_200\n      jump\t// in\n    tag_221:\n        /* \"#utility.yul\":11475:11549   */\n      swap1\n      pop\n        /* \"#utility.yul\":11396:11556   */\n      swap2\n      swap1\n      pop\n      jump\t// out\n        /* \"#utility.yul\":11685:11802   */\n    tag_81:\n        /* \"#utility.yul\":11794:11795   */\n      0x00\n        /* \"#utility.yul\":11791:11792   */\n      dup1\n        /* \"#utility.yul\":11784:11796   */\n      revert\n        /* \"#utility.yul\":11808:11910   */\n    tag_204:\n        /* \"#utility.yul\":11850:11858   */\n      0x00\n        /* \"#utility.yul\":11897:11902   */\n      dup2\n        /* \"#utility.yul\":11894:11895   */\n      0x00\n        /* \"#utility.yul\":11890:11903   */\n      shr\n        /* \"#utility.yul\":11869:11903   */\n      swap1\n      pop\n        /* \"#utility.yul\":11808:11910   */\n      swap2\n      swap1\n      pop\n      jump\t// out\n        /* \"#utility.yul\":11916:12084   */\n    tag_130:\n        /* \"#utility.yul\":12056:12076   */\n      0x596f752063616e206e6f74206163636573730000000000000000000000000000\n        /* \"#utility.yul\":12052:12053   */\n      0x00\n        /* \"#utility.yul\":12044:12050   */\n      dup3\n        /* \"#utility.yul\":12040:12054   */\n      add\n        /* \"#utility.yul\":12033:12077   */\n      mstore\n        /* \"#utility.yul\":11916:12084   */\n      pop\n      jump\t// out\n        /* \"#utility.yul\":12090:12271   */\n    tag_135:\n        /* \"#utility.yul\":12230:12263   */\n      0x596f7520616c7265616479206a6f696e6564207468697320636f6e7465737400\n        /* \"#utility.yul\":12226:12227   */\n      0x00\n        /* \"#utility.yul\":12218:12224   */\n      dup3\n        /* \"#utility.yul\":12214:12228   */\n      add\n        /* \"#utility.yul\":12207:12264   */\n      mstore\n        /* \"#utility.yul\":12090:12271   */\n      pop\n      jump\t// out\n        /* \"#utility.yul\":12277:12506   */\n    tag_140:\n        /* \"#utility.yul\":12417:12451   */\n      0x596f752063616e206e6f7420706172746963697061746520617320796f752061\n        /* \"#utility.yul\":12413:12414   */\n      0x00\n        /* \"#utility.yul\":12405:12411   */\n      dup3\n        /* \"#utility.yul\":12401:12415   */\n      add\n        /* \"#utility.yul\":12394:12452   */\n      mstore\n        /* \"#utility.yul\":12486:12498   */\n      0x7265206d616e6167657200000000000000000000000000000000000000000000\n        /* \"#utility.yul\":12481:12483   */\n      0x20\n        /* \"#utility.yul\":12473:12479   */\n      dup3\n        /* \"#utility.yul\":12469:12484   */\n      add\n        /* \"#utility.yul\":12462:12499   */\n      mstore\n        /* \"#utility.yul\":12277:12506   */\n      pop\n      jump\t// out\n        /* \"#utility.yul\":12512:12750   */\n    tag_145:\n        /* \"#utility.yul\":12652:12686   */\n      0x596f75206861766520746f207061792066656573206f66203120657468657220\n        /* \"#utility.yul\":12648:12649   */\n      0x00\n        /* \"#utility.yul\":12640:12646   */\n      dup3\n        /* \"#utility.yul\":12636:12650   */\n      add\n        /* \"#utility.yul\":12629:12687   */\n      mstore\n        /* \"#utility.yul\":12721:12742   */\n      0x666f72206a6f696e696e6720636f6e7465737400000000000000000000000000\n        /* \"#utility.yul\":12716:12718   */\n      0x20\n        /* \"#utility.yul\":12708:12714   */\n      dup3\n        /* \"#utility.yul\":12704:12719   */\n      add\n        /* \"#utility.yul\":12697:12743   */\n      mstore\n        /* \"#utility.yul\":12512:12750   */\n      pop\n      jump\t// out\n        /* \"#utility.yul\":12756:12878   */\n    tag_73:\n        /* \"#utility.yul\":12829:12853   */\n      tag_231\n        /* \"#utility.yul\":12847:12852   */\n      dup2\n        /* \"#utility.yul\":12829:12853   */\n      tag_191\n      jump\t// in\n    tag_231:\n        /* \"#utility.yul\":12822:12827   */\n      dup2\n        /* \"#utility.yul\":12819:12854   */\n      eq\n        /* \"#utility.yul\":12809:12872   */\n      tag_232\n      jumpi\n        /* \"#utility.yul\":12868:12869   */\n      0x00\n        /* \"#utility.yul\":12865:12866   */\n      dup1\n        /* \"#utility.yul\":12858:12870   */\n      revert\n        /* \"#utility.yul\":12809:12872   */\n    tag_232:\n        /* \"#utility.yul\":12756:12878   */\n      pop\n      jump\t// out\n        /* \"#utility.yul\":12884:13006   */\n    tag_77:\n        /* \"#utility.yul\":12957:12981   */\n      tag_234\n        /* \"#utility.yul\":12975:12980   */\n      dup2\n        /* \"#utility.yul\":12957:12981   */\n      tag_149\n      jump\t// in\n    tag_234:\n        /* \"#utility.yul\":12950:12955   */\n      dup2\n        /* \"#utility.yul\":12947:12982   */\n      eq\n        /* \"#utility.yul\":12937:13000   */\n      tag_235\n      jumpi\n        /* \"#utility.yul\":12996:12997   */\n      0x00\n        /* \"#utility.yul\":12993:12994   */\n      dup1\n        /* \"#utility.yul\":12986:12998   */\n      revert\n        /* \"#utility.yul\":12937:13000   */\n    tag_235:\n        /* \"#utility.yul\":12884:13006   */\n      pop\n      jump\t// out\n\n    auxdata: 0xa26469706673582212201d383674cdfc527071adf8be04308126255607b1d0300acb34b65548de8c1d0f64736f6c63430008070033\n}\n",
				"bytecode": {
					"linkReferences": {},
					"object": "60806040523480156200001157600080fd5b50336000806101000a81548173ffffffffffffffffffffffffffffffffffffffff021916908373ffffffffffffffffffffffffffffffffffffffff160217905550620000626200006960201b60201c565b5062000440565b60008060024443600160405160200162000086939291906200028f565b604051602081830303815290604052604051620000a4919062000276565b602060405180830381855afa158015620000c2573d6000803e3d6000fd5b5050506040513d601f19601f82011682018060405250810190620000e7919062000143565b60001c90507ff82c50f1848136e6c140b186ea0c768b7deda5efffe42c25e96336a90b26c744816040516200011d9190620002ce565b60405180910390a18091505090565b6000815190506200013d8162000426565b92915050565b6000602082840312156200015c576200015b62000414565b5b60006200016c848285016200012c565b91505092915050565b60006200018383836200018f565b60208301905092915050565b6200019a8162000359565b82525050565b6000620001ad8262000300565b620001b9818562000323565b9350620001c683620002eb565b8060005b838110156200020657620001de82620003ff565b620001ea888262000175565b9750620001f78362000316565b925050600181019050620001ca565b5085935050505092915050565b600062000220826200030b565b6200022c81856200032e565b93506200023e818560208601620003a1565b80840191505092915050565b620002558162000397565b82525050565b620002706200026a8262000397565b620003f5565b82525050565b600062000284828462000213565b915081905092915050565b60006200029d82866200025b565b602082019150620002af82856200025b565b602082019150620002c18284620001a0565b9150819050949350505050565b6000602082019050620002e560008301846200024a565b92915050565b60008190508160005260206000209050919050565b600081549050919050565b600081519050919050565b6000600182019050919050565b600081905092915050565b600081905092915050565b600073ffffffffffffffffffffffffffffffffffffffff82169050919050565b6000620003668262000377565b9050919050565b6000819050919050565b600073ffffffffffffffffffffffffffffffffffffffff82169050919050565b6000819050919050565b60005b83811015620003c1578082015181840152602081019050620003a4565b83811115620003d1576000848401525b50505050565b6000620003ee620003e88362000419565b62000339565b9050919050565b6000819050919050565b60006200040d8254620003d7565b9050919050565b600080fd5b60008160001c9050919050565b62000431816200036d565b81146200043d57600080fd5b50565b610bca80620004506000396000f3fe60806040526004361061003f5760003560e01c806319b3741714610044578063481c6a751461004e5780635d495aea14610079578063f71d96cb146100a4575b600080fd5b61004c6100e1565b005b34801561005a57600080fd5b5061006361026d565b604051610070919061074b565b60405180910390f35b34801561008557600080fd5b5061008e610291565b60405161009b9190610801565b60405180910390f35b3480156100b057600080fd5b506100cb60048036038101906100c69190610541565b610344565b6040516100d89190610766565b60405180910390f35b3373ffffffffffffffffffffffffffffffffffffffff1660008054906101000a900473ffffffffffffffffffffffffffffffffffffffff1673ffffffffffffffffffffffffffffffffffffffff161415610170576040517f08c379a0000000000000000000000000000000000000000000000000000000008152600401610167906107c1565b60405180910390fd5b6000151561017c610383565b1515146101be576040517f08c379a00000000000000000000000000000000000000000000000000000000081526004016101b5906107a1565b60405180910390fd5b670de0b6b3a76400003414610208576040517f08c379a00000000000000000000000000000000000000000000000000000000081526004016101ff906107e1565b60405180910390fd5b6001339080600181540180825580915050600190039060005260206000200160009091909190916101000a81548173ffffffffffffffffffffffffffffffffffffffff021916908373ffffffffffffffffffffffffffffffffffffffff160217905550565b60008054906101000a900473ffffffffffffffffffffffffffffffffffffffff1681565b60003373ffffffffffffffffffffffffffffffffffffffff1660008054906101000a900473ffffffffffffffffffffffffffffffffffffffff1673ffffffffffffffffffffffffffffffffffffffff1614610321576040517f08c379a000000000000000000000000000000000000000000000000000000000815260040161031890610781565b60405180910390fd5b6000600180549050610331610430565b61033b9190610993565b90508091505090565b6001818154811061035457600080fd5b906000526020600020016000915054906101000a900473ffffffffffffffffffffffffffffffffffffffff1681565b600080600090505b600180549050811015610427573373ffffffffffffffffffffffffffffffffffffffff16600182815481106103c3576103c2610a22565b5b9060005260206000200160009054906101000a900473ffffffffffffffffffffffffffffffffffffffff1673ffffffffffffffffffffffffffffffffffffffff16141561041457600191505061042d565b808061041f90610940565b91505061038b565b50600090505b90565b60008060024443600160405160200161044b93929190610712565b60405160208183030381529060405260405161046791906106fb565b602060405180830381855afa158015610484573d6000803e3d6000fd5b5050506040513d601f19601f820116820180604052508101906104a79190610514565b60001c90507ff82c50f1848136e6c140b186ea0c768b7deda5efffe42c25e96336a90b26c744816040516104db9190610801565b60405180910390a18091505090565b6000815190506104f981610b66565b92915050565b60008135905061050e81610b7d565b92915050565b60006020828403121561052a57610529610a64565b5b6000610538848285016104ea565b91505092915050565b60006020828403121561055757610556610a64565b5b6000610565848285016104ff565b91505092915050565b600061057a8383610595565b60208301905092915050565b61058f816108ad565b82525050565b61059e816108ad565b82525050565b6105ad8161089b565b82525050565b60006105be82610831565b6105c88185610854565b93506105d38361081c565b8060005b8381101561060b576105e882610a51565b6105f2888261056e565b97506105fd83610847565b9250506001810190506105d7565b5085935050505092915050565b60006106238261083c565b61062d818561085f565b935061063d8185602086016108f3565b80840191505092915050565b600061065660128361086a565b915061066182610a76565b602082019050919050565b6000610679601f8361086a565b915061068482610a9f565b602082019050919050565b600061069c602a8361086a565b91506106a782610ac8565b604082019050919050565b60006106bf60338361086a565b91506106ca82610b17565b604082019050919050565b6106de816108e9565b82525050565b6106f56106f0826108e9565b610989565b82525050565b60006107078284610618565b915081905092915050565b600061071e82866106e4565b60208201915061072e82856106e4565b60208201915061073e82846105b3565b9150819050949350505050565b600060208201905061076060008301846105a4565b92915050565b600060208201905061077b6000830184610586565b92915050565b6000602082019050818103600083015261079a81610649565b9050919050565b600060208201905081810360008301526107ba8161066c565b9050919050565b600060208201905081810360008301526107da8161068f565b9050919050565b600060208201905081810360008301526107fa816106b2565b9050919050565b600060208201905061081660008301846106d5565b92915050565b60008190508160005260206000209050919050565b600081549050919050565b600081519050919050565b6000600182019050919050565b600081905092915050565b600081905092915050565b600082825260208201905092915050565b600073ffffffffffffffffffffffffffffffffffffffff82169050919050565b60006108a6826108c9565b9050919050565b60006108b8826108c9565b9050919050565b6000819050919050565b600073ffffffffffffffffffffffffffffffffffffffff82169050919050565b6000819050919050565b60005b838110156109115780820151818401526020810190506108f6565b83811115610920576000848401525b50505050565b600061093961093483610a69565b61087b565b9050919050565b600061094b826108e9565b91507fffffffffffffffffffffffffffffffffffffffffffffffffffffffffffffffff82141561097e5761097d6109c4565b5b600182019050919050565b6000819050919050565b600061099e826108e9565b91506109a9836108e9565b9250826109b9576109b86109f3565b5b828206905092915050565b7f4e487b7100000000000000000000000000000000000000000000000000000000600052601160045260246000fd5b7f4e487b7100000000000000000000000000000000000000000000000000000000600052601260045260246000fd5b7f4e487b7100000000000000000000000000000000000000000000000000000000600052603260045260246000fd5b6000610a5d8254610926565b9050919050565b600080fd5b60008160001c9050919050565b7f596f752063616e206e6f74206163636573730000000000000000000000000000600082015250565b7f596f7520616c7265616479206a6f696e6564207468697320636f6e7465737400600082015250565b7f596f752063616e206e6f7420706172746963697061746520617320796f75206160008201527f7265206d616e6167657200000000000000000000000000000000000000000000602082015250565b7f596f75206861766520746f207061792066656573206f6620312065746865722060008201527f666f72206a6f696e696e6720636f6e7465737400000000000000000000000000602082015250565b610b6f816108bf565b8114610b7a57600080fd5b50565b610b86816108e9565b8114610b9157600080fd5b5056fea26469706673582212201d383674cdfc527071adf8be04308126255607b1d0300acb34b65548de8c1d0f64736f6c63430008070033",
					"opcodes": "PUSH1 0x80 PUSH1 0x40 MSTORE CALLVALUE DUP1 ISZERO PUSH3 0x11 JUMPI PUSH1 0x0 DUP1 REVERT JUMPDEST POP CALLER PUSH1 0x0 DUP1 PUSH2 0x100 EXP DUP2 SLOAD DUP2 PUSH20 0xFFFFFFFFFFFFFFFFFFFFFFFFFFFFFFFFFFFFFFFF MUL NOT AND SWAP1 DUP4 PUSH20 0xFFFFFFFFFFFFFFFFFFFFFFFFFFFFFFFFFFFFFFFF AND MUL OR SWAP1 SSTORE POP PUSH3 0x62 PUSH3 0x69 PUSH1 0x20 SHL PUSH1 0x20 SHR JUMP JUMPDEST POP PUSH3 0x440 JUMP JUMPDEST PUSH1 0x0 DUP1 PUSH1 0x2 DIFFICULTY NUMBER PUSH1 0x1 PUSH1 0x40 MLOAD PUSH1 0x20 ADD PUSH3 0x86 SWAP4 SWAP3 SWAP2 SWAP1 PUSH3 0x28F JUMP JUMPDEST PUSH1 0x40 MLOAD PUSH1 0x20 DUP2 DUP4 SUB SUB DUP2 MSTORE SWAP1 PUSH1 0x40 MSTORE PUSH1 0x40 MLOAD PUSH3 0xA4 SWAP2 SWAP1 PUSH3 0x276 JUMP JUMPDEST PUSH1 0x20 PUSH1 0x40 MLOAD DUP1 DUP4 SUB DUP2 DUP6 GAS STATICCALL ISZERO DUP1 ISZERO PUSH3 0xC2 JUMPI RETURNDATASIZE PUSH1 0x0 DUP1 RETURNDATACOPY RETURNDATASIZE PUSH1 0x0 REVERT JUMPDEST POP POP POP PUSH1 0x40 MLOAD RETURNDATASIZE PUSH1 0x1F NOT PUSH1 0x1F DUP3 ADD AND DUP3 ADD DUP1 PUSH1 0x40 MSTORE POP DUP2 ADD SWAP1 PUSH3 0xE7 SWAP2 SWAP1 PUSH3 0x143 JUMP JUMPDEST PUSH1 0x0 SHR SWAP1 POP PUSH32 0xF82C50F1848136E6C140B186EA0C768B7DEDA5EFFFE42C25E96336A90B26C744 DUP2 PUSH1 0x40 MLOAD PUSH3 0x11D SWAP2 SWAP1 PUSH3 0x2CE JUMP JUMPDEST PUSH1 0x40 MLOAD DUP1 SWAP2 SUB SWAP1 LOG1 DUP1 SWAP2 POP POP SWAP1 JUMP JUMPDEST PUSH1 0x0 DUP2 MLOAD SWAP1 POP PUSH3 0x13D DUP2 PUSH3 0x426 JUMP JUMPDEST SWAP3 SWAP2 POP POP JUMP JUMPDEST PUSH1 0x0 PUSH1 0x20 DUP3 DUP5 SUB SLT ISZERO PUSH3 0x15C JUMPI PUSH3 0x15B PUSH3 0x414 JUMP JUMPDEST JUMPDEST PUSH1 0x0 PUSH3 0x16C DUP5 DUP3 DUP6 ADD PUSH3 0x12C JUMP JUMPDEST SWAP2 POP POP SWAP3 SWAP2 POP POP JUMP JUMPDEST PUSH1 0x0 PUSH3 0x183 DUP4 DUP4 PUSH3 0x18F JUMP JUMPDEST PUSH1 0x20 DUP4 ADD SWAP1 POP SWAP3 SWAP2 POP POP JUMP JUMPDEST PUSH3 0x19A DUP2 PUSH3 0x359 JUMP JUMPDEST DUP3 MSTORE POP POP JUMP JUMPDEST PUSH1 0x0 PUSH3 0x1AD DUP3 PUSH3 0x300 JUMP JUMPDEST PUSH3 0x1B9 DUP2 DUP6 PUSH3 0x323 JUMP JUMPDEST SWAP4 POP PUSH3 0x1C6 DUP4 PUSH3 0x2EB JUMP JUMPDEST DUP1 PUSH1 0x0 JUMPDEST DUP4 DUP2 LT ISZERO PUSH3 0x206 JUMPI PUSH3 0x1DE DUP3 PUSH3 0x3FF JUMP JUMPDEST PUSH3 0x1EA DUP9 DUP3 PUSH3 0x175 JUMP JUMPDEST SWAP8 POP PUSH3 0x1F7 DUP4 PUSH3 0x316 JUMP JUMPDEST SWAP3 POP POP PUSH1 0x1 DUP2 ADD SWAP1 POP PUSH3 0x1CA JUMP JUMPDEST POP DUP6 SWAP4 POP POP POP POP SWAP3 SWAP2 POP POP JUMP JUMPDEST PUSH1 0x0 PUSH3 0x220 DUP3 PUSH3 0x30B JUMP JUMPDEST PUSH3 0x22C DUP2 DUP6 PUSH3 0x32E JUMP JUMPDEST SWAP4 POP PUSH3 0x23E DUP2 DUP6 PUSH1 0x20 DUP7 ADD PUSH3 0x3A1 JUMP JUMPDEST DUP1 DUP5 ADD SWAP2 POP POP SWAP3 SWAP2 POP POP JUMP JUMPDEST PUSH3 0x255 DUP2 PUSH3 0x397 JUMP JUMPDEST DUP3 MSTORE POP POP JUMP JUMPDEST PUSH3 0x270 PUSH3 0x26A DUP3 PUSH3 0x397 JUMP JUMPDEST PUSH3 0x3F5 JUMP JUMPDEST DUP3 MSTORE POP POP JUMP JUMPDEST PUSH1 0x0 PUSH3 0x284 DUP3 DUP5 PUSH3 0x213 JUMP JUMPDEST SWAP2 POP DUP2 SWAP1 POP SWAP3 SWAP2 POP POP JUMP JUMPDEST PUSH1 0x0 PUSH3 0x29D DUP3 DUP7 PUSH3 0x25B JUMP JUMPDEST PUSH1 0x20 DUP3 ADD SWAP2 POP PUSH3 0x2AF DUP3 DUP6 PUSH3 0x25B JUMP JUMPDEST PUSH1 0x20 DUP3 ADD SWAP2 POP PUSH3 0x2C1 DUP3 DUP5 PUSH3 0x1A0 JUMP JUMPDEST SWAP2 POP DUP2 SWAP1 POP SWAP5 SWAP4 POP POP POP POP JUMP JUMPDEST PUSH1 0x0 PUSH1 0x20 DUP3 ADD SWAP1 POP PUSH3 0x2E5 PUSH1 0x0 DUP4 ADD DUP5 PUSH3 0x24A JUMP JUMPDEST SWAP3 SWAP2 POP POP JUMP JUMPDEST PUSH1 0x0 DUP2 SWAP1 POP DUP2 PUSH1 0x0 MSTORE PUSH1 0x20 PUSH1 0x0 KECCAK256 SWAP1 POP SWAP2 SWAP1 POP JUMP JUMPDEST PUSH1 0x0 DUP2 SLOAD SWAP1 POP SWAP2 SWAP1 POP JUMP JUMPDEST PUSH1 0x0 DUP2 MLOAD SWAP1 POP SWAP2 SWAP1 POP JUMP JUMPDEST PUSH1 0x0 PUSH1 0x1 DUP3 ADD SWAP1 POP SWAP2 SWAP1 POP JUMP JUMPDEST PUSH1 0x0 DUP2 SWAP1 POP SWAP3 SWAP2 POP POP JUMP JUMPDEST PUSH1 0x0 DUP2 SWAP1 POP SWAP3 SWAP2 POP POP JUMP JUMPDEST PUSH1 0x0 PUSH20 0xFFFFFFFFFFFFFFFFFFFFFFFFFFFFFFFFFFFFFFFF DUP3 AND SWAP1 POP SWAP2 SWAP1 POP JUMP JUMPDEST PUSH1 0x0 PUSH3 0x366 DUP3 PUSH3 0x377 JUMP JUMPDEST SWAP1 POP SWAP2 SWAP1 POP JUMP JUMPDEST PUSH1 0x0 DUP2 SWAP1 POP SWAP2 SWAP1 POP JUMP JUMPDEST PUSH1 0x0 PUSH20 0xFFFFFFFFFFFFFFFFFFFFFFFFFFFFFFFFFFFFFFFF DUP3 AND SWAP1 POP SWAP2 SWAP1 POP JUMP JUMPDEST PUSH1 0x0 DUP2 SWAP1 POP SWAP2 SWAP1 POP JUMP JUMPDEST PUSH1 0x0 JUMPDEST DUP4 DUP2 LT ISZERO PUSH3 0x3C1 JUMPI DUP1 DUP3 ADD MLOAD DUP2 DUP5 ADD MSTORE PUSH1 0x20 DUP2 ADD SWAP1 POP PUSH3 0x3A4 JUMP JUMPDEST DUP4 DUP2 GT ISZERO PUSH3 0x3D1 JUMPI PUSH1 0x0 DUP5 DUP5 ADD MSTORE JUMPDEST POP POP POP POP JUMP JUMPDEST PUSH1 0x0 PUSH3 0x3EE PUSH3 0x3E8 DUP4 PUSH3 0x419 JUMP JUMPDEST PUSH3 0x339 JUMP JUMPDEST SWAP1 POP SWAP2 SWAP1 POP JUMP JUMPDEST PUSH1 0x0 DUP2 SWAP1 POP SWAP2 SWAP1 POP JUMP JUMPDEST PUSH1 0x0 PUSH3 0x40D DUP3 SLOAD PUSH3 0x3D7 JUMP JUMPDEST SWAP1 POP SWAP2 SWAP1 POP JUMP JUMPDEST PUSH1 0x0 DUP1 REVERT JUMPDEST PUSH1 0x0 DUP2 PUSH1 0x0 SHR SWAP1 POP SWAP2 SWAP1 POP JUMP JUMPDEST PUSH3 0x431 DUP2 PUSH3 0x36D JUMP JUMPDEST DUP2 EQ PUSH3 0x43D JUMPI PUSH1 0x0 DUP1 REVERT JUMPDEST POP JUMP JUMPDEST PUSH2 0xBCA DUP1 PUSH3 0x450 PUSH1 0x0 CODECOPY PUSH1 0x0 RETURN INVALID PUSH1 0x80 PUSH1 0x40 MSTORE PUSH1 0x4 CALLDATASIZE LT PUSH2 0x3F JUMPI PUSH1 0x0 CALLDATALOAD PUSH1 0xE0 SHR DUP1 PUSH4 0x19B37417 EQ PUSH2 0x44 JUMPI DUP1 PUSH4 0x481C6A75 EQ PUSH2 0x4E JUMPI DUP1 PUSH4 0x5D495AEA EQ PUSH2 0x79 JUMPI DUP1 PUSH4 0xF71D96CB EQ PUSH2 0xA4 JUMPI JUMPDEST PUSH1 0x0 DUP1 REVERT JUMPDEST PUSH2 0x4C PUSH2 0xE1 JUMP JUMPDEST STOP JUMPDEST CALLVALUE DUP1 ISZERO PUSH2 0x5A JUMPI PUSH1 0x0 DUP1 REVERT JUMPDEST POP PUSH2 0x63 PUSH2 0x26D JUMP JUMPDEST PUSH1 0x40 MLOAD PUSH2 0x70 SWAP2 SWAP1 PUSH2 0x74B JUMP JUMPDEST PUSH1 0x40 MLOAD DUP1 SWAP2 SUB SWAP1 RETURN JUMPDEST CALLVALUE DUP1 ISZERO PUSH2 0x85 JUMPI PUSH1 0x0 DUP1 REVERT JUMPDEST POP PUSH2 0x8E PUSH2 0x291 JUMP JUMPDEST PUSH1 0x40 MLOAD PUSH2 0x9B SWAP2 SWAP1 PUSH2 0x801 JUMP JUMPDEST PUSH1 0x40 MLOAD DUP1 SWAP2 SUB SWAP1 RETURN JUMPDEST CALLVALUE DUP1 ISZERO PUSH2 0xB0 JUMPI PUSH1 0x0 DUP1 REVERT JUMPDEST POP PUSH2 0xCB PUSH1 0x4 DUP1 CALLDATASIZE SUB DUP2 ADD SWAP1 PUSH2 0xC6 SWAP2 SWAP1 PUSH2 0x541 JUMP JUMPDEST PUSH2 0x344 JUMP JUMPDEST PUSH1 0x40 MLOAD PUSH2 0xD8 SWAP2 SWAP1 PUSH2 0x766 JUMP JUMPDEST PUSH1 0x40 MLOAD DUP1 SWAP2 SUB SWAP1 RETURN JUMPDEST CALLER PUSH20 0xFFFFFFFFFFFFFFFFFFFFFFFFFFFFFFFFFFFFFFFF AND PUSH1 0x0 DUP1 SLOAD SWAP1 PUSH2 0x100 EXP SWAP1 DIV PUSH20 0xFFFFFFFFFFFFFFFFFFFFFFFFFFFFFFFFFFFFFFFF AND PUSH20 0xFFFFFFFFFFFFFFFFFFFFFFFFFFFFFFFFFFFFFFFF AND EQ ISZERO PUSH2 0x170 JUMPI PUSH1 0x40 MLOAD PUSH32 0x8C379A000000000000000000000000000000000000000000000000000000000 DUP2 MSTORE PUSH1 0x4 ADD PUSH2 0x167 SWAP1 PUSH2 0x7C1 JUMP JUMPDEST PUSH1 0x40 MLOAD DUP1 SWAP2 SUB SWAP1 REVERT JUMPDEST PUSH1 0x0 ISZERO ISZERO PUSH2 0x17C PUSH2 0x383 JUMP JUMPDEST ISZERO ISZERO EQ PUSH2 0x1BE JUMPI PUSH1 0x40 MLOAD PUSH32 0x8C379A000000000000000000000000000000000000000000000000000000000 DUP2 MSTORE PUSH1 0x4 ADD PUSH2 0x1B5 SWAP1 PUSH2 0x7A1 JUMP JUMPDEST PUSH1 0x40 MLOAD DUP1 SWAP2 SUB SWAP1 REVERT JUMPDEST PUSH8 0xDE0B6B3A7640000 CALLVALUE EQ PUSH2 0x208 JUMPI PUSH1 0x40 MLOAD PUSH32 0x8C379A000000000000000000000000000000000000000000000000000000000 DUP2 MSTORE PUSH1 0x4 ADD PUSH2 0x1FF SWAP1 PUSH2 0x7E1 JUMP JUMPDEST PUSH1 0x40 MLOAD DUP1 SWAP2 SUB SWAP1 REVERT JUMPDEST PUSH1 0x1 CALLER SWAP1 DUP1 PUSH1 0x1 DUP2 SLOAD ADD DUP1 DUP3 SSTORE DUP1 SWAP2 POP POP PUSH1 0x1 SWAP1 SUB SWAP1 PUSH1 0x0 MSTORE PUSH1 0x20 PUSH1 0x0 KECCAK256 ADD PUSH1 0x0 SWAP1 SWAP2 SWAP1 SWAP2 SWAP1 SWAP2 PUSH2 0x100 EXP DUP2 SLOAD DUP2 PUSH20 0xFFFFFFFFFFFFFFFFFFFFFFFFFFFFFFFFFFFFFFFF MUL NOT AND SWAP1 DUP4 PUSH20 0xFFFFFFFFFFFFFFFFFFFFFFFFFFFFFFFFFFFFFFFF AND MUL OR SWAP1 SSTORE POP JUMP JUMPDEST PUSH1 0x0 DUP1 SLOAD SWAP1 PUSH2 0x100 EXP SWAP1 DIV PUSH20 0xFFFFFFFFFFFFFFFFFFFFFFFFFFFFFFFFFFFFFFFF AND DUP2 JUMP JUMPDEST PUSH1 0x0 CALLER PUSH20 0xFFFFFFFFFFFFFFFFFFFFFFFFFFFFFFFFFFFFFFFF AND PUSH1 0x0 DUP1 SLOAD SWAP1 PUSH2 0x100 EXP SWAP1 DIV PUSH20 0xFFFFFFFFFFFFFFFFFFFFFFFFFFFFFFFFFFFFFFFF AND PUSH20 0xFFFFFFFFFFFFFFFFFFFFFFFFFFFFFFFFFFFFFFFF AND EQ PUSH2 0x321 JUMPI PUSH1 0x40 MLOAD PUSH32 0x8C379A000000000000000000000000000000000000000000000000000000000 DUP2 MSTORE PUSH1 0x4 ADD PUSH2 0x318 SWAP1 PUSH2 0x781 JUMP JUMPDEST PUSH1 0x40 MLOAD DUP1 SWAP2 SUB SWAP1 REVERT JUMPDEST PUSH1 0x0 PUSH1 0x1 DUP1 SLOAD SWAP1 POP PUSH2 0x331 PUSH2 0x430 JUMP JUMPDEST PUSH2 0x33B SWAP2 SWAP1 PUSH2 0x993 JUMP JUMPDEST SWAP1 POP DUP1 SWAP2 POP POP SWAP1 JUMP JUMPDEST PUSH1 0x1 DUP2 DUP2 SLOAD DUP2 LT PUSH2 0x354 JUMPI PUSH1 0x0 DUP1 REVERT JUMPDEST SWAP1 PUSH1 0x0 MSTORE PUSH1 0x20 PUSH1 0x0 KECCAK256 ADD PUSH1 0x0 SWAP2 POP SLOAD SWAP1 PUSH2 0x100 EXP SWAP1 DIV PUSH20 0xFFFFFFFFFFFFFFFFFFFFFFFFFFFFFFFFFFFFFFFF AND DUP2 JUMP JUMPDEST PUSH1 0x0 DUP1 PUSH1 0x0 SWAP1 POP JUMPDEST PUSH1 0x1 DUP1 SLOAD SWAP1 POP DUP2 LT ISZERO PUSH2 0x427 JUMPI CALLER PUSH20 0xFFFFFFFFFFFFFFFFFFFFFFFFFFFFFFFFFFFFFFFF AND PUSH1 0x1 DUP3 DUP2 SLOAD DUP2 LT PUSH2 0x3C3 JUMPI PUSH2 0x3C2 PUSH2 0xA22 JUMP JUMPDEST JUMPDEST SWAP1 PUSH1 0x0 MSTORE PUSH1 0x20 PUSH1 0x0 KECCAK256 ADD PUSH1 0x0 SWAP1 SLOAD SWAP1 PUSH2 0x100 EXP SWAP1 DIV PUSH20 0xFFFFFFFFFFFFFFFFFFFFFFFFFFFFFFFFFFFFFFFF AND PUSH20 0xFFFFFFFFFFFFFFFFFFFFFFFFFFFFFFFFFFFFFFFF AND EQ ISZERO PUSH2 0x414 JUMPI PUSH1 0x1 SWAP2 POP POP PUSH2 0x42D JUMP JUMPDEST DUP1 DUP1 PUSH2 0x41F SWAP1 PUSH2 0x940 JUMP JUMPDEST SWAP2 POP POP PUSH2 0x38B JUMP JUMPDEST POP PUSH1 0x0 SWAP1 POP JUMPDEST SWAP1 JUMP JUMPDEST PUSH1 0x0 DUP1 PUSH1 0x2 DIFFICULTY NUMBER PUSH1 0x1 PUSH1 0x40 MLOAD PUSH1 0x20 ADD PUSH2 0x44B SWAP4 SWAP3 SWAP2 SWAP1 PUSH2 0x712 JUMP JUMPDEST PUSH1 0x40 MLOAD PUSH1 0x20 DUP2 DUP4 SUB SUB DUP2 MSTORE SWAP1 PUSH1 0x40 MSTORE PUSH1 0x40 MLOAD PUSH2 0x467 SWAP2 SWAP1 PUSH2 0x6FB JUMP JUMPDEST PUSH1 0x20 PUSH1 0x40 MLOAD DUP1 DUP4 SUB DUP2 DUP6 GAS STATICCALL ISZERO DUP1 ISZERO PUSH2 0x484 JUMPI RETURNDATASIZE PUSH1 0x0 DUP1 RETURNDATACOPY RETURNDATASIZE PUSH1 0x0 REVERT JUMPDEST POP POP POP PUSH1 0x40 MLOAD RETURNDATASIZE PUSH1 0x1F NOT PUSH1 0x1F DUP3 ADD AND DUP3 ADD DUP1 PUSH1 0x40 MSTORE POP DUP2 ADD SWAP1 PUSH2 0x4A7 SWAP2 SWAP1 PUSH2 0x514 JUMP JUMPDEST PUSH1 0x0 SHR SWAP1 POP PUSH32 0xF82C50F1848136E6C140B186EA0C768B7DEDA5EFFFE42C25E96336A90B26C744 DUP2 PUSH1 0x40 MLOAD PUSH2 0x4DB SWAP2 SWAP1 PUSH2 0x801 JUMP JUMPDEST PUSH1 0x40 MLOAD DUP1 SWAP2 SUB SWAP1 LOG1 DUP1 SWAP2 POP POP SWAP1 JUMP JUMPDEST PUSH1 0x0 DUP2 MLOAD SWAP1 POP PUSH2 0x4F9 DUP2 PUSH2 0xB66 JUMP JUMPDEST SWAP3 SWAP2 POP POP JUMP JUMPDEST PUSH1 0x0 DUP2 CALLDATALOAD SWAP1 POP PUSH2 0x50E DUP2 PUSH2 0xB7D JUMP JUMPDEST SWAP3 SWAP2 POP POP JUMP JUMPDEST PUSH1 0x0 PUSH1 0x20 DUP3 DUP5 SUB SLT ISZERO PUSH2 0x52A JUMPI PUSH2 0x529 PUSH2 0xA64 JUMP JUMPDEST JUMPDEST PUSH1 0x0 PUSH2 0x538 DUP5 DUP3 DUP6 ADD PUSH2 0x4EA JUMP JUMPDEST SWAP2 POP POP SWAP3 SWAP2 POP POP JUMP JUMPDEST PUSH1 0x0 PUSH1 0x20 DUP3 DUP5 SUB SLT ISZERO PUSH2 0x557 JUMPI PUSH2 0x556 PUSH2 0xA64 JUMP JUMPDEST JUMPDEST PUSH1 0x0 PUSH2 0x565 DUP5 DUP3 DUP6 ADD PUSH2 0x4FF JUMP JUMPDEST SWAP2 POP POP SWAP3 SWAP2 POP POP JUMP JUMPDEST PUSH1 0x0 PUSH2 0x57A DUP4 DUP4 PUSH2 0x595 JUMP JUMPDEST PUSH1 0x20 DUP4 ADD SWAP1 POP SWAP3 SWAP2 POP POP JUMP JUMPDEST PUSH2 0x58F DUP2 PUSH2 0x8AD JUMP JUMPDEST DUP3 MSTORE POP POP JUMP JUMPDEST PUSH2 0x59E DUP2 PUSH2 0x8AD JUMP JUMPDEST DUP3 MSTORE POP POP JUMP JUMPDEST PUSH2 0x5AD DUP2 PUSH2 0x89B JUMP JUMPDEST DUP3 MSTORE POP POP JUMP JUMPDEST PUSH1 0x0 PUSH2 0x5BE DUP3 PUSH2 0x831 JUMP JUMPDEST PUSH2 0x5C8 DUP2 DUP6 PUSH2 0x854 JUMP JUMPDEST SWAP4 POP PUSH2 0x5D3 DUP4 PUSH2 0x81C JUMP JUMPDEST DUP1 PUSH1 0x0 JUMPDEST DUP4 DUP2 LT ISZERO PUSH2 0x60B JUMPI PUSH2 0x5E8 DUP3 PUSH2 0xA51 JUMP JUMPDEST PUSH2 0x5F2 DUP9 DUP3 PUSH2 0x56E JUMP JUMPDEST SWAP8 POP PUSH2 0x5FD DUP4 PUSH2 0x847 JUMP JUMPDEST SWAP3 POP POP PUSH1 0x1 DUP2 ADD SWAP1 POP PUSH2 0x5D7 JUMP JUMPDEST POP DUP6 SWAP4 POP POP POP POP SWAP3 SWAP2 POP POP JUMP JUMPDEST PUSH1 0x0 PUSH2 0x623 DUP3 PUSH2 0x83C JUMP JUMPDEST PUSH2 0x62D DUP2 DUP6 PUSH2 0x85F JUMP JUMPDEST SWAP4 POP PUSH2 0x63D DUP2 DUP6 PUSH1 0x20 DUP7 ADD PUSH2 0x8F3 JUMP JUMPDEST DUP1 DUP5 ADD SWAP2 POP POP SWAP3 SWAP2 POP POP JUMP JUMPDEST PUSH1 0x0 PUSH2 0x656 PUSH1 0x12 DUP4 PUSH2 0x86A JUMP JUMPDEST SWAP2 POP PUSH2 0x661 DUP3 PUSH2 0xA76 JUMP JUMPDEST PUSH1 0x20 DUP3 ADD SWAP1 POP SWAP2 SWAP1 POP JUMP JUMPDEST PUSH1 0x0 PUSH2 0x679 PUSH1 0x1F DUP4 PUSH2 0x86A JUMP JUMPDEST SWAP2 POP PUSH2 0x684 DUP3 PUSH2 0xA9F JUMP JUMPDEST PUSH1 0x20 DUP3 ADD SWAP1 POP SWAP2 SWAP1 POP JUMP JUMPDEST PUSH1 0x0 PUSH2 0x69C PUSH1 0x2A DUP4 PUSH2 0x86A JUMP JUMPDEST SWAP2 POP PUSH2 0x6A7 DUP3 PUSH2 0xAC8 JUMP JUMPDEST PUSH1 0x40 DUP3 ADD SWAP1 POP SWAP2 SWAP1 POP JUMP JUMPDEST PUSH1 0x0 PUSH2 0x6BF PUSH1 0x33 DUP4 PUSH2 0x86A JUMP JUMPDEST SWAP2 POP PUSH2 0x6CA DUP3 PUSH2 0xB17 JUMP JUMPDEST PUSH1 0x40 DUP3 ADD SWAP1 POP SWAP2 SWAP1 POP JUMP JUMPDEST PUSH2 0x6DE DUP2 PUSH2 0x8E9 JUMP JUMPDEST DUP3 MSTORE POP POP JUMP JUMPDEST PUSH2 0x6F5 PUSH2 0x6F0 DUP3 PUSH2 0x8E9 JUMP JUMPDEST PUSH2 0x989 JUMP JUMPDEST DUP3 MSTORE POP POP JUMP JUMPDEST PUSH1 0x0 PUSH2 0x707 DUP3 DUP5 PUSH2 0x618 JUMP JUMPDEST SWAP2 POP DUP2 SWAP1 POP SWAP3 SWAP2 POP POP JUMP JUMPDEST PUSH1 0x0 PUSH2 0x71E DUP3 DUP7 PUSH2 0x6E4 JUMP JUMPDEST PUSH1 0x20 DUP3 ADD SWAP2 POP PUSH2 0x72E DUP3 DUP6 PUSH2 0x6E4 JUMP JUMPDEST PUSH1 0x20 DUP3 ADD SWAP2 POP PUSH2 0x73E DUP3 DUP5 PUSH2 0x5B3 JUMP JUMPDEST SWAP2 POP DUP2 SWAP1 POP SWAP5 SWAP4 POP POP POP POP JUMP JUMPDEST PUSH1 0x0 PUSH1 0x20 DUP3 ADD SWAP1 POP PUSH2 0x760 PUSH1 0x0 DUP4 ADD DUP5 PUSH2 0x5A4 JUMP JUMPDEST SWAP3 SWAP2 POP POP JUMP JUMPDEST PUSH1 0x0 PUSH1 0x20 DUP3 ADD SWAP1 POP PUSH2 0x77B PUSH1 0x0 DUP4 ADD DUP5 PUSH2 0x586 JUMP JUMPDEST SWAP3 SWAP2 POP POP JUMP JUMPDEST PUSH1 0x0 PUSH1 0x20 DUP3 ADD SWAP1 POP DUP2 DUP2 SUB PUSH1 0x0 DUP4 ADD MSTORE PUSH2 0x79A DUP2 PUSH2 0x649 JUMP JUMPDEST SWAP1 POP SWAP2 SWAP1 POP JUMP JUMPDEST PUSH1 0x0 PUSH1 0x20 DUP3 ADD SWAP1 POP DUP2 DUP2 SUB PUSH1 0x0 DUP4 ADD MSTORE PUSH2 0x7BA DUP2 PUSH2 0x66C JUMP JUMPDEST SWAP1 POP SWAP2 SWAP1 POP JUMP JUMPDEST PUSH1 0x0 PUSH1 0x20 DUP3 ADD SWAP1 POP DUP2 DUP2 SUB PUSH1 0x0 DUP4 ADD MSTORE PUSH2 0x7DA DUP2 PUSH2 0x68F JUMP JUMPDEST SWAP1 POP SWAP2 SWAP1 POP JUMP JUMPDEST PUSH1 0x0 PUSH1 0x20 DUP3 ADD SWAP1 POP DUP2 DUP2 SUB PUSH1 0x0 DUP4 ADD MSTORE PUSH2 0x7FA DUP2 PUSH2 0x6B2 JUMP JUMPDEST SWAP1 POP SWAP2 SWAP1 POP JUMP JUMPDEST PUSH1 0x0 PUSH1 0x20 DUP3 ADD SWAP1 POP PUSH2 0x816 PUSH1 0x0 DUP4 ADD DUP5 PUSH2 0x6D5 JUMP JUMPDEST SWAP3 SWAP2 POP POP JUMP JUMPDEST PUSH1 0x0 DUP2 SWAP1 POP DUP2 PUSH1 0x0 MSTORE PUSH1 0x20 PUSH1 0x0 KECCAK256 SWAP1 POP SWAP2 SWAP1 POP JUMP JUMPDEST PUSH1 0x0 DUP2 SLOAD SWAP1 POP SWAP2 SWAP1 POP JUMP JUMPDEST PUSH1 0x0 DUP2 MLOAD SWAP1 POP SWAP2 SWAP1 POP JUMP JUMPDEST PUSH1 0x0 PUSH1 0x1 DUP3 ADD SWAP1 POP SWAP2 SWAP1 POP JUMP JUMPDEST PUSH1 0x0 DUP2 SWAP1 POP SWAP3 SWAP2 POP POP JUMP JUMPDEST PUSH1 0x0 DUP2 SWAP1 POP SWAP3 SWAP2 POP POP JUMP JUMPDEST PUSH1 0x0 DUP3 DUP3 MSTORE PUSH1 0x20 DUP3 ADD SWAP1 POP SWAP3 SWAP2 POP POP JUMP JUMPDEST PUSH1 0x0 PUSH20 0xFFFFFFFFFFFFFFFFFFFFFFFFFFFFFFFFFFFFFFFF DUP3 AND SWAP1 POP SWAP2 SWAP1 POP JUMP JUMPDEST PUSH1 0x0 PUSH2 0x8A6 DUP3 PUSH2 0x8C9 JUMP JUMPDEST SWAP1 POP SWAP2 SWAP1 POP JUMP JUMPDEST PUSH1 0x0 PUSH2 0x8B8 DUP3 PUSH2 0x8C9 JUMP JUMPDEST SWAP1 POP SWAP2 SWAP1 POP JUMP JUMPDEST PUSH1 0x0 DUP2 SWAP1 POP SWAP2 SWAP1 POP JUMP JUMPDEST PUSH1 0x0 PUSH20 0xFFFFFFFFFFFFFFFFFFFFFFFFFFFFFFFFFFFFFFFF DUP3 AND SWAP1 POP SWAP2 SWAP1 POP JUMP JUMPDEST PUSH1 0x0 DUP2 SWAP1 POP SWAP2 SWAP1 POP JUMP JUMPDEST PUSH1 0x0 JUMPDEST DUP4 DUP2 LT ISZERO PUSH2 0x911 JUMPI DUP1 DUP3 ADD MLOAD DUP2 DUP5 ADD MSTORE PUSH1 0x20 DUP2 ADD SWAP1 POP PUSH2 0x8F6 JUMP JUMPDEST DUP4 DUP2 GT ISZERO PUSH2 0x920 JUMPI PUSH1 0x0 DUP5 DUP5 ADD MSTORE JUMPDEST POP POP POP POP JUMP JUMPDEST PUSH1 0x0 PUSH2 0x939 PUSH2 0x934 DUP4 PUSH2 0xA69 JUMP JUMPDEST PUSH2 0x87B JUMP JUMPDEST SWAP1 POP SWAP2 SWAP1 POP JUMP JUMPDEST PUSH1 0x0 PUSH2 0x94B DUP3 PUSH2 0x8E9 JUMP JUMPDEST SWAP2 POP PUSH32 0xFFFFFFFFFFFFFFFFFFFFFFFFFFFFFFFFFFFFFFFFFFFFFFFFFFFFFFFFFFFFFFFF DUP3 EQ ISZERO PUSH2 0x97E JUMPI PUSH2 0x97D PUSH2 0x9C4 JUMP JUMPDEST JUMPDEST PUSH1 0x1 DUP3 ADD SWAP1 POP SWAP2 SWAP1 POP JUMP JUMPDEST PUSH1 0x0 DUP2 SWAP1 POP SWAP2 SWAP1 POP JUMP JUMPDEST PUSH1 0x0 PUSH2 0x99E DUP3 PUSH2 0x8E9 JUMP JUMPDEST SWAP2 POP PUSH2 0x9A9 DUP4 PUSH2 0x8E9 JUMP JUMPDEST SWAP3 POP DUP3 PUSH2 0x9B9 JUMPI PUSH2 0x9B8 PUSH2 0x9F3 JUMP JUMPDEST JUMPDEST DUP3 DUP3 MOD SWAP1 POP SWAP3 SWAP2 POP POP JUMP JUMPDEST PUSH32 0x4E487B7100000000000000000000000000000000000000000000000000000000 PUSH1 0x0 MSTORE PUSH1 0x11 PUSH1 0x4 MSTORE PUSH1 0x24 PUSH1 0x0 REVERT JUMPDEST PUSH32 0x4E487B7100000000000000000000000000000000000000000000000000000000 PUSH1 0x0 MSTORE PUSH1 0x12 PUSH1 0x4 MSTORE PUSH1 0x24 PUSH1 0x0 REVERT JUMPDEST PUSH32 0x4E487B7100000000000000000000000000000000000000000000000000000000 PUSH1 0x0 MSTORE PUSH1 0x32 PUSH1 0x4 MSTORE PUSH1 0x24 PUSH1 0x0 REVERT JUMPDEST PUSH1 0x0 PUSH2 0xA5D DUP3 SLOAD PUSH2 0x926 JUMP JUMPDEST SWAP1 POP SWAP2 SWAP1 POP JUMP JUMPDEST PUSH1 0x0 DUP1 REVERT JUMPDEST PUSH1 0x0 DUP2 PUSH1 0x0 SHR SWAP1 POP SWAP2 SWAP1 POP JUMP JUMPDEST PUSH32 0x596F752063616E206E6F74206163636573730000000000000000000000000000 PUSH1 0x0 DUP3 ADD MSTORE POP JUMP JUMPDEST PUSH32 0x596F7520616C7265616479206A6F696E6564207468697320636F6E7465737400 PUSH1 0x0 DUP3 ADD MSTORE POP JUMP JUMPDEST PUSH32 0x596F752063616E206E6F7420706172746963697061746520617320796F752061 PUSH1 0x0 DUP3 ADD MSTORE PUSH32 0x7265206D616E6167657200000000000000000000000000000000000000000000 PUSH1 0x20 DUP3 ADD MSTORE POP JUMP JUMPDEST PUSH32 0x596F75206861766520746F207061792066656573206F66203120657468657220 PUSH1 0x0 DUP3 ADD MSTORE PUSH32 0x666F72206A6F696E696E6720636F6E7465737400000000000000000000000000 PUSH1 0x20 DUP3 ADD MSTORE POP JUMP JUMPDEST PUSH2 0xB6F DUP2 PUSH2 0x8BF JUMP JUMPDEST DUP2 EQ PUSH2 0xB7A JUMPI PUSH1 0x0 DUP1 REVERT JUMPDEST POP JUMP JUMPDEST PUSH2 0xB86 DUP2 PUSH2 0x8E9 JUMP JUMPDEST DUP2 EQ PUSH2 0xB91 JUMPI PUSH1 0x0 DUP1 REVERT JUMPDEST POP JUMP INVALID LOG2 PUSH5 0x6970667358 0x22 SLT KECCAK256 SAR CODESIZE CALLDATASIZE PUSH21 0xCDFC527071ADF8BE04308126255607B1D0300ACB34 0xB6 SSTORE BASEFEE 0xDE DUP13 SAR 0xF PUSH5 0x736F6C6343 STOP ADDMOD SMOD STOP CALLER "
				},
				"gasEstimates": {
					"creation": {
						"codeDepositCost": "603600",
						"executionCost": "infinite",
						"totalCost": "infinite"
					},
					"external": {
						"ENTER()": "infinite",
						"manager()": "2511",
						"pickWinner()": "infinite",
						"players(uint256)": "5000"
					},
					"internal": {
						"alreadyEnter()": "infinite",
						"randomToken()": "infinite"
					}
				},
				"methodIdentifiers": {
					"ENTER()": "19b37417",
					"manager()": "481c6a75",
					"pickWinner()": "5d495aea",
					"players(uint256)": "f71d96cb"
				}
			},
			"storageLayout": {
				"storage": [
					{
						"astId": 3,
						"contract": "LotteryContract.sol:main",
						"label": "manager",
						"offset": 0,
						"slot": "0",
						"type": "t_address"
					},
					{
						"astId": 6,
						"contract": "LotteryContract.sol:main",
						"label": "players",
						"offset": 0,
						"slot": "1",
						"type": "t_array(t_address_payable)dyn_storage"
					}
				],
				"types": {
					"t_address": {
						"encoding": "inplace",
						"label": "address",
						"numberOfBytes": "20"
					},
					"t_address_payable": {
						"encoding": "inplace",
						"label": "address payable",
						"numberOfBytes": "20"
					},
					"t_array(t_address_payable)dyn_storage": {
						"base": "t_address_payable",
						"encoding": "dynamic_array",
						"label": "address payable[]",
						"numberOfBytes": "32"
					}
				}
			},
			"userdoc": {
				"kind": "user",
				"methods": {},
				"version": 1
			}
		}
	}
}