{
	"LotteryContract.sol": {
		"main": {
			"abi": [
				{
					"inputs": [],
					"stateMutability": "nonpayable",
					"type": "constructor"
				},
				{
					"anonymous": false,
					"inputs": [
						{
							"indexed": false,
							"internalType": "uint256",
							"name": "a",
							"type": "uint256"
						}
					],
					"name": "log",
					"type": "event"
				},
				{
					"inputs": [],
					"name": "ENTER",
					"outputs": [],
					"stateMutability": "payable",
					"type": "function"
				},
				{
					"inputs": [],
					"name": "checkBalance",
					"outputs": [
						{
							"internalType": "uint256",
							"name": "",
							"type": "uint256"
						}
					],
					"stateMutability": "view",
					"type": "function"
				},
				{
					"inputs": [],
					"name": "getPlayers",
					"outputs": [
						{
							"internalType": "address payable[]",
							"name": "",
							"type": "address[]"
						}
					],
					"stateMutability": "view",
					"type": "function"
				},
				{
					"inputs": [],
					"name": "manager",
					"outputs": [
						{
							"internalType": "address",
							"name": "",
							"type": "address"
						}
					],
					"stateMutability": "view",
					"type": "function"
				},
				{
					"inputs": [],
					"name": "pickWinner",
					"outputs": [],
					"stateMutability": "nonpayable",
					"type": "function"
				},
				{
					"inputs": [
						{
							"internalType": "uint256",
							"name": "",
							"type": "uint256"
						}
					],
					"name": "players",
					"outputs": [
						{
							"internalType": "address payable",
							"name": "",
							"type": "address"
						}
					],
					"stateMutability": "view",
					"type": "function"
				}
			],
			"devdoc": {
				"kind": "dev",
				"methods": {},
				"version": 1
			},
			"evm": {
				"assembly": "    /* \"LotteryContract.sol\":59:1700  contract main{\r... */\n  mstore(0x40, 0x80)\n    /* \"LotteryContract.sol\":182:234  constructor(){\r... */\n  callvalue\n  dup1\n  iszero\n  tag_1\n  jumpi\n  0x00\n  dup1\n  revert\ntag_1:\n  pop\n    /* \"LotteryContract.sol\":216:226  msg.sender */\n  caller\n    /* \"LotteryContract.sol\":206:213  manager */\n  0x00\n  dup1\n    /* \"LotteryContract.sol\":206:226  manager = msg.sender */\n  0x0100\n  exp\n  dup2\n  sload\n  dup2\n  0xffffffffffffffffffffffffffffffffffffffff\n  mul\n  not\n  and\n  swap1\n  dup4\n  0xffffffffffffffffffffffffffffffffffffffff\n  and\n  mul\n  or\n  swap1\n  sstore\n  pop\n    /* \"LotteryContract.sol\":59:1700  contract main{\r... */\n  dataSize(sub_0)\n  dup1\n  dataOffset(sub_0)\n  0x00\n  codecopy\n  0x00\n  return\nstop\n\nsub_0: assembly {\n        /* \"LotteryContract.sol\":59:1700  contract main{\r... */\n      mstore(0x40, 0x80)\n      jumpi(tag_1, lt(calldatasize, 0x04))\n      shr(0xe0, calldataload(0x00))\n      dup1\n      0x19b37417\n      eq\n      tag_2\n      jumpi\n      dup1\n      0x481c6a75\n      eq\n      tag_3\n      jumpi\n      dup1\n      0x5d495aea\n      eq\n      tag_4\n      jumpi\n      dup1\n      0x8b5b9ccc\n      eq\n      tag_5\n      jumpi\n      dup1\n      0xc71daccb\n      eq\n      tag_6\n      jumpi\n      dup1\n      0xf71d96cb\n      eq\n      tag_7\n      jumpi\n    tag_1:\n      0x00\n      dup1\n      revert\n        /* \"LotteryContract.sol\":497:840  function ENTER() payable public{\r... */\n    tag_2:\n      tag_8\n      tag_9\n      jump\t// in\n    tag_8:\n      stop\n        /* \"LotteryContract.sol\":81:103  address public manager */\n    tag_3:\n      callvalue\n      dup1\n      iszero\n      tag_10\n      jumpi\n      0x00\n      dup1\n      revert\n    tag_10:\n      pop\n      tag_11\n      tag_12\n      jump\t// in\n    tag_11:\n      mload(0x40)\n      tag_13\n      swap2\n      swap1\n      tag_14\n      jump\t// in\n    tag_13:\n      mload(0x40)\n      dup1\n      swap2\n      sub\n      swap1\n      return\n        /* \"LotteryContract.sol\":1019:1483  function pickWinner() public{\r... */\n    tag_4:\n      callvalue\n      dup1\n      iszero\n      tag_15\n      jumpi\n      0x00\n      dup1\n      revert\n    tag_15:\n      pop\n      tag_16\n      tag_17\n      jump\t// in\n    tag_16:\n      stop\n        /* \"LotteryContract.sol\":1491:1591  function getPlayers() view public returns(address payable[] memory){\r... */\n    tag_5:\n      callvalue\n      dup1\n      iszero\n      tag_18\n      jumpi\n      0x00\n      dup1\n      revert\n    tag_18:\n      pop\n      tag_19\n      tag_20\n      jump\t// in\n    tag_19:\n      mload(0x40)\n      tag_21\n      swap2\n      swap1\n      tag_22\n      jump\t// in\n    tag_21:\n      mload(0x40)\n      dup1\n      swap2\n      sub\n      swap1\n      return\n        /* \"LotteryContract.sol\":1599:1695  function checkBalance() view public returns(uint){\r... */\n    tag_6:\n      callvalue\n      dup1\n      iszero\n      tag_23\n      jumpi\n      0x00\n      dup1\n      revert\n    tag_23:\n      pop\n      tag_24\n      tag_25\n      jump\t// in\n    tag_24:\n      mload(0x40)\n      tag_26\n      swap2\n      swap1\n      tag_27\n      jump\t// in\n    tag_26:\n      mload(0x40)\n      dup1\n      swap2\n      sub\n      swap1\n      return\n        /* \"LotteryContract.sol\":140:172  address payable[] public players */\n    tag_7:\n      callvalue\n      dup1\n      iszero\n      tag_28\n      jumpi\n      0x00\n      dup1\n      revert\n    tag_28:\n      pop\n      tag_29\n      0x04\n      dup1\n      calldatasize\n      sub\n      dup2\n      add\n      swap1\n      tag_30\n      swap2\n      swap1\n      tag_31\n      jump\t// in\n    tag_30:\n      tag_32\n      jump\t// in\n    tag_29:\n      mload(0x40)\n      tag_33\n      swap2\n      swap1\n      tag_34\n      jump\t// in\n    tag_33:\n      mload(0x40)\n      dup1\n      swap2\n      sub\n      swap1\n      return\n        /* \"LotteryContract.sol\":497:840  function ENTER() payable public{\r... */\n    tag_9:\n        /* \"LotteryContract.sol\":558:568  msg.sender */\n      caller\n        /* \"LotteryContract.sol\":547:568  manager != msg.sender */\n      0xffffffffffffffffffffffffffffffffffffffff\n      and\n        /* \"LotteryContract.sol\":547:554  manager */\n      0x00\n      dup1\n      sload\n      swap1\n      0x0100\n      exp\n      swap1\n      div\n      0xffffffffffffffffffffffffffffffffffffffff\n      and\n        /* \"LotteryContract.sol\":547:568  manager != msg.sender */\n      0xffffffffffffffffffffffffffffffffffffffff\n      and\n      eq\n      iszero\n        /* \"LotteryContract.sol\":539:615  require(manager != msg.sender, \"You can not participate as you are manager\") */\n      tag_36\n      jumpi\n      mload(0x40)\n      0x08c379a000000000000000000000000000000000000000000000000000000000\n      dup2\n      mstore\n      0x04\n      add\n      tag_37\n      swap1\n      tag_38\n      jump\t// in\n    tag_37:\n      mload(0x40)\n      dup1\n      swap2\n      sub\n      swap1\n      revert\n    tag_36:\n        /* \"LotteryContract.sol\":652:657  false */\n      0x00\n        /* \"LotteryContract.sol\":634:657  alreadyEnter() == false */\n      iszero\n      iszero\n        /* \"LotteryContract.sol\":634:648  alreadyEnter() */\n      tag_39\n        /* \"LotteryContract.sol\":634:646  alreadyEnter */\n      tag_40\n        /* \"LotteryContract.sol\":634:648  alreadyEnter() */\n      jump\t// in\n    tag_39:\n        /* \"LotteryContract.sol\":634:657  alreadyEnter() == false */\n      iszero\n      iszero\n      eq\n        /* \"LotteryContract.sol\":626:693  require(alreadyEnter() == false, \"You already joined this contest\") */\n      tag_41\n      jumpi\n      mload(0x40)\n      0x08c379a000000000000000000000000000000000000000000000000000000000\n      dup2\n      mstore\n      0x04\n      add\n      tag_42\n      swap1\n      tag_43\n      jump\t// in\n    tag_42:\n      mload(0x40)\n      dup1\n      swap2\n      sub\n      swap1\n      revert\n    tag_41:\n        /* \"LotteryContract.sol\":725:732  1 ether */\n      0x0de0b6b3a7640000\n        /* \"LotteryContract.sol\":712:721  msg.value */\n      callvalue\n        /* \"LotteryContract.sol\":712:732  msg.value == 1 ether */\n      eq\n        /* \"LotteryContract.sol\":704:788  require(msg.value == 1 ether, \"You have to pay fees of 1 ether for joining contest\") */\n      tag_44\n      jumpi\n      mload(0x40)\n      0x08c379a000000000000000000000000000000000000000000000000000000000\n      dup2\n      mstore\n      0x04\n      add\n      tag_45\n      swap1\n      tag_46\n      jump\t// in\n    tag_45:\n      mload(0x40)\n      dup1\n      swap2\n      sub\n      swap1\n      revert\n    tag_44:\n        /* \"LotteryContract.sol\":799:806  players */\n      0x02\n        /* \"LotteryContract.sol\":820:830  msg.sender */\n      caller\n        /* \"LotteryContract.sol\":799:832  players.push(payable(msg.sender)) */\n      swap1\n      dup1\n      0x01\n      dup2\n      sload\n      add\n      dup1\n      dup3\n      sstore\n      dup1\n      swap2\n      pop\n      pop\n      0x01\n      swap1\n      sub\n      swap1\n      0x00\n      mstore\n      keccak256(0x00, 0x20)\n      add\n      0x00\n      swap1\n      swap2\n      swap1\n      swap2\n      swap1\n      swap2\n      0x0100\n      exp\n      dup2\n      sload\n      dup2\n      0xffffffffffffffffffffffffffffffffffffffff\n      mul\n      not\n      and\n      swap1\n      dup4\n      0xffffffffffffffffffffffffffffffffffffffff\n      and\n      mul\n      or\n      swap1\n      sstore\n      pop\n        /* \"LotteryContract.sol\":497:840  function ENTER() payable public{\r... */\n      jump\t// out\n        /* \"LotteryContract.sol\":81:103  address public manager */\n    tag_12:\n      0x00\n      dup1\n      sload\n      swap1\n      0x0100\n      exp\n      swap1\n      div\n      0xffffffffffffffffffffffffffffffffffffffff\n      and\n      dup2\n      jump\t// out\n        /* \"LotteryContract.sol\":1019:1483  function pickWinner() public{\r... */\n    tag_17:\n        /* \"LotteryContract.sol\":1084:1085  0 */\n      0x00\n        /* \"LotteryContract.sol\":1066:1073  players */\n      0x02\n        /* \"LotteryContract.sol\":1066:1080  players.length */\n      dup1\n      sload\n      swap1\n      pop\n        /* \"LotteryContract.sol\":1066:1085  players.length != 0 */\n      eq\n      iszero\n        /* \"LotteryContract.sol\":1058:1112  require(players.length != 0, \"Contest not start yet!\") */\n      tag_49\n      jumpi\n      mload(0x40)\n      0x08c379a000000000000000000000000000000000000000000000000000000000\n      dup2\n      mstore\n      0x04\n      add\n      tag_50\n      swap1\n      tag_51\n      jump\t// in\n    tag_50:\n      mload(0x40)\n      dup1\n      swap2\n      sub\n      swap1\n      revert\n    tag_49:\n        /* \"LotteryContract.sol\":1142:1152  msg.sender */\n      caller\n        /* \"LotteryContract.sol\":1131:1152  manager == msg.sender */\n      0xffffffffffffffffffffffffffffffffffffffff\n      and\n        /* \"LotteryContract.sol\":1131:1138  manager */\n      0x00\n      dup1\n      sload\n      swap1\n      0x0100\n      exp\n      swap1\n      div\n      0xffffffffffffffffffffffffffffffffffffffff\n      and\n        /* \"LotteryContract.sol\":1131:1152  manager == msg.sender */\n      0xffffffffffffffffffffffffffffffffffffffff\n      and\n      eq\n        /* \"LotteryContract.sol\":1123:1175  require(manager == msg.sender, \"You can not access\") */\n      tag_52\n      jumpi\n      mload(0x40)\n      0x08c379a000000000000000000000000000000000000000000000000000000000\n      dup2\n      mstore\n      0x04\n      add\n      tag_53\n      swap1\n      tag_54\n      jump\t// in\n    tag_53:\n      mload(0x40)\n      dup1\n      swap2\n      sub\n      swap1\n      revert\n    tag_52:\n        /* \"LotteryContract.sol\":1186:1196  uint index */\n      0x00\n        /* \"LotteryContract.sol\":1208:1215  players */\n      0x02\n        /* \"LotteryContract.sol\":1208:1222  players.length */\n      dup1\n      sload\n      swap1\n      pop\n        /* \"LotteryContract.sol\":1199:1207  random() */\n      tag_55\n        /* \"LotteryContract.sol\":1199:1205  random */\n      tag_56\n        /* \"LotteryContract.sol\":1199:1207  random() */\n      jump\t// in\n    tag_55:\n        /* \"LotteryContract.sol\":1199:1222  random()%players.length */\n      tag_57\n      swap2\n      swap1\n      tag_58\n      jump\t// in\n    tag_57:\n        /* \"LotteryContract.sol\":1186:1222  uint index = random()%players.length */\n      swap1\n      pop\n        /* \"LotteryContract.sol\":1233:1240  company */\n      0x01\n      0x00\n      swap1\n      sload\n      swap1\n      0x0100\n      exp\n      swap1\n      div\n      0xffffffffffffffffffffffffffffffffffffffff\n      and\n        /* \"LotteryContract.sol\":1233:1249  company.transfer */\n      0xffffffffffffffffffffffffffffffffffffffff\n      and\n        /* \"LotteryContract.sol\":1233:1258  company.transfer(1 ether) */\n      0x08fc\n        /* \"LotteryContract.sol\":1250:1257  1 ether */\n      0x0de0b6b3a7640000\n        /* \"LotteryContract.sol\":1233:1258  company.transfer(1 ether) */\n      swap1\n      dup2\n      iszero\n      mul\n      swap1\n      mload(0x40)\n      0x00\n      mload(0x40)\n      dup1\n      dup4\n      sub\n      dup2\n      dup6\n      dup9\n      dup9\n      call\n      swap4\n      pop\n      pop\n      pop\n      pop\n      iszero\n      dup1\n      iszero\n      tag_60\n      jumpi\n      returndatasize\n      0x00\n      dup1\n      returndatacopy\n      revert(0x00, returndatasize)\n    tag_60:\n      pop\n        /* \"LotteryContract.sol\":1330:1357  log (address(this).balance) */\n      0xf82c50f1848136e6c140b186ea0c768b7deda5efffe42c25e96336a90b26c744\n        /* \"LotteryContract.sol\":1335:1356  address(this).balance */\n      selfbalance\n        /* \"LotteryContract.sol\":1330:1357  log (address(this).balance) */\n      mload(0x40)\n      tag_61\n      swap2\n      swap1\n      tag_27\n      jump\t// in\n    tag_61:\n      mload(0x40)\n      dup1\n      swap2\n      sub\n      swap1\n      log1\n        /* \"LotteryContract.sol\":1368:1375  players */\n      0x02\n        /* \"LotteryContract.sol\":1376:1381  index */\n      dup2\n        /* \"LotteryContract.sol\":1368:1382  players[index] */\n      dup2\n      sload\n      dup2\n      lt\n      tag_62\n      jumpi\n      tag_63\n      tag_64\n      jump\t// in\n    tag_63:\n    tag_62:\n      swap1\n      0x00\n      mstore\n      keccak256(0x00, 0x20)\n      add\n      0x00\n      swap1\n      sload\n      swap1\n      0x0100\n      exp\n      swap1\n      div\n      0xffffffffffffffffffffffffffffffffffffffff\n      and\n        /* \"LotteryContract.sol\":1368:1391  players[index].transfer */\n      0xffffffffffffffffffffffffffffffffffffffff\n      and\n        /* \"LotteryContract.sol\":1368:1414  players[index].transfer(address(this).balance) */\n      0x08fc\n        /* \"LotteryContract.sol\":1392:1413  address(this).balance */\n      selfbalance\n        /* \"LotteryContract.sol\":1368:1414  players[index].transfer(address(this).balance) */\n      swap1\n      dup2\n      iszero\n      mul\n      swap1\n      mload(0x40)\n      0x00\n      mload(0x40)\n      dup1\n      dup4\n      sub\n      dup2\n      dup6\n      dup9\n      dup9\n      call\n      swap4\n      pop\n      pop\n      pop\n      pop\n      iszero\n      dup1\n      iszero\n      tag_67\n      jumpi\n      returndatasize\n      0x00\n      dup1\n      returndatacopy\n      revert(0x00, returndatasize)\n    tag_67:\n      pop\n        /* \"LotteryContract.sol\":1457:1458  0 */\n      0x00\n        /* \"LotteryContract.sol\":1435:1459  new address payable[](0) */\n      0xffffffffffffffff\n      dup2\n      gt\n      iszero\n      tag_68\n      jumpi\n      tag_69\n      tag_70\n      jump\t// in\n    tag_69:\n    tag_68:\n      mload(0x40)\n      swap1\n      dup1\n      dup3\n      mstore\n      dup1\n      0x20\n      mul\n      0x20\n      add\n      dup3\n      add\n      0x40\n      mstore\n      dup1\n      iszero\n      tag_71\n      jumpi\n      dup2\n      0x20\n      add\n      0x20\n      dup3\n      mul\n      dup1\n      calldatasize\n      dup4\n      calldatacopy\n      dup1\n      dup3\n      add\n      swap2\n      pop\n      pop\n      swap1\n      pop\n    tag_71:\n      pop\n        /* \"LotteryContract.sol\":1425:1432  players */\n      0x02\n        /* \"LotteryContract.sol\":1425:1459  players = new address payable[](0) */\n      swap1\n      dup1\n      mload\n      swap1\n      0x20\n      add\n      swap1\n      tag_72\n      swap3\n      swap2\n      swap1\n      tag_73\n      jump\t// in\n    tag_72:\n      pop\n        /* \"LotteryContract.sol\":1047:1483  {\r... */\n      pop\n        /* \"LotteryContract.sol\":1019:1483  function pickWinner() public{\r... */\n      jump\t// out\n        /* \"LotteryContract.sol\":1491:1591  function getPlayers() view public returns(address payable[] memory){\r... */\n    tag_20:\n        /* \"LotteryContract.sol\":1533:1557  address payable[] memory */\n      0x60\n        /* \"LotteryContract.sol\":1576:1583  players */\n      0x02\n        /* \"LotteryContract.sol\":1569:1583  return players */\n      dup1\n      sload\n      dup1\n      0x20\n      mul\n      0x20\n      add\n      mload(0x40)\n      swap1\n      dup2\n      add\n      0x40\n      mstore\n      dup1\n      swap3\n      swap2\n      swap1\n      dup2\n      dup2\n      mstore\n      0x20\n      add\n      dup3\n      dup1\n      sload\n      dup1\n      iszero\n      tag_75\n      jumpi\n      0x20\n      mul\n      dup3\n      add\n      swap2\n      swap1\n      0x00\n      mstore\n      keccak256(0x00, 0x20)\n      swap1\n    tag_76:\n      dup2\n      0x00\n      swap1\n      sload\n      swap1\n      0x0100\n      exp\n      swap1\n      div\n      0xffffffffffffffffffffffffffffffffffffffff\n      and\n      0xffffffffffffffffffffffffffffffffffffffff\n      and\n      dup2\n      mstore\n      0x20\n      add\n      swap1\n      0x01\n      add\n      swap1\n      dup1\n      dup4\n      gt\n      tag_76\n      jumpi\n    tag_75:\n      pop\n      pop\n      pop\n      pop\n      pop\n      swap1\n      pop\n        /* \"LotteryContract.sol\":1491:1591  function getPlayers() view public returns(address payable[] memory){\r... */\n      swap1\n      jump\t// out\n        /* \"LotteryContract.sol\":1599:1695  function checkBalance() view public returns(uint){\r... */\n    tag_25:\n        /* \"LotteryContract.sol\":1643:1647  uint */\n      0x00\n        /* \"LotteryContract.sol\":1666:1687  address(this).balance */\n      selfbalance\n        /* \"LotteryContract.sol\":1659:1687  return address(this).balance */\n      swap1\n      pop\n        /* \"LotteryContract.sol\":1599:1695  function checkBalance() view public returns(uint){\r... */\n      swap1\n      jump\t// out\n        /* \"LotteryContract.sol\":140:172  address payable[] public players */\n    tag_32:\n      0x02\n      dup2\n      dup2\n      sload\n      dup2\n      lt\n      tag_78\n      jumpi\n      0x00\n      dup1\n      revert\n    tag_78:\n      swap1\n      0x00\n      mstore\n      keccak256(0x00, 0x20)\n      add\n      0x00\n      swap2\n      pop\n      sload\n      swap1\n      0x0100\n      exp\n      swap1\n      div\n      0xffffffffffffffffffffffffffffffffffffffff\n      and\n      dup2\n      jump\t// out\n        /* \"LotteryContract.sol\":242:489  function alreadyEnter() private view returns(bool){\r... */\n    tag_40:\n        /* \"LotteryContract.sol\":287:291  bool */\n      0x00\n        /* \"LotteryContract.sol\":307:317  uint index */\n      dup1\n        /* \"LotteryContract.sol\":320:321  0 */\n      0x00\n        /* \"LotteryContract.sol\":307:321  uint index = 0 */\n      swap1\n      pop\n        /* \"LotteryContract.sol\":303:459  for(uint index = 0; index < players.length; index++){\r... */\n    tag_81:\n        /* \"LotteryContract.sol\":331:338  players */\n      0x02\n        /* \"LotteryContract.sol\":331:345  players.length */\n      dup1\n      sload\n      swap1\n      pop\n        /* \"LotteryContract.sol\":323:328  index */\n      dup2\n        /* \"LotteryContract.sol\":323:345  index < players.length */\n      lt\n        /* \"LotteryContract.sol\":303:459  for(uint index = 0; index < players.length; index++){\r... */\n      iszero\n      tag_82\n      jumpi\n        /* \"LotteryContract.sol\":391:401  msg.sender */\n      caller\n        /* \"LotteryContract.sol\":373:401  players[index] == msg.sender */\n      0xffffffffffffffffffffffffffffffffffffffff\n      and\n        /* \"LotteryContract.sol\":373:380  players */\n      0x02\n        /* \"LotteryContract.sol\":381:386  index */\n      dup3\n        /* \"LotteryContract.sol\":373:387  players[index] */\n      dup2\n      sload\n      dup2\n      lt\n      tag_84\n      jumpi\n      tag_85\n      tag_64\n      jump\t// in\n    tag_85:\n    tag_84:\n      swap1\n      0x00\n      mstore\n      keccak256(0x00, 0x20)\n      add\n      0x00\n      swap1\n      sload\n      swap1\n      0x0100\n      exp\n      swap1\n      div\n      0xffffffffffffffffffffffffffffffffffffffff\n      and\n        /* \"LotteryContract.sol\":373:401  players[index] == msg.sender */\n      0xffffffffffffffffffffffffffffffffffffffff\n      and\n      eq\n        /* \"LotteryContract.sol\":370:448  if(players[index] == msg.sender){\r... */\n      iszero\n      tag_87\n      jumpi\n        /* \"LotteryContract.sol\":428:432  true */\n      0x01\n        /* \"LotteryContract.sol\":421:432  return true */\n      swap2\n      pop\n      pop\n      jump(tag_80)\n        /* \"LotteryContract.sol\":370:448  if(players[index] == msg.sender){\r... */\n    tag_87:\n        /* \"LotteryContract.sol\":347:354  index++ */\n      dup1\n      dup1\n      tag_88\n      swap1\n      tag_89\n      jump\t// in\n    tag_88:\n      swap2\n      pop\n      pop\n        /* \"LotteryContract.sol\":303:459  for(uint index = 0; index < players.length; index++){\r... */\n      jump(tag_81)\n    tag_82:\n      pop\n        /* \"LotteryContract.sol\":476:481  false */\n      0x00\n        /* \"LotteryContract.sol\":469:481  return false */\n      swap1\n      pop\n        /* \"LotteryContract.sol\":242:489  function alreadyEnter() private view returns(bool){\r... */\n    tag_80:\n      swap1\n      jump\t// out\n        /* \"LotteryContract.sol\":848:989  function random() view private returns(uint){\r... */\n    tag_56:\n        /* \"LotteryContract.sol\":887:891  uint */\n      0x00\n        /* \"LotteryContract.sol\":915:980  sha256(abi.encodePacked(block.difficulty, block.number, players)) */\n      0x02\n        /* \"LotteryContract.sol\":939:955  block.difficulty */\n      difficulty\n        /* \"LotteryContract.sol\":957:969  block.number */\n      number\n        /* \"LotteryContract.sol\":971:978  players */\n      0x02\n        /* \"LotteryContract.sol\":922:979  abi.encodePacked(block.difficulty, block.number, players) */\n      add(0x20, mload(0x40))\n      tag_91\n      swap4\n      swap3\n      swap2\n      swap1\n      tag_92\n      jump\t// in\n    tag_91:\n      mload(0x40)\n      0x20\n      dup2\n      dup4\n      sub\n      sub\n      dup2\n      mstore\n      swap1\n      0x40\n      mstore\n        /* \"LotteryContract.sol\":915:980  sha256(abi.encodePacked(block.difficulty, block.number, players)) */\n      mload(0x40)\n      tag_93\n      swap2\n      swap1\n      tag_94\n      jump\t// in\n    tag_93:\n      0x20\n      mload(0x40)\n      dup1\n      dup4\n      sub\n      dup2\n      dup6\n      gas\n      staticcall\n      iszero\n      dup1\n      iszero\n      tag_96\n      jumpi\n      returndatasize\n      0x00\n      dup1\n      returndatacopy\n      revert(0x00, returndatasize)\n    tag_96:\n      pop\n      pop\n      pop\n      mload(0x40)\n      returndatasize\n      not(0x1f)\n      0x1f\n      dup3\n      add\n      and\n      dup3\n      add\n      dup1\n      0x40\n      mstore\n      pop\n      dup2\n      add\n      swap1\n      tag_97\n      swap2\n      swap1\n      tag_98\n      jump\t// in\n    tag_97:\n        /* \"LotteryContract.sol\":910:981  uint(sha256(abi.encodePacked(block.difficulty, block.number, players))) */\n      0x00\n      shr\n        /* \"LotteryContract.sol\":903:981  return uint(sha256(abi.encodePacked(block.difficulty, block.number, players))) */\n      swap1\n      pop\n        /* \"LotteryContract.sol\":848:989  function random() view private returns(uint){\r... */\n      swap1\n      jump\t// out\n    tag_73:\n      dup3\n      dup1\n      sload\n      dup3\n      dup3\n      sstore\n      swap1\n      0x00\n      mstore\n      keccak256(0x00, 0x20)\n      swap1\n      dup2\n      add\n      swap3\n      dup3\n      iszero\n      tag_99\n      jumpi\n      swap2\n      0x20\n      mul\n      dup3\n      add\n    tag_100:\n      dup3\n      dup2\n      gt\n      iszero\n      tag_101\n      jumpi\n      dup3\n      mload\n      dup3\n      exp(0x0100, 0x00)\n      dup2\n      sload\n      dup2\n      0xffffffffffffffffffffffffffffffffffffffff\n      mul\n      not\n      and\n      swap1\n      dup4\n      0xffffffffffffffffffffffffffffffffffffffff\n      and\n      mul\n      or\n      swap1\n      sstore\n      pop\n      swap2\n      0x20\n      add\n      swap2\n      swap1\n      0x01\n      add\n      swap1\n      jump(tag_100)\n    tag_101:\n    tag_99:\n      pop\n      swap1\n      pop\n      tag_102\n      swap2\n      swap1\n      tag_103\n      jump\t// in\n    tag_102:\n      pop\n      swap1\n      jump\t// out\n    tag_103:\n    tag_104:\n      dup1\n      dup3\n      gt\n      iszero\n      tag_105\n      jumpi\n      0x00\n      dup2\n      0x00\n      swap1\n      sstore\n      pop\n      0x01\n      add\n      jump(tag_104)\n    tag_105:\n      pop\n      swap1\n      jump\t// out\n        /* \"#utility.yul\":7:150   */\n    tag_107:\n        /* \"#utility.yul\":64:69   */\n      0x00\n        /* \"#utility.yul\":95:101   */\n      dup2\n        /* \"#utility.yul\":89:102   */\n      mload\n        /* \"#utility.yul\":80:102   */\n      swap1\n      pop\n        /* \"#utility.yul\":111:144   */\n      tag_109\n        /* \"#utility.yul\":138:143   */\n      dup2\n        /* \"#utility.yul\":111:144   */\n      tag_110\n      jump\t// in\n    tag_109:\n        /* \"#utility.yul\":7:150   */\n      swap3\n      swap2\n      pop\n      pop\n      jump\t// out\n        /* \"#utility.yul\":156:295   */\n    tag_111:\n        /* \"#utility.yul\":202:207   */\n      0x00\n        /* \"#utility.yul\":240:246   */\n      dup2\n        /* \"#utility.yul\":227:247   */\n      calldataload\n        /* \"#utility.yul\":218:247   */\n      swap1\n      pop\n        /* \"#utility.yul\":256:289   */\n      tag_113\n        /* \"#utility.yul\":283:288   */\n      dup2\n        /* \"#utility.yul\":256:289   */\n      tag_114\n      jump\t// in\n    tag_113:\n        /* \"#utility.yul\":156:295   */\n      swap3\n      swap2\n      pop\n      pop\n      jump\t// out\n        /* \"#utility.yul\":301:652   */\n    tag_98:\n        /* \"#utility.yul\":371:377   */\n      0x00\n        /* \"#utility.yul\":420:422   */\n      0x20\n        /* \"#utility.yul\":408:417   */\n      dup3\n        /* \"#utility.yul\":399:406   */\n      dup5\n        /* \"#utility.yul\":395:418   */\n      sub\n        /* \"#utility.yul\":391:423   */\n      slt\n        /* \"#utility.yul\":388:507   */\n      iszero\n      tag_116\n      jumpi\n        /* \"#utility.yul\":426:505   */\n      tag_117\n      tag_118\n      jump\t// in\n    tag_117:\n        /* \"#utility.yul\":388:507   */\n    tag_116:\n        /* \"#utility.yul\":546:547   */\n      0x00\n        /* \"#utility.yul\":571:635   */\n      tag_119\n        /* \"#utility.yul\":627:634   */\n      dup5\n        /* \"#utility.yul\":618:624   */\n      dup3\n        /* \"#utility.yul\":607:616   */\n      dup6\n        /* \"#utility.yul\":603:625   */\n      add\n        /* \"#utility.yul\":571:635   */\n      tag_107\n      jump\t// in\n    tag_119:\n        /* \"#utility.yul\":561:635   */\n      swap2\n      pop\n        /* \"#utility.yul\":517:645   */\n      pop\n        /* \"#utility.yul\":301:652   */\n      swap3\n      swap2\n      pop\n      pop\n      jump\t// out\n        /* \"#utility.yul\":658:987   */\n    tag_31:\n        /* \"#utility.yul\":717:723   */\n      0x00\n        /* \"#utility.yul\":766:768   */\n      0x20\n        /* \"#utility.yul\":754:763   */\n      dup3\n        /* \"#utility.yul\":745:752   */\n      dup5\n        /* \"#utility.yul\":741:764   */\n      sub\n        /* \"#utility.yul\":737:769   */\n      slt\n        /* \"#utility.yul\":734:853   */\n      iszero\n      tag_121\n      jumpi\n        /* \"#utility.yul\":772:851   */\n      tag_122\n      tag_118\n      jump\t// in\n    tag_122:\n        /* \"#utility.yul\":734:853   */\n    tag_121:\n        /* \"#utility.yul\":892:893   */\n      0x00\n        /* \"#utility.yul\":917:970   */\n      tag_123\n        /* \"#utility.yul\":962:969   */\n      dup5\n        /* \"#utility.yul\":953:959   */\n      dup3\n        /* \"#utility.yul\":942:951   */\n      dup6\n        /* \"#utility.yul\":938:960   */\n      add\n        /* \"#utility.yul\":917:970   */\n      tag_111\n      jump\t// in\n    tag_123:\n        /* \"#utility.yul\":907:970   */\n      swap2\n      pop\n        /* \"#utility.yul\":863:980   */\n      pop\n        /* \"#utility.yul\":658:987   */\n      swap3\n      swap2\n      pop\n      pop\n      jump\t// out\n        /* \"#utility.yul\":993:1204   */\n    tag_124:\n        /* \"#utility.yul\":1078:1088   */\n      0x00\n        /* \"#utility.yul\":1099:1161   */\n      tag_126\n        /* \"#utility.yul\":1157:1160   */\n      dup4\n        /* \"#utility.yul\":1149:1155   */\n      dup4\n        /* \"#utility.yul\":1099:1161   */\n      tag_127\n      jump\t// in\n    tag_126:\n        /* \"#utility.yul\":1193:1197   */\n      0x20\n        /* \"#utility.yul\":1188:1191   */\n      dup4\n        /* \"#utility.yul\":1184:1198   */\n      add\n        /* \"#utility.yul\":1170:1198   */\n      swap1\n      pop\n        /* \"#utility.yul\":993:1204   */\n      swap3\n      swap2\n      pop\n      pop\n      jump\t// out\n        /* \"#utility.yul\":1210:1437   */\n    tag_128:\n        /* \"#utility.yul\":1303:1313   */\n      0x00\n        /* \"#utility.yul\":1324:1394   */\n      tag_130\n        /* \"#utility.yul\":1390:1393   */\n      dup4\n        /* \"#utility.yul\":1382:1388   */\n      dup4\n        /* \"#utility.yul\":1324:1394   */\n      tag_131\n      jump\t// in\n    tag_130:\n        /* \"#utility.yul\":1426:1430   */\n      0x20\n        /* \"#utility.yul\":1421:1424   */\n      dup4\n        /* \"#utility.yul\":1417:1431   */\n      add\n        /* \"#utility.yul\":1403:1431   */\n      swap1\n      pop\n        /* \"#utility.yul\":1210:1437   */\n      swap3\n      swap2\n      pop\n      pop\n      jump\t// out\n        /* \"#utility.yul\":1443:1575   */\n    tag_127:\n        /* \"#utility.yul\":1536:1568   */\n      tag_133\n        /* \"#utility.yul\":1562:1567   */\n      dup2\n        /* \"#utility.yul\":1536:1568   */\n      tag_134\n      jump\t// in\n    tag_133:\n        /* \"#utility.yul\":1531:1534   */\n      dup3\n        /* \"#utility.yul\":1524:1569   */\n      mstore\n        /* \"#utility.yul\":1443:1575   */\n      pop\n      pop\n      jump\t// out\n        /* \"#utility.yul\":1581:1723   */\n    tag_135:\n        /* \"#utility.yul\":1684:1716   */\n      tag_137\n        /* \"#utility.yul\":1710:1715   */\n      dup2\n        /* \"#utility.yul\":1684:1716   */\n      tag_134\n      jump\t// in\n    tag_137:\n        /* \"#utility.yul\":1679:1682   */\n      dup3\n        /* \"#utility.yul\":1672:1717   */\n      mstore\n        /* \"#utility.yul\":1581:1723   */\n      pop\n      pop\n      jump\t// out\n        /* \"#utility.yul\":1729:1869   */\n    tag_131:\n        /* \"#utility.yul\":1830:1862   */\n      tag_139\n        /* \"#utility.yul\":1856:1861   */\n      dup2\n        /* \"#utility.yul\":1830:1862   */\n      tag_134\n      jump\t// in\n    tag_139:\n        /* \"#utility.yul\":1825:1828   */\n      dup3\n        /* \"#utility.yul\":1818:1863   */\n      mstore\n        /* \"#utility.yul\":1729:1869   */\n      pop\n      pop\n      jump\t// out\n        /* \"#utility.yul\":1875:1993   */\n    tag_140:\n        /* \"#utility.yul\":1962:1986   */\n      tag_142\n        /* \"#utility.yul\":1980:1985   */\n      dup2\n        /* \"#utility.yul\":1962:1986   */\n      tag_143\n      jump\t// in\n    tag_142:\n        /* \"#utility.yul\":1957:1960   */\n      dup3\n        /* \"#utility.yul\":1950:1987   */\n      mstore\n        /* \"#utility.yul\":1875:1993   */\n      pop\n      pop\n      jump\t// out\n        /* \"#utility.yul\":2045:2841   */\n    tag_144:\n        /* \"#utility.yul\":2180:2183   */\n      0x00\n        /* \"#utility.yul\":2209:2271   */\n      tag_146\n        /* \"#utility.yul\":2265:2270   */\n      dup3\n        /* \"#utility.yul\":2209:2271   */\n      tag_147\n      jump\t// in\n    tag_146:\n        /* \"#utility.yul\":2287:2381   */\n      tag_148\n        /* \"#utility.yul\":2374:2380   */\n      dup2\n        /* \"#utility.yul\":2369:2372   */\n      dup6\n        /* \"#utility.yul\":2287:2381   */\n      tag_149\n      jump\t// in\n    tag_148:\n        /* \"#utility.yul\":2280:2381   */\n      swap4\n      pop\n        /* \"#utility.yul\":2405:2469   */\n      tag_150\n        /* \"#utility.yul\":2463:2468   */\n      dup4\n        /* \"#utility.yul\":2405:2469   */\n      tag_151\n      jump\t// in\n    tag_150:\n        /* \"#utility.yul\":2492:2499   */\n      dup1\n        /* \"#utility.yul\":2523:2524   */\n      0x00\n        /* \"#utility.yul\":2508:2816   */\n    tag_152:\n        /* \"#utility.yul\":2533:2539   */\n      dup4\n        /* \"#utility.yul\":2530:2531   */\n      dup2\n        /* \"#utility.yul\":2527:2540   */\n      lt\n        /* \"#utility.yul\":2508:2816   */\n      iszero\n      tag_154\n      jumpi\n        /* \"#utility.yul\":2609:2615   */\n      dup2\n        /* \"#utility.yul\":2603:2616   */\n      mload\n        /* \"#utility.yul\":2636:2715   */\n      tag_155\n        /* \"#utility.yul\":2711:2714   */\n      dup9\n        /* \"#utility.yul\":2696:2709   */\n      dup3\n        /* \"#utility.yul\":2636:2715   */\n      tag_124\n      jump\t// in\n    tag_155:\n        /* \"#utility.yul\":2629:2715   */\n      swap8\n      pop\n        /* \"#utility.yul\":2738:2806   */\n      tag_156\n        /* \"#utility.yul\":2799:2805   */\n      dup4\n        /* \"#utility.yul\":2738:2806   */\n      tag_157\n      jump\t// in\n    tag_156:\n        /* \"#utility.yul\":2728:2806   */\n      swap3\n      pop\n        /* \"#utility.yul\":2568:2816   */\n      pop\n        /* \"#utility.yul\":2555:2556   */\n      0x01\n        /* \"#utility.yul\":2552:2553   */\n      dup2\n        /* \"#utility.yul\":2548:2557   */\n      add\n        /* \"#utility.yul\":2543:2557   */\n      swap1\n      pop\n        /* \"#utility.yul\":2508:2816   */\n      jump(tag_152)\n    tag_154:\n        /* \"#utility.yul\":2512:2526   */\n      pop\n        /* \"#utility.yul\":2832:2835   */\n      dup6\n        /* \"#utility.yul\":2825:2835   */\n      swap4\n      pop\n        /* \"#utility.yul\":2185:2841   */\n      pop\n      pop\n      pop\n        /* \"#utility.yul\":2045:2841   */\n      swap3\n      swap2\n      pop\n      pop\n      jump\t// out\n        /* \"#utility.yul\":2893:3760   */\n    tag_158:\n        /* \"#utility.yul\":3043:3046   */\n      0x00\n        /* \"#utility.yul\":3072:3131   */\n      tag_160\n        /* \"#utility.yul\":3125:3130   */\n      dup3\n        /* \"#utility.yul\":3072:3131   */\n      tag_161\n      jump\t// in\n    tag_160:\n        /* \"#utility.yul\":3147:3259   */\n      tag_162\n        /* \"#utility.yul\":3252:3258   */\n      dup2\n        /* \"#utility.yul\":3247:3250   */\n      dup6\n        /* \"#utility.yul\":3147:3259   */\n      tag_163\n      jump\t// in\n    tag_162:\n        /* \"#utility.yul\":3140:3259   */\n      swap4\n      pop\n        /* \"#utility.yul\":3283:3344   */\n      tag_164\n        /* \"#utility.yul\":3338:3343   */\n      dup4\n        /* \"#utility.yul\":3283:3344   */\n      tag_165\n      jump\t// in\n    tag_164:\n        /* \"#utility.yul\":3367:3374   */\n      dup1\n        /* \"#utility.yul\":3398:3399   */\n      0x00\n        /* \"#utility.yul\":3383:3735   */\n    tag_166:\n        /* \"#utility.yul\":3408:3414   */\n      dup4\n        /* \"#utility.yul\":3405:3406   */\n      dup2\n        /* \"#utility.yul\":3402:3415   */\n      lt\n        /* \"#utility.yul\":3383:3735   */\n      iszero\n      tag_168\n      jumpi\n        /* \"#utility.yul\":3478:3530   */\n      tag_169\n        /* \"#utility.yul\":3523:3529   */\n      dup3\n        /* \"#utility.yul\":3478:3530   */\n      tag_170\n      jump\t// in\n    tag_169:\n        /* \"#utility.yul\":3550:3637   */\n      tag_171\n        /* \"#utility.yul\":3633:3636   */\n      dup9\n        /* \"#utility.yul\":3618:3631   */\n      dup3\n        /* \"#utility.yul\":3550:3637   */\n      tag_128\n      jump\t// in\n    tag_171:\n        /* \"#utility.yul\":3543:3637   */\n      swap8\n      pop\n        /* \"#utility.yul\":3660:3725   */\n      tag_172\n        /* \"#utility.yul\":3718:3724   */\n      dup4\n        /* \"#utility.yul\":3660:3725   */\n      tag_173\n      jump\t// in\n    tag_172:\n        /* \"#utility.yul\":3650:3725   */\n      swap3\n      pop\n        /* \"#utility.yul\":3443:3735   */\n      pop\n        /* \"#utility.yul\":3430:3431   */\n      0x01\n        /* \"#utility.yul\":3427:3428   */\n      dup2\n        /* \"#utility.yul\":3423:3432   */\n      add\n        /* \"#utility.yul\":3418:3432   */\n      swap1\n      pop\n        /* \"#utility.yul\":3383:3735   */\n      jump(tag_166)\n    tag_168:\n        /* \"#utility.yul\":3387:3401   */\n      pop\n        /* \"#utility.yul\":3751:3754   */\n      dup6\n        /* \"#utility.yul\":3744:3754   */\n      swap4\n      pop\n        /* \"#utility.yul\":3048:3760   */\n      pop\n      pop\n      pop\n        /* \"#utility.yul\":2893:3760   */\n      swap3\n      swap2\n      pop\n      pop\n      jump\t// out\n        /* \"#utility.yul\":3766:4139   */\n    tag_174:\n        /* \"#utility.yul\":3870:3873   */\n      0x00\n        /* \"#utility.yul\":3898:3936   */\n      tag_176\n        /* \"#utility.yul\":3930:3935   */\n      dup3\n        /* \"#utility.yul\":3898:3936   */\n      tag_177\n      jump\t// in\n    tag_176:\n        /* \"#utility.yul\":3952:4040   */\n      tag_178\n        /* \"#utility.yul\":4033:4039   */\n      dup2\n        /* \"#utility.yul\":4028:4031   */\n      dup6\n        /* \"#utility.yul\":3952:4040   */\n      tag_179\n      jump\t// in\n    tag_178:\n        /* \"#utility.yul\":3945:4040   */\n      swap4\n      pop\n        /* \"#utility.yul\":4049:4101   */\n      tag_180\n        /* \"#utility.yul\":4094:4100   */\n      dup2\n        /* \"#utility.yul\":4089:4092   */\n      dup6\n        /* \"#utility.yul\":4082:4086   */\n      0x20\n        /* \"#utility.yul\":4075:4080   */\n      dup7\n        /* \"#utility.yul\":4071:4087   */\n      add\n        /* \"#utility.yul\":4049:4101   */\n      tag_181\n      jump\t// in\n    tag_180:\n        /* \"#utility.yul\":4126:4132   */\n      dup1\n        /* \"#utility.yul\":4121:4124   */\n      dup5\n        /* \"#utility.yul\":4117:4133   */\n      add\n        /* \"#utility.yul\":4110:4133   */\n      swap2\n      pop\n        /* \"#utility.yul\":3874:4139   */\n      pop\n        /* \"#utility.yul\":3766:4139   */\n      swap3\n      swap2\n      pop\n      pop\n      jump\t// out\n        /* \"#utility.yul\":4145:4511   */\n    tag_182:\n        /* \"#utility.yul\":4287:4290   */\n      0x00\n        /* \"#utility.yul\":4308:4375   */\n      tag_184\n        /* \"#utility.yul\":4372:4374   */\n      0x12\n        /* \"#utility.yul\":4367:4370   */\n      dup4\n        /* \"#utility.yul\":4308:4375   */\n      tag_185\n      jump\t// in\n    tag_184:\n        /* \"#utility.yul\":4301:4375   */\n      swap2\n      pop\n        /* \"#utility.yul\":4384:4477   */\n      tag_186\n        /* \"#utility.yul\":4473:4476   */\n      dup3\n        /* \"#utility.yul\":4384:4477   */\n      tag_187\n      jump\t// in\n    tag_186:\n        /* \"#utility.yul\":4502:4504   */\n      0x20\n        /* \"#utility.yul\":4497:4500   */\n      dup3\n        /* \"#utility.yul\":4493:4505   */\n      add\n        /* \"#utility.yul\":4486:4505   */\n      swap1\n      pop\n        /* \"#utility.yul\":4145:4511   */\n      swap2\n      swap1\n      pop\n      jump\t// out\n        /* \"#utility.yul\":4517:4883   */\n    tag_188:\n        /* \"#utility.yul\":4659:4662   */\n      0x00\n        /* \"#utility.yul\":4680:4747   */\n      tag_190\n        /* \"#utility.yul\":4744:4746   */\n      0x1f\n        /* \"#utility.yul\":4739:4742   */\n      dup4\n        /* \"#utility.yul\":4680:4747   */\n      tag_185\n      jump\t// in\n    tag_190:\n        /* \"#utility.yul\":4673:4747   */\n      swap2\n      pop\n        /* \"#utility.yul\":4756:4849   */\n      tag_191\n        /* \"#utility.yul\":4845:4848   */\n      dup3\n        /* \"#utility.yul\":4756:4849   */\n      tag_192\n      jump\t// in\n    tag_191:\n        /* \"#utility.yul\":4874:4876   */\n      0x20\n        /* \"#utility.yul\":4869:4872   */\n      dup3\n        /* \"#utility.yul\":4865:4877   */\n      add\n        /* \"#utility.yul\":4858:4877   */\n      swap1\n      pop\n        /* \"#utility.yul\":4517:4883   */\n      swap2\n      swap1\n      pop\n      jump\t// out\n        /* \"#utility.yul\":4889:5255   */\n    tag_193:\n        /* \"#utility.yul\":5031:5034   */\n      0x00\n        /* \"#utility.yul\":5052:5119   */\n      tag_195\n        /* \"#utility.yul\":5116:5118   */\n      0x2a\n        /* \"#utility.yul\":5111:5114   */\n      dup4\n        /* \"#utility.yul\":5052:5119   */\n      tag_185\n      jump\t// in\n    tag_195:\n        /* \"#utility.yul\":5045:5119   */\n      swap2\n      pop\n        /* \"#utility.yul\":5128:5221   */\n      tag_196\n        /* \"#utility.yul\":5217:5220   */\n      dup3\n        /* \"#utility.yul\":5128:5221   */\n      tag_197\n      jump\t// in\n    tag_196:\n        /* \"#utility.yul\":5246:5248   */\n      0x40\n        /* \"#utility.yul\":5241:5244   */\n      dup3\n        /* \"#utility.yul\":5237:5249   */\n      add\n        /* \"#utility.yul\":5230:5249   */\n      swap1\n      pop\n        /* \"#utility.yul\":4889:5255   */\n      swap2\n      swap1\n      pop\n      jump\t// out\n        /* \"#utility.yul\":5261:5627   */\n    tag_198:\n        /* \"#utility.yul\":5403:5406   */\n      0x00\n        /* \"#utility.yul\":5424:5491   */\n      tag_200\n        /* \"#utility.yul\":5488:5490   */\n      0x16\n        /* \"#utility.yul\":5483:5486   */\n      dup4\n        /* \"#utility.yul\":5424:5491   */\n      tag_185\n      jump\t// in\n    tag_200:\n        /* \"#utility.yul\":5417:5491   */\n      swap2\n      pop\n        /* \"#utility.yul\":5500:5593   */\n      tag_201\n        /* \"#utility.yul\":5589:5592   */\n      dup3\n        /* \"#utility.yul\":5500:5593   */\n      tag_202\n      jump\t// in\n    tag_201:\n        /* \"#utility.yul\":5618:5620   */\n      0x20\n        /* \"#utility.yul\":5613:5616   */\n      dup3\n        /* \"#utility.yul\":5609:5621   */\n      add\n        /* \"#utility.yul\":5602:5621   */\n      swap1\n      pop\n        /* \"#utility.yul\":5261:5627   */\n      swap2\n      swap1\n      pop\n      jump\t// out\n        /* \"#utility.yul\":5633:5999   */\n    tag_203:\n        /* \"#utility.yul\":5775:5778   */\n      0x00\n        /* \"#utility.yul\":5796:5863   */\n      tag_205\n        /* \"#utility.yul\":5860:5862   */\n      0x33\n        /* \"#utility.yul\":5855:5858   */\n      dup4\n        /* \"#utility.yul\":5796:5863   */\n      tag_185\n      jump\t// in\n    tag_205:\n        /* \"#utility.yul\":5789:5863   */\n      swap2\n      pop\n        /* \"#utility.yul\":5872:5965   */\n      tag_206\n        /* \"#utility.yul\":5961:5964   */\n      dup3\n        /* \"#utility.yul\":5872:5965   */\n      tag_207\n      jump\t// in\n    tag_206:\n        /* \"#utility.yul\":5990:5992   */\n      0x40\n        /* \"#utility.yul\":5985:5988   */\n      dup3\n        /* \"#utility.yul\":5981:5993   */\n      add\n        /* \"#utility.yul\":5974:5993   */\n      swap1\n      pop\n        /* \"#utility.yul\":5633:5999   */\n      swap2\n      swap1\n      pop\n      jump\t// out\n        /* \"#utility.yul\":6005:6123   */\n    tag_208:\n        /* \"#utility.yul\":6092:6116   */\n      tag_210\n        /* \"#utility.yul\":6110:6115   */\n      dup2\n        /* \"#utility.yul\":6092:6116   */\n      tag_211\n      jump\t// in\n    tag_210:\n        /* \"#utility.yul\":6087:6090   */\n      dup3\n        /* \"#utility.yul\":6080:6117   */\n      mstore\n        /* \"#utility.yul\":6005:6123   */\n      pop\n      pop\n      jump\t// out\n        /* \"#utility.yul\":6129:6286   */\n    tag_212:\n        /* \"#utility.yul\":6234:6279   */\n      tag_214\n        /* \"#utility.yul\":6254:6278   */\n      tag_215\n        /* \"#utility.yul\":6272:6277   */\n      dup3\n        /* \"#utility.yul\":6254:6278   */\n      tag_211\n      jump\t// in\n    tag_215:\n        /* \"#utility.yul\":6234:6279   */\n      tag_216\n      jump\t// in\n    tag_214:\n        /* \"#utility.yul\":6229:6232   */\n      dup3\n        /* \"#utility.yul\":6222:6280   */\n      mstore\n        /* \"#utility.yul\":6129:6286   */\n      pop\n      pop\n      jump\t// out\n        /* \"#utility.yul\":6292:6563   */\n    tag_94:\n        /* \"#utility.yul\":6422:6425   */\n      0x00\n        /* \"#utility.yul\":6444:6537   */\n      tag_218\n        /* \"#utility.yul\":6533:6536   */\n      dup3\n        /* \"#utility.yul\":6524:6530   */\n      dup5\n        /* \"#utility.yul\":6444:6537   */\n      tag_174\n      jump\t// in\n    tag_218:\n        /* \"#utility.yul\":6437:6537   */\n      swap2\n      pop\n        /* \"#utility.yul\":6554:6557   */\n      dup2\n        /* \"#utility.yul\":6547:6557   */\n      swap1\n      pop\n        /* \"#utility.yul\":6292:6563   */\n      swap3\n      swap2\n      pop\n      pop\n      jump\t// out\n        /* \"#utility.yul\":6569:7212   */\n    tag_92:\n        /* \"#utility.yul\":6800:6803   */\n      0x00\n        /* \"#utility.yul\":6815:6890   */\n      tag_220\n        /* \"#utility.yul\":6886:6889   */\n      dup3\n        /* \"#utility.yul\":6877:6883   */\n      dup7\n        /* \"#utility.yul\":6815:6890   */\n      tag_212\n      jump\t// in\n    tag_220:\n        /* \"#utility.yul\":6915:6917   */\n      0x20\n        /* \"#utility.yul\":6910:6913   */\n      dup3\n        /* \"#utility.yul\":6906:6918   */\n      add\n        /* \"#utility.yul\":6899:6918   */\n      swap2\n      pop\n        /* \"#utility.yul\":6928:7003   */\n      tag_221\n        /* \"#utility.yul\":6999:7002   */\n      dup3\n        /* \"#utility.yul\":6990:6996   */\n      dup6\n        /* \"#utility.yul\":6928:7003   */\n      tag_212\n      jump\t// in\n    tag_221:\n        /* \"#utility.yul\":7028:7030   */\n      0x20\n        /* \"#utility.yul\":7023:7026   */\n      dup3\n        /* \"#utility.yul\":7019:7031   */\n      add\n        /* \"#utility.yul\":7012:7031   */\n      swap2\n      pop\n        /* \"#utility.yul\":7048:7186   */\n      tag_222\n        /* \"#utility.yul\":7182:7185   */\n      dup3\n        /* \"#utility.yul\":7173:7179   */\n      dup5\n        /* \"#utility.yul\":7048:7186   */\n      tag_158\n      jump\t// in\n    tag_222:\n        /* \"#utility.yul\":7041:7186   */\n      swap2\n      pop\n        /* \"#utility.yul\":7203:7206   */\n      dup2\n        /* \"#utility.yul\":7196:7206   */\n      swap1\n      pop\n        /* \"#utility.yul\":6569:7212   */\n      swap5\n      swap4\n      pop\n      pop\n      pop\n      pop\n      jump\t// out\n        /* \"#utility.yul\":7218:7440   */\n    tag_14:\n        /* \"#utility.yul\":7311:7315   */\n      0x00\n        /* \"#utility.yul\":7349:7351   */\n      0x20\n        /* \"#utility.yul\":7338:7347   */\n      dup3\n        /* \"#utility.yul\":7334:7352   */\n      add\n        /* \"#utility.yul\":7326:7352   */\n      swap1\n      pop\n        /* \"#utility.yul\":7362:7433   */\n      tag_224\n        /* \"#utility.yul\":7430:7431   */\n      0x00\n        /* \"#utility.yul\":7419:7428   */\n      dup4\n        /* \"#utility.yul\":7415:7432   */\n      add\n        /* \"#utility.yul\":7406:7412   */\n      dup5\n        /* \"#utility.yul\":7362:7433   */\n      tag_140\n      jump\t// in\n    tag_224:\n        /* \"#utility.yul\":7218:7440   */\n      swap3\n      swap2\n      pop\n      pop\n      jump\t// out\n        /* \"#utility.yul\":7446:7700   */\n    tag_34:\n        /* \"#utility.yul\":7555:7559   */\n      0x00\n        /* \"#utility.yul\":7593:7595   */\n      0x20\n        /* \"#utility.yul\":7582:7591   */\n      dup3\n        /* \"#utility.yul\":7578:7596   */\n      add\n        /* \"#utility.yul\":7570:7596   */\n      swap1\n      pop\n        /* \"#utility.yul\":7606:7693   */\n      tag_226\n        /* \"#utility.yul\":7690:7691   */\n      0x00\n        /* \"#utility.yul\":7679:7688   */\n      dup4\n        /* \"#utility.yul\":7675:7692   */\n      add\n        /* \"#utility.yul\":7666:7672   */\n      dup5\n        /* \"#utility.yul\":7606:7693   */\n      tag_135\n      jump\t// in\n    tag_226:\n        /* \"#utility.yul\":7446:7700   */\n      swap3\n      swap2\n      pop\n      pop\n      jump\t// out\n        /* \"#utility.yul\":7706:8111   */\n    tag_22:\n        /* \"#utility.yul\":7865:7869   */\n      0x00\n        /* \"#utility.yul\":7903:7905   */\n      0x20\n        /* \"#utility.yul\":7892:7901   */\n      dup3\n        /* \"#utility.yul\":7888:7906   */\n      add\n        /* \"#utility.yul\":7880:7906   */\n      swap1\n      pop\n        /* \"#utility.yul\":7952:7961   */\n      dup2\n        /* \"#utility.yul\":7946:7950   */\n      dup2\n        /* \"#utility.yul\":7942:7962   */\n      sub\n        /* \"#utility.yul\":7938:7939   */\n      0x00\n        /* \"#utility.yul\":7927:7936   */\n      dup4\n        /* \"#utility.yul\":7923:7940   */\n      add\n        /* \"#utility.yul\":7916:7963   */\n      mstore\n        /* \"#utility.yul\":7980:8104   */\n      tag_228\n        /* \"#utility.yul\":8099:8103   */\n      dup2\n        /* \"#utility.yul\":8090:8096   */\n      dup5\n        /* \"#utility.yul\":7980:8104   */\n      tag_144\n      jump\t// in\n    tag_228:\n        /* \"#utility.yul\":7972:8104   */\n      swap1\n      pop\n        /* \"#utility.yul\":7706:8111   */\n      swap3\n      swap2\n      pop\n      pop\n      jump\t// out\n        /* \"#utility.yul\":8117:8536   */\n    tag_54:\n        /* \"#utility.yul\":8283:8287   */\n      0x00\n        /* \"#utility.yul\":8321:8323   */\n      0x20\n        /* \"#utility.yul\":8310:8319   */\n      dup3\n        /* \"#utility.yul\":8306:8324   */\n      add\n        /* \"#utility.yul\":8298:8324   */\n      swap1\n      pop\n        /* \"#utility.yul\":8370:8379   */\n      dup2\n        /* \"#utility.yul\":8364:8368   */\n      dup2\n        /* \"#utility.yul\":8360:8380   */\n      sub\n        /* \"#utility.yul\":8356:8357   */\n      0x00\n        /* \"#utility.yul\":8345:8354   */\n      dup4\n        /* \"#utility.yul\":8341:8358   */\n      add\n        /* \"#utility.yul\":8334:8381   */\n      mstore\n        /* \"#utility.yul\":8398:8529   */\n      tag_230\n        /* \"#utility.yul\":8524:8528   */\n      dup2\n        /* \"#utility.yul\":8398:8529   */\n      tag_182\n      jump\t// in\n    tag_230:\n        /* \"#utility.yul\":8390:8529   */\n      swap1\n      pop\n        /* \"#utility.yul\":8117:8536   */\n      swap2\n      swap1\n      pop\n      jump\t// out\n        /* \"#utility.yul\":8542:8961   */\n    tag_43:\n        /* \"#utility.yul\":8708:8712   */\n      0x00\n        /* \"#utility.yul\":8746:8748   */\n      0x20\n        /* \"#utility.yul\":8735:8744   */\n      dup3\n        /* \"#utility.yul\":8731:8749   */\n      add\n        /* \"#utility.yul\":8723:8749   */\n      swap1\n      pop\n        /* \"#utility.yul\":8795:8804   */\n      dup2\n        /* \"#utility.yul\":8789:8793   */\n      dup2\n        /* \"#utility.yul\":8785:8805   */\n      sub\n        /* \"#utility.yul\":8781:8782   */\n      0x00\n        /* \"#utility.yul\":8770:8779   */\n      dup4\n        /* \"#utility.yul\":8766:8783   */\n      add\n        /* \"#utility.yul\":8759:8806   */\n      mstore\n        /* \"#utility.yul\":8823:8954   */\n      tag_232\n        /* \"#utility.yul\":8949:8953   */\n      dup2\n        /* \"#utility.yul\":8823:8954   */\n      tag_188\n      jump\t// in\n    tag_232:\n        /* \"#utility.yul\":8815:8954   */\n      swap1\n      pop\n        /* \"#utility.yul\":8542:8961   */\n      swap2\n      swap1\n      pop\n      jump\t// out\n        /* \"#utility.yul\":8967:9386   */\n    tag_38:\n        /* \"#utility.yul\":9133:9137   */\n      0x00\n        /* \"#utility.yul\":9171:9173   */\n      0x20\n        /* \"#utility.yul\":9160:9169   */\n      dup3\n        /* \"#utility.yul\":9156:9174   */\n      add\n        /* \"#utility.yul\":9148:9174   */\n      swap1\n      pop\n        /* \"#utility.yul\":9220:9229   */\n      dup2\n        /* \"#utility.yul\":9214:9218   */\n      dup2\n        /* \"#utility.yul\":9210:9230   */\n      sub\n        /* \"#utility.yul\":9206:9207   */\n      0x00\n        /* \"#utility.yul\":9195:9204   */\n      dup4\n        /* \"#utility.yul\":9191:9208   */\n      add\n        /* \"#utility.yul\":9184:9231   */\n      mstore\n        /* \"#utility.yul\":9248:9379   */\n      tag_234\n        /* \"#utility.yul\":9374:9378   */\n      dup2\n        /* \"#utility.yul\":9248:9379   */\n      tag_193\n      jump\t// in\n    tag_234:\n        /* \"#utility.yul\":9240:9379   */\n      swap1\n      pop\n        /* \"#utility.yul\":8967:9386   */\n      swap2\n      swap1\n      pop\n      jump\t// out\n        /* \"#utility.yul\":9392:9811   */\n    tag_51:\n        /* \"#utility.yul\":9558:9562   */\n      0x00\n        /* \"#utility.yul\":9596:9598   */\n      0x20\n        /* \"#utility.yul\":9585:9594   */\n      dup3\n        /* \"#utility.yul\":9581:9599   */\n      add\n        /* \"#utility.yul\":9573:9599   */\n      swap1\n      pop\n        /* \"#utility.yul\":9645:9654   */\n      dup2\n        /* \"#utility.yul\":9639:9643   */\n      dup2\n        /* \"#utility.yul\":9635:9655   */\n      sub\n        /* \"#utility.yul\":9631:9632   */\n      0x00\n        /* \"#utility.yul\":9620:9629   */\n      dup4\n        /* \"#utility.yul\":9616:9633   */\n      add\n        /* \"#utility.yul\":9609:9656   */\n      mstore\n        /* \"#utility.yul\":9673:9804   */\n      tag_236\n        /* \"#utility.yul\":9799:9803   */\n      dup2\n        /* \"#utility.yul\":9673:9804   */\n      tag_198\n      jump\t// in\n    tag_236:\n        /* \"#utility.yul\":9665:9804   */\n      swap1\n      pop\n        /* \"#utility.yul\":9392:9811   */\n      swap2\n      swap1\n      pop\n      jump\t// out\n        /* \"#utility.yul\":9817:10236   */\n    tag_46:\n        /* \"#utility.yul\":9983:9987   */\n      0x00\n        /* \"#utility.yul\":10021:10023   */\n      0x20\n        /* \"#utility.yul\":10010:10019   */\n      dup3\n        /* \"#utility.yul\":10006:10024   */\n      add\n        /* \"#utility.yul\":9998:10024   */\n      swap1\n      pop\n        /* \"#utility.yul\":10070:10079   */\n      dup2\n        /* \"#utility.yul\":10064:10068   */\n      dup2\n        /* \"#utility.yul\":10060:10080   */\n      sub\n        /* \"#utility.yul\":10056:10057   */\n      0x00\n        /* \"#utility.yul\":10045:10054   */\n      dup4\n        /* \"#utility.yul\":10041:10058   */\n      add\n        /* \"#utility.yul\":10034:10081   */\n      mstore\n        /* \"#utility.yul\":10098:10229   */\n      tag_238\n        /* \"#utility.yul\":10224:10228   */\n      dup2\n        /* \"#utility.yul\":10098:10229   */\n      tag_203\n      jump\t// in\n    tag_238:\n        /* \"#utility.yul\":10090:10229   */\n      swap1\n      pop\n        /* \"#utility.yul\":9817:10236   */\n      swap2\n      swap1\n      pop\n      jump\t// out\n        /* \"#utility.yul\":10242:10464   */\n    tag_27:\n        /* \"#utility.yul\":10335:10339   */\n      0x00\n        /* \"#utility.yul\":10373:10375   */\n      0x20\n        /* \"#utility.yul\":10362:10371   */\n      dup3\n        /* \"#utility.yul\":10358:10376   */\n      add\n        /* \"#utility.yul\":10350:10376   */\n      swap1\n      pop\n        /* \"#utility.yul\":10386:10457   */\n      tag_240\n        /* \"#utility.yul\":10454:10455   */\n      0x00\n        /* \"#utility.yul\":10443:10452   */\n      dup4\n        /* \"#utility.yul\":10439:10456   */\n      add\n        /* \"#utility.yul\":10430:10436   */\n      dup5\n        /* \"#utility.yul\":10386:10457   */\n      tag_208\n      jump\t// in\n    tag_240:\n        /* \"#utility.yul\":10242:10464   */\n      swap3\n      swap2\n      pop\n      pop\n      jump\t// out\n        /* \"#utility.yul\":10551:10691   */\n    tag_151:\n        /* \"#utility.yul\":10626:10630   */\n      0x00\n        /* \"#utility.yul\":10649:10652   */\n      dup2\n        /* \"#utility.yul\":10641:10652   */\n      swap1\n      pop\n        /* \"#utility.yul\":10679:10683   */\n      0x20\n        /* \"#utility.yul\":10674:10677   */\n      dup3\n        /* \"#utility.yul\":10670:10684   */\n      add\n        /* \"#utility.yul\":10662:10684   */\n      swap1\n      pop\n        /* \"#utility.yul\":10551:10691   */\n      swap2\n      swap1\n      pop\n      jump\t// out\n        /* \"#utility.yul\":10697:10861   */\n    tag_165:\n        /* \"#utility.yul\":10769:10773   */\n      0x00\n        /* \"#utility.yul\":10792:10795   */\n      dup2\n        /* \"#utility.yul\":10784:10795   */\n      swap1\n      pop\n        /* \"#utility.yul\":10815:10818   */\n      dup2\n        /* \"#utility.yul\":10812:10813   */\n      0x00\n        /* \"#utility.yul\":10805:10819   */\n      mstore\n        /* \"#utility.yul\":10849:10853   */\n      0x20\n        /* \"#utility.yul\":10846:10847   */\n      0x00\n        /* \"#utility.yul\":10836:10854   */\n      keccak256\n        /* \"#utility.yul\":10828:10854   */\n      swap1\n      pop\n        /* \"#utility.yul\":10697:10861   */\n      swap2\n      swap1\n      pop\n      jump\t// out\n        /* \"#utility.yul\":10867:10989   */\n    tag_147:\n        /* \"#utility.yul\":10942:10948   */\n      0x00\n        /* \"#utility.yul\":10976:10981   */\n      dup2\n        /* \"#utility.yul\":10970:10982   */\n      mload\n        /* \"#utility.yul\":10960:10982   */\n      swap1\n      pop\n        /* \"#utility.yul\":10867:10989   */\n      swap2\n      swap1\n      pop\n      jump\t// out\n        /* \"#utility.yul\":10995:11114   */\n    tag_161:\n        /* \"#utility.yul\":11067:11073   */\n      0x00\n        /* \"#utility.yul\":11101:11106   */\n      dup2\n        /* \"#utility.yul\":11095:11107   */\n      sload\n        /* \"#utility.yul\":11085:11107   */\n      swap1\n      pop\n        /* \"#utility.yul\":10995:11114   */\n      swap2\n      swap1\n      pop\n      jump\t// out\n        /* \"#utility.yul\":11120:11218   */\n    tag_177:\n        /* \"#utility.yul\":11171:11177   */\n      0x00\n        /* \"#utility.yul\":11205:11210   */\n      dup2\n        /* \"#utility.yul\":11199:11211   */\n      mload\n        /* \"#utility.yul\":11189:11211   */\n      swap1\n      pop\n        /* \"#utility.yul\":11120:11218   */\n      swap2\n      swap1\n      pop\n      jump\t// out\n        /* \"#utility.yul\":11224:11345   */\n    tag_157:\n        /* \"#utility.yul\":11302:11306   */\n      0x00\n        /* \"#utility.yul\":11334:11338   */\n      0x20\n        /* \"#utility.yul\":11329:11332   */\n      dup3\n        /* \"#utility.yul\":11325:11339   */\n      add\n        /* \"#utility.yul\":11317:11339   */\n      swap1\n      pop\n        /* \"#utility.yul\":11224:11345   */\n      swap2\n      swap1\n      pop\n      jump\t// out\n        /* \"#utility.yul\":11351:11469   */\n    tag_173:\n        /* \"#utility.yul\":11426:11430   */\n      0x00\n        /* \"#utility.yul\":11458:11462   */\n      0x01\n        /* \"#utility.yul\":11453:11456   */\n      dup3\n        /* \"#utility.yul\":11449:11463   */\n      add\n        /* \"#utility.yul\":11441:11463   */\n      swap1\n      pop\n        /* \"#utility.yul\":11351:11469   */\n      swap2\n      swap1\n      pop\n      jump\t// out\n        /* \"#utility.yul\":11475:11667   */\n    tag_149:\n        /* \"#utility.yul\":11582:11593   */\n      0x00\n        /* \"#utility.yul\":11616:11622   */\n      dup3\n        /* \"#utility.yul\":11611:11614   */\n      dup3\n        /* \"#utility.yul\":11604:11623   */\n      mstore\n        /* \"#utility.yul\":11656:11660   */\n      0x20\n        /* \"#utility.yul\":11651:11654   */\n      dup3\n        /* \"#utility.yul\":11647:11661   */\n      add\n        /* \"#utility.yul\":11632:11661   */\n      swap1\n      pop\n        /* \"#utility.yul\":11475:11667   */\n      swap3\n      swap2\n      pop\n      pop\n      jump\t// out\n        /* \"#utility.yul\":11673:11844   */\n    tag_163:\n        /* \"#utility.yul\":11798:11809   */\n      0x00\n        /* \"#utility.yul\":11835:11838   */\n      dup2\n        /* \"#utility.yul\":11820:11838   */\n      swap1\n      pop\n        /* \"#utility.yul\":11673:11844   */\n      swap3\n      swap2\n      pop\n      pop\n      jump\t// out\n        /* \"#utility.yul\":11850:11997   */\n    tag_179:\n        /* \"#utility.yul\":11951:11962   */\n      0x00\n        /* \"#utility.yul\":11988:11991   */\n      dup2\n        /* \"#utility.yul\":11973:11991   */\n      swap1\n      pop\n        /* \"#utility.yul\":11850:11997   */\n      swap3\n      swap2\n      pop\n      pop\n      jump\t// out\n        /* \"#utility.yul\":12003:12172   */\n    tag_185:\n        /* \"#utility.yul\":12087:12098   */\n      0x00\n        /* \"#utility.yul\":12121:12127   */\n      dup3\n        /* \"#utility.yul\":12116:12119   */\n      dup3\n        /* \"#utility.yul\":12109:12128   */\n      mstore\n        /* \"#utility.yul\":12161:12165   */\n      0x20\n        /* \"#utility.yul\":12156:12159   */\n      dup3\n        /* \"#utility.yul\":12152:12166   */\n      add\n        /* \"#utility.yul\":12137:12166   */\n      swap1\n      pop\n        /* \"#utility.yul\":12003:12172   */\n      swap3\n      swap2\n      pop\n      pop\n      jump\t// out\n        /* \"#utility.yul\":12178:12325   */\n    tag_254:\n        /* \"#utility.yul\":12236:12243   */\n      0x00\n        /* \"#utility.yul\":12276:12318   */\n      0xffffffffffffffffffffffffffffffffffffffff\n        /* \"#utility.yul\":12269:12274   */\n      dup3\n        /* \"#utility.yul\":12265:12319   */\n      and\n        /* \"#utility.yul\":12254:12319   */\n      swap1\n      pop\n        /* \"#utility.yul\":12178:12325   */\n      swap2\n      swap1\n      pop\n      jump\t// out\n        /* \"#utility.yul\":12331:12427   */\n    tag_143:\n        /* \"#utility.yul\":12368:12375   */\n      0x00\n        /* \"#utility.yul\":12397:12421   */\n      tag_257\n        /* \"#utility.yul\":12415:12420   */\n      dup3\n        /* \"#utility.yul\":12397:12421   */\n      tag_258\n      jump\t// in\n    tag_257:\n        /* \"#utility.yul\":12386:12421   */\n      swap1\n      pop\n        /* \"#utility.yul\":12331:12427   */\n      swap2\n      swap1\n      pop\n      jump\t// out\n        /* \"#utility.yul\":12433:12537   */\n    tag_134:\n        /* \"#utility.yul\":12478:12485   */\n      0x00\n        /* \"#utility.yul\":12507:12531   */\n      tag_260\n        /* \"#utility.yul\":12525:12530   */\n      dup3\n        /* \"#utility.yul\":12507:12531   */\n      tag_258\n      jump\t// in\n    tag_260:\n        /* \"#utility.yul\":12496:12531   */\n      swap1\n      pop\n        /* \"#utility.yul\":12433:12537   */\n      swap2\n      swap1\n      pop\n      jump\t// out\n        /* \"#utility.yul\":12543:12620   */\n    tag_261:\n        /* \"#utility.yul\":12580:12587   */\n      0x00\n        /* \"#utility.yul\":12609:12614   */\n      dup2\n        /* \"#utility.yul\":12598:12614   */\n      swap1\n      pop\n        /* \"#utility.yul\":12543:12620   */\n      swap2\n      swap1\n      pop\n      jump\t// out\n        /* \"#utility.yul\":12626:12752   */\n    tag_258:\n        /* \"#utility.yul\":12663:12670   */\n      0x00\n        /* \"#utility.yul\":12703:12745   */\n      0xffffffffffffffffffffffffffffffffffffffff\n        /* \"#utility.yul\":12696:12701   */\n      dup3\n        /* \"#utility.yul\":12692:12746   */\n      and\n        /* \"#utility.yul\":12681:12746   */\n      swap1\n      pop\n        /* \"#utility.yul\":12626:12752   */\n      swap2\n      swap1\n      pop\n      jump\t// out\n        /* \"#utility.yul\":12758:12835   */\n    tag_211:\n        /* \"#utility.yul\":12795:12802   */\n      0x00\n        /* \"#utility.yul\":12824:12829   */\n      dup2\n        /* \"#utility.yul\":12813:12829   */\n      swap1\n      pop\n        /* \"#utility.yul\":12758:12835   */\n      swap2\n      swap1\n      pop\n      jump\t// out\n        /* \"#utility.yul\":12841:13148   */\n    tag_181:\n        /* \"#utility.yul\":12909:12910   */\n      0x00\n        /* \"#utility.yul\":12919:13032   */\n    tag_266:\n        /* \"#utility.yul\":12933:12939   */\n      dup4\n        /* \"#utility.yul\":12930:12931   */\n      dup2\n        /* \"#utility.yul\":12927:12940   */\n      lt\n        /* \"#utility.yul\":12919:13032   */\n      iszero\n      tag_268\n      jumpi\n        /* \"#utility.yul\":13018:13019   */\n      dup1\n        /* \"#utility.yul\":13013:13016   */\n      dup3\n        /* \"#utility.yul\":13009:13020   */\n      add\n        /* \"#utility.yul\":13003:13021   */\n      mload\n        /* \"#utility.yul\":12999:13000   */\n      dup2\n        /* \"#utility.yul\":12994:12997   */\n      dup5\n        /* \"#utility.yul\":12990:13001   */\n      add\n        /* \"#utility.yul\":12983:13022   */\n      mstore\n        /* \"#utility.yul\":12955:12957   */\n      0x20\n        /* \"#utility.yul\":12952:12953   */\n      dup2\n        /* \"#utility.yul\":12948:12958   */\n      add\n        /* \"#utility.yul\":12943:12958   */\n      swap1\n      pop\n        /* \"#utility.yul\":12919:13032   */\n      jump(tag_266)\n    tag_268:\n        /* \"#utility.yul\":13050:13056   */\n      dup4\n        /* \"#utility.yul\":13047:13048   */\n      dup2\n        /* \"#utility.yul\":13044:13057   */\n      gt\n        /* \"#utility.yul\":13041:13142   */\n      iszero\n      tag_269\n      jumpi\n        /* \"#utility.yul\":13130:13131   */\n      0x00\n        /* \"#utility.yul\":13121:13127   */\n      dup5\n        /* \"#utility.yul\":13116:13119   */\n      dup5\n        /* \"#utility.yul\":13112:13128   */\n      add\n        /* \"#utility.yul\":13105:13132   */\n      mstore\n        /* \"#utility.yul\":13041:13142   */\n    tag_269:\n        /* \"#utility.yul\":12890:13148   */\n      pop\n        /* \"#utility.yul\":12841:13148   */\n      pop\n      pop\n      pop\n      jump\t// out\n        /* \"#utility.yul\":13154:13336   */\n    tag_270:\n        /* \"#utility.yul\":13231:13236   */\n      0x00\n        /* \"#utility.yul\":13256:13330   */\n      tag_272\n        /* \"#utility.yul\":13295:13329   */\n      tag_273\n        /* \"#utility.yul\":13318:13328   */\n      dup4\n        /* \"#utility.yul\":13295:13329   */\n      tag_274\n      jump\t// in\n    tag_273:\n        /* \"#utility.yul\":13256:13330   */\n      tag_254\n      jump\t// in\n    tag_272:\n        /* \"#utility.yul\":13247:13330   */\n      swap1\n      pop\n        /* \"#utility.yul\":13154:13336   */\n      swap2\n      swap1\n      pop\n      jump\t// out\n        /* \"#utility.yul\":13342:13575   */\n    tag_89:\n        /* \"#utility.yul\":13381:13384   */\n      0x00\n        /* \"#utility.yul\":13404:13428   */\n      tag_276\n        /* \"#utility.yul\":13422:13427   */\n      dup3\n        /* \"#utility.yul\":13404:13428   */\n      tag_211\n      jump\t// in\n    tag_276:\n        /* \"#utility.yul\":13395:13428   */\n      swap2\n      pop\n        /* \"#utility.yul\":13450:13516   */\n      0xffffffffffffffffffffffffffffffffffffffffffffffffffffffffffffffff\n        /* \"#utility.yul\":13443:13448   */\n      dup3\n        /* \"#utility.yul\":13440:13517   */\n      eq\n        /* \"#utility.yul\":13437:13540   */\n      iszero\n      tag_277\n      jumpi\n        /* \"#utility.yul\":13520:13538   */\n      tag_278\n      tag_279\n      jump\t// in\n    tag_278:\n        /* \"#utility.yul\":13437:13540   */\n    tag_277:\n        /* \"#utility.yul\":13567:13568   */\n      0x01\n        /* \"#utility.yul\":13560:13565   */\n      dup3\n        /* \"#utility.yul\":13556:13569   */\n      add\n        /* \"#utility.yul\":13549:13569   */\n      swap1\n      pop\n        /* \"#utility.yul\":13342:13575   */\n      swap2\n      swap1\n      pop\n      jump\t// out\n        /* \"#utility.yul\":13581:13660   */\n    tag_216:\n        /* \"#utility.yul\":13620:13627   */\n      0x00\n        /* \"#utility.yul\":13649:13654   */\n      dup2\n        /* \"#utility.yul\":13638:13654   */\n      swap1\n      pop\n        /* \"#utility.yul\":13581:13660   */\n      swap2\n      swap1\n      pop\n      jump\t// out\n        /* \"#utility.yul\":13666:13842   */\n    tag_58:\n        /* \"#utility.yul\":13698:13699   */\n      0x00\n        /* \"#utility.yul\":13715:13735   */\n      tag_282\n        /* \"#utility.yul\":13733:13734   */\n      dup3\n        /* \"#utility.yul\":13715:13735   */\n      tag_211\n      jump\t// in\n    tag_282:\n        /* \"#utility.yul\":13710:13735   */\n      swap2\n      pop\n        /* \"#utility.yul\":13749:13769   */\n      tag_283\n        /* \"#utility.yul\":13767:13768   */\n      dup4\n        /* \"#utility.yul\":13749:13769   */\n      tag_211\n      jump\t// in\n    tag_283:\n        /* \"#utility.yul\":13744:13769   */\n      swap3\n      pop\n        /* \"#utility.yul\":13788:13789   */\n      dup3\n        /* \"#utility.yul\":13778:13813   */\n      tag_284\n      jumpi\n        /* \"#utility.yul\":13793:13811   */\n      tag_285\n      tag_286\n      jump\t// in\n    tag_285:\n        /* \"#utility.yul\":13778:13813   */\n    tag_284:\n        /* \"#utility.yul\":13834:13835   */\n      dup3\n        /* \"#utility.yul\":13831:13832   */\n      dup3\n        /* \"#utility.yul\":13827:13836   */\n      mod\n        /* \"#utility.yul\":13822:13836   */\n      swap1\n      pop\n        /* \"#utility.yul\":13666:13842   */\n      swap3\n      swap2\n      pop\n      pop\n      jump\t// out\n        /* \"#utility.yul\":13848:14028   */\n    tag_279:\n        /* \"#utility.yul\":13896:13973   */\n      0x4e487b7100000000000000000000000000000000000000000000000000000000\n        /* \"#utility.yul\":13893:13894   */\n      0x00\n        /* \"#utility.yul\":13886:13974   */\n      mstore\n        /* \"#utility.yul\":13993:13997   */\n      0x11\n        /* \"#utility.yul\":13990:13991   */\n      0x04\n        /* \"#utility.yul\":13983:13998   */\n      mstore\n        /* \"#utility.yul\":14017:14021   */\n      0x24\n        /* \"#utility.yul\":14014:14015   */\n      0x00\n        /* \"#utility.yul\":14007:14022   */\n      revert\n        /* \"#utility.yul\":14034:14214   */\n    tag_286:\n        /* \"#utility.yul\":14082:14159   */\n      0x4e487b7100000000000000000000000000000000000000000000000000000000\n        /* \"#utility.yul\":14079:14080   */\n      0x00\n        /* \"#utility.yul\":14072:14160   */\n      mstore\n        /* \"#utility.yul\":14179:14183   */\n      0x12\n        /* \"#utility.yul\":14176:14177   */\n      0x04\n        /* \"#utility.yul\":14169:14184   */\n      mstore\n        /* \"#utility.yul\":14203:14207   */\n      0x24\n        /* \"#utility.yul\":14200:14201   */\n      0x00\n        /* \"#utility.yul\":14193:14208   */\n      revert\n        /* \"#utility.yul\":14220:14400   */\n    tag_64:\n        /* \"#utility.yul\":14268:14345   */\n      0x4e487b7100000000000000000000000000000000000000000000000000000000\n        /* \"#utility.yul\":14265:14266   */\n      0x00\n        /* \"#utility.yul\":14258:14346   */\n      mstore\n        /* \"#utility.yul\":14365:14369   */\n      0x32\n        /* \"#utility.yul\":14362:14363   */\n      0x04\n        /* \"#utility.yul\":14355:14370   */\n      mstore\n        /* \"#utility.yul\":14389:14393   */\n      0x24\n        /* \"#utility.yul\":14386:14387   */\n      0x00\n        /* \"#utility.yul\":14379:14394   */\n      revert\n        /* \"#utility.yul\":14406:14586   */\n    tag_70:\n        /* \"#utility.yul\":14454:14531   */\n      0x4e487b7100000000000000000000000000000000000000000000000000000000\n        /* \"#utility.yul\":14451:14452   */\n      0x00\n        /* \"#utility.yul\":14444:14532   */\n      mstore\n        /* \"#utility.yul\":14551:14555   */\n      0x41\n        /* \"#utility.yul\":14548:14549   */\n      0x04\n        /* \"#utility.yul\":14541:14556   */\n      mstore\n        /* \"#utility.yul\":14575:14579   */\n      0x24\n        /* \"#utility.yul\":14572:14573   */\n      0x00\n        /* \"#utility.yul\":14565:14580   */\n      revert\n        /* \"#utility.yul\":14592:14752   */\n    tag_170:\n        /* \"#utility.yul\":14655:14660   */\n      0x00\n        /* \"#utility.yul\":14680:14745   */\n      tag_292\n        /* \"#utility.yul\":14739:14743   */\n      dup3\n        /* \"#utility.yul\":14733:14744   */\n      sload\n        /* \"#utility.yul\":14680:14745   */\n      tag_270\n      jump\t// in\n    tag_292:\n        /* \"#utility.yul\":14671:14745   */\n      swap1\n      pop\n        /* \"#utility.yul\":14592:14752   */\n      swap2\n      swap1\n      pop\n      jump\t// out\n        /* \"#utility.yul\":14881:14998   */\n    tag_118:\n        /* \"#utility.yul\":14990:14991   */\n      0x00\n        /* \"#utility.yul\":14987:14988   */\n      dup1\n        /* \"#utility.yul\":14980:14992   */\n      revert\n        /* \"#utility.yul\":15004:15106   */\n    tag_274:\n        /* \"#utility.yul\":15046:15054   */\n      0x00\n        /* \"#utility.yul\":15093:15098   */\n      dup2\n        /* \"#utility.yul\":15090:15091   */\n      0x00\n        /* \"#utility.yul\":15086:15099   */\n      shr\n        /* \"#utility.yul\":15065:15099   */\n      swap1\n      pop\n        /* \"#utility.yul\":15004:15106   */\n      swap2\n      swap1\n      pop\n      jump\t// out\n        /* \"#utility.yul\":15112:15280   */\n    tag_187:\n        /* \"#utility.yul\":15252:15272   */\n      0x596f752063616e206e6f74206163636573730000000000000000000000000000\n        /* \"#utility.yul\":15248:15249   */\n      0x00\n        /* \"#utility.yul\":15240:15246   */\n      dup3\n        /* \"#utility.yul\":15236:15250   */\n      add\n        /* \"#utility.yul\":15229:15273   */\n      mstore\n        /* \"#utility.yul\":15112:15280   */\n      pop\n      jump\t// out\n        /* \"#utility.yul\":15286:15467   */\n    tag_192:\n        /* \"#utility.yul\":15426:15459   */\n      0x596f7520616c7265616479206a6f696e6564207468697320636f6e7465737400\n        /* \"#utility.yul\":15422:15423   */\n      0x00\n        /* \"#utility.yul\":15414:15420   */\n      dup3\n        /* \"#utility.yul\":15410:15424   */\n      add\n        /* \"#utility.yul\":15403:15460   */\n      mstore\n        /* \"#utility.yul\":15286:15467   */\n      pop\n      jump\t// out\n        /* \"#utility.yul\":15473:15702   */\n    tag_197:\n        /* \"#utility.yul\":15613:15647   */\n      0x596f752063616e206e6f7420706172746963697061746520617320796f752061\n        /* \"#utility.yul\":15609:15610   */\n      0x00\n        /* \"#utility.yul\":15601:15607   */\n      dup3\n        /* \"#utility.yul\":15597:15611   */\n      add\n        /* \"#utility.yul\":15590:15648   */\n      mstore\n        /* \"#utility.yul\":15682:15694   */\n      0x7265206d616e6167657200000000000000000000000000000000000000000000\n        /* \"#utility.yul\":15677:15679   */\n      0x20\n        /* \"#utility.yul\":15669:15675   */\n      dup3\n        /* \"#utility.yul\":15665:15680   */\n      add\n        /* \"#utility.yul\":15658:15695   */\n      mstore\n        /* \"#utility.yul\":15473:15702   */\n      pop\n      jump\t// out\n        /* \"#utility.yul\":15708:15880   */\n    tag_202:\n        /* \"#utility.yul\":15848:15872   */\n      0x436f6e74657374206e6f74207374617274207965742100000000000000000000\n        /* \"#utility.yul\":15844:15845   */\n      0x00\n        /* \"#utility.yul\":15836:15842   */\n      dup3\n        /* \"#utility.yul\":15832:15846   */\n      add\n        /* \"#utility.yul\":15825:15873   */\n      mstore\n        /* \"#utility.yul\":15708:15880   */\n      pop\n      jump\t// out\n        /* \"#utility.yul\":15886:16124   */\n    tag_207:\n        /* \"#utility.yul\":16026:16060   */\n      0x596f75206861766520746f207061792066656573206f66203120657468657220\n        /* \"#utility.yul\":16022:16023   */\n      0x00\n        /* \"#utility.yul\":16014:16020   */\n      dup3\n        /* \"#utility.yul\":16010:16024   */\n      add\n        /* \"#utility.yul\":16003:16061   */\n      mstore\n        /* \"#utility.yul\":16095:16116   */\n      0x666f72206a6f696e696e6720636f6e7465737400000000000000000000000000\n        /* \"#utility.yul\":16090:16092   */\n      0x20\n        /* \"#utility.yul\":16082:16088   */\n      dup3\n        /* \"#utility.yul\":16078:16093   */\n      add\n        /* \"#utility.yul\":16071:16117   */\n      mstore\n        /* \"#utility.yul\":15886:16124   */\n      pop\n      jump\t// out\n        /* \"#utility.yul\":16130:16252   */\n    tag_110:\n        /* \"#utility.yul\":16203:16227   */\n      tag_303\n        /* \"#utility.yul\":16221:16226   */\n      dup2\n        /* \"#utility.yul\":16203:16227   */\n      tag_261\n      jump\t// in\n    tag_303:\n        /* \"#utility.yul\":16196:16201   */\n      dup2\n        /* \"#utility.yul\":16193:16228   */\n      eq\n        /* \"#utility.yul\":16183:16246   */\n      tag_304\n      jumpi\n        /* \"#utility.yul\":16242:16243   */\n      0x00\n        /* \"#utility.yul\":16239:16240   */\n      dup1\n        /* \"#utility.yul\":16232:16244   */\n      revert\n        /* \"#utility.yul\":16183:16246   */\n    tag_304:\n        /* \"#utility.yul\":16130:16252   */\n      pop\n      jump\t// out\n        /* \"#utility.yul\":16258:16380   */\n    tag_114:\n        /* \"#utility.yul\":16331:16355   */\n      tag_306\n        /* \"#utility.yul\":16349:16354   */\n      dup2\n        /* \"#utility.yul\":16331:16355   */\n      tag_211\n      jump\t// in\n    tag_306:\n        /* \"#utility.yul\":16324:16329   */\n      dup2\n        /* \"#utility.yul\":16321:16356   */\n      eq\n        /* \"#utility.yul\":16311:16374   */\n      tag_307\n      jumpi\n        /* \"#utility.yul\":16370:16371   */\n      0x00\n        /* \"#utility.yul\":16367:16368   */\n      dup1\n        /* \"#utility.yul\":16360:16372   */\n      revert\n        /* \"#utility.yul\":16311:16374   */\n    tag_307:\n        /* \"#utility.yul\":16258:16380   */\n      pop\n      jump\t// out\n\n    auxdata: 0xa264697066735822122016efead0a88f408b74c1cf16a785dcfefc726f4276c18a3854cd05f9c837202464736f6c63430008070033\n}\n",
				"bytecode": {
					"linkReferences": {},
					"object": "608060405234801561001057600080fd5b50336000806101000a81548173ffffffffffffffffffffffffffffffffffffffff021916908373ffffffffffffffffffffffffffffffffffffffff16021790555061106e806100606000396000f3fe6080604052600436106100555760003560e01c806319b374171461005a578063481c6a75146100645780635d495aea1461008f5780638b5b9ccc146100a6578063c71daccb146100d1578063f71d96cb146100fc575b600080fd5b610062610139565b005b34801561007057600080fd5b506100796102c5565b6040516100869190610b1c565b60405180910390f35b34801561009b57600080fd5b506100a46102e9565b005b3480156100b257600080fd5b506100bb61056c565b6040516100c89190610b52565b60405180910390f35b3480156100dd57600080fd5b506100e66105fa565b6040516100f39190610c14565b60405180910390f35b34801561010857600080fd5b50610123600480360381019061011e919061086a565b610602565b6040516101309190610b37565b60405180910390f35b3373ffffffffffffffffffffffffffffffffffffffff1660008054906101000a900473ffffffffffffffffffffffffffffffffffffffff1673ffffffffffffffffffffffffffffffffffffffff1614156101c8576040517f08c379a00000000000000000000000000000000000000000000000000000000081526004016101bf90610bb4565b60405180910390fd5b600015156101d4610641565b151514610216576040517f08c379a000000000000000000000000000000000000000000000000000000000815260040161020d90610b94565b60405180910390fd5b670de0b6b3a76400003414610260576040517f08c379a000000000000000000000000000000000000000000000000000000000815260040161025790610bf4565b60405180910390fd5b6002339080600181540180825580915050600190039060005260206000200160009091909190916101000a81548173ffffffffffffffffffffffffffffffffffffffff021916908373ffffffffffffffffffffffffffffffffffffffff160217905550565b60008054906101000a900473ffffffffffffffffffffffffffffffffffffffff1681565b60006002805490501415610332576040517f08c379a000000000000000000000000000000000000000000000000000000000815260040161032990610bd4565b60405180910390fd5b3373ffffffffffffffffffffffffffffffffffffffff1660008054906101000a900473ffffffffffffffffffffffffffffffffffffffff1673ffffffffffffffffffffffffffffffffffffffff16146103c0576040517f08c379a00000000000000000000000000000000000000000000000000000000081526004016103b790610b74565b60405180910390fd5b60006002805490506103d06106ee565b6103da9190610ddf565b9050600160009054906101000a900473ffffffffffffffffffffffffffffffffffffffff1673ffffffffffffffffffffffffffffffffffffffff166108fc670de0b6b3a76400009081150290604051600060405180830381858888f1935050505015801561044c573d6000803e3d6000fd5b507ff82c50f1848136e6c140b186ea0c768b7deda5efffe42c25e96336a90b26c7444760405161047c9190610c14565b60405180910390a16002818154811061049857610497610e6e565b5b9060005260206000200160009054906101000a900473ffffffffffffffffffffffffffffffffffffffff1673ffffffffffffffffffffffffffffffffffffffff166108fc479081150290604051600060405180830381858888f19350505050158015610508573d6000803e3d6000fd5b50600067ffffffffffffffff81111561052457610523610e9d565b5b6040519080825280602002602001820160405280156105525781602001602082028036833780820191505090505b506002908051906020019061056892919061076c565b5050565b606060028054806020026020016040519081016040528092919081815260200182805480156105f057602002820191906000526020600020905b8160009054906101000a900473ffffffffffffffffffffffffffffffffffffffff1673ffffffffffffffffffffffffffffffffffffffff16815260200190600101908083116105a6575b5050505050905090565b600047905090565b6002818154811061061257600080fd5b906000526020600020016000915054906101000a900473ffffffffffffffffffffffffffffffffffffffff1681565b600080600090505b6002805490508110156106e5573373ffffffffffffffffffffffffffffffffffffffff166002828154811061068157610680610e6e565b5b9060005260206000200160009054906101000a900473ffffffffffffffffffffffffffffffffffffffff1673ffffffffffffffffffffffffffffffffffffffff1614156106d25760019150506106eb565b80806106dd90610d8c565b915050610649565b50600090505b90565b600060024443600260405160200161070893929190610ae3565b6040516020818303038152906040526040516107249190610acc565b602060405180830381855afa158015610741573d6000803e3d6000fd5b5050506040513d601f19601f82011682018060405250810190610764919061083d565b60001c905090565b8280548282559060005260206000209081019282156107e5579160200282015b828111156107e45782518260006101000a81548173ffffffffffffffffffffffffffffffffffffffff021916908373ffffffffffffffffffffffffffffffffffffffff1602179055509160200191906001019061078c565b5b5090506107f291906107f6565b5090565b5b8082111561080f5760008160009055506001016107f7565b5090565b6000815190506108228161100a565b92915050565b60008135905061083781611021565b92915050565b60006020828403121561085357610852610edf565b5b600061086184828501610813565b91505092915050565b6000602082840312156108805761087f610edf565b5b600061088e84828501610828565b91505092915050565b60006108a383836108c7565b60208301905092915050565b60006108bb83836108e5565b60208301905092915050565b6108d081610cf9565b82525050565b6108df81610cf9565b82525050565b6108ee81610cf9565b82525050565b6108fd81610ce7565b82525050565b600061090e82610c54565b6109188185610c8f565b935061092383610c2f565b8060005b8381101561095457815161093b8882610897565b975061094683610c75565b925050600181019050610927565b5085935050505092915050565b600061096c82610c5f565b6109768185610ca0565b935061098183610c3f565b8060005b838110156109b95761099682610ecc565b6109a088826108af565b97506109ab83610c82565b925050600181019050610985565b5085935050505092915050565b60006109d182610c6a565b6109db8185610cab565b93506109eb818560208601610d3f565b80840191505092915050565b6000610a04601283610cb6565b9150610a0f82610ef1565b602082019050919050565b6000610a27601f83610cb6565b9150610a3282610f1a565b602082019050919050565b6000610a4a602a83610cb6565b9150610a5582610f43565b604082019050919050565b6000610a6d601683610cb6565b9150610a7882610f92565b602082019050919050565b6000610a90603383610cb6565b9150610a9b82610fbb565b604082019050919050565b610aaf81610d35565b82525050565b610ac6610ac182610d35565b610dd5565b82525050565b6000610ad882846109c6565b915081905092915050565b6000610aef8286610ab5565b602082019150610aff8285610ab5565b602082019150610b0f8284610961565b9150819050949350505050565b6000602082019050610b3160008301846108f4565b92915050565b6000602082019050610b4c60008301846108d6565b92915050565b60006020820190508181036000830152610b6c8184610903565b905092915050565b60006020820190508181036000830152610b8d816109f7565b9050919050565b60006020820190508181036000830152610bad81610a1a565b9050919050565b60006020820190508181036000830152610bcd81610a3d565b9050919050565b60006020820190508181036000830152610bed81610a60565b9050919050565b60006020820190508181036000830152610c0d81610a83565b9050919050565b6000602082019050610c296000830184610aa6565b92915050565b6000819050602082019050919050565b60008190508160005260206000209050919050565b600081519050919050565b600081549050919050565b600081519050919050565b6000602082019050919050565b6000600182019050919050565b600082825260208201905092915050565b600081905092915050565b600081905092915050565b600082825260208201905092915050565b600073ffffffffffffffffffffffffffffffffffffffff82169050919050565b6000610cf282610d15565b9050919050565b6000610d0482610d15565b9050919050565b6000819050919050565b600073ffffffffffffffffffffffffffffffffffffffff82169050919050565b6000819050919050565b60005b83811015610d5d578082015181840152602081019050610d42565b83811115610d6c576000848401525b50505050565b6000610d85610d8083610ee4565b610cc7565b9050919050565b6000610d9782610d35565b91507fffffffffffffffffffffffffffffffffffffffffffffffffffffffffffffffff821415610dca57610dc9610e10565b5b600182019050919050565b6000819050919050565b6000610dea82610d35565b9150610df583610d35565b925082610e0557610e04610e3f565b5b828206905092915050565b7f4e487b7100000000000000000000000000000000000000000000000000000000600052601160045260246000fd5b7f4e487b7100000000000000000000000000000000000000000000000000000000600052601260045260246000fd5b7f4e487b7100000000000000000000000000000000000000000000000000000000600052603260045260246000fd5b7f4e487b7100000000000000000000000000000000000000000000000000000000600052604160045260246000fd5b6000610ed88254610d72565b9050919050565b600080fd5b60008160001c9050919050565b7f596f752063616e206e6f74206163636573730000000000000000000000000000600082015250565b7f596f7520616c7265616479206a6f696e6564207468697320636f6e7465737400600082015250565b7f596f752063616e206e6f7420706172746963697061746520617320796f75206160008201527f7265206d616e6167657200000000000000000000000000000000000000000000602082015250565b7f436f6e74657374206e6f74207374617274207965742100000000000000000000600082015250565b7f596f75206861766520746f207061792066656573206f6620312065746865722060008201527f666f72206a6f696e696e6720636f6e7465737400000000000000000000000000602082015250565b61101381610d0b565b811461101e57600080fd5b50565b61102a81610d35565b811461103557600080fd5b5056fea264697066735822122016efead0a88f408b74c1cf16a785dcfefc726f4276c18a3854cd05f9c837202464736f6c63430008070033",
					"opcodes": "PUSH1 0x80 PUSH1 0x40 MSTORE CALLVALUE DUP1 ISZERO PUSH2 0x10 JUMPI PUSH1 0x0 DUP1 REVERT JUMPDEST POP CALLER PUSH1 0x0 DUP1 PUSH2 0x100 EXP DUP2 SLOAD DUP2 PUSH20 0xFFFFFFFFFFFFFFFFFFFFFFFFFFFFFFFFFFFFFFFF MUL NOT AND SWAP1 DUP4 PUSH20 0xFFFFFFFFFFFFFFFFFFFFFFFFFFFFFFFFFFFFFFFF AND MUL OR SWAP1 SSTORE POP PUSH2 0x106E DUP1 PUSH2 0x60 PUSH1 0x0 CODECOPY PUSH1 0x0 RETURN INVALID PUSH1 0x80 PUSH1 0x40 MSTORE PUSH1 0x4 CALLDATASIZE LT PUSH2 0x55 JUMPI PUSH1 0x0 CALLDATALOAD PUSH1 0xE0 SHR DUP1 PUSH4 0x19B37417 EQ PUSH2 0x5A JUMPI DUP1 PUSH4 0x481C6A75 EQ PUSH2 0x64 JUMPI DUP1 PUSH4 0x5D495AEA EQ PUSH2 0x8F JUMPI DUP1 PUSH4 0x8B5B9CCC EQ PUSH2 0xA6 JUMPI DUP1 PUSH4 0xC71DACCB EQ PUSH2 0xD1 JUMPI DUP1 PUSH4 0xF71D96CB EQ PUSH2 0xFC JUMPI JUMPDEST PUSH1 0x0 DUP1 REVERT JUMPDEST PUSH2 0x62 PUSH2 0x139 JUMP JUMPDEST STOP JUMPDEST CALLVALUE DUP1 ISZERO PUSH2 0x70 JUMPI PUSH1 0x0 DUP1 REVERT JUMPDEST POP PUSH2 0x79 PUSH2 0x2C5 JUMP JUMPDEST PUSH1 0x40 MLOAD PUSH2 0x86 SWAP2 SWAP1 PUSH2 0xB1C JUMP JUMPDEST PUSH1 0x40 MLOAD DUP1 SWAP2 SUB SWAP1 RETURN JUMPDEST CALLVALUE DUP1 ISZERO PUSH2 0x9B JUMPI PUSH1 0x0 DUP1 REVERT JUMPDEST POP PUSH2 0xA4 PUSH2 0x2E9 JUMP JUMPDEST STOP JUMPDEST CALLVALUE DUP1 ISZERO PUSH2 0xB2 JUMPI PUSH1 0x0 DUP1 REVERT JUMPDEST POP PUSH2 0xBB PUSH2 0x56C JUMP JUMPDEST PUSH1 0x40 MLOAD PUSH2 0xC8 SWAP2 SWAP1 PUSH2 0xB52 JUMP JUMPDEST PUSH1 0x40 MLOAD DUP1 SWAP2 SUB SWAP1 RETURN JUMPDEST CALLVALUE DUP1 ISZERO PUSH2 0xDD JUMPI PUSH1 0x0 DUP1 REVERT JUMPDEST POP PUSH2 0xE6 PUSH2 0x5FA JUMP JUMPDEST PUSH1 0x40 MLOAD PUSH2 0xF3 SWAP2 SWAP1 PUSH2 0xC14 JUMP JUMPDEST PUSH1 0x40 MLOAD DUP1 SWAP2 SUB SWAP1 RETURN JUMPDEST CALLVALUE DUP1 ISZERO PUSH2 0x108 JUMPI PUSH1 0x0 DUP1 REVERT JUMPDEST POP PUSH2 0x123 PUSH1 0x4 DUP1 CALLDATASIZE SUB DUP2 ADD SWAP1 PUSH2 0x11E SWAP2 SWAP1 PUSH2 0x86A JUMP JUMPDEST PUSH2 0x602 JUMP JUMPDEST PUSH1 0x40 MLOAD PUSH2 0x130 SWAP2 SWAP1 PUSH2 0xB37 JUMP JUMPDEST PUSH1 0x40 MLOAD DUP1 SWAP2 SUB SWAP1 RETURN JUMPDEST CALLER PUSH20 0xFFFFFFFFFFFFFFFFFFFFFFFFFFFFFFFFFFFFFFFF AND PUSH1 0x0 DUP1 SLOAD SWAP1 PUSH2 0x100 EXP SWAP1 DIV PUSH20 0xFFFFFFFFFFFFFFFFFFFFFFFFFFFFFFFFFFFFFFFF AND PUSH20 0xFFFFFFFFFFFFFFFFFFFFFFFFFFFFFFFFFFFFFFFF AND EQ ISZERO PUSH2 0x1C8 JUMPI PUSH1 0x40 MLOAD PUSH32 0x8C379A000000000000000000000000000000000000000000000000000000000 DUP2 MSTORE PUSH1 0x4 ADD PUSH2 0x1BF SWAP1 PUSH2 0xBB4 JUMP JUMPDEST PUSH1 0x40 MLOAD DUP1 SWAP2 SUB SWAP1 REVERT JUMPDEST PUSH1 0x0 ISZERO ISZERO PUSH2 0x1D4 PUSH2 0x641 JUMP JUMPDEST ISZERO ISZERO EQ PUSH2 0x216 JUMPI PUSH1 0x40 MLOAD PUSH32 0x8C379A000000000000000000000000000000000000000000000000000000000 DUP2 MSTORE PUSH1 0x4 ADD PUSH2 0x20D SWAP1 PUSH2 0xB94 JUMP JUMPDEST PUSH1 0x40 MLOAD DUP1 SWAP2 SUB SWAP1 REVERT JUMPDEST PUSH8 0xDE0B6B3A7640000 CALLVALUE EQ PUSH2 0x260 JUMPI PUSH1 0x40 MLOAD PUSH32 0x8C379A000000000000000000000000000000000000000000000000000000000 DUP2 MSTORE PUSH1 0x4 ADD PUSH2 0x257 SWAP1 PUSH2 0xBF4 JUMP JUMPDEST PUSH1 0x40 MLOAD DUP1 SWAP2 SUB SWAP1 REVERT JUMPDEST PUSH1 0x2 CALLER SWAP1 DUP1 PUSH1 0x1 DUP2 SLOAD ADD DUP1 DUP3 SSTORE DUP1 SWAP2 POP POP PUSH1 0x1 SWAP1 SUB SWAP1 PUSH1 0x0 MSTORE PUSH1 0x20 PUSH1 0x0 KECCAK256 ADD PUSH1 0x0 SWAP1 SWAP2 SWAP1 SWAP2 SWAP1 SWAP2 PUSH2 0x100 EXP DUP2 SLOAD DUP2 PUSH20 0xFFFFFFFFFFFFFFFFFFFFFFFFFFFFFFFFFFFFFFFF MUL NOT AND SWAP1 DUP4 PUSH20 0xFFFFFFFFFFFFFFFFFFFFFFFFFFFFFFFFFFFFFFFF AND MUL OR SWAP1 SSTORE POP JUMP JUMPDEST PUSH1 0x0 DUP1 SLOAD SWAP1 PUSH2 0x100 EXP SWAP1 DIV PUSH20 0xFFFFFFFFFFFFFFFFFFFFFFFFFFFFFFFFFFFFFFFF AND DUP2 JUMP JUMPDEST PUSH1 0x0 PUSH1 0x2 DUP1 SLOAD SWAP1 POP EQ ISZERO PUSH2 0x332 JUMPI PUSH1 0x40 MLOAD PUSH32 0x8C379A000000000000000000000000000000000000000000000000000000000 DUP2 MSTORE PUSH1 0x4 ADD PUSH2 0x329 SWAP1 PUSH2 0xBD4 JUMP JUMPDEST PUSH1 0x40 MLOAD DUP1 SWAP2 SUB SWAP1 REVERT JUMPDEST CALLER PUSH20 0xFFFFFFFFFFFFFFFFFFFFFFFFFFFFFFFFFFFFFFFF AND PUSH1 0x0 DUP1 SLOAD SWAP1 PUSH2 0x100 EXP SWAP1 DIV PUSH20 0xFFFFFFFFFFFFFFFFFFFFFFFFFFFFFFFFFFFFFFFF AND PUSH20 0xFFFFFFFFFFFFFFFFFFFFFFFFFFFFFFFFFFFFFFFF AND EQ PUSH2 0x3C0 JUMPI PUSH1 0x40 MLOAD PUSH32 0x8C379A000000000000000000000000000000000000000000000000000000000 DUP2 MSTORE PUSH1 0x4 ADD PUSH2 0x3B7 SWAP1 PUSH2 0xB74 JUMP JUMPDEST PUSH1 0x40 MLOAD DUP1 SWAP2 SUB SWAP1 REVERT JUMPDEST PUSH1 0x0 PUSH1 0x2 DUP1 SLOAD SWAP1 POP PUSH2 0x3D0 PUSH2 0x6EE JUMP JUMPDEST PUSH2 0x3DA SWAP2 SWAP1 PUSH2 0xDDF JUMP JUMPDEST SWAP1 POP PUSH1 0x1 PUSH1 0x0 SWAP1 SLOAD SWAP1 PUSH2 0x100 EXP SWAP1 DIV PUSH20 0xFFFFFFFFFFFFFFFFFFFFFFFFFFFFFFFFFFFFFFFF AND PUSH20 0xFFFFFFFFFFFFFFFFFFFFFFFFFFFFFFFFFFFFFFFF AND PUSH2 0x8FC PUSH8 0xDE0B6B3A7640000 SWAP1 DUP2 ISZERO MUL SWAP1 PUSH1 0x40 MLOAD PUSH1 0x0 PUSH1 0x40 MLOAD DUP1 DUP4 SUB DUP2 DUP6 DUP9 DUP9 CALL SWAP4 POP POP POP POP ISZERO DUP1 ISZERO PUSH2 0x44C JUMPI RETURNDATASIZE PUSH1 0x0 DUP1 RETURNDATACOPY RETURNDATASIZE PUSH1 0x0 REVERT JUMPDEST POP PUSH32 0xF82C50F1848136E6C140B186EA0C768B7DEDA5EFFFE42C25E96336A90B26C744 SELFBALANCE PUSH1 0x40 MLOAD PUSH2 0x47C SWAP2 SWAP1 PUSH2 0xC14 JUMP JUMPDEST PUSH1 0x40 MLOAD DUP1 SWAP2 SUB SWAP1 LOG1 PUSH1 0x2 DUP2 DUP2 SLOAD DUP2 LT PUSH2 0x498 JUMPI PUSH2 0x497 PUSH2 0xE6E JUMP JUMPDEST JUMPDEST SWAP1 PUSH1 0x0 MSTORE PUSH1 0x20 PUSH1 0x0 KECCAK256 ADD PUSH1 0x0 SWAP1 SLOAD SWAP1 PUSH2 0x100 EXP SWAP1 DIV PUSH20 0xFFFFFFFFFFFFFFFFFFFFFFFFFFFFFFFFFFFFFFFF AND PUSH20 0xFFFFFFFFFFFFFFFFFFFFFFFFFFFFFFFFFFFFFFFF AND PUSH2 0x8FC SELFBALANCE SWAP1 DUP2 ISZERO MUL SWAP1 PUSH1 0x40 MLOAD PUSH1 0x0 PUSH1 0x40 MLOAD DUP1 DUP4 SUB DUP2 DUP6 DUP9 DUP9 CALL SWAP4 POP POP POP POP ISZERO DUP1 ISZERO PUSH2 0x508 JUMPI RETURNDATASIZE PUSH1 0x0 DUP1 RETURNDATACOPY RETURNDATASIZE PUSH1 0x0 REVERT JUMPDEST POP PUSH1 0x0 PUSH8 0xFFFFFFFFFFFFFFFF DUP2 GT ISZERO PUSH2 0x524 JUMPI PUSH2 0x523 PUSH2 0xE9D JUMP JUMPDEST JUMPDEST PUSH1 0x40 MLOAD SWAP1 DUP1 DUP3 MSTORE DUP1 PUSH1 0x20 MUL PUSH1 0x20 ADD DUP3 ADD PUSH1 0x40 MSTORE DUP1 ISZERO PUSH2 0x552 JUMPI DUP2 PUSH1 0x20 ADD PUSH1 0x20 DUP3 MUL DUP1 CALLDATASIZE DUP4 CALLDATACOPY DUP1 DUP3 ADD SWAP2 POP POP SWAP1 POP JUMPDEST POP PUSH1 0x2 SWAP1 DUP1 MLOAD SWAP1 PUSH1 0x20 ADD SWAP1 PUSH2 0x568 SWAP3 SWAP2 SWAP1 PUSH2 0x76C JUMP JUMPDEST POP POP JUMP JUMPDEST PUSH1 0x60 PUSH1 0x2 DUP1 SLOAD DUP1 PUSH1 0x20 MUL PUSH1 0x20 ADD PUSH1 0x40 MLOAD SWAP1 DUP2 ADD PUSH1 0x40 MSTORE DUP1 SWAP3 SWAP2 SWAP1 DUP2 DUP2 MSTORE PUSH1 0x20 ADD DUP3 DUP1 SLOAD DUP1 ISZERO PUSH2 0x5F0 JUMPI PUSH1 0x20 MUL DUP3 ADD SWAP2 SWAP1 PUSH1 0x0 MSTORE PUSH1 0x20 PUSH1 0x0 KECCAK256 SWAP1 JUMPDEST DUP2 PUSH1 0x0 SWAP1 SLOAD SWAP1 PUSH2 0x100 EXP SWAP1 DIV PUSH20 0xFFFFFFFFFFFFFFFFFFFFFFFFFFFFFFFFFFFFFFFF AND PUSH20 0xFFFFFFFFFFFFFFFFFFFFFFFFFFFFFFFFFFFFFFFF AND DUP2 MSTORE PUSH1 0x20 ADD SWAP1 PUSH1 0x1 ADD SWAP1 DUP1 DUP4 GT PUSH2 0x5A6 JUMPI JUMPDEST POP POP POP POP POP SWAP1 POP SWAP1 JUMP JUMPDEST PUSH1 0x0 SELFBALANCE SWAP1 POP SWAP1 JUMP JUMPDEST PUSH1 0x2 DUP2 DUP2 SLOAD DUP2 LT PUSH2 0x612 JUMPI PUSH1 0x0 DUP1 REVERT JUMPDEST SWAP1 PUSH1 0x0 MSTORE PUSH1 0x20 PUSH1 0x0 KECCAK256 ADD PUSH1 0x0 SWAP2 POP SLOAD SWAP1 PUSH2 0x100 EXP SWAP1 DIV PUSH20 0xFFFFFFFFFFFFFFFFFFFFFFFFFFFFFFFFFFFFFFFF AND DUP2 JUMP JUMPDEST PUSH1 0x0 DUP1 PUSH1 0x0 SWAP1 POP JUMPDEST PUSH1 0x2 DUP1 SLOAD SWAP1 POP DUP2 LT ISZERO PUSH2 0x6E5 JUMPI CALLER PUSH20 0xFFFFFFFFFFFFFFFFFFFFFFFFFFFFFFFFFFFFFFFF AND PUSH1 0x2 DUP3 DUP2 SLOAD DUP2 LT PUSH2 0x681 JUMPI PUSH2 0x680 PUSH2 0xE6E JUMP JUMPDEST JUMPDEST SWAP1 PUSH1 0x0 MSTORE PUSH1 0x20 PUSH1 0x0 KECCAK256 ADD PUSH1 0x0 SWAP1 SLOAD SWAP1 PUSH2 0x100 EXP SWAP1 DIV PUSH20 0xFFFFFFFFFFFFFFFFFFFFFFFFFFFFFFFFFFFFFFFF AND PUSH20 0xFFFFFFFFFFFFFFFFFFFFFFFFFFFFFFFFFFFFFFFF AND EQ ISZERO PUSH2 0x6D2 JUMPI PUSH1 0x1 SWAP2 POP POP PUSH2 0x6EB JUMP JUMPDEST DUP1 DUP1 PUSH2 0x6DD SWAP1 PUSH2 0xD8C JUMP JUMPDEST SWAP2 POP POP PUSH2 0x649 JUMP JUMPDEST POP PUSH1 0x0 SWAP1 POP JUMPDEST SWAP1 JUMP JUMPDEST PUSH1 0x0 PUSH1 0x2 DIFFICULTY NUMBER PUSH1 0x2 PUSH1 0x40 MLOAD PUSH1 0x20 ADD PUSH2 0x708 SWAP4 SWAP3 SWAP2 SWAP1 PUSH2 0xAE3 JUMP JUMPDEST PUSH1 0x40 MLOAD PUSH1 0x20 DUP2 DUP4 SUB SUB DUP2 MSTORE SWAP1 PUSH1 0x40 MSTORE PUSH1 0x40 MLOAD PUSH2 0x724 SWAP2 SWAP1 PUSH2 0xACC JUMP JUMPDEST PUSH1 0x20 PUSH1 0x40 MLOAD DUP1 DUP4 SUB DUP2 DUP6 GAS STATICCALL ISZERO DUP1 ISZERO PUSH2 0x741 JUMPI RETURNDATASIZE PUSH1 0x0 DUP1 RETURNDATACOPY RETURNDATASIZE PUSH1 0x0 REVERT JUMPDEST POP POP POP PUSH1 0x40 MLOAD RETURNDATASIZE PUSH1 0x1F NOT PUSH1 0x1F DUP3 ADD AND DUP3 ADD DUP1 PUSH1 0x40 MSTORE POP DUP2 ADD SWAP1 PUSH2 0x764 SWAP2 SWAP1 PUSH2 0x83D JUMP JUMPDEST PUSH1 0x0 SHR SWAP1 POP SWAP1 JUMP JUMPDEST DUP3 DUP1 SLOAD DUP3 DUP3 SSTORE SWAP1 PUSH1 0x0 MSTORE PUSH1 0x20 PUSH1 0x0 KECCAK256 SWAP1 DUP2 ADD SWAP3 DUP3 ISZERO PUSH2 0x7E5 JUMPI SWAP2 PUSH1 0x20 MUL DUP3 ADD JUMPDEST DUP3 DUP2 GT ISZERO PUSH2 0x7E4 JUMPI DUP3 MLOAD DUP3 PUSH1 0x0 PUSH2 0x100 EXP DUP2 SLOAD DUP2 PUSH20 0xFFFFFFFFFFFFFFFFFFFFFFFFFFFFFFFFFFFFFFFF MUL NOT AND SWAP1 DUP4 PUSH20 0xFFFFFFFFFFFFFFFFFFFFFFFFFFFFFFFFFFFFFFFF AND MUL OR SWAP1 SSTORE POP SWAP2 PUSH1 0x20 ADD SWAP2 SWAP1 PUSH1 0x1 ADD SWAP1 PUSH2 0x78C JUMP JUMPDEST JUMPDEST POP SWAP1 POP PUSH2 0x7F2 SWAP2 SWAP1 PUSH2 0x7F6 JUMP JUMPDEST POP SWAP1 JUMP JUMPDEST JUMPDEST DUP1 DUP3 GT ISZERO PUSH2 0x80F JUMPI PUSH1 0x0 DUP2 PUSH1 0x0 SWAP1 SSTORE POP PUSH1 0x1 ADD PUSH2 0x7F7 JUMP JUMPDEST POP SWAP1 JUMP JUMPDEST PUSH1 0x0 DUP2 MLOAD SWAP1 POP PUSH2 0x822 DUP2 PUSH2 0x100A JUMP JUMPDEST SWAP3 SWAP2 POP POP JUMP JUMPDEST PUSH1 0x0 DUP2 CALLDATALOAD SWAP1 POP PUSH2 0x837 DUP2 PUSH2 0x1021 JUMP JUMPDEST SWAP3 SWAP2 POP POP JUMP JUMPDEST PUSH1 0x0 PUSH1 0x20 DUP3 DUP5 SUB SLT ISZERO PUSH2 0x853 JUMPI PUSH2 0x852 PUSH2 0xEDF JUMP JUMPDEST JUMPDEST PUSH1 0x0 PUSH2 0x861 DUP5 DUP3 DUP6 ADD PUSH2 0x813 JUMP JUMPDEST SWAP2 POP POP SWAP3 SWAP2 POP POP JUMP JUMPDEST PUSH1 0x0 PUSH1 0x20 DUP3 DUP5 SUB SLT ISZERO PUSH2 0x880 JUMPI PUSH2 0x87F PUSH2 0xEDF JUMP JUMPDEST JUMPDEST PUSH1 0x0 PUSH2 0x88E DUP5 DUP3 DUP6 ADD PUSH2 0x828 JUMP JUMPDEST SWAP2 POP POP SWAP3 SWAP2 POP POP JUMP JUMPDEST PUSH1 0x0 PUSH2 0x8A3 DUP4 DUP4 PUSH2 0x8C7 JUMP JUMPDEST PUSH1 0x20 DUP4 ADD SWAP1 POP SWAP3 SWAP2 POP POP JUMP JUMPDEST PUSH1 0x0 PUSH2 0x8BB DUP4 DUP4 PUSH2 0x8E5 JUMP JUMPDEST PUSH1 0x20 DUP4 ADD SWAP1 POP SWAP3 SWAP2 POP POP JUMP JUMPDEST PUSH2 0x8D0 DUP2 PUSH2 0xCF9 JUMP JUMPDEST DUP3 MSTORE POP POP JUMP JUMPDEST PUSH2 0x8DF DUP2 PUSH2 0xCF9 JUMP JUMPDEST DUP3 MSTORE POP POP JUMP JUMPDEST PUSH2 0x8EE DUP2 PUSH2 0xCF9 JUMP JUMPDEST DUP3 MSTORE POP POP JUMP JUMPDEST PUSH2 0x8FD DUP2 PUSH2 0xCE7 JUMP JUMPDEST DUP3 MSTORE POP POP JUMP JUMPDEST PUSH1 0x0 PUSH2 0x90E DUP3 PUSH2 0xC54 JUMP JUMPDEST PUSH2 0x918 DUP2 DUP6 PUSH2 0xC8F JUMP JUMPDEST SWAP4 POP PUSH2 0x923 DUP4 PUSH2 0xC2F JUMP JUMPDEST DUP1 PUSH1 0x0 JUMPDEST DUP4 DUP2 LT ISZERO PUSH2 0x954 JUMPI DUP2 MLOAD PUSH2 0x93B DUP9 DUP3 PUSH2 0x897 JUMP JUMPDEST SWAP8 POP PUSH2 0x946 DUP4 PUSH2 0xC75 JUMP JUMPDEST SWAP3 POP POP PUSH1 0x1 DUP2 ADD SWAP1 POP PUSH2 0x927 JUMP JUMPDEST POP DUP6 SWAP4 POP POP POP POP SWAP3 SWAP2 POP POP JUMP JUMPDEST PUSH1 0x0 PUSH2 0x96C DUP3 PUSH2 0xC5F JUMP JUMPDEST PUSH2 0x976 DUP2 DUP6 PUSH2 0xCA0 JUMP JUMPDEST SWAP4 POP PUSH2 0x981 DUP4 PUSH2 0xC3F JUMP JUMPDEST DUP1 PUSH1 0x0 JUMPDEST DUP4 DUP2 LT ISZERO PUSH2 0x9B9 JUMPI PUSH2 0x996 DUP3 PUSH2 0xECC JUMP JUMPDEST PUSH2 0x9A0 DUP9 DUP3 PUSH2 0x8AF JUMP JUMPDEST SWAP8 POP PUSH2 0x9AB DUP4 PUSH2 0xC82 JUMP JUMPDEST SWAP3 POP POP PUSH1 0x1 DUP2 ADD SWAP1 POP PUSH2 0x985 JUMP JUMPDEST POP DUP6 SWAP4 POP POP POP POP SWAP3 SWAP2 POP POP JUMP JUMPDEST PUSH1 0x0 PUSH2 0x9D1 DUP3 PUSH2 0xC6A JUMP JUMPDEST PUSH2 0x9DB DUP2 DUP6 PUSH2 0xCAB JUMP JUMPDEST SWAP4 POP PUSH2 0x9EB DUP2 DUP6 PUSH1 0x20 DUP7 ADD PUSH2 0xD3F JUMP JUMPDEST DUP1 DUP5 ADD SWAP2 POP POP SWAP3 SWAP2 POP POP JUMP JUMPDEST PUSH1 0x0 PUSH2 0xA04 PUSH1 0x12 DUP4 PUSH2 0xCB6 JUMP JUMPDEST SWAP2 POP PUSH2 0xA0F DUP3 PUSH2 0xEF1 JUMP JUMPDEST PUSH1 0x20 DUP3 ADD SWAP1 POP SWAP2 SWAP1 POP JUMP JUMPDEST PUSH1 0x0 PUSH2 0xA27 PUSH1 0x1F DUP4 PUSH2 0xCB6 JUMP JUMPDEST SWAP2 POP PUSH2 0xA32 DUP3 PUSH2 0xF1A JUMP JUMPDEST PUSH1 0x20 DUP3 ADD SWAP1 POP SWAP2 SWAP1 POP JUMP JUMPDEST PUSH1 0x0 PUSH2 0xA4A PUSH1 0x2A DUP4 PUSH2 0xCB6 JUMP JUMPDEST SWAP2 POP PUSH2 0xA55 DUP3 PUSH2 0xF43 JUMP JUMPDEST PUSH1 0x40 DUP3 ADD SWAP1 POP SWAP2 SWAP1 POP JUMP JUMPDEST PUSH1 0x0 PUSH2 0xA6D PUSH1 0x16 DUP4 PUSH2 0xCB6 JUMP JUMPDEST SWAP2 POP PUSH2 0xA78 DUP3 PUSH2 0xF92 JUMP JUMPDEST PUSH1 0x20 DUP3 ADD SWAP1 POP SWAP2 SWAP1 POP JUMP JUMPDEST PUSH1 0x0 PUSH2 0xA90 PUSH1 0x33 DUP4 PUSH2 0xCB6 JUMP JUMPDEST SWAP2 POP PUSH2 0xA9B DUP3 PUSH2 0xFBB JUMP JUMPDEST PUSH1 0x40 DUP3 ADD SWAP1 POP SWAP2 SWAP1 POP JUMP JUMPDEST PUSH2 0xAAF DUP2 PUSH2 0xD35 JUMP JUMPDEST DUP3 MSTORE POP POP JUMP JUMPDEST PUSH2 0xAC6 PUSH2 0xAC1 DUP3 PUSH2 0xD35 JUMP JUMPDEST PUSH2 0xDD5 JUMP JUMPDEST DUP3 MSTORE POP POP JUMP JUMPDEST PUSH1 0x0 PUSH2 0xAD8 DUP3 DUP5 PUSH2 0x9C6 JUMP JUMPDEST SWAP2 POP DUP2 SWAP1 POP SWAP3 SWAP2 POP POP JUMP JUMPDEST PUSH1 0x0 PUSH2 0xAEF DUP3 DUP7 PUSH2 0xAB5 JUMP JUMPDEST PUSH1 0x20 DUP3 ADD SWAP2 POP PUSH2 0xAFF DUP3 DUP6 PUSH2 0xAB5 JUMP JUMPDEST PUSH1 0x20 DUP3 ADD SWAP2 POP PUSH2 0xB0F DUP3 DUP5 PUSH2 0x961 JUMP JUMPDEST SWAP2 POP DUP2 SWAP1 POP SWAP5 SWAP4 POP POP POP POP JUMP JUMPDEST PUSH1 0x0 PUSH1 0x20 DUP3 ADD SWAP1 POP PUSH2 0xB31 PUSH1 0x0 DUP4 ADD DUP5 PUSH2 0x8F4 JUMP JUMPDEST SWAP3 SWAP2 POP POP JUMP JUMPDEST PUSH1 0x0 PUSH1 0x20 DUP3 ADD SWAP1 POP PUSH2 0xB4C PUSH1 0x0 DUP4 ADD DUP5 PUSH2 0x8D6 JUMP JUMPDEST SWAP3 SWAP2 POP POP JUMP JUMPDEST PUSH1 0x0 PUSH1 0x20 DUP3 ADD SWAP1 POP DUP2 DUP2 SUB PUSH1 0x0 DUP4 ADD MSTORE PUSH2 0xB6C DUP2 DUP5 PUSH2 0x903 JUMP JUMPDEST SWAP1 POP SWAP3 SWAP2 POP POP JUMP JUMPDEST PUSH1 0x0 PUSH1 0x20 DUP3 ADD SWAP1 POP DUP2 DUP2 SUB PUSH1 0x0 DUP4 ADD MSTORE PUSH2 0xB8D DUP2 PUSH2 0x9F7 JUMP JUMPDEST SWAP1 POP SWAP2 SWAP1 POP JUMP JUMPDEST PUSH1 0x0 PUSH1 0x20 DUP3 ADD SWAP1 POP DUP2 DUP2 SUB PUSH1 0x0 DUP4 ADD MSTORE PUSH2 0xBAD DUP2 PUSH2 0xA1A JUMP JUMPDEST SWAP1 POP SWAP2 SWAP1 POP JUMP JUMPDEST PUSH1 0x0 PUSH1 0x20 DUP3 ADD SWAP1 POP DUP2 DUP2 SUB PUSH1 0x0 DUP4 ADD MSTORE PUSH2 0xBCD DUP2 PUSH2 0xA3D JUMP JUMPDEST SWAP1 POP SWAP2 SWAP1 POP JUMP JUMPDEST PUSH1 0x0 PUSH1 0x20 DUP3 ADD SWAP1 POP DUP2 DUP2 SUB PUSH1 0x0 DUP4 ADD MSTORE PUSH2 0xBED DUP2 PUSH2 0xA60 JUMP JUMPDEST SWAP1 POP SWAP2 SWAP1 POP JUMP JUMPDEST PUSH1 0x0 PUSH1 0x20 DUP3 ADD SWAP1 POP DUP2 DUP2 SUB PUSH1 0x0 DUP4 ADD MSTORE PUSH2 0xC0D DUP2 PUSH2 0xA83 JUMP JUMPDEST SWAP1 POP SWAP2 SWAP1 POP JUMP JUMPDEST PUSH1 0x0 PUSH1 0x20 DUP3 ADD SWAP1 POP PUSH2 0xC29 PUSH1 0x0 DUP4 ADD DUP5 PUSH2 0xAA6 JUMP JUMPDEST SWAP3 SWAP2 POP POP JUMP JUMPDEST PUSH1 0x0 DUP2 SWAP1 POP PUSH1 0x20 DUP3 ADD SWAP1 POP SWAP2 SWAP1 POP JUMP JUMPDEST PUSH1 0x0 DUP2 SWAP1 POP DUP2 PUSH1 0x0 MSTORE PUSH1 0x20 PUSH1 0x0 KECCAK256 SWAP1 POP SWAP2 SWAP1 POP JUMP JUMPDEST PUSH1 0x0 DUP2 MLOAD SWAP1 POP SWAP2 SWAP1 POP JUMP JUMPDEST PUSH1 0x0 DUP2 SLOAD SWAP1 POP SWAP2 SWAP1 POP JUMP JUMPDEST PUSH1 0x0 DUP2 MLOAD SWAP1 POP SWAP2 SWAP1 POP JUMP JUMPDEST PUSH1 0x0 PUSH1 0x20 DUP3 ADD SWAP1 POP SWAP2 SWAP1 POP JUMP JUMPDEST PUSH1 0x0 PUSH1 0x1 DUP3 ADD SWAP1 POP SWAP2 SWAP1 POP JUMP JUMPDEST PUSH1 0x0 DUP3 DUP3 MSTORE PUSH1 0x20 DUP3 ADD SWAP1 POP SWAP3 SWAP2 POP POP JUMP JUMPDEST PUSH1 0x0 DUP2 SWAP1 POP SWAP3 SWAP2 POP POP JUMP JUMPDEST PUSH1 0x0 DUP2 SWAP1 POP SWAP3 SWAP2 POP POP JUMP JUMPDEST PUSH1 0x0 DUP3 DUP3 MSTORE PUSH1 0x20 DUP3 ADD SWAP1 POP SWAP3 SWAP2 POP POP JUMP JUMPDEST PUSH1 0x0 PUSH20 0xFFFFFFFFFFFFFFFFFFFFFFFFFFFFFFFFFFFFFFFF DUP3 AND SWAP1 POP SWAP2 SWAP1 POP JUMP JUMPDEST PUSH1 0x0 PUSH2 0xCF2 DUP3 PUSH2 0xD15 JUMP JUMPDEST SWAP1 POP SWAP2 SWAP1 POP JUMP JUMPDEST PUSH1 0x0 PUSH2 0xD04 DUP3 PUSH2 0xD15 JUMP JUMPDEST SWAP1 POP SWAP2 SWAP1 POP JUMP JUMPDEST PUSH1 0x0 DUP2 SWAP1 POP SWAP2 SWAP1 POP JUMP JUMPDEST PUSH1 0x0 PUSH20 0xFFFFFFFFFFFFFFFFFFFFFFFFFFFFFFFFFFFFFFFF DUP3 AND SWAP1 POP SWAP2 SWAP1 POP JUMP JUMPDEST PUSH1 0x0 DUP2 SWAP1 POP SWAP2 SWAP1 POP JUMP JUMPDEST PUSH1 0x0 JUMPDEST DUP4 DUP2 LT ISZERO PUSH2 0xD5D JUMPI DUP1 DUP3 ADD MLOAD DUP2 DUP5 ADD MSTORE PUSH1 0x20 DUP2 ADD SWAP1 POP PUSH2 0xD42 JUMP JUMPDEST DUP4 DUP2 GT ISZERO PUSH2 0xD6C JUMPI PUSH1 0x0 DUP5 DUP5 ADD MSTORE JUMPDEST POP POP POP POP JUMP JUMPDEST PUSH1 0x0 PUSH2 0xD85 PUSH2 0xD80 DUP4 PUSH2 0xEE4 JUMP JUMPDEST PUSH2 0xCC7 JUMP JUMPDEST SWAP1 POP SWAP2 SWAP1 POP JUMP JUMPDEST PUSH1 0x0 PUSH2 0xD97 DUP3 PUSH2 0xD35 JUMP JUMPDEST SWAP2 POP PUSH32 0xFFFFFFFFFFFFFFFFFFFFFFFFFFFFFFFFFFFFFFFFFFFFFFFFFFFFFFFFFFFFFFFF DUP3 EQ ISZERO PUSH2 0xDCA JUMPI PUSH2 0xDC9 PUSH2 0xE10 JUMP JUMPDEST JUMPDEST PUSH1 0x1 DUP3 ADD SWAP1 POP SWAP2 SWAP1 POP JUMP JUMPDEST PUSH1 0x0 DUP2 SWAP1 POP SWAP2 SWAP1 POP JUMP JUMPDEST PUSH1 0x0 PUSH2 0xDEA DUP3 PUSH2 0xD35 JUMP JUMPDEST SWAP2 POP PUSH2 0xDF5 DUP4 PUSH2 0xD35 JUMP JUMPDEST SWAP3 POP DUP3 PUSH2 0xE05 JUMPI PUSH2 0xE04 PUSH2 0xE3F JUMP JUMPDEST JUMPDEST DUP3 DUP3 MOD SWAP1 POP SWAP3 SWAP2 POP POP JUMP JUMPDEST PUSH32 0x4E487B7100000000000000000000000000000000000000000000000000000000 PUSH1 0x0 MSTORE PUSH1 0x11 PUSH1 0x4 MSTORE PUSH1 0x24 PUSH1 0x0 REVERT JUMPDEST PUSH32 0x4E487B7100000000000000000000000000000000000000000000000000000000 PUSH1 0x0 MSTORE PUSH1 0x12 PUSH1 0x4 MSTORE PUSH1 0x24 PUSH1 0x0 REVERT JUMPDEST PUSH32 0x4E487B7100000000000000000000000000000000000000000000000000000000 PUSH1 0x0 MSTORE PUSH1 0x32 PUSH1 0x4 MSTORE PUSH1 0x24 PUSH1 0x0 REVERT JUMPDEST PUSH32 0x4E487B7100000000000000000000000000000000000000000000000000000000 PUSH1 0x0 MSTORE PUSH1 0x41 PUSH1 0x4 MSTORE PUSH1 0x24 PUSH1 0x0 REVERT JUMPDEST PUSH1 0x0 PUSH2 0xED8 DUP3 SLOAD PUSH2 0xD72 JUMP JUMPDEST SWAP1 POP SWAP2 SWAP1 POP JUMP JUMPDEST PUSH1 0x0 DUP1 REVERT JUMPDEST PUSH1 0x0 DUP2 PUSH1 0x0 SHR SWAP1 POP SWAP2 SWAP1 POP JUMP JUMPDEST PUSH32 0x596F752063616E206E6F74206163636573730000000000000000000000000000 PUSH1 0x0 DUP3 ADD MSTORE POP JUMP JUMPDEST PUSH32 0x596F7520616C7265616479206A6F696E6564207468697320636F6E7465737400 PUSH1 0x0 DUP3 ADD MSTORE POP JUMP JUMPDEST PUSH32 0x596F752063616E206E6F7420706172746963697061746520617320796F752061 PUSH1 0x0 DUP3 ADD MSTORE PUSH32 0x7265206D616E6167657200000000000000000000000000000000000000000000 PUSH1 0x20 DUP3 ADD MSTORE POP JUMP JUMPDEST PUSH32 0x436F6E74657374206E6F74207374617274207965742100000000000000000000 PUSH1 0x0 DUP3 ADD MSTORE POP JUMP JUMPDEST PUSH32 0x596F75206861766520746F207061792066656573206F66203120657468657220 PUSH1 0x0 DUP3 ADD MSTORE PUSH32 0x666F72206A6F696E696E6720636F6E7465737400000000000000000000000000 PUSH1 0x20 DUP3 ADD MSTORE POP JUMP JUMPDEST PUSH2 0x1013 DUP2 PUSH2 0xD0B JUMP JUMPDEST DUP2 EQ PUSH2 0x101E JUMPI PUSH1 0x0 DUP1 REVERT JUMPDEST POP JUMP JUMPDEST PUSH2 0x102A DUP2 PUSH2 0xD35 JUMP JUMPDEST DUP2 EQ PUSH2 0x1035 JUMPI PUSH1 0x0 DUP1 REVERT JUMPDEST POP JUMP INVALID LOG2 PUSH5 0x6970667358 0x22 SLT KECCAK256 AND 0xEF 0xEA 0xD0 0xA8 DUP16 BLOCKHASH DUP12 PUSH21 0xC1CF16A785DCFEFC726F4276C18A3854CD05F9C837 KECCAK256 0x24 PUSH5 0x736F6C6343 STOP ADDMOD SMOD STOP CALLER "
				},
				"gasEstimates": {
					"creation": {
						"codeDepositCost": "841200",
						"executionCost": "25143",
						"totalCost": "866343"
					},
					"external": {
						"ENTER()": "infinite",
						"checkBalance()": "405",
						"getPlayers()": "infinite",
						"manager()": "2511",
						"pickWinner()": "infinite",
						"players(uint256)": "5044"
					},
					"internal": {
						"alreadyEnter()": "infinite",
						"random()": "infinite"
					}
				},
				"methodIdentifiers": {
					"ENTER()": "19b37417",
					"checkBalance()": "c71daccb",
					"getPlayers()": "8b5b9ccc",
					"manager()": "481c6a75",
					"pickWinner()": "5d495aea",
					"players(uint256)": "f71d96cb"
				}
			},
			"storageLayout": {
				"storage": [
					{
						"astId": 3,
						"contract": "LotteryContract.sol:main",
						"label": "manager",
						"offset": 0,
						"slot": "0",
						"type": "t_address"
					},
					{
						"astId": 5,
						"contract": "LotteryContract.sol:main",
						"label": "company",
						"offset": 0,
						"slot": "1",
						"type": "t_address_payable"
					},
					{
						"astId": 8,
						"contract": "LotteryContract.sol:main",
						"label": "players",
						"offset": 0,
						"slot": "2",
						"type": "t_array(t_address_payable)dyn_storage"
					}
				],
				"types": {
					"t_address": {
						"encoding": "inplace",
						"label": "address",
						"numberOfBytes": "20"
					},
					"t_address_payable": {
						"encoding": "inplace",
						"label": "address payable",
						"numberOfBytes": "20"
					},
					"t_array(t_address_payable)dyn_storage": {
						"base": "t_address_payable",
						"encoding": "dynamic_array",
						"label": "address payable[]",
						"numberOfBytes": "32"
					}
				}
			},
			"userdoc": {
				"kind": "user",
				"methods": {},
				"version": 1
			}
		}
	}
}