{
	"LotteryContract.sol": {
		"main": {
			"abi": [
				{
					"inputs": [],
					"stateMutability": "nonpayable",
					"type": "constructor"
				},
				{
					"anonymous": false,
					"inputs": [
						{
							"indexed": false,
							"internalType": "uint256",
							"name": "a",
							"type": "uint256"
						}
					],
					"name": "log",
					"type": "event"
				},
				{
					"inputs": [],
					"name": "ENTER",
					"outputs": [],
					"stateMutability": "payable",
					"type": "function"
				},
				{
					"inputs": [],
					"name": "getPlayers",
					"outputs": [
						{
							"internalType": "address payable[]",
							"name": "",
							"type": "address[]"
						}
					],
					"stateMutability": "view",
					"type": "function"
				},
				{
					"inputs": [],
					"name": "manager",
					"outputs": [
						{
							"internalType": "address",
							"name": "",
							"type": "address"
						}
					],
					"stateMutability": "view",
					"type": "function"
				},
				{
					"inputs": [],
					"name": "pickWinner",
					"outputs": [],
					"stateMutability": "nonpayable",
					"type": "function"
				},
				{
					"inputs": [
						{
							"internalType": "uint256",
							"name": "",
							"type": "uint256"
						}
					],
					"name": "players",
					"outputs": [
						{
							"internalType": "address payable",
							"name": "",
							"type": "address"
						}
					],
					"stateMutability": "view",
					"type": "function"
				}
			],
			"devdoc": {
				"kind": "dev",
				"methods": {},
				"version": 1
			},
			"evm": {
				"assembly": "    /* \"LotteryContract.sol\":59:1435  contract main{\r... */\n  mstore(0x40, 0x80)\n    /* \"LotteryContract.sol\":152:204  constructor(){\r... */\n  callvalue\n  dup1\n  iszero\n  tag_1\n  jumpi\n  0x00\n  dup1\n  revert\ntag_1:\n  pop\n    /* \"LotteryContract.sol\":186:196  msg.sender */\n  caller\n    /* \"LotteryContract.sol\":176:183  manager */\n  0x00\n  dup1\n    /* \"LotteryContract.sol\":176:196  manager = msg.sender */\n  0x0100\n  exp\n  dup2\n  sload\n  dup2\n  0xffffffffffffffffffffffffffffffffffffffff\n  mul\n  not\n  and\n  swap1\n  dup4\n  0xffffffffffffffffffffffffffffffffffffffff\n  and\n  mul\n  or\n  swap1\n  sstore\n  pop\n    /* \"LotteryContract.sol\":59:1435  contract main{\r... */\n  dataSize(sub_0)\n  dup1\n  dataOffset(sub_0)\n  0x00\n  codecopy\n  0x00\n  return\nstop\n\nsub_0: assembly {\n        /* \"LotteryContract.sol\":59:1435  contract main{\r... */\n      mstore(0x40, 0x80)\n      jumpi(tag_1, lt(calldatasize, 0x04))\n      shr(0xe0, calldataload(0x00))\n      dup1\n      0x19b37417\n      eq\n      tag_2\n      jumpi\n      dup1\n      0x481c6a75\n      eq\n      tag_3\n      jumpi\n      dup1\n      0x5d495aea\n      eq\n      tag_4\n      jumpi\n      dup1\n      0x8b5b9ccc\n      eq\n      tag_5\n      jumpi\n      dup1\n      0xf71d96cb\n      eq\n      tag_6\n      jumpi\n    tag_1:\n      0x00\n      dup1\n      revert\n        /* \"LotteryContract.sol\":467:810  function ENTER() payable public{\r... */\n    tag_2:\n      tag_7\n      tag_8\n      jump\t// in\n    tag_7:\n      stop\n        /* \"LotteryContract.sol\":81:103  address public manager */\n    tag_3:\n      callvalue\n      dup1\n      iszero\n      tag_9\n      jumpi\n      0x00\n      dup1\n      revert\n    tag_9:\n      pop\n      tag_10\n      tag_11\n      jump\t// in\n    tag_10:\n      mload(0x40)\n      tag_12\n      swap2\n      swap1\n      tag_13\n      jump\t// in\n    tag_12:\n      mload(0x40)\n      dup1\n      swap2\n      sub\n      swap1\n      return\n        /* \"LotteryContract.sol\":993:1322  function pickWinner() public{\r... */\n    tag_4:\n      callvalue\n      dup1\n      iszero\n      tag_14\n      jumpi\n      0x00\n      dup1\n      revert\n    tag_14:\n      pop\n      tag_15\n      tag_16\n      jump\t// in\n    tag_15:\n      stop\n        /* \"LotteryContract.sol\":1330:1430  function getPlayers() view public returns(address payable[] memory){\r... */\n    tag_5:\n      callvalue\n      dup1\n      iszero\n      tag_17\n      jumpi\n      0x00\n      dup1\n      revert\n    tag_17:\n      pop\n      tag_18\n      tag_19\n      jump\t// in\n    tag_18:\n      mload(0x40)\n      tag_20\n      swap2\n      swap1\n      tag_21\n      jump\t// in\n    tag_20:\n      mload(0x40)\n      dup1\n      swap2\n      sub\n      swap1\n      return\n        /* \"LotteryContract.sol\":110:142  address payable[] public players */\n    tag_6:\n      callvalue\n      dup1\n      iszero\n      tag_22\n      jumpi\n      0x00\n      dup1\n      revert\n    tag_22:\n      pop\n      tag_23\n      0x04\n      dup1\n      calldatasize\n      sub\n      dup2\n      add\n      swap1\n      tag_24\n      swap2\n      swap1\n      tag_25\n      jump\t// in\n    tag_24:\n      tag_26\n      jump\t// in\n    tag_23:\n      mload(0x40)\n      tag_27\n      swap2\n      swap1\n      tag_28\n      jump\t// in\n    tag_27:\n      mload(0x40)\n      dup1\n      swap2\n      sub\n      swap1\n      return\n        /* \"LotteryContract.sol\":467:810  function ENTER() payable public{\r... */\n    tag_8:\n        /* \"LotteryContract.sol\":528:538  msg.sender */\n      caller\n        /* \"LotteryContract.sol\":517:538  manager != msg.sender */\n      0xffffffffffffffffffffffffffffffffffffffff\n      and\n        /* \"LotteryContract.sol\":517:524  manager */\n      0x00\n      dup1\n      sload\n      swap1\n      0x0100\n      exp\n      swap1\n      div\n      0xffffffffffffffffffffffffffffffffffffffff\n      and\n        /* \"LotteryContract.sol\":517:538  manager != msg.sender */\n      0xffffffffffffffffffffffffffffffffffffffff\n      and\n      eq\n      iszero\n        /* \"LotteryContract.sol\":509:585  require(manager != msg.sender, \"You can not participate as you are manager\") */\n      tag_30\n      jumpi\n      mload(0x40)\n      0x08c379a000000000000000000000000000000000000000000000000000000000\n      dup2\n      mstore\n      0x04\n      add\n      tag_31\n      swap1\n      tag_32\n      jump\t// in\n    tag_31:\n      mload(0x40)\n      dup1\n      swap2\n      sub\n      swap1\n      revert\n    tag_30:\n        /* \"LotteryContract.sol\":622:627  false */\n      0x00\n        /* \"LotteryContract.sol\":604:627  alreadyEnter() == false */\n      iszero\n      iszero\n        /* \"LotteryContract.sol\":604:618  alreadyEnter() */\n      tag_33\n        /* \"LotteryContract.sol\":604:616  alreadyEnter */\n      tag_34\n        /* \"LotteryContract.sol\":604:618  alreadyEnter() */\n      jump\t// in\n    tag_33:\n        /* \"LotteryContract.sol\":604:627  alreadyEnter() == false */\n      iszero\n      iszero\n      eq\n        /* \"LotteryContract.sol\":596:663  require(alreadyEnter() == false, \"You already joined this contest\") */\n      tag_35\n      jumpi\n      mload(0x40)\n      0x08c379a000000000000000000000000000000000000000000000000000000000\n      dup2\n      mstore\n      0x04\n      add\n      tag_36\n      swap1\n      tag_37\n      jump\t// in\n    tag_36:\n      mload(0x40)\n      dup1\n      swap2\n      sub\n      swap1\n      revert\n    tag_35:\n        /* \"LotteryContract.sol\":695:702  1 ether */\n      0x0de0b6b3a7640000\n        /* \"LotteryContract.sol\":682:691  msg.value */\n      callvalue\n        /* \"LotteryContract.sol\":682:702  msg.value == 1 ether */\n      eq\n        /* \"LotteryContract.sol\":674:758  require(msg.value == 1 ether, \"You have to pay fees of 1 ether for joining contest\") */\n      tag_38\n      jumpi\n      mload(0x40)\n      0x08c379a000000000000000000000000000000000000000000000000000000000\n      dup2\n      mstore\n      0x04\n      add\n      tag_39\n      swap1\n      tag_40\n      jump\t// in\n    tag_39:\n      mload(0x40)\n      dup1\n      swap2\n      sub\n      swap1\n      revert\n    tag_38:\n        /* \"LotteryContract.sol\":769:776  players */\n      0x01\n        /* \"LotteryContract.sol\":790:800  msg.sender */\n      caller\n        /* \"LotteryContract.sol\":769:802  players.push(payable(msg.sender)) */\n      swap1\n      dup1\n      0x01\n      dup2\n      sload\n      add\n      dup1\n      dup3\n      sstore\n      dup1\n      swap2\n      pop\n      pop\n      0x01\n      swap1\n      sub\n      swap1\n      0x00\n      mstore\n      keccak256(0x00, 0x20)\n      add\n      0x00\n      swap1\n      swap2\n      swap1\n      swap2\n      swap1\n      swap2\n      0x0100\n      exp\n      dup2\n      sload\n      dup2\n      0xffffffffffffffffffffffffffffffffffffffff\n      mul\n      not\n      and\n      swap1\n      dup4\n      0xffffffffffffffffffffffffffffffffffffffff\n      and\n      mul\n      or\n      swap1\n      sstore\n      pop\n        /* \"LotteryContract.sol\":467:810  function ENTER() payable public{\r... */\n      jump\t// out\n        /* \"LotteryContract.sol\":81:103  address public manager */\n    tag_11:\n      0x00\n      dup1\n      sload\n      swap1\n      0x0100\n      exp\n      swap1\n      div\n      0xffffffffffffffffffffffffffffffffffffffff\n      and\n      dup2\n      jump\t// out\n        /* \"LotteryContract.sol\":993:1322  function pickWinner() public{\r... */\n    tag_16:\n        /* \"LotteryContract.sol\":1058:1059  0 */\n      0x00\n        /* \"LotteryContract.sol\":1040:1047  players */\n      0x01\n        /* \"LotteryContract.sol\":1040:1054  players.length */\n      dup1\n      sload\n      swap1\n      pop\n        /* \"LotteryContract.sol\":1040:1059  players.length != 0 */\n      eq\n      iszero\n        /* \"LotteryContract.sol\":1032:1086  require(players.length != 0, \"Contest not start yet!\") */\n      tag_43\n      jumpi\n      mload(0x40)\n      0x08c379a000000000000000000000000000000000000000000000000000000000\n      dup2\n      mstore\n      0x04\n      add\n      tag_44\n      swap1\n      tag_45\n      jump\t// in\n    tag_44:\n      mload(0x40)\n      dup1\n      swap2\n      sub\n      swap1\n      revert\n    tag_43:\n        /* \"LotteryContract.sol\":1116:1126  msg.sender */\n      caller\n        /* \"LotteryContract.sol\":1105:1126  manager == msg.sender */\n      0xffffffffffffffffffffffffffffffffffffffff\n      and\n        /* \"LotteryContract.sol\":1105:1112  manager */\n      0x00\n      dup1\n      sload\n      swap1\n      0x0100\n      exp\n      swap1\n      div\n      0xffffffffffffffffffffffffffffffffffffffff\n      and\n        /* \"LotteryContract.sol\":1105:1126  manager == msg.sender */\n      0xffffffffffffffffffffffffffffffffffffffff\n      and\n      eq\n        /* \"LotteryContract.sol\":1097:1149  require(manager == msg.sender, \"You can not access\") */\n      tag_46\n      jumpi\n      mload(0x40)\n      0x08c379a000000000000000000000000000000000000000000000000000000000\n      dup2\n      mstore\n      0x04\n      add\n      tag_47\n      swap1\n      tag_48\n      jump\t// in\n    tag_47:\n      mload(0x40)\n      dup1\n      swap2\n      sub\n      swap1\n      revert\n    tag_46:\n        /* \"LotteryContract.sol\":1160:1170  uint index */\n      0x00\n        /* \"LotteryContract.sol\":1182:1189  players */\n      0x01\n        /* \"LotteryContract.sol\":1182:1196  players.length */\n      dup1\n      sload\n      swap1\n      pop\n        /* \"LotteryContract.sol\":1173:1181  random() */\n      tag_49\n        /* \"LotteryContract.sol\":1173:1179  random */\n      tag_50\n        /* \"LotteryContract.sol\":1173:1181  random() */\n      jump\t// in\n    tag_49:\n        /* \"LotteryContract.sol\":1173:1196  random()%players.length */\n      tag_51\n      swap2\n      swap1\n      tag_52\n      jump\t// in\n    tag_51:\n        /* \"LotteryContract.sol\":1160:1196  uint index = random()%players.length */\n      swap1\n      pop\n        /* \"LotteryContract.sol\":1207:1214  players */\n      0x01\n        /* \"LotteryContract.sol\":1215:1220  index */\n      dup2\n        /* \"LotteryContract.sol\":1207:1221  players[index] */\n      dup2\n      sload\n      dup2\n      lt\n      tag_53\n      jumpi\n      tag_54\n      tag_55\n      jump\t// in\n    tag_54:\n    tag_53:\n      swap1\n      0x00\n      mstore\n      keccak256(0x00, 0x20)\n      add\n      0x00\n      swap1\n      sload\n      swap1\n      0x0100\n      exp\n      swap1\n      div\n      0xffffffffffffffffffffffffffffffffffffffff\n      and\n        /* \"LotteryContract.sol\":1207:1230  players[index].transfer */\n      0xffffffffffffffffffffffffffffffffffffffff\n      and\n        /* \"LotteryContract.sol\":1207:1253  players[index].transfer(address(this).balance) */\n      0x08fc\n        /* \"LotteryContract.sol\":1231:1252  address(this).balance */\n      selfbalance\n        /* \"LotteryContract.sol\":1207:1253  players[index].transfer(address(this).balance) */\n      swap1\n      dup2\n      iszero\n      mul\n      swap1\n      mload(0x40)\n      0x00\n      mload(0x40)\n      dup1\n      dup4\n      sub\n      dup2\n      dup6\n      dup9\n      dup9\n      call\n      swap4\n      pop\n      pop\n      pop\n      pop\n      iszero\n      dup1\n      iszero\n      tag_58\n      jumpi\n      returndatasize\n      0x00\n      dup1\n      returndatacopy\n      revert(0x00, returndatasize)\n    tag_58:\n      pop\n        /* \"LotteryContract.sol\":1296:1297  0 */\n      0x00\n        /* \"LotteryContract.sol\":1274:1298  new address payable[](0) */\n      0xffffffffffffffff\n      dup2\n      gt\n      iszero\n      tag_59\n      jumpi\n      tag_60\n      tag_61\n      jump\t// in\n    tag_60:\n    tag_59:\n      mload(0x40)\n      swap1\n      dup1\n      dup3\n      mstore\n      dup1\n      0x20\n      mul\n      0x20\n      add\n      dup3\n      add\n      0x40\n      mstore\n      dup1\n      iszero\n      tag_62\n      jumpi\n      dup2\n      0x20\n      add\n      0x20\n      dup3\n      mul\n      dup1\n      calldatasize\n      dup4\n      calldatacopy\n      dup1\n      dup3\n      add\n      swap2\n      pop\n      pop\n      swap1\n      pop\n    tag_62:\n      pop\n        /* \"LotteryContract.sol\":1264:1271  players */\n      0x01\n        /* \"LotteryContract.sol\":1264:1298  players = new address payable[](0) */\n      swap1\n      dup1\n      mload\n      swap1\n      0x20\n      add\n      swap1\n      tag_63\n      swap3\n      swap2\n      swap1\n      tag_64\n      jump\t// in\n    tag_63:\n      pop\n        /* \"LotteryContract.sol\":1021:1322  {\r... */\n      pop\n        /* \"LotteryContract.sol\":993:1322  function pickWinner() public{\r... */\n      jump\t// out\n        /* \"LotteryContract.sol\":1330:1430  function getPlayers() view public returns(address payable[] memory){\r... */\n    tag_19:\n        /* \"LotteryContract.sol\":1372:1396  address payable[] memory */\n      0x60\n        /* \"LotteryContract.sol\":1415:1422  players */\n      0x01\n        /* \"LotteryContract.sol\":1408:1422  return players */\n      dup1\n      sload\n      dup1\n      0x20\n      mul\n      0x20\n      add\n      mload(0x40)\n      swap1\n      dup2\n      add\n      0x40\n      mstore\n      dup1\n      swap3\n      swap2\n      swap1\n      dup2\n      dup2\n      mstore\n      0x20\n      add\n      dup3\n      dup1\n      sload\n      dup1\n      iszero\n      tag_66\n      jumpi\n      0x20\n      mul\n      dup3\n      add\n      swap2\n      swap1\n      0x00\n      mstore\n      keccak256(0x00, 0x20)\n      swap1\n    tag_67:\n      dup2\n      0x00\n      swap1\n      sload\n      swap1\n      0x0100\n      exp\n      swap1\n      div\n      0xffffffffffffffffffffffffffffffffffffffff\n      and\n      0xffffffffffffffffffffffffffffffffffffffff\n      and\n      dup2\n      mstore\n      0x20\n      add\n      swap1\n      0x01\n      add\n      swap1\n      dup1\n      dup4\n      gt\n      tag_67\n      jumpi\n    tag_66:\n      pop\n      pop\n      pop\n      pop\n      pop\n      swap1\n      pop\n        /* \"LotteryContract.sol\":1330:1430  function getPlayers() view public returns(address payable[] memory){\r... */\n      swap1\n      jump\t// out\n        /* \"LotteryContract.sol\":110:142  address payable[] public players */\n    tag_26:\n      0x01\n      dup2\n      dup2\n      sload\n      dup2\n      lt\n      tag_68\n      jumpi\n      0x00\n      dup1\n      revert\n    tag_68:\n      swap1\n      0x00\n      mstore\n      keccak256(0x00, 0x20)\n      add\n      0x00\n      swap2\n      pop\n      sload\n      swap1\n      0x0100\n      exp\n      swap1\n      div\n      0xffffffffffffffffffffffffffffffffffffffff\n      and\n      dup2\n      jump\t// out\n        /* \"LotteryContract.sol\":212:459  function alreadyEnter() private view returns(bool){\r... */\n    tag_34:\n        /* \"LotteryContract.sol\":257:261  bool */\n      0x00\n        /* \"LotteryContract.sol\":277:287  uint index */\n      dup1\n        /* \"LotteryContract.sol\":290:291  0 */\n      0x00\n        /* \"LotteryContract.sol\":277:291  uint index = 0 */\n      swap1\n      pop\n        /* \"LotteryContract.sol\":273:429  for(uint index = 0; index < players.length; index++){\r... */\n    tag_71:\n        /* \"LotteryContract.sol\":301:308  players */\n      0x01\n        /* \"LotteryContract.sol\":301:315  players.length */\n      dup1\n      sload\n      swap1\n      pop\n        /* \"LotteryContract.sol\":293:298  index */\n      dup2\n        /* \"LotteryContract.sol\":293:315  index < players.length */\n      lt\n        /* \"LotteryContract.sol\":273:429  for(uint index = 0; index < players.length; index++){\r... */\n      iszero\n      tag_72\n      jumpi\n        /* \"LotteryContract.sol\":361:371  msg.sender */\n      caller\n        /* \"LotteryContract.sol\":343:371  players[index] == msg.sender */\n      0xffffffffffffffffffffffffffffffffffffffff\n      and\n        /* \"LotteryContract.sol\":343:350  players */\n      0x01\n        /* \"LotteryContract.sol\":351:356  index */\n      dup3\n        /* \"LotteryContract.sol\":343:357  players[index] */\n      dup2\n      sload\n      dup2\n      lt\n      tag_74\n      jumpi\n      tag_75\n      tag_55\n      jump\t// in\n    tag_75:\n    tag_74:\n      swap1\n      0x00\n      mstore\n      keccak256(0x00, 0x20)\n      add\n      0x00\n      swap1\n      sload\n      swap1\n      0x0100\n      exp\n      swap1\n      div\n      0xffffffffffffffffffffffffffffffffffffffff\n      and\n        /* \"LotteryContract.sol\":343:371  players[index] == msg.sender */\n      0xffffffffffffffffffffffffffffffffffffffff\n      and\n      eq\n        /* \"LotteryContract.sol\":340:418  if(players[index] == msg.sender){\r... */\n      iszero\n      tag_77\n      jumpi\n        /* \"LotteryContract.sol\":398:402  true */\n      0x01\n        /* \"LotteryContract.sol\":391:402  return true */\n      swap2\n      pop\n      pop\n      jump(tag_70)\n        /* \"LotteryContract.sol\":340:418  if(players[index] == msg.sender){\r... */\n    tag_77:\n        /* \"LotteryContract.sol\":317:324  index++ */\n      dup1\n      dup1\n      tag_78\n      swap1\n      tag_79\n      jump\t// in\n    tag_78:\n      swap2\n      pop\n      pop\n        /* \"LotteryContract.sol\":273:429  for(uint index = 0; index < players.length; index++){\r... */\n      jump(tag_71)\n    tag_72:\n      pop\n        /* \"LotteryContract.sol\":446:451  false */\n      0x00\n        /* \"LotteryContract.sol\":439:451  return false */\n      swap1\n      pop\n        /* \"LotteryContract.sol\":212:459  function alreadyEnter() private view returns(bool){\r... */\n    tag_70:\n      swap1\n      jump\t// out\n        /* \"LotteryContract.sol\":844:985  function random() view private returns(uint){\r... */\n    tag_50:\n        /* \"LotteryContract.sol\":883:887  uint */\n      0x00\n        /* \"LotteryContract.sol\":911:976  sha256(abi.encodePacked(block.difficulty, block.number, players)) */\n      0x02\n        /* \"LotteryContract.sol\":935:951  block.difficulty */\n      difficulty\n        /* \"LotteryContract.sol\":953:965  block.number */\n      number\n        /* \"LotteryContract.sol\":967:974  players */\n      0x01\n        /* \"LotteryContract.sol\":918:975  abi.encodePacked(block.difficulty, block.number, players) */\n      add(0x20, mload(0x40))\n      tag_81\n      swap4\n      swap3\n      swap2\n      swap1\n      tag_82\n      jump\t// in\n    tag_81:\n      mload(0x40)\n      0x20\n      dup2\n      dup4\n      sub\n      sub\n      dup2\n      mstore\n      swap1\n      0x40\n      mstore\n        /* \"LotteryContract.sol\":911:976  sha256(abi.encodePacked(block.difficulty, block.number, players)) */\n      mload(0x40)\n      tag_83\n      swap2\n      swap1\n      tag_84\n      jump\t// in\n    tag_83:\n      0x20\n      mload(0x40)\n      dup1\n      dup4\n      sub\n      dup2\n      dup6\n      gas\n      staticcall\n      iszero\n      dup1\n      iszero\n      tag_86\n      jumpi\n      returndatasize\n      0x00\n      dup1\n      returndatacopy\n      revert(0x00, returndatasize)\n    tag_86:\n      pop\n      pop\n      pop\n      mload(0x40)\n      returndatasize\n      not(0x1f)\n      0x1f\n      dup3\n      add\n      and\n      dup3\n      add\n      dup1\n      0x40\n      mstore\n      pop\n      dup2\n      add\n      swap1\n      tag_87\n      swap2\n      swap1\n      tag_88\n      jump\t// in\n    tag_87:\n        /* \"LotteryContract.sol\":906:977  uint(sha256(abi.encodePacked(block.difficulty, block.number, players))) */\n      0x00\n      shr\n        /* \"LotteryContract.sol\":899:977  return uint(sha256(abi.encodePacked(block.difficulty, block.number, players))) */\n      swap1\n      pop\n        /* \"LotteryContract.sol\":844:985  function random() view private returns(uint){\r... */\n      swap1\n      jump\t// out\n    tag_64:\n      dup3\n      dup1\n      sload\n      dup3\n      dup3\n      sstore\n      swap1\n      0x00\n      mstore\n      keccak256(0x00, 0x20)\n      swap1\n      dup2\n      add\n      swap3\n      dup3\n      iszero\n      tag_89\n      jumpi\n      swap2\n      0x20\n      mul\n      dup3\n      add\n    tag_90:\n      dup3\n      dup2\n      gt\n      iszero\n      tag_91\n      jumpi\n      dup3\n      mload\n      dup3\n      exp(0x0100, 0x00)\n      dup2\n      sload\n      dup2\n      0xffffffffffffffffffffffffffffffffffffffff\n      mul\n      not\n      and\n      swap1\n      dup4\n      0xffffffffffffffffffffffffffffffffffffffff\n      and\n      mul\n      or\n      swap1\n      sstore\n      pop\n      swap2\n      0x20\n      add\n      swap2\n      swap1\n      0x01\n      add\n      swap1\n      jump(tag_90)\n    tag_91:\n    tag_89:\n      pop\n      swap1\n      pop\n      tag_92\n      swap2\n      swap1\n      tag_93\n      jump\t// in\n    tag_92:\n      pop\n      swap1\n      jump\t// out\n    tag_93:\n    tag_94:\n      dup1\n      dup3\n      gt\n      iszero\n      tag_95\n      jumpi\n      0x00\n      dup2\n      0x00\n      swap1\n      sstore\n      pop\n      0x01\n      add\n      jump(tag_94)\n    tag_95:\n      pop\n      swap1\n      jump\t// out\n        /* \"#utility.yul\":7:150   */\n    tag_97:\n        /* \"#utility.yul\":64:69   */\n      0x00\n        /* \"#utility.yul\":95:101   */\n      dup2\n        /* \"#utility.yul\":89:102   */\n      mload\n        /* \"#utility.yul\":80:102   */\n      swap1\n      pop\n        /* \"#utility.yul\":111:144   */\n      tag_99\n        /* \"#utility.yul\":138:143   */\n      dup2\n        /* \"#utility.yul\":111:144   */\n      tag_100\n      jump\t// in\n    tag_99:\n        /* \"#utility.yul\":7:150   */\n      swap3\n      swap2\n      pop\n      pop\n      jump\t// out\n        /* \"#utility.yul\":156:295   */\n    tag_101:\n        /* \"#utility.yul\":202:207   */\n      0x00\n        /* \"#utility.yul\":240:246   */\n      dup2\n        /* \"#utility.yul\":227:247   */\n      calldataload\n        /* \"#utility.yul\":218:247   */\n      swap1\n      pop\n        /* \"#utility.yul\":256:289   */\n      tag_103\n        /* \"#utility.yul\":283:288   */\n      dup2\n        /* \"#utility.yul\":256:289   */\n      tag_104\n      jump\t// in\n    tag_103:\n        /* \"#utility.yul\":156:295   */\n      swap3\n      swap2\n      pop\n      pop\n      jump\t// out\n        /* \"#utility.yul\":301:652   */\n    tag_88:\n        /* \"#utility.yul\":371:377   */\n      0x00\n        /* \"#utility.yul\":420:422   */\n      0x20\n        /* \"#utility.yul\":408:417   */\n      dup3\n        /* \"#utility.yul\":399:406   */\n      dup5\n        /* \"#utility.yul\":395:418   */\n      sub\n        /* \"#utility.yul\":391:423   */\n      slt\n        /* \"#utility.yul\":388:507   */\n      iszero\n      tag_106\n      jumpi\n        /* \"#utility.yul\":426:505   */\n      tag_107\n      tag_108\n      jump\t// in\n    tag_107:\n        /* \"#utility.yul\":388:507   */\n    tag_106:\n        /* \"#utility.yul\":546:547   */\n      0x00\n        /* \"#utility.yul\":571:635   */\n      tag_109\n        /* \"#utility.yul\":627:634   */\n      dup5\n        /* \"#utility.yul\":618:624   */\n      dup3\n        /* \"#utility.yul\":607:616   */\n      dup6\n        /* \"#utility.yul\":603:625   */\n      add\n        /* \"#utility.yul\":571:635   */\n      tag_97\n      jump\t// in\n    tag_109:\n        /* \"#utility.yul\":561:635   */\n      swap2\n      pop\n        /* \"#utility.yul\":517:645   */\n      pop\n        /* \"#utility.yul\":301:652   */\n      swap3\n      swap2\n      pop\n      pop\n      jump\t// out\n        /* \"#utility.yul\":658:987   */\n    tag_25:\n        /* \"#utility.yul\":717:723   */\n      0x00\n        /* \"#utility.yul\":766:768   */\n      0x20\n        /* \"#utility.yul\":754:763   */\n      dup3\n        /* \"#utility.yul\":745:752   */\n      dup5\n        /* \"#utility.yul\":741:764   */\n      sub\n        /* \"#utility.yul\":737:769   */\n      slt\n        /* \"#utility.yul\":734:853   */\n      iszero\n      tag_111\n      jumpi\n        /* \"#utility.yul\":772:851   */\n      tag_112\n      tag_108\n      jump\t// in\n    tag_112:\n        /* \"#utility.yul\":734:853   */\n    tag_111:\n        /* \"#utility.yul\":892:893   */\n      0x00\n        /* \"#utility.yul\":917:970   */\n      tag_113\n        /* \"#utility.yul\":962:969   */\n      dup5\n        /* \"#utility.yul\":953:959   */\n      dup3\n        /* \"#utility.yul\":942:951   */\n      dup6\n        /* \"#utility.yul\":938:960   */\n      add\n        /* \"#utility.yul\":917:970   */\n      tag_101\n      jump\t// in\n    tag_113:\n        /* \"#utility.yul\":907:970   */\n      swap2\n      pop\n        /* \"#utility.yul\":863:980   */\n      pop\n        /* \"#utility.yul\":658:987   */\n      swap3\n      swap2\n      pop\n      pop\n      jump\t// out\n        /* \"#utility.yul\":993:1204   */\n    tag_114:\n        /* \"#utility.yul\":1078:1088   */\n      0x00\n        /* \"#utility.yul\":1099:1161   */\n      tag_116\n        /* \"#utility.yul\":1157:1160   */\n      dup4\n        /* \"#utility.yul\":1149:1155   */\n      dup4\n        /* \"#utility.yul\":1099:1161   */\n      tag_117\n      jump\t// in\n    tag_116:\n        /* \"#utility.yul\":1193:1197   */\n      0x20\n        /* \"#utility.yul\":1188:1191   */\n      dup4\n        /* \"#utility.yul\":1184:1198   */\n      add\n        /* \"#utility.yul\":1170:1198   */\n      swap1\n      pop\n        /* \"#utility.yul\":993:1204   */\n      swap3\n      swap2\n      pop\n      pop\n      jump\t// out\n        /* \"#utility.yul\":1210:1437   */\n    tag_118:\n        /* \"#utility.yul\":1303:1313   */\n      0x00\n        /* \"#utility.yul\":1324:1394   */\n      tag_120\n        /* \"#utility.yul\":1390:1393   */\n      dup4\n        /* \"#utility.yul\":1382:1388   */\n      dup4\n        /* \"#utility.yul\":1324:1394   */\n      tag_121\n      jump\t// in\n    tag_120:\n        /* \"#utility.yul\":1426:1430   */\n      0x20\n        /* \"#utility.yul\":1421:1424   */\n      dup4\n        /* \"#utility.yul\":1417:1431   */\n      add\n        /* \"#utility.yul\":1403:1431   */\n      swap1\n      pop\n        /* \"#utility.yul\":1210:1437   */\n      swap3\n      swap2\n      pop\n      pop\n      jump\t// out\n        /* \"#utility.yul\":1443:1575   */\n    tag_117:\n        /* \"#utility.yul\":1536:1568   */\n      tag_123\n        /* \"#utility.yul\":1562:1567   */\n      dup2\n        /* \"#utility.yul\":1536:1568   */\n      tag_124\n      jump\t// in\n    tag_123:\n        /* \"#utility.yul\":1531:1534   */\n      dup3\n        /* \"#utility.yul\":1524:1569   */\n      mstore\n        /* \"#utility.yul\":1443:1575   */\n      pop\n      pop\n      jump\t// out\n        /* \"#utility.yul\":1581:1723   */\n    tag_125:\n        /* \"#utility.yul\":1684:1716   */\n      tag_127\n        /* \"#utility.yul\":1710:1715   */\n      dup2\n        /* \"#utility.yul\":1684:1716   */\n      tag_124\n      jump\t// in\n    tag_127:\n        /* \"#utility.yul\":1679:1682   */\n      dup3\n        /* \"#utility.yul\":1672:1717   */\n      mstore\n        /* \"#utility.yul\":1581:1723   */\n      pop\n      pop\n      jump\t// out\n        /* \"#utility.yul\":1729:1869   */\n    tag_121:\n        /* \"#utility.yul\":1830:1862   */\n      tag_129\n        /* \"#utility.yul\":1856:1861   */\n      dup2\n        /* \"#utility.yul\":1830:1862   */\n      tag_124\n      jump\t// in\n    tag_129:\n        /* \"#utility.yul\":1825:1828   */\n      dup3\n        /* \"#utility.yul\":1818:1863   */\n      mstore\n        /* \"#utility.yul\":1729:1869   */\n      pop\n      pop\n      jump\t// out\n        /* \"#utility.yul\":1875:1993   */\n    tag_130:\n        /* \"#utility.yul\":1962:1986   */\n      tag_132\n        /* \"#utility.yul\":1980:1985   */\n      dup2\n        /* \"#utility.yul\":1962:1986   */\n      tag_133\n      jump\t// in\n    tag_132:\n        /* \"#utility.yul\":1957:1960   */\n      dup3\n        /* \"#utility.yul\":1950:1987   */\n      mstore\n        /* \"#utility.yul\":1875:1993   */\n      pop\n      pop\n      jump\t// out\n        /* \"#utility.yul\":2045:2841   */\n    tag_134:\n        /* \"#utility.yul\":2180:2183   */\n      0x00\n        /* \"#utility.yul\":2209:2271   */\n      tag_136\n        /* \"#utility.yul\":2265:2270   */\n      dup3\n        /* \"#utility.yul\":2209:2271   */\n      tag_137\n      jump\t// in\n    tag_136:\n        /* \"#utility.yul\":2287:2381   */\n      tag_138\n        /* \"#utility.yul\":2374:2380   */\n      dup2\n        /* \"#utility.yul\":2369:2372   */\n      dup6\n        /* \"#utility.yul\":2287:2381   */\n      tag_139\n      jump\t// in\n    tag_138:\n        /* \"#utility.yul\":2280:2381   */\n      swap4\n      pop\n        /* \"#utility.yul\":2405:2469   */\n      tag_140\n        /* \"#utility.yul\":2463:2468   */\n      dup4\n        /* \"#utility.yul\":2405:2469   */\n      tag_141\n      jump\t// in\n    tag_140:\n        /* \"#utility.yul\":2492:2499   */\n      dup1\n        /* \"#utility.yul\":2523:2524   */\n      0x00\n        /* \"#utility.yul\":2508:2816   */\n    tag_142:\n        /* \"#utility.yul\":2533:2539   */\n      dup4\n        /* \"#utility.yul\":2530:2531   */\n      dup2\n        /* \"#utility.yul\":2527:2540   */\n      lt\n        /* \"#utility.yul\":2508:2816   */\n      iszero\n      tag_144\n      jumpi\n        /* \"#utility.yul\":2609:2615   */\n      dup2\n        /* \"#utility.yul\":2603:2616   */\n      mload\n        /* \"#utility.yul\":2636:2715   */\n      tag_145\n        /* \"#utility.yul\":2711:2714   */\n      dup9\n        /* \"#utility.yul\":2696:2709   */\n      dup3\n        /* \"#utility.yul\":2636:2715   */\n      tag_114\n      jump\t// in\n    tag_145:\n        /* \"#utility.yul\":2629:2715   */\n      swap8\n      pop\n        /* \"#utility.yul\":2738:2806   */\n      tag_146\n        /* \"#utility.yul\":2799:2805   */\n      dup4\n        /* \"#utility.yul\":2738:2806   */\n      tag_147\n      jump\t// in\n    tag_146:\n        /* \"#utility.yul\":2728:2806   */\n      swap3\n      pop\n        /* \"#utility.yul\":2568:2816   */\n      pop\n        /* \"#utility.yul\":2555:2556   */\n      0x01\n        /* \"#utility.yul\":2552:2553   */\n      dup2\n        /* \"#utility.yul\":2548:2557   */\n      add\n        /* \"#utility.yul\":2543:2557   */\n      swap1\n      pop\n        /* \"#utility.yul\":2508:2816   */\n      jump(tag_142)\n    tag_144:\n        /* \"#utility.yul\":2512:2526   */\n      pop\n        /* \"#utility.yul\":2832:2835   */\n      dup6\n        /* \"#utility.yul\":2825:2835   */\n      swap4\n      pop\n        /* \"#utility.yul\":2185:2841   */\n      pop\n      pop\n      pop\n        /* \"#utility.yul\":2045:2841   */\n      swap3\n      swap2\n      pop\n      pop\n      jump\t// out\n        /* \"#utility.yul\":2893:3760   */\n    tag_148:\n        /* \"#utility.yul\":3043:3046   */\n      0x00\n        /* \"#utility.yul\":3072:3131   */\n      tag_150\n        /* \"#utility.yul\":3125:3130   */\n      dup3\n        /* \"#utility.yul\":3072:3131   */\n      tag_151\n      jump\t// in\n    tag_150:\n        /* \"#utility.yul\":3147:3259   */\n      tag_152\n        /* \"#utility.yul\":3252:3258   */\n      dup2\n        /* \"#utility.yul\":3247:3250   */\n      dup6\n        /* \"#utility.yul\":3147:3259   */\n      tag_153\n      jump\t// in\n    tag_152:\n        /* \"#utility.yul\":3140:3259   */\n      swap4\n      pop\n        /* \"#utility.yul\":3283:3344   */\n      tag_154\n        /* \"#utility.yul\":3338:3343   */\n      dup4\n        /* \"#utility.yul\":3283:3344   */\n      tag_155\n      jump\t// in\n    tag_154:\n        /* \"#utility.yul\":3367:3374   */\n      dup1\n        /* \"#utility.yul\":3398:3399   */\n      0x00\n        /* \"#utility.yul\":3383:3735   */\n    tag_156:\n        /* \"#utility.yul\":3408:3414   */\n      dup4\n        /* \"#utility.yul\":3405:3406   */\n      dup2\n        /* \"#utility.yul\":3402:3415   */\n      lt\n        /* \"#utility.yul\":3383:3735   */\n      iszero\n      tag_158\n      jumpi\n        /* \"#utility.yul\":3478:3530   */\n      tag_159\n        /* \"#utility.yul\":3523:3529   */\n      dup3\n        /* \"#utility.yul\":3478:3530   */\n      tag_160\n      jump\t// in\n    tag_159:\n        /* \"#utility.yul\":3550:3637   */\n      tag_161\n        /* \"#utility.yul\":3633:3636   */\n      dup9\n        /* \"#utility.yul\":3618:3631   */\n      dup3\n        /* \"#utility.yul\":3550:3637   */\n      tag_118\n      jump\t// in\n    tag_161:\n        /* \"#utility.yul\":3543:3637   */\n      swap8\n      pop\n        /* \"#utility.yul\":3660:3725   */\n      tag_162\n        /* \"#utility.yul\":3718:3724   */\n      dup4\n        /* \"#utility.yul\":3660:3725   */\n      tag_163\n      jump\t// in\n    tag_162:\n        /* \"#utility.yul\":3650:3725   */\n      swap3\n      pop\n        /* \"#utility.yul\":3443:3735   */\n      pop\n        /* \"#utility.yul\":3430:3431   */\n      0x01\n        /* \"#utility.yul\":3427:3428   */\n      dup2\n        /* \"#utility.yul\":3423:3432   */\n      add\n        /* \"#utility.yul\":3418:3432   */\n      swap1\n      pop\n        /* \"#utility.yul\":3383:3735   */\n      jump(tag_156)\n    tag_158:\n        /* \"#utility.yul\":3387:3401   */\n      pop\n        /* \"#utility.yul\":3751:3754   */\n      dup6\n        /* \"#utility.yul\":3744:3754   */\n      swap4\n      pop\n        /* \"#utility.yul\":3048:3760   */\n      pop\n      pop\n      pop\n        /* \"#utility.yul\":2893:3760   */\n      swap3\n      swap2\n      pop\n      pop\n      jump\t// out\n        /* \"#utility.yul\":3766:4139   */\n    tag_164:\n        /* \"#utility.yul\":3870:3873   */\n      0x00\n        /* \"#utility.yul\":3898:3936   */\n      tag_166\n        /* \"#utility.yul\":3930:3935   */\n      dup3\n        /* \"#utility.yul\":3898:3936   */\n      tag_167\n      jump\t// in\n    tag_166:\n        /* \"#utility.yul\":3952:4040   */\n      tag_168\n        /* \"#utility.yul\":4033:4039   */\n      dup2\n        /* \"#utility.yul\":4028:4031   */\n      dup6\n        /* \"#utility.yul\":3952:4040   */\n      tag_169\n      jump\t// in\n    tag_168:\n        /* \"#utility.yul\":3945:4040   */\n      swap4\n      pop\n        /* \"#utility.yul\":4049:4101   */\n      tag_170\n        /* \"#utility.yul\":4094:4100   */\n      dup2\n        /* \"#utility.yul\":4089:4092   */\n      dup6\n        /* \"#utility.yul\":4082:4086   */\n      0x20\n        /* \"#utility.yul\":4075:4080   */\n      dup7\n        /* \"#utility.yul\":4071:4087   */\n      add\n        /* \"#utility.yul\":4049:4101   */\n      tag_171\n      jump\t// in\n    tag_170:\n        /* \"#utility.yul\":4126:4132   */\n      dup1\n        /* \"#utility.yul\":4121:4124   */\n      dup5\n        /* \"#utility.yul\":4117:4133   */\n      add\n        /* \"#utility.yul\":4110:4133   */\n      swap2\n      pop\n        /* \"#utility.yul\":3874:4139   */\n      pop\n        /* \"#utility.yul\":3766:4139   */\n      swap3\n      swap2\n      pop\n      pop\n      jump\t// out\n        /* \"#utility.yul\":4145:4511   */\n    tag_172:\n        /* \"#utility.yul\":4287:4290   */\n      0x00\n        /* \"#utility.yul\":4308:4375   */\n      tag_174\n        /* \"#utility.yul\":4372:4374   */\n      0x12\n        /* \"#utility.yul\":4367:4370   */\n      dup4\n        /* \"#utility.yul\":4308:4375   */\n      tag_175\n      jump\t// in\n    tag_174:\n        /* \"#utility.yul\":4301:4375   */\n      swap2\n      pop\n        /* \"#utility.yul\":4384:4477   */\n      tag_176\n        /* \"#utility.yul\":4473:4476   */\n      dup3\n        /* \"#utility.yul\":4384:4477   */\n      tag_177\n      jump\t// in\n    tag_176:\n        /* \"#utility.yul\":4502:4504   */\n      0x20\n        /* \"#utility.yul\":4497:4500   */\n      dup3\n        /* \"#utility.yul\":4493:4505   */\n      add\n        /* \"#utility.yul\":4486:4505   */\n      swap1\n      pop\n        /* \"#utility.yul\":4145:4511   */\n      swap2\n      swap1\n      pop\n      jump\t// out\n        /* \"#utility.yul\":4517:4883   */\n    tag_178:\n        /* \"#utility.yul\":4659:4662   */\n      0x00\n        /* \"#utility.yul\":4680:4747   */\n      tag_180\n        /* \"#utility.yul\":4744:4746   */\n      0x1f\n        /* \"#utility.yul\":4739:4742   */\n      dup4\n        /* \"#utility.yul\":4680:4747   */\n      tag_175\n      jump\t// in\n    tag_180:\n        /* \"#utility.yul\":4673:4747   */\n      swap2\n      pop\n        /* \"#utility.yul\":4756:4849   */\n      tag_181\n        /* \"#utility.yul\":4845:4848   */\n      dup3\n        /* \"#utility.yul\":4756:4849   */\n      tag_182\n      jump\t// in\n    tag_181:\n        /* \"#utility.yul\":4874:4876   */\n      0x20\n        /* \"#utility.yul\":4869:4872   */\n      dup3\n        /* \"#utility.yul\":4865:4877   */\n      add\n        /* \"#utility.yul\":4858:4877   */\n      swap1\n      pop\n        /* \"#utility.yul\":4517:4883   */\n      swap2\n      swap1\n      pop\n      jump\t// out\n        /* \"#utility.yul\":4889:5255   */\n    tag_183:\n        /* \"#utility.yul\":5031:5034   */\n      0x00\n        /* \"#utility.yul\":5052:5119   */\n      tag_185\n        /* \"#utility.yul\":5116:5118   */\n      0x2a\n        /* \"#utility.yul\":5111:5114   */\n      dup4\n        /* \"#utility.yul\":5052:5119   */\n      tag_175\n      jump\t// in\n    tag_185:\n        /* \"#utility.yul\":5045:5119   */\n      swap2\n      pop\n        /* \"#utility.yul\":5128:5221   */\n      tag_186\n        /* \"#utility.yul\":5217:5220   */\n      dup3\n        /* \"#utility.yul\":5128:5221   */\n      tag_187\n      jump\t// in\n    tag_186:\n        /* \"#utility.yul\":5246:5248   */\n      0x40\n        /* \"#utility.yul\":5241:5244   */\n      dup3\n        /* \"#utility.yul\":5237:5249   */\n      add\n        /* \"#utility.yul\":5230:5249   */\n      swap1\n      pop\n        /* \"#utility.yul\":4889:5255   */\n      swap2\n      swap1\n      pop\n      jump\t// out\n        /* \"#utility.yul\":5261:5627   */\n    tag_188:\n        /* \"#utility.yul\":5403:5406   */\n      0x00\n        /* \"#utility.yul\":5424:5491   */\n      tag_190\n        /* \"#utility.yul\":5488:5490   */\n      0x16\n        /* \"#utility.yul\":5483:5486   */\n      dup4\n        /* \"#utility.yul\":5424:5491   */\n      tag_175\n      jump\t// in\n    tag_190:\n        /* \"#utility.yul\":5417:5491   */\n      swap2\n      pop\n        /* \"#utility.yul\":5500:5593   */\n      tag_191\n        /* \"#utility.yul\":5589:5592   */\n      dup3\n        /* \"#utility.yul\":5500:5593   */\n      tag_192\n      jump\t// in\n    tag_191:\n        /* \"#utility.yul\":5618:5620   */\n      0x20\n        /* \"#utility.yul\":5613:5616   */\n      dup3\n        /* \"#utility.yul\":5609:5621   */\n      add\n        /* \"#utility.yul\":5602:5621   */\n      swap1\n      pop\n        /* \"#utility.yul\":5261:5627   */\n      swap2\n      swap1\n      pop\n      jump\t// out\n        /* \"#utility.yul\":5633:5999   */\n    tag_193:\n        /* \"#utility.yul\":5775:5778   */\n      0x00\n        /* \"#utility.yul\":5796:5863   */\n      tag_195\n        /* \"#utility.yul\":5860:5862   */\n      0x33\n        /* \"#utility.yul\":5855:5858   */\n      dup4\n        /* \"#utility.yul\":5796:5863   */\n      tag_175\n      jump\t// in\n    tag_195:\n        /* \"#utility.yul\":5789:5863   */\n      swap2\n      pop\n        /* \"#utility.yul\":5872:5965   */\n      tag_196\n        /* \"#utility.yul\":5961:5964   */\n      dup3\n        /* \"#utility.yul\":5872:5965   */\n      tag_197\n      jump\t// in\n    tag_196:\n        /* \"#utility.yul\":5990:5992   */\n      0x40\n        /* \"#utility.yul\":5985:5988   */\n      dup3\n        /* \"#utility.yul\":5981:5993   */\n      add\n        /* \"#utility.yul\":5974:5993   */\n      swap1\n      pop\n        /* \"#utility.yul\":5633:5999   */\n      swap2\n      swap1\n      pop\n      jump\t// out\n        /* \"#utility.yul\":6005:6162   */\n    tag_198:\n        /* \"#utility.yul\":6110:6155   */\n      tag_200\n        /* \"#utility.yul\":6130:6154   */\n      tag_201\n        /* \"#utility.yul\":6148:6153   */\n      dup3\n        /* \"#utility.yul\":6130:6154   */\n      tag_202\n      jump\t// in\n    tag_201:\n        /* \"#utility.yul\":6110:6155   */\n      tag_203\n      jump\t// in\n    tag_200:\n        /* \"#utility.yul\":6105:6108   */\n      dup3\n        /* \"#utility.yul\":6098:6156   */\n      mstore\n        /* \"#utility.yul\":6005:6162   */\n      pop\n      pop\n      jump\t// out\n        /* \"#utility.yul\":6168:6439   */\n    tag_84:\n        /* \"#utility.yul\":6298:6301   */\n      0x00\n        /* \"#utility.yul\":6320:6413   */\n      tag_205\n        /* \"#utility.yul\":6409:6412   */\n      dup3\n        /* \"#utility.yul\":6400:6406   */\n      dup5\n        /* \"#utility.yul\":6320:6413   */\n      tag_164\n      jump\t// in\n    tag_205:\n        /* \"#utility.yul\":6313:6413   */\n      swap2\n      pop\n        /* \"#utility.yul\":6430:6433   */\n      dup2\n        /* \"#utility.yul\":6423:6433   */\n      swap1\n      pop\n        /* \"#utility.yul\":6168:6439   */\n      swap3\n      swap2\n      pop\n      pop\n      jump\t// out\n        /* \"#utility.yul\":6445:7088   */\n    tag_82:\n        /* \"#utility.yul\":6676:6679   */\n      0x00\n        /* \"#utility.yul\":6691:6766   */\n      tag_207\n        /* \"#utility.yul\":6762:6765   */\n      dup3\n        /* \"#utility.yul\":6753:6759   */\n      dup7\n        /* \"#utility.yul\":6691:6766   */\n      tag_198\n      jump\t// in\n    tag_207:\n        /* \"#utility.yul\":6791:6793   */\n      0x20\n        /* \"#utility.yul\":6786:6789   */\n      dup3\n        /* \"#utility.yul\":6782:6794   */\n      add\n        /* \"#utility.yul\":6775:6794   */\n      swap2\n      pop\n        /* \"#utility.yul\":6804:6879   */\n      tag_208\n        /* \"#utility.yul\":6875:6878   */\n      dup3\n        /* \"#utility.yul\":6866:6872   */\n      dup6\n        /* \"#utility.yul\":6804:6879   */\n      tag_198\n      jump\t// in\n    tag_208:\n        /* \"#utility.yul\":6904:6906   */\n      0x20\n        /* \"#utility.yul\":6899:6902   */\n      dup3\n        /* \"#utility.yul\":6895:6907   */\n      add\n        /* \"#utility.yul\":6888:6907   */\n      swap2\n      pop\n        /* \"#utility.yul\":6924:7062   */\n      tag_209\n        /* \"#utility.yul\":7058:7061   */\n      dup3\n        /* \"#utility.yul\":7049:7055   */\n      dup5\n        /* \"#utility.yul\":6924:7062   */\n      tag_148\n      jump\t// in\n    tag_209:\n        /* \"#utility.yul\":6917:7062   */\n      swap2\n      pop\n        /* \"#utility.yul\":7079:7082   */\n      dup2\n        /* \"#utility.yul\":7072:7082   */\n      swap1\n      pop\n        /* \"#utility.yul\":6445:7088   */\n      swap5\n      swap4\n      pop\n      pop\n      pop\n      pop\n      jump\t// out\n        /* \"#utility.yul\":7094:7316   */\n    tag_13:\n        /* \"#utility.yul\":7187:7191   */\n      0x00\n        /* \"#utility.yul\":7225:7227   */\n      0x20\n        /* \"#utility.yul\":7214:7223   */\n      dup3\n        /* \"#utility.yul\":7210:7228   */\n      add\n        /* \"#utility.yul\":7202:7228   */\n      swap1\n      pop\n        /* \"#utility.yul\":7238:7309   */\n      tag_211\n        /* \"#utility.yul\":7306:7307   */\n      0x00\n        /* \"#utility.yul\":7295:7304   */\n      dup4\n        /* \"#utility.yul\":7291:7308   */\n      add\n        /* \"#utility.yul\":7282:7288   */\n      dup5\n        /* \"#utility.yul\":7238:7309   */\n      tag_130\n      jump\t// in\n    tag_211:\n        /* \"#utility.yul\":7094:7316   */\n      swap3\n      swap2\n      pop\n      pop\n      jump\t// out\n        /* \"#utility.yul\":7322:7576   */\n    tag_28:\n        /* \"#utility.yul\":7431:7435   */\n      0x00\n        /* \"#utility.yul\":7469:7471   */\n      0x20\n        /* \"#utility.yul\":7458:7467   */\n      dup3\n        /* \"#utility.yul\":7454:7472   */\n      add\n        /* \"#utility.yul\":7446:7472   */\n      swap1\n      pop\n        /* \"#utility.yul\":7482:7569   */\n      tag_213\n        /* \"#utility.yul\":7566:7567   */\n      0x00\n        /* \"#utility.yul\":7555:7564   */\n      dup4\n        /* \"#utility.yul\":7551:7568   */\n      add\n        /* \"#utility.yul\":7542:7548   */\n      dup5\n        /* \"#utility.yul\":7482:7569   */\n      tag_125\n      jump\t// in\n    tag_213:\n        /* \"#utility.yul\":7322:7576   */\n      swap3\n      swap2\n      pop\n      pop\n      jump\t// out\n        /* \"#utility.yul\":7582:7987   */\n    tag_21:\n        /* \"#utility.yul\":7741:7745   */\n      0x00\n        /* \"#utility.yul\":7779:7781   */\n      0x20\n        /* \"#utility.yul\":7768:7777   */\n      dup3\n        /* \"#utility.yul\":7764:7782   */\n      add\n        /* \"#utility.yul\":7756:7782   */\n      swap1\n      pop\n        /* \"#utility.yul\":7828:7837   */\n      dup2\n        /* \"#utility.yul\":7822:7826   */\n      dup2\n        /* \"#utility.yul\":7818:7838   */\n      sub\n        /* \"#utility.yul\":7814:7815   */\n      0x00\n        /* \"#utility.yul\":7803:7812   */\n      dup4\n        /* \"#utility.yul\":7799:7816   */\n      add\n        /* \"#utility.yul\":7792:7839   */\n      mstore\n        /* \"#utility.yul\":7856:7980   */\n      tag_215\n        /* \"#utility.yul\":7975:7979   */\n      dup2\n        /* \"#utility.yul\":7966:7972   */\n      dup5\n        /* \"#utility.yul\":7856:7980   */\n      tag_134\n      jump\t// in\n    tag_215:\n        /* \"#utility.yul\":7848:7980   */\n      swap1\n      pop\n        /* \"#utility.yul\":7582:7987   */\n      swap3\n      swap2\n      pop\n      pop\n      jump\t// out\n        /* \"#utility.yul\":7993:8412   */\n    tag_48:\n        /* \"#utility.yul\":8159:8163   */\n      0x00\n        /* \"#utility.yul\":8197:8199   */\n      0x20\n        /* \"#utility.yul\":8186:8195   */\n      dup3\n        /* \"#utility.yul\":8182:8200   */\n      add\n        /* \"#utility.yul\":8174:8200   */\n      swap1\n      pop\n        /* \"#utility.yul\":8246:8255   */\n      dup2\n        /* \"#utility.yul\":8240:8244   */\n      dup2\n        /* \"#utility.yul\":8236:8256   */\n      sub\n        /* \"#utility.yul\":8232:8233   */\n      0x00\n        /* \"#utility.yul\":8221:8230   */\n      dup4\n        /* \"#utility.yul\":8217:8234   */\n      add\n        /* \"#utility.yul\":8210:8257   */\n      mstore\n        /* \"#utility.yul\":8274:8405   */\n      tag_217\n        /* \"#utility.yul\":8400:8404   */\n      dup2\n        /* \"#utility.yul\":8274:8405   */\n      tag_172\n      jump\t// in\n    tag_217:\n        /* \"#utility.yul\":8266:8405   */\n      swap1\n      pop\n        /* \"#utility.yul\":7993:8412   */\n      swap2\n      swap1\n      pop\n      jump\t// out\n        /* \"#utility.yul\":8418:8837   */\n    tag_37:\n        /* \"#utility.yul\":8584:8588   */\n      0x00\n        /* \"#utility.yul\":8622:8624   */\n      0x20\n        /* \"#utility.yul\":8611:8620   */\n      dup3\n        /* \"#utility.yul\":8607:8625   */\n      add\n        /* \"#utility.yul\":8599:8625   */\n      swap1\n      pop\n        /* \"#utility.yul\":8671:8680   */\n      dup2\n        /* \"#utility.yul\":8665:8669   */\n      dup2\n        /* \"#utility.yul\":8661:8681   */\n      sub\n        /* \"#utility.yul\":8657:8658   */\n      0x00\n        /* \"#utility.yul\":8646:8655   */\n      dup4\n        /* \"#utility.yul\":8642:8659   */\n      add\n        /* \"#utility.yul\":8635:8682   */\n      mstore\n        /* \"#utility.yul\":8699:8830   */\n      tag_219\n        /* \"#utility.yul\":8825:8829   */\n      dup2\n        /* \"#utility.yul\":8699:8830   */\n      tag_178\n      jump\t// in\n    tag_219:\n        /* \"#utility.yul\":8691:8830   */\n      swap1\n      pop\n        /* \"#utility.yul\":8418:8837   */\n      swap2\n      swap1\n      pop\n      jump\t// out\n        /* \"#utility.yul\":8843:9262   */\n    tag_32:\n        /* \"#utility.yul\":9009:9013   */\n      0x00\n        /* \"#utility.yul\":9047:9049   */\n      0x20\n        /* \"#utility.yul\":9036:9045   */\n      dup3\n        /* \"#utility.yul\":9032:9050   */\n      add\n        /* \"#utility.yul\":9024:9050   */\n      swap1\n      pop\n        /* \"#utility.yul\":9096:9105   */\n      dup2\n        /* \"#utility.yul\":9090:9094   */\n      dup2\n        /* \"#utility.yul\":9086:9106   */\n      sub\n        /* \"#utility.yul\":9082:9083   */\n      0x00\n        /* \"#utility.yul\":9071:9080   */\n      dup4\n        /* \"#utility.yul\":9067:9084   */\n      add\n        /* \"#utility.yul\":9060:9107   */\n      mstore\n        /* \"#utility.yul\":9124:9255   */\n      tag_221\n        /* \"#utility.yul\":9250:9254   */\n      dup2\n        /* \"#utility.yul\":9124:9255   */\n      tag_183\n      jump\t// in\n    tag_221:\n        /* \"#utility.yul\":9116:9255   */\n      swap1\n      pop\n        /* \"#utility.yul\":8843:9262   */\n      swap2\n      swap1\n      pop\n      jump\t// out\n        /* \"#utility.yul\":9268:9687   */\n    tag_45:\n        /* \"#utility.yul\":9434:9438   */\n      0x00\n        /* \"#utility.yul\":9472:9474   */\n      0x20\n        /* \"#utility.yul\":9461:9470   */\n      dup3\n        /* \"#utility.yul\":9457:9475   */\n      add\n        /* \"#utility.yul\":9449:9475   */\n      swap1\n      pop\n        /* \"#utility.yul\":9521:9530   */\n      dup2\n        /* \"#utility.yul\":9515:9519   */\n      dup2\n        /* \"#utility.yul\":9511:9531   */\n      sub\n        /* \"#utility.yul\":9507:9508   */\n      0x00\n        /* \"#utility.yul\":9496:9505   */\n      dup4\n        /* \"#utility.yul\":9492:9509   */\n      add\n        /* \"#utility.yul\":9485:9532   */\n      mstore\n        /* \"#utility.yul\":9549:9680   */\n      tag_223\n        /* \"#utility.yul\":9675:9679   */\n      dup2\n        /* \"#utility.yul\":9549:9680   */\n      tag_188\n      jump\t// in\n    tag_223:\n        /* \"#utility.yul\":9541:9680   */\n      swap1\n      pop\n        /* \"#utility.yul\":9268:9687   */\n      swap2\n      swap1\n      pop\n      jump\t// out\n        /* \"#utility.yul\":9693:10112   */\n    tag_40:\n        /* \"#utility.yul\":9859:9863   */\n      0x00\n        /* \"#utility.yul\":9897:9899   */\n      0x20\n        /* \"#utility.yul\":9886:9895   */\n      dup3\n        /* \"#utility.yul\":9882:9900   */\n      add\n        /* \"#utility.yul\":9874:9900   */\n      swap1\n      pop\n        /* \"#utility.yul\":9946:9955   */\n      dup2\n        /* \"#utility.yul\":9940:9944   */\n      dup2\n        /* \"#utility.yul\":9936:9956   */\n      sub\n        /* \"#utility.yul\":9932:9933   */\n      0x00\n        /* \"#utility.yul\":9921:9930   */\n      dup4\n        /* \"#utility.yul\":9917:9934   */\n      add\n        /* \"#utility.yul\":9910:9957   */\n      mstore\n        /* \"#utility.yul\":9974:10105   */\n      tag_225\n        /* \"#utility.yul\":10100:10104   */\n      dup2\n        /* \"#utility.yul\":9974:10105   */\n      tag_193\n      jump\t// in\n    tag_225:\n        /* \"#utility.yul\":9966:10105   */\n      swap1\n      pop\n        /* \"#utility.yul\":9693:10112   */\n      swap2\n      swap1\n      pop\n      jump\t// out\n        /* \"#utility.yul\":10199:10339   */\n    tag_141:\n        /* \"#utility.yul\":10274:10278   */\n      0x00\n        /* \"#utility.yul\":10297:10300   */\n      dup2\n        /* \"#utility.yul\":10289:10300   */\n      swap1\n      pop\n        /* \"#utility.yul\":10327:10331   */\n      0x20\n        /* \"#utility.yul\":10322:10325   */\n      dup3\n        /* \"#utility.yul\":10318:10332   */\n      add\n        /* \"#utility.yul\":10310:10332   */\n      swap1\n      pop\n        /* \"#utility.yul\":10199:10339   */\n      swap2\n      swap1\n      pop\n      jump\t// out\n        /* \"#utility.yul\":10345:10509   */\n    tag_155:\n        /* \"#utility.yul\":10417:10421   */\n      0x00\n        /* \"#utility.yul\":10440:10443   */\n      dup2\n        /* \"#utility.yul\":10432:10443   */\n      swap1\n      pop\n        /* \"#utility.yul\":10463:10466   */\n      dup2\n        /* \"#utility.yul\":10460:10461   */\n      0x00\n        /* \"#utility.yul\":10453:10467   */\n      mstore\n        /* \"#utility.yul\":10497:10501   */\n      0x20\n        /* \"#utility.yul\":10494:10495   */\n      0x00\n        /* \"#utility.yul\":10484:10502   */\n      keccak256\n        /* \"#utility.yul\":10476:10502   */\n      swap1\n      pop\n        /* \"#utility.yul\":10345:10509   */\n      swap2\n      swap1\n      pop\n      jump\t// out\n        /* \"#utility.yul\":10515:10637   */\n    tag_137:\n        /* \"#utility.yul\":10590:10596   */\n      0x00\n        /* \"#utility.yul\":10624:10629   */\n      dup2\n        /* \"#utility.yul\":10618:10630   */\n      mload\n        /* \"#utility.yul\":10608:10630   */\n      swap1\n      pop\n        /* \"#utility.yul\":10515:10637   */\n      swap2\n      swap1\n      pop\n      jump\t// out\n        /* \"#utility.yul\":10643:10762   */\n    tag_151:\n        /* \"#utility.yul\":10715:10721   */\n      0x00\n        /* \"#utility.yul\":10749:10754   */\n      dup2\n        /* \"#utility.yul\":10743:10755   */\n      sload\n        /* \"#utility.yul\":10733:10755   */\n      swap1\n      pop\n        /* \"#utility.yul\":10643:10762   */\n      swap2\n      swap1\n      pop\n      jump\t// out\n        /* \"#utility.yul\":10768:10866   */\n    tag_167:\n        /* \"#utility.yul\":10819:10825   */\n      0x00\n        /* \"#utility.yul\":10853:10858   */\n      dup2\n        /* \"#utility.yul\":10847:10859   */\n      mload\n        /* \"#utility.yul\":10837:10859   */\n      swap1\n      pop\n        /* \"#utility.yul\":10768:10866   */\n      swap2\n      swap1\n      pop\n      jump\t// out\n        /* \"#utility.yul\":10872:10993   */\n    tag_147:\n        /* \"#utility.yul\":10950:10954   */\n      0x00\n        /* \"#utility.yul\":10982:10986   */\n      0x20\n        /* \"#utility.yul\":10977:10980   */\n      dup3\n        /* \"#utility.yul\":10973:10987   */\n      add\n        /* \"#utility.yul\":10965:10987   */\n      swap1\n      pop\n        /* \"#utility.yul\":10872:10993   */\n      swap2\n      swap1\n      pop\n      jump\t// out\n        /* \"#utility.yul\":10999:11117   */\n    tag_163:\n        /* \"#utility.yul\":11074:11078   */\n      0x00\n        /* \"#utility.yul\":11106:11110   */\n      0x01\n        /* \"#utility.yul\":11101:11104   */\n      dup3\n        /* \"#utility.yul\":11097:11111   */\n      add\n        /* \"#utility.yul\":11089:11111   */\n      swap1\n      pop\n        /* \"#utility.yul\":10999:11117   */\n      swap2\n      swap1\n      pop\n      jump\t// out\n        /* \"#utility.yul\":11123:11315   */\n    tag_139:\n        /* \"#utility.yul\":11230:11241   */\n      0x00\n        /* \"#utility.yul\":11264:11270   */\n      dup3\n        /* \"#utility.yul\":11259:11262   */\n      dup3\n        /* \"#utility.yul\":11252:11271   */\n      mstore\n        /* \"#utility.yul\":11304:11308   */\n      0x20\n        /* \"#utility.yul\":11299:11302   */\n      dup3\n        /* \"#utility.yul\":11295:11309   */\n      add\n        /* \"#utility.yul\":11280:11309   */\n      swap1\n      pop\n        /* \"#utility.yul\":11123:11315   */\n      swap3\n      swap2\n      pop\n      pop\n      jump\t// out\n        /* \"#utility.yul\":11321:11492   */\n    tag_153:\n        /* \"#utility.yul\":11446:11457   */\n      0x00\n        /* \"#utility.yul\":11483:11486   */\n      dup2\n        /* \"#utility.yul\":11468:11486   */\n      swap1\n      pop\n        /* \"#utility.yul\":11321:11492   */\n      swap3\n      swap2\n      pop\n      pop\n      jump\t// out\n        /* \"#utility.yul\":11498:11645   */\n    tag_169:\n        /* \"#utility.yul\":11599:11610   */\n      0x00\n        /* \"#utility.yul\":11636:11639   */\n      dup2\n        /* \"#utility.yul\":11621:11639   */\n      swap1\n      pop\n        /* \"#utility.yul\":11498:11645   */\n      swap3\n      swap2\n      pop\n      pop\n      jump\t// out\n        /* \"#utility.yul\":11651:11820   */\n    tag_175:\n        /* \"#utility.yul\":11735:11746   */\n      0x00\n        /* \"#utility.yul\":11769:11775   */\n      dup3\n        /* \"#utility.yul\":11764:11767   */\n      dup3\n        /* \"#utility.yul\":11757:11776   */\n      mstore\n        /* \"#utility.yul\":11809:11813   */\n      0x20\n        /* \"#utility.yul\":11804:11807   */\n      dup3\n        /* \"#utility.yul\":11800:11814   */\n      add\n        /* \"#utility.yul\":11785:11814   */\n      swap1\n      pop\n        /* \"#utility.yul\":11651:11820   */\n      swap3\n      swap2\n      pop\n      pop\n      jump\t// out\n        /* \"#utility.yul\":11826:11973   */\n    tag_239:\n        /* \"#utility.yul\":11884:11891   */\n      0x00\n        /* \"#utility.yul\":11924:11966   */\n      0xffffffffffffffffffffffffffffffffffffffff\n        /* \"#utility.yul\":11917:11922   */\n      dup3\n        /* \"#utility.yul\":11913:11967   */\n      and\n        /* \"#utility.yul\":11902:11967   */\n      swap1\n      pop\n        /* \"#utility.yul\":11826:11973   */\n      swap2\n      swap1\n      pop\n      jump\t// out\n        /* \"#utility.yul\":11979:12075   */\n    tag_133:\n        /* \"#utility.yul\":12016:12023   */\n      0x00\n        /* \"#utility.yul\":12045:12069   */\n      tag_242\n        /* \"#utility.yul\":12063:12068   */\n      dup3\n        /* \"#utility.yul\":12045:12069   */\n      tag_243\n      jump\t// in\n    tag_242:\n        /* \"#utility.yul\":12034:12069   */\n      swap1\n      pop\n        /* \"#utility.yul\":11979:12075   */\n      swap2\n      swap1\n      pop\n      jump\t// out\n        /* \"#utility.yul\":12081:12185   */\n    tag_124:\n        /* \"#utility.yul\":12126:12133   */\n      0x00\n        /* \"#utility.yul\":12155:12179   */\n      tag_245\n        /* \"#utility.yul\":12173:12178   */\n      dup3\n        /* \"#utility.yul\":12155:12179   */\n      tag_243\n      jump\t// in\n    tag_245:\n        /* \"#utility.yul\":12144:12179   */\n      swap1\n      pop\n        /* \"#utility.yul\":12081:12185   */\n      swap2\n      swap1\n      pop\n      jump\t// out\n        /* \"#utility.yul\":12191:12268   */\n    tag_246:\n        /* \"#utility.yul\":12228:12235   */\n      0x00\n        /* \"#utility.yul\":12257:12262   */\n      dup2\n        /* \"#utility.yul\":12246:12262   */\n      swap1\n      pop\n        /* \"#utility.yul\":12191:12268   */\n      swap2\n      swap1\n      pop\n      jump\t// out\n        /* \"#utility.yul\":12274:12400   */\n    tag_243:\n        /* \"#utility.yul\":12311:12318   */\n      0x00\n        /* \"#utility.yul\":12351:12393   */\n      0xffffffffffffffffffffffffffffffffffffffff\n        /* \"#utility.yul\":12344:12349   */\n      dup3\n        /* \"#utility.yul\":12340:12394   */\n      and\n        /* \"#utility.yul\":12329:12394   */\n      swap1\n      pop\n        /* \"#utility.yul\":12274:12400   */\n      swap2\n      swap1\n      pop\n      jump\t// out\n        /* \"#utility.yul\":12406:12483   */\n    tag_202:\n        /* \"#utility.yul\":12443:12450   */\n      0x00\n        /* \"#utility.yul\":12472:12477   */\n      dup2\n        /* \"#utility.yul\":12461:12477   */\n      swap1\n      pop\n        /* \"#utility.yul\":12406:12483   */\n      swap2\n      swap1\n      pop\n      jump\t// out\n        /* \"#utility.yul\":12489:12796   */\n    tag_171:\n        /* \"#utility.yul\":12557:12558   */\n      0x00\n        /* \"#utility.yul\":12567:12680   */\n    tag_251:\n        /* \"#utility.yul\":12581:12587   */\n      dup4\n        /* \"#utility.yul\":12578:12579   */\n      dup2\n        /* \"#utility.yul\":12575:12588   */\n      lt\n        /* \"#utility.yul\":12567:12680   */\n      iszero\n      tag_253\n      jumpi\n        /* \"#utility.yul\":12666:12667   */\n      dup1\n        /* \"#utility.yul\":12661:12664   */\n      dup3\n        /* \"#utility.yul\":12657:12668   */\n      add\n        /* \"#utility.yul\":12651:12669   */\n      mload\n        /* \"#utility.yul\":12647:12648   */\n      dup2\n        /* \"#utility.yul\":12642:12645   */\n      dup5\n        /* \"#utility.yul\":12638:12649   */\n      add\n        /* \"#utility.yul\":12631:12670   */\n      mstore\n        /* \"#utility.yul\":12603:12605   */\n      0x20\n        /* \"#utility.yul\":12600:12601   */\n      dup2\n        /* \"#utility.yul\":12596:12606   */\n      add\n        /* \"#utility.yul\":12591:12606   */\n      swap1\n      pop\n        /* \"#utility.yul\":12567:12680   */\n      jump(tag_251)\n    tag_253:\n        /* \"#utility.yul\":12698:12704   */\n      dup4\n        /* \"#utility.yul\":12695:12696   */\n      dup2\n        /* \"#utility.yul\":12692:12705   */\n      gt\n        /* \"#utility.yul\":12689:12790   */\n      iszero\n      tag_254\n      jumpi\n        /* \"#utility.yul\":12778:12779   */\n      0x00\n        /* \"#utility.yul\":12769:12775   */\n      dup5\n        /* \"#utility.yul\":12764:12767   */\n      dup5\n        /* \"#utility.yul\":12760:12776   */\n      add\n        /* \"#utility.yul\":12753:12780   */\n      mstore\n        /* \"#utility.yul\":12689:12790   */\n    tag_254:\n        /* \"#utility.yul\":12538:12796   */\n      pop\n        /* \"#utility.yul\":12489:12796   */\n      pop\n      pop\n      pop\n      jump\t// out\n        /* \"#utility.yul\":12802:12984   */\n    tag_255:\n        /* \"#utility.yul\":12879:12884   */\n      0x00\n        /* \"#utility.yul\":12904:12978   */\n      tag_257\n        /* \"#utility.yul\":12943:12977   */\n      tag_258\n        /* \"#utility.yul\":12966:12976   */\n      dup4\n        /* \"#utility.yul\":12943:12977   */\n      tag_259\n      jump\t// in\n    tag_258:\n        /* \"#utility.yul\":12904:12978   */\n      tag_239\n      jump\t// in\n    tag_257:\n        /* \"#utility.yul\":12895:12978   */\n      swap1\n      pop\n        /* \"#utility.yul\":12802:12984   */\n      swap2\n      swap1\n      pop\n      jump\t// out\n        /* \"#utility.yul\":12990:13223   */\n    tag_79:\n        /* \"#utility.yul\":13029:13032   */\n      0x00\n        /* \"#utility.yul\":13052:13076   */\n      tag_261\n        /* \"#utility.yul\":13070:13075   */\n      dup3\n        /* \"#utility.yul\":13052:13076   */\n      tag_202\n      jump\t// in\n    tag_261:\n        /* \"#utility.yul\":13043:13076   */\n      swap2\n      pop\n        /* \"#utility.yul\":13098:13164   */\n      0xffffffffffffffffffffffffffffffffffffffffffffffffffffffffffffffff\n        /* \"#utility.yul\":13091:13096   */\n      dup3\n        /* \"#utility.yul\":13088:13165   */\n      eq\n        /* \"#utility.yul\":13085:13188   */\n      iszero\n      tag_262\n      jumpi\n        /* \"#utility.yul\":13168:13186   */\n      tag_263\n      tag_264\n      jump\t// in\n    tag_263:\n        /* \"#utility.yul\":13085:13188   */\n    tag_262:\n        /* \"#utility.yul\":13215:13216   */\n      0x01\n        /* \"#utility.yul\":13208:13213   */\n      dup3\n        /* \"#utility.yul\":13204:13217   */\n      add\n        /* \"#utility.yul\":13197:13217   */\n      swap1\n      pop\n        /* \"#utility.yul\":12990:13223   */\n      swap2\n      swap1\n      pop\n      jump\t// out\n        /* \"#utility.yul\":13229:13308   */\n    tag_203:\n        /* \"#utility.yul\":13268:13275   */\n      0x00\n        /* \"#utility.yul\":13297:13302   */\n      dup2\n        /* \"#utility.yul\":13286:13302   */\n      swap1\n      pop\n        /* \"#utility.yul\":13229:13308   */\n      swap2\n      swap1\n      pop\n      jump\t// out\n        /* \"#utility.yul\":13314:13490   */\n    tag_52:\n        /* \"#utility.yul\":13346:13347   */\n      0x00\n        /* \"#utility.yul\":13363:13383   */\n      tag_267\n        /* \"#utility.yul\":13381:13382   */\n      dup3\n        /* \"#utility.yul\":13363:13383   */\n      tag_202\n      jump\t// in\n    tag_267:\n        /* \"#utility.yul\":13358:13383   */\n      swap2\n      pop\n        /* \"#utility.yul\":13397:13417   */\n      tag_268\n        /* \"#utility.yul\":13415:13416   */\n      dup4\n        /* \"#utility.yul\":13397:13417   */\n      tag_202\n      jump\t// in\n    tag_268:\n        /* \"#utility.yul\":13392:13417   */\n      swap3\n      pop\n        /* \"#utility.yul\":13436:13437   */\n      dup3\n        /* \"#utility.yul\":13426:13461   */\n      tag_269\n      jumpi\n        /* \"#utility.yul\":13441:13459   */\n      tag_270\n      tag_271\n      jump\t// in\n    tag_270:\n        /* \"#utility.yul\":13426:13461   */\n    tag_269:\n        /* \"#utility.yul\":13482:13483   */\n      dup3\n        /* \"#utility.yul\":13479:13480   */\n      dup3\n        /* \"#utility.yul\":13475:13484   */\n      mod\n        /* \"#utility.yul\":13470:13484   */\n      swap1\n      pop\n        /* \"#utility.yul\":13314:13490   */\n      swap3\n      swap2\n      pop\n      pop\n      jump\t// out\n        /* \"#utility.yul\":13496:13676   */\n    tag_264:\n        /* \"#utility.yul\":13544:13621   */\n      0x4e487b7100000000000000000000000000000000000000000000000000000000\n        /* \"#utility.yul\":13541:13542   */\n      0x00\n        /* \"#utility.yul\":13534:13622   */\n      mstore\n        /* \"#utility.yul\":13641:13645   */\n      0x11\n        /* \"#utility.yul\":13638:13639   */\n      0x04\n        /* \"#utility.yul\":13631:13646   */\n      mstore\n        /* \"#utility.yul\":13665:13669   */\n      0x24\n        /* \"#utility.yul\":13662:13663   */\n      0x00\n        /* \"#utility.yul\":13655:13670   */\n      revert\n        /* \"#utility.yul\":13682:13862   */\n    tag_271:\n        /* \"#utility.yul\":13730:13807   */\n      0x4e487b7100000000000000000000000000000000000000000000000000000000\n        /* \"#utility.yul\":13727:13728   */\n      0x00\n        /* \"#utility.yul\":13720:13808   */\n      mstore\n        /* \"#utility.yul\":13827:13831   */\n      0x12\n        /* \"#utility.yul\":13824:13825   */\n      0x04\n        /* \"#utility.yul\":13817:13832   */\n      mstore\n        /* \"#utility.yul\":13851:13855   */\n      0x24\n        /* \"#utility.yul\":13848:13849   */\n      0x00\n        /* \"#utility.yul\":13841:13856   */\n      revert\n        /* \"#utility.yul\":13868:14048   */\n    tag_55:\n        /* \"#utility.yul\":13916:13993   */\n      0x4e487b7100000000000000000000000000000000000000000000000000000000\n        /* \"#utility.yul\":13913:13914   */\n      0x00\n        /* \"#utility.yul\":13906:13994   */\n      mstore\n        /* \"#utility.yul\":14013:14017   */\n      0x32\n        /* \"#utility.yul\":14010:14011   */\n      0x04\n        /* \"#utility.yul\":14003:14018   */\n      mstore\n        /* \"#utility.yul\":14037:14041   */\n      0x24\n        /* \"#utility.yul\":14034:14035   */\n      0x00\n        /* \"#utility.yul\":14027:14042   */\n      revert\n        /* \"#utility.yul\":14054:14234   */\n    tag_61:\n        /* \"#utility.yul\":14102:14179   */\n      0x4e487b7100000000000000000000000000000000000000000000000000000000\n        /* \"#utility.yul\":14099:14100   */\n      0x00\n        /* \"#utility.yul\":14092:14180   */\n      mstore\n        /* \"#utility.yul\":14199:14203   */\n      0x41\n        /* \"#utility.yul\":14196:14197   */\n      0x04\n        /* \"#utility.yul\":14189:14204   */\n      mstore\n        /* \"#utility.yul\":14223:14227   */\n      0x24\n        /* \"#utility.yul\":14220:14221   */\n      0x00\n        /* \"#utility.yul\":14213:14228   */\n      revert\n        /* \"#utility.yul\":14240:14400   */\n    tag_160:\n        /* \"#utility.yul\":14303:14308   */\n      0x00\n        /* \"#utility.yul\":14328:14393   */\n      tag_277\n        /* \"#utility.yul\":14387:14391   */\n      dup3\n        /* \"#utility.yul\":14381:14392   */\n      sload\n        /* \"#utility.yul\":14328:14393   */\n      tag_255\n      jump\t// in\n    tag_277:\n        /* \"#utility.yul\":14319:14393   */\n      swap1\n      pop\n        /* \"#utility.yul\":14240:14400   */\n      swap2\n      swap1\n      pop\n      jump\t// out\n        /* \"#utility.yul\":14529:14646   */\n    tag_108:\n        /* \"#utility.yul\":14638:14639   */\n      0x00\n        /* \"#utility.yul\":14635:14636   */\n      dup1\n        /* \"#utility.yul\":14628:14640   */\n      revert\n        /* \"#utility.yul\":14652:14754   */\n    tag_259:\n        /* \"#utility.yul\":14694:14702   */\n      0x00\n        /* \"#utility.yul\":14741:14746   */\n      dup2\n        /* \"#utility.yul\":14738:14739   */\n      0x00\n        /* \"#utility.yul\":14734:14747   */\n      shr\n        /* \"#utility.yul\":14713:14747   */\n      swap1\n      pop\n        /* \"#utility.yul\":14652:14754   */\n      swap2\n      swap1\n      pop\n      jump\t// out\n        /* \"#utility.yul\":14760:14928   */\n    tag_177:\n        /* \"#utility.yul\":14900:14920   */\n      0x596f752063616e206e6f74206163636573730000000000000000000000000000\n        /* \"#utility.yul\":14896:14897   */\n      0x00\n        /* \"#utility.yul\":14888:14894   */\n      dup3\n        /* \"#utility.yul\":14884:14898   */\n      add\n        /* \"#utility.yul\":14877:14921   */\n      mstore\n        /* \"#utility.yul\":14760:14928   */\n      pop\n      jump\t// out\n        /* \"#utility.yul\":14934:15115   */\n    tag_182:\n        /* \"#utility.yul\":15074:15107   */\n      0x596f7520616c7265616479206a6f696e6564207468697320636f6e7465737400\n        /* \"#utility.yul\":15070:15071   */\n      0x00\n        /* \"#utility.yul\":15062:15068   */\n      dup3\n        /* \"#utility.yul\":15058:15072   */\n      add\n        /* \"#utility.yul\":15051:15108   */\n      mstore\n        /* \"#utility.yul\":14934:15115   */\n      pop\n      jump\t// out\n        /* \"#utility.yul\":15121:15350   */\n    tag_187:\n        /* \"#utility.yul\":15261:15295   */\n      0x596f752063616e206e6f7420706172746963697061746520617320796f752061\n        /* \"#utility.yul\":15257:15258   */\n      0x00\n        /* \"#utility.yul\":15249:15255   */\n      dup3\n        /* \"#utility.yul\":15245:15259   */\n      add\n        /* \"#utility.yul\":15238:15296   */\n      mstore\n        /* \"#utility.yul\":15330:15342   */\n      0x7265206d616e6167657200000000000000000000000000000000000000000000\n        /* \"#utility.yul\":15325:15327   */\n      0x20\n        /* \"#utility.yul\":15317:15323   */\n      dup3\n        /* \"#utility.yul\":15313:15328   */\n      add\n        /* \"#utility.yul\":15306:15343   */\n      mstore\n        /* \"#utility.yul\":15121:15350   */\n      pop\n      jump\t// out\n        /* \"#utility.yul\":15356:15528   */\n    tag_192:\n        /* \"#utility.yul\":15496:15520   */\n      0x436f6e74657374206e6f74207374617274207965742100000000000000000000\n        /* \"#utility.yul\":15492:15493   */\n      0x00\n        /* \"#utility.yul\":15484:15490   */\n      dup3\n        /* \"#utility.yul\":15480:15494   */\n      add\n        /* \"#utility.yul\":15473:15521   */\n      mstore\n        /* \"#utility.yul\":15356:15528   */\n      pop\n      jump\t// out\n        /* \"#utility.yul\":15534:15772   */\n    tag_197:\n        /* \"#utility.yul\":15674:15708   */\n      0x596f75206861766520746f207061792066656573206f66203120657468657220\n        /* \"#utility.yul\":15670:15671   */\n      0x00\n        /* \"#utility.yul\":15662:15668   */\n      dup3\n        /* \"#utility.yul\":15658:15672   */\n      add\n        /* \"#utility.yul\":15651:15709   */\n      mstore\n        /* \"#utility.yul\":15743:15764   */\n      0x666f72206a6f696e696e6720636f6e7465737400000000000000000000000000\n        /* \"#utility.yul\":15738:15740   */\n      0x20\n        /* \"#utility.yul\":15730:15736   */\n      dup3\n        /* \"#utility.yul\":15726:15741   */\n      add\n        /* \"#utility.yul\":15719:15765   */\n      mstore\n        /* \"#utility.yul\":15534:15772   */\n      pop\n      jump\t// out\n        /* \"#utility.yul\":15778:15900   */\n    tag_100:\n        /* \"#utility.yul\":15851:15875   */\n      tag_288\n        /* \"#utility.yul\":15869:15874   */\n      dup2\n        /* \"#utility.yul\":15851:15875   */\n      tag_246\n      jump\t// in\n    tag_288:\n        /* \"#utility.yul\":15844:15849   */\n      dup2\n        /* \"#utility.yul\":15841:15876   */\n      eq\n        /* \"#utility.yul\":15831:15894   */\n      tag_289\n      jumpi\n        /* \"#utility.yul\":15890:15891   */\n      0x00\n        /* \"#utility.yul\":15887:15888   */\n      dup1\n        /* \"#utility.yul\":15880:15892   */\n      revert\n        /* \"#utility.yul\":15831:15894   */\n    tag_289:\n        /* \"#utility.yul\":15778:15900   */\n      pop\n      jump\t// out\n        /* \"#utility.yul\":15906:16028   */\n    tag_104:\n        /* \"#utility.yul\":15979:16003   */\n      tag_291\n        /* \"#utility.yul\":15997:16002   */\n      dup2\n        /* \"#utility.yul\":15979:16003   */\n      tag_202\n      jump\t// in\n    tag_291:\n        /* \"#utility.yul\":15972:15977   */\n      dup2\n        /* \"#utility.yul\":15969:16004   */\n      eq\n        /* \"#utility.yul\":15959:16022   */\n      tag_292\n      jumpi\n        /* \"#utility.yul\":16018:16019   */\n      0x00\n        /* \"#utility.yul\":16015:16016   */\n      dup1\n        /* \"#utility.yul\":16008:16020   */\n      revert\n        /* \"#utility.yul\":15959:16022   */\n    tag_292:\n        /* \"#utility.yul\":15906:16028   */\n      pop\n      jump\t// out\n\n    auxdata: 0xa264697066735822122047834c4c5f6e35bf00cbad204e4c101d5d1ce61c44f4b550b9a7379412b4b02064736f6c63430008070033\n}\n",
				"bytecode": {
					"linkReferences": {},
					"object": "608060405234801561001057600080fd5b50336000806101000a81548173ffffffffffffffffffffffffffffffffffffffff021916908373ffffffffffffffffffffffffffffffffffffffff160217905550610f5e806100606000396000f3fe60806040526004361061004a5760003560e01c806319b374171461004f578063481c6a75146100595780635d495aea146100845780638b5b9ccc1461009b578063f71d96cb146100c6575b600080fd5b610057610103565b005b34801561006557600080fd5b5061006e61028f565b60405161007b9190610a27565b60405180910390f35b34801561009057600080fd5b506100996102b3565b005b3480156100a757600080fd5b506100b061048e565b6040516100bd9190610a5d565b60405180910390f35b3480156100d257600080fd5b506100ed60048036038101906100e89190610784565b61051c565b6040516100fa9190610a42565b60405180910390f35b3373ffffffffffffffffffffffffffffffffffffffff1660008054906101000a900473ffffffffffffffffffffffffffffffffffffffff1673ffffffffffffffffffffffffffffffffffffffff161415610192576040517f08c379a000000000000000000000000000000000000000000000000000000000815260040161018990610abf565b60405180910390fd5b6000151561019e61055b565b1515146101e0576040517f08c379a00000000000000000000000000000000000000000000000000000000081526004016101d790610a9f565b60405180910390fd5b670de0b6b3a7640000341461022a576040517f08c379a000000000000000000000000000000000000000000000000000000000815260040161022190610aff565b60405180910390fd5b6001339080600181540180825580915050600190039060005260206000200160009091909190916101000a81548173ffffffffffffffffffffffffffffffffffffffff021916908373ffffffffffffffffffffffffffffffffffffffff160217905550565b60008054906101000a900473ffffffffffffffffffffffffffffffffffffffff1681565b600060018054905014156102fc576040517f08c379a00000000000000000000000000000000000000000000000000000000081526004016102f390610adf565b60405180910390fd5b3373ffffffffffffffffffffffffffffffffffffffff1660008054906101000a900473ffffffffffffffffffffffffffffffffffffffff1673ffffffffffffffffffffffffffffffffffffffff161461038a576040517f08c379a000000000000000000000000000000000000000000000000000000000815260040161038190610a7f565b60405180910390fd5b600060018054905061039a610608565b6103a49190610ccf565b9050600181815481106103ba576103b9610d5e565b5b9060005260206000200160009054906101000a900473ffffffffffffffffffffffffffffffffffffffff1673ffffffffffffffffffffffffffffffffffffffff166108fc479081150290604051600060405180830381858888f1935050505015801561042a573d6000803e3d6000fd5b50600067ffffffffffffffff81111561044657610445610d8d565b5b6040519080825280602002602001820160405280156104745781602001602082028036833780820191505090505b506001908051906020019061048a929190610686565b5050565b6060600180548060200260200160405190810160405280929190818152602001828054801561051257602002820191906000526020600020905b8160009054906101000a900473ffffffffffffffffffffffffffffffffffffffff1673ffffffffffffffffffffffffffffffffffffffff16815260200190600101908083116104c8575b5050505050905090565b6001818154811061052c57600080fd5b906000526020600020016000915054906101000a900473ffffffffffffffffffffffffffffffffffffffff1681565b600080600090505b6001805490508110156105ff573373ffffffffffffffffffffffffffffffffffffffff166001828154811061059b5761059a610d5e565b5b9060005260206000200160009054906101000a900473ffffffffffffffffffffffffffffffffffffffff1673ffffffffffffffffffffffffffffffffffffffff1614156105ec576001915050610605565b80806105f790610c7c565b915050610563565b50600090505b90565b6000600244436001604051602001610622939291906109ee565b60405160208183030381529060405260405161063e91906109d7565b602060405180830381855afa15801561065b573d6000803e3d6000fd5b5050506040513d601f19601f8201168201806040525081019061067e9190610757565b60001c905090565b8280548282559060005260206000209081019282156106ff579160200282015b828111156106fe5782518260006101000a81548173ffffffffffffffffffffffffffffffffffffffff021916908373ffffffffffffffffffffffffffffffffffffffff160217905550916020019190600101906106a6565b5b50905061070c9190610710565b5090565b5b80821115610729576000816000905550600101610711565b5090565b60008151905061073c81610efa565b92915050565b60008135905061075181610f11565b92915050565b60006020828403121561076d5761076c610dcf565b5b600061077b8482850161072d565b91505092915050565b60006020828403121561079a57610799610dcf565b5b60006107a884828501610742565b91505092915050565b60006107bd83836107e1565b60208301905092915050565b60006107d583836107ff565b60208301905092915050565b6107ea81610be9565b82525050565b6107f981610be9565b82525050565b61080881610be9565b82525050565b61081781610bd7565b82525050565b600061082882610b44565b6108328185610b7f565b935061083d83610b1f565b8060005b8381101561086e57815161085588826107b1565b975061086083610b65565b925050600181019050610841565b5085935050505092915050565b600061088682610b4f565b6108908185610b90565b935061089b83610b2f565b8060005b838110156108d3576108b082610dbc565b6108ba88826107c9565b97506108c583610b72565b92505060018101905061089f565b5085935050505092915050565b60006108eb82610b5a565b6108f58185610b9b565b9350610905818560208601610c2f565b80840191505092915050565b600061091e601283610ba6565b915061092982610de1565b602082019050919050565b6000610941601f83610ba6565b915061094c82610e0a565b602082019050919050565b6000610964602a83610ba6565b915061096f82610e33565b604082019050919050565b6000610987601683610ba6565b915061099282610e82565b602082019050919050565b60006109aa603383610ba6565b91506109b582610eab565b604082019050919050565b6109d16109cc82610c25565b610cc5565b82525050565b60006109e382846108e0565b915081905092915050565b60006109fa82866109c0565b602082019150610a0a82856109c0565b602082019150610a1a828461087b565b9150819050949350505050565b6000602082019050610a3c600083018461080e565b92915050565b6000602082019050610a5760008301846107f0565b92915050565b60006020820190508181036000830152610a77818461081d565b905092915050565b60006020820190508181036000830152610a9881610911565b9050919050565b60006020820190508181036000830152610ab881610934565b9050919050565b60006020820190508181036000830152610ad881610957565b9050919050565b60006020820190508181036000830152610af88161097a565b9050919050565b60006020820190508181036000830152610b188161099d565b9050919050565b6000819050602082019050919050565b60008190508160005260206000209050919050565b600081519050919050565b600081549050919050565b600081519050919050565b6000602082019050919050565b6000600182019050919050565b600082825260208201905092915050565b600081905092915050565b600081905092915050565b600082825260208201905092915050565b600073ffffffffffffffffffffffffffffffffffffffff82169050919050565b6000610be282610c05565b9050919050565b6000610bf482610c05565b9050919050565b6000819050919050565b600073ffffffffffffffffffffffffffffffffffffffff82169050919050565b6000819050919050565b60005b83811015610c4d578082015181840152602081019050610c32565b83811115610c5c576000848401525b50505050565b6000610c75610c7083610dd4565b610bb7565b9050919050565b6000610c8782610c25565b91507fffffffffffffffffffffffffffffffffffffffffffffffffffffffffffffffff821415610cba57610cb9610d00565b5b600182019050919050565b6000819050919050565b6000610cda82610c25565b9150610ce583610c25565b925082610cf557610cf4610d2f565b5b828206905092915050565b7f4e487b7100000000000000000000000000000000000000000000000000000000600052601160045260246000fd5b7f4e487b7100000000000000000000000000000000000000000000000000000000600052601260045260246000fd5b7f4e487b7100000000000000000000000000000000000000000000000000000000600052603260045260246000fd5b7f4e487b7100000000000000000000000000000000000000000000000000000000600052604160045260246000fd5b6000610dc88254610c62565b9050919050565b600080fd5b60008160001c9050919050565b7f596f752063616e206e6f74206163636573730000000000000000000000000000600082015250565b7f596f7520616c7265616479206a6f696e6564207468697320636f6e7465737400600082015250565b7f596f752063616e206e6f7420706172746963697061746520617320796f75206160008201527f7265206d616e6167657200000000000000000000000000000000000000000000602082015250565b7f436f6e74657374206e6f74207374617274207965742100000000000000000000600082015250565b7f596f75206861766520746f207061792066656573206f6620312065746865722060008201527f666f72206a6f696e696e6720636f6e7465737400000000000000000000000000602082015250565b610f0381610bfb565b8114610f0e57600080fd5b50565b610f1a81610c25565b8114610f2557600080fd5b5056fea264697066735822122047834c4c5f6e35bf00cbad204e4c101d5d1ce61c44f4b550b9a7379412b4b02064736f6c63430008070033",
					"opcodes": "PUSH1 0x80 PUSH1 0x40 MSTORE CALLVALUE DUP1 ISZERO PUSH2 0x10 JUMPI PUSH1 0x0 DUP1 REVERT JUMPDEST POP CALLER PUSH1 0x0 DUP1 PUSH2 0x100 EXP DUP2 SLOAD DUP2 PUSH20 0xFFFFFFFFFFFFFFFFFFFFFFFFFFFFFFFFFFFFFFFF MUL NOT AND SWAP1 DUP4 PUSH20 0xFFFFFFFFFFFFFFFFFFFFFFFFFFFFFFFFFFFFFFFF AND MUL OR SWAP1 SSTORE POP PUSH2 0xF5E DUP1 PUSH2 0x60 PUSH1 0x0 CODECOPY PUSH1 0x0 RETURN INVALID PUSH1 0x80 PUSH1 0x40 MSTORE PUSH1 0x4 CALLDATASIZE LT PUSH2 0x4A JUMPI PUSH1 0x0 CALLDATALOAD PUSH1 0xE0 SHR DUP1 PUSH4 0x19B37417 EQ PUSH2 0x4F JUMPI DUP1 PUSH4 0x481C6A75 EQ PUSH2 0x59 JUMPI DUP1 PUSH4 0x5D495AEA EQ PUSH2 0x84 JUMPI DUP1 PUSH4 0x8B5B9CCC EQ PUSH2 0x9B JUMPI DUP1 PUSH4 0xF71D96CB EQ PUSH2 0xC6 JUMPI JUMPDEST PUSH1 0x0 DUP1 REVERT JUMPDEST PUSH2 0x57 PUSH2 0x103 JUMP JUMPDEST STOP JUMPDEST CALLVALUE DUP1 ISZERO PUSH2 0x65 JUMPI PUSH1 0x0 DUP1 REVERT JUMPDEST POP PUSH2 0x6E PUSH2 0x28F JUMP JUMPDEST PUSH1 0x40 MLOAD PUSH2 0x7B SWAP2 SWAP1 PUSH2 0xA27 JUMP JUMPDEST PUSH1 0x40 MLOAD DUP1 SWAP2 SUB SWAP1 RETURN JUMPDEST CALLVALUE DUP1 ISZERO PUSH2 0x90 JUMPI PUSH1 0x0 DUP1 REVERT JUMPDEST POP PUSH2 0x99 PUSH2 0x2B3 JUMP JUMPDEST STOP JUMPDEST CALLVALUE DUP1 ISZERO PUSH2 0xA7 JUMPI PUSH1 0x0 DUP1 REVERT JUMPDEST POP PUSH2 0xB0 PUSH2 0x48E JUMP JUMPDEST PUSH1 0x40 MLOAD PUSH2 0xBD SWAP2 SWAP1 PUSH2 0xA5D JUMP JUMPDEST PUSH1 0x40 MLOAD DUP1 SWAP2 SUB SWAP1 RETURN JUMPDEST CALLVALUE DUP1 ISZERO PUSH2 0xD2 JUMPI PUSH1 0x0 DUP1 REVERT JUMPDEST POP PUSH2 0xED PUSH1 0x4 DUP1 CALLDATASIZE SUB DUP2 ADD SWAP1 PUSH2 0xE8 SWAP2 SWAP1 PUSH2 0x784 JUMP JUMPDEST PUSH2 0x51C JUMP JUMPDEST PUSH1 0x40 MLOAD PUSH2 0xFA SWAP2 SWAP1 PUSH2 0xA42 JUMP JUMPDEST PUSH1 0x40 MLOAD DUP1 SWAP2 SUB SWAP1 RETURN JUMPDEST CALLER PUSH20 0xFFFFFFFFFFFFFFFFFFFFFFFFFFFFFFFFFFFFFFFF AND PUSH1 0x0 DUP1 SLOAD SWAP1 PUSH2 0x100 EXP SWAP1 DIV PUSH20 0xFFFFFFFFFFFFFFFFFFFFFFFFFFFFFFFFFFFFFFFF AND PUSH20 0xFFFFFFFFFFFFFFFFFFFFFFFFFFFFFFFFFFFFFFFF AND EQ ISZERO PUSH2 0x192 JUMPI PUSH1 0x40 MLOAD PUSH32 0x8C379A000000000000000000000000000000000000000000000000000000000 DUP2 MSTORE PUSH1 0x4 ADD PUSH2 0x189 SWAP1 PUSH2 0xABF JUMP JUMPDEST PUSH1 0x40 MLOAD DUP1 SWAP2 SUB SWAP1 REVERT JUMPDEST PUSH1 0x0 ISZERO ISZERO PUSH2 0x19E PUSH2 0x55B JUMP JUMPDEST ISZERO ISZERO EQ PUSH2 0x1E0 JUMPI PUSH1 0x40 MLOAD PUSH32 0x8C379A000000000000000000000000000000000000000000000000000000000 DUP2 MSTORE PUSH1 0x4 ADD PUSH2 0x1D7 SWAP1 PUSH2 0xA9F JUMP JUMPDEST PUSH1 0x40 MLOAD DUP1 SWAP2 SUB SWAP1 REVERT JUMPDEST PUSH8 0xDE0B6B3A7640000 CALLVALUE EQ PUSH2 0x22A JUMPI PUSH1 0x40 MLOAD PUSH32 0x8C379A000000000000000000000000000000000000000000000000000000000 DUP2 MSTORE PUSH1 0x4 ADD PUSH2 0x221 SWAP1 PUSH2 0xAFF JUMP JUMPDEST PUSH1 0x40 MLOAD DUP1 SWAP2 SUB SWAP1 REVERT JUMPDEST PUSH1 0x1 CALLER SWAP1 DUP1 PUSH1 0x1 DUP2 SLOAD ADD DUP1 DUP3 SSTORE DUP1 SWAP2 POP POP PUSH1 0x1 SWAP1 SUB SWAP1 PUSH1 0x0 MSTORE PUSH1 0x20 PUSH1 0x0 KECCAK256 ADD PUSH1 0x0 SWAP1 SWAP2 SWAP1 SWAP2 SWAP1 SWAP2 PUSH2 0x100 EXP DUP2 SLOAD DUP2 PUSH20 0xFFFFFFFFFFFFFFFFFFFFFFFFFFFFFFFFFFFFFFFF MUL NOT AND SWAP1 DUP4 PUSH20 0xFFFFFFFFFFFFFFFFFFFFFFFFFFFFFFFFFFFFFFFF AND MUL OR SWAP1 SSTORE POP JUMP JUMPDEST PUSH1 0x0 DUP1 SLOAD SWAP1 PUSH2 0x100 EXP SWAP1 DIV PUSH20 0xFFFFFFFFFFFFFFFFFFFFFFFFFFFFFFFFFFFFFFFF AND DUP2 JUMP JUMPDEST PUSH1 0x0 PUSH1 0x1 DUP1 SLOAD SWAP1 POP EQ ISZERO PUSH2 0x2FC JUMPI PUSH1 0x40 MLOAD PUSH32 0x8C379A000000000000000000000000000000000000000000000000000000000 DUP2 MSTORE PUSH1 0x4 ADD PUSH2 0x2F3 SWAP1 PUSH2 0xADF JUMP JUMPDEST PUSH1 0x40 MLOAD DUP1 SWAP2 SUB SWAP1 REVERT JUMPDEST CALLER PUSH20 0xFFFFFFFFFFFFFFFFFFFFFFFFFFFFFFFFFFFFFFFF AND PUSH1 0x0 DUP1 SLOAD SWAP1 PUSH2 0x100 EXP SWAP1 DIV PUSH20 0xFFFFFFFFFFFFFFFFFFFFFFFFFFFFFFFFFFFFFFFF AND PUSH20 0xFFFFFFFFFFFFFFFFFFFFFFFFFFFFFFFFFFFFFFFF AND EQ PUSH2 0x38A JUMPI PUSH1 0x40 MLOAD PUSH32 0x8C379A000000000000000000000000000000000000000000000000000000000 DUP2 MSTORE PUSH1 0x4 ADD PUSH2 0x381 SWAP1 PUSH2 0xA7F JUMP JUMPDEST PUSH1 0x40 MLOAD DUP1 SWAP2 SUB SWAP1 REVERT JUMPDEST PUSH1 0x0 PUSH1 0x1 DUP1 SLOAD SWAP1 POP PUSH2 0x39A PUSH2 0x608 JUMP JUMPDEST PUSH2 0x3A4 SWAP2 SWAP1 PUSH2 0xCCF JUMP JUMPDEST SWAP1 POP PUSH1 0x1 DUP2 DUP2 SLOAD DUP2 LT PUSH2 0x3BA JUMPI PUSH2 0x3B9 PUSH2 0xD5E JUMP JUMPDEST JUMPDEST SWAP1 PUSH1 0x0 MSTORE PUSH1 0x20 PUSH1 0x0 KECCAK256 ADD PUSH1 0x0 SWAP1 SLOAD SWAP1 PUSH2 0x100 EXP SWAP1 DIV PUSH20 0xFFFFFFFFFFFFFFFFFFFFFFFFFFFFFFFFFFFFFFFF AND PUSH20 0xFFFFFFFFFFFFFFFFFFFFFFFFFFFFFFFFFFFFFFFF AND PUSH2 0x8FC SELFBALANCE SWAP1 DUP2 ISZERO MUL SWAP1 PUSH1 0x40 MLOAD PUSH1 0x0 PUSH1 0x40 MLOAD DUP1 DUP4 SUB DUP2 DUP6 DUP9 DUP9 CALL SWAP4 POP POP POP POP ISZERO DUP1 ISZERO PUSH2 0x42A JUMPI RETURNDATASIZE PUSH1 0x0 DUP1 RETURNDATACOPY RETURNDATASIZE PUSH1 0x0 REVERT JUMPDEST POP PUSH1 0x0 PUSH8 0xFFFFFFFFFFFFFFFF DUP2 GT ISZERO PUSH2 0x446 JUMPI PUSH2 0x445 PUSH2 0xD8D JUMP JUMPDEST JUMPDEST PUSH1 0x40 MLOAD SWAP1 DUP1 DUP3 MSTORE DUP1 PUSH1 0x20 MUL PUSH1 0x20 ADD DUP3 ADD PUSH1 0x40 MSTORE DUP1 ISZERO PUSH2 0x474 JUMPI DUP2 PUSH1 0x20 ADD PUSH1 0x20 DUP3 MUL DUP1 CALLDATASIZE DUP4 CALLDATACOPY DUP1 DUP3 ADD SWAP2 POP POP SWAP1 POP JUMPDEST POP PUSH1 0x1 SWAP1 DUP1 MLOAD SWAP1 PUSH1 0x20 ADD SWAP1 PUSH2 0x48A SWAP3 SWAP2 SWAP1 PUSH2 0x686 JUMP JUMPDEST POP POP JUMP JUMPDEST PUSH1 0x60 PUSH1 0x1 DUP1 SLOAD DUP1 PUSH1 0x20 MUL PUSH1 0x20 ADD PUSH1 0x40 MLOAD SWAP1 DUP2 ADD PUSH1 0x40 MSTORE DUP1 SWAP3 SWAP2 SWAP1 DUP2 DUP2 MSTORE PUSH1 0x20 ADD DUP3 DUP1 SLOAD DUP1 ISZERO PUSH2 0x512 JUMPI PUSH1 0x20 MUL DUP3 ADD SWAP2 SWAP1 PUSH1 0x0 MSTORE PUSH1 0x20 PUSH1 0x0 KECCAK256 SWAP1 JUMPDEST DUP2 PUSH1 0x0 SWAP1 SLOAD SWAP1 PUSH2 0x100 EXP SWAP1 DIV PUSH20 0xFFFFFFFFFFFFFFFFFFFFFFFFFFFFFFFFFFFFFFFF AND PUSH20 0xFFFFFFFFFFFFFFFFFFFFFFFFFFFFFFFFFFFFFFFF AND DUP2 MSTORE PUSH1 0x20 ADD SWAP1 PUSH1 0x1 ADD SWAP1 DUP1 DUP4 GT PUSH2 0x4C8 JUMPI JUMPDEST POP POP POP POP POP SWAP1 POP SWAP1 JUMP JUMPDEST PUSH1 0x1 DUP2 DUP2 SLOAD DUP2 LT PUSH2 0x52C JUMPI PUSH1 0x0 DUP1 REVERT JUMPDEST SWAP1 PUSH1 0x0 MSTORE PUSH1 0x20 PUSH1 0x0 KECCAK256 ADD PUSH1 0x0 SWAP2 POP SLOAD SWAP1 PUSH2 0x100 EXP SWAP1 DIV PUSH20 0xFFFFFFFFFFFFFFFFFFFFFFFFFFFFFFFFFFFFFFFF AND DUP2 JUMP JUMPDEST PUSH1 0x0 DUP1 PUSH1 0x0 SWAP1 POP JUMPDEST PUSH1 0x1 DUP1 SLOAD SWAP1 POP DUP2 LT ISZERO PUSH2 0x5FF JUMPI CALLER PUSH20 0xFFFFFFFFFFFFFFFFFFFFFFFFFFFFFFFFFFFFFFFF AND PUSH1 0x1 DUP3 DUP2 SLOAD DUP2 LT PUSH2 0x59B JUMPI PUSH2 0x59A PUSH2 0xD5E JUMP JUMPDEST JUMPDEST SWAP1 PUSH1 0x0 MSTORE PUSH1 0x20 PUSH1 0x0 KECCAK256 ADD PUSH1 0x0 SWAP1 SLOAD SWAP1 PUSH2 0x100 EXP SWAP1 DIV PUSH20 0xFFFFFFFFFFFFFFFFFFFFFFFFFFFFFFFFFFFFFFFF AND PUSH20 0xFFFFFFFFFFFFFFFFFFFFFFFFFFFFFFFFFFFFFFFF AND EQ ISZERO PUSH2 0x5EC JUMPI PUSH1 0x1 SWAP2 POP POP PUSH2 0x605 JUMP JUMPDEST DUP1 DUP1 PUSH2 0x5F7 SWAP1 PUSH2 0xC7C JUMP JUMPDEST SWAP2 POP POP PUSH2 0x563 JUMP JUMPDEST POP PUSH1 0x0 SWAP1 POP JUMPDEST SWAP1 JUMP JUMPDEST PUSH1 0x0 PUSH1 0x2 DIFFICULTY NUMBER PUSH1 0x1 PUSH1 0x40 MLOAD PUSH1 0x20 ADD PUSH2 0x622 SWAP4 SWAP3 SWAP2 SWAP1 PUSH2 0x9EE JUMP JUMPDEST PUSH1 0x40 MLOAD PUSH1 0x20 DUP2 DUP4 SUB SUB DUP2 MSTORE SWAP1 PUSH1 0x40 MSTORE PUSH1 0x40 MLOAD PUSH2 0x63E SWAP2 SWAP1 PUSH2 0x9D7 JUMP JUMPDEST PUSH1 0x20 PUSH1 0x40 MLOAD DUP1 DUP4 SUB DUP2 DUP6 GAS STATICCALL ISZERO DUP1 ISZERO PUSH2 0x65B JUMPI RETURNDATASIZE PUSH1 0x0 DUP1 RETURNDATACOPY RETURNDATASIZE PUSH1 0x0 REVERT JUMPDEST POP POP POP PUSH1 0x40 MLOAD RETURNDATASIZE PUSH1 0x1F NOT PUSH1 0x1F DUP3 ADD AND DUP3 ADD DUP1 PUSH1 0x40 MSTORE POP DUP2 ADD SWAP1 PUSH2 0x67E SWAP2 SWAP1 PUSH2 0x757 JUMP JUMPDEST PUSH1 0x0 SHR SWAP1 POP SWAP1 JUMP JUMPDEST DUP3 DUP1 SLOAD DUP3 DUP3 SSTORE SWAP1 PUSH1 0x0 MSTORE PUSH1 0x20 PUSH1 0x0 KECCAK256 SWAP1 DUP2 ADD SWAP3 DUP3 ISZERO PUSH2 0x6FF JUMPI SWAP2 PUSH1 0x20 MUL DUP3 ADD JUMPDEST DUP3 DUP2 GT ISZERO PUSH2 0x6FE JUMPI DUP3 MLOAD DUP3 PUSH1 0x0 PUSH2 0x100 EXP DUP2 SLOAD DUP2 PUSH20 0xFFFFFFFFFFFFFFFFFFFFFFFFFFFFFFFFFFFFFFFF MUL NOT AND SWAP1 DUP4 PUSH20 0xFFFFFFFFFFFFFFFFFFFFFFFFFFFFFFFFFFFFFFFF AND MUL OR SWAP1 SSTORE POP SWAP2 PUSH1 0x20 ADD SWAP2 SWAP1 PUSH1 0x1 ADD SWAP1 PUSH2 0x6A6 JUMP JUMPDEST JUMPDEST POP SWAP1 POP PUSH2 0x70C SWAP2 SWAP1 PUSH2 0x710 JUMP JUMPDEST POP SWAP1 JUMP JUMPDEST JUMPDEST DUP1 DUP3 GT ISZERO PUSH2 0x729 JUMPI PUSH1 0x0 DUP2 PUSH1 0x0 SWAP1 SSTORE POP PUSH1 0x1 ADD PUSH2 0x711 JUMP JUMPDEST POP SWAP1 JUMP JUMPDEST PUSH1 0x0 DUP2 MLOAD SWAP1 POP PUSH2 0x73C DUP2 PUSH2 0xEFA JUMP JUMPDEST SWAP3 SWAP2 POP POP JUMP JUMPDEST PUSH1 0x0 DUP2 CALLDATALOAD SWAP1 POP PUSH2 0x751 DUP2 PUSH2 0xF11 JUMP JUMPDEST SWAP3 SWAP2 POP POP JUMP JUMPDEST PUSH1 0x0 PUSH1 0x20 DUP3 DUP5 SUB SLT ISZERO PUSH2 0x76D JUMPI PUSH2 0x76C PUSH2 0xDCF JUMP JUMPDEST JUMPDEST PUSH1 0x0 PUSH2 0x77B DUP5 DUP3 DUP6 ADD PUSH2 0x72D JUMP JUMPDEST SWAP2 POP POP SWAP3 SWAP2 POP POP JUMP JUMPDEST PUSH1 0x0 PUSH1 0x20 DUP3 DUP5 SUB SLT ISZERO PUSH2 0x79A JUMPI PUSH2 0x799 PUSH2 0xDCF JUMP JUMPDEST JUMPDEST PUSH1 0x0 PUSH2 0x7A8 DUP5 DUP3 DUP6 ADD PUSH2 0x742 JUMP JUMPDEST SWAP2 POP POP SWAP3 SWAP2 POP POP JUMP JUMPDEST PUSH1 0x0 PUSH2 0x7BD DUP4 DUP4 PUSH2 0x7E1 JUMP JUMPDEST PUSH1 0x20 DUP4 ADD SWAP1 POP SWAP3 SWAP2 POP POP JUMP JUMPDEST PUSH1 0x0 PUSH2 0x7D5 DUP4 DUP4 PUSH2 0x7FF JUMP JUMPDEST PUSH1 0x20 DUP4 ADD SWAP1 POP SWAP3 SWAP2 POP POP JUMP JUMPDEST PUSH2 0x7EA DUP2 PUSH2 0xBE9 JUMP JUMPDEST DUP3 MSTORE POP POP JUMP JUMPDEST PUSH2 0x7F9 DUP2 PUSH2 0xBE9 JUMP JUMPDEST DUP3 MSTORE POP POP JUMP JUMPDEST PUSH2 0x808 DUP2 PUSH2 0xBE9 JUMP JUMPDEST DUP3 MSTORE POP POP JUMP JUMPDEST PUSH2 0x817 DUP2 PUSH2 0xBD7 JUMP JUMPDEST DUP3 MSTORE POP POP JUMP JUMPDEST PUSH1 0x0 PUSH2 0x828 DUP3 PUSH2 0xB44 JUMP JUMPDEST PUSH2 0x832 DUP2 DUP6 PUSH2 0xB7F JUMP JUMPDEST SWAP4 POP PUSH2 0x83D DUP4 PUSH2 0xB1F JUMP JUMPDEST DUP1 PUSH1 0x0 JUMPDEST DUP4 DUP2 LT ISZERO PUSH2 0x86E JUMPI DUP2 MLOAD PUSH2 0x855 DUP9 DUP3 PUSH2 0x7B1 JUMP JUMPDEST SWAP8 POP PUSH2 0x860 DUP4 PUSH2 0xB65 JUMP JUMPDEST SWAP3 POP POP PUSH1 0x1 DUP2 ADD SWAP1 POP PUSH2 0x841 JUMP JUMPDEST POP DUP6 SWAP4 POP POP POP POP SWAP3 SWAP2 POP POP JUMP JUMPDEST PUSH1 0x0 PUSH2 0x886 DUP3 PUSH2 0xB4F JUMP JUMPDEST PUSH2 0x890 DUP2 DUP6 PUSH2 0xB90 JUMP JUMPDEST SWAP4 POP PUSH2 0x89B DUP4 PUSH2 0xB2F JUMP JUMPDEST DUP1 PUSH1 0x0 JUMPDEST DUP4 DUP2 LT ISZERO PUSH2 0x8D3 JUMPI PUSH2 0x8B0 DUP3 PUSH2 0xDBC JUMP JUMPDEST PUSH2 0x8BA DUP9 DUP3 PUSH2 0x7C9 JUMP JUMPDEST SWAP8 POP PUSH2 0x8C5 DUP4 PUSH2 0xB72 JUMP JUMPDEST SWAP3 POP POP PUSH1 0x1 DUP2 ADD SWAP1 POP PUSH2 0x89F JUMP JUMPDEST POP DUP6 SWAP4 POP POP POP POP SWAP3 SWAP2 POP POP JUMP JUMPDEST PUSH1 0x0 PUSH2 0x8EB DUP3 PUSH2 0xB5A JUMP JUMPDEST PUSH2 0x8F5 DUP2 DUP6 PUSH2 0xB9B JUMP JUMPDEST SWAP4 POP PUSH2 0x905 DUP2 DUP6 PUSH1 0x20 DUP7 ADD PUSH2 0xC2F JUMP JUMPDEST DUP1 DUP5 ADD SWAP2 POP POP SWAP3 SWAP2 POP POP JUMP JUMPDEST PUSH1 0x0 PUSH2 0x91E PUSH1 0x12 DUP4 PUSH2 0xBA6 JUMP JUMPDEST SWAP2 POP PUSH2 0x929 DUP3 PUSH2 0xDE1 JUMP JUMPDEST PUSH1 0x20 DUP3 ADD SWAP1 POP SWAP2 SWAP1 POP JUMP JUMPDEST PUSH1 0x0 PUSH2 0x941 PUSH1 0x1F DUP4 PUSH2 0xBA6 JUMP JUMPDEST SWAP2 POP PUSH2 0x94C DUP3 PUSH2 0xE0A JUMP JUMPDEST PUSH1 0x20 DUP3 ADD SWAP1 POP SWAP2 SWAP1 POP JUMP JUMPDEST PUSH1 0x0 PUSH2 0x964 PUSH1 0x2A DUP4 PUSH2 0xBA6 JUMP JUMPDEST SWAP2 POP PUSH2 0x96F DUP3 PUSH2 0xE33 JUMP JUMPDEST PUSH1 0x40 DUP3 ADD SWAP1 POP SWAP2 SWAP1 POP JUMP JUMPDEST PUSH1 0x0 PUSH2 0x987 PUSH1 0x16 DUP4 PUSH2 0xBA6 JUMP JUMPDEST SWAP2 POP PUSH2 0x992 DUP3 PUSH2 0xE82 JUMP JUMPDEST PUSH1 0x20 DUP3 ADD SWAP1 POP SWAP2 SWAP1 POP JUMP JUMPDEST PUSH1 0x0 PUSH2 0x9AA PUSH1 0x33 DUP4 PUSH2 0xBA6 JUMP JUMPDEST SWAP2 POP PUSH2 0x9B5 DUP3 PUSH2 0xEAB JUMP JUMPDEST PUSH1 0x40 DUP3 ADD SWAP1 POP SWAP2 SWAP1 POP JUMP JUMPDEST PUSH2 0x9D1 PUSH2 0x9CC DUP3 PUSH2 0xC25 JUMP JUMPDEST PUSH2 0xCC5 JUMP JUMPDEST DUP3 MSTORE POP POP JUMP JUMPDEST PUSH1 0x0 PUSH2 0x9E3 DUP3 DUP5 PUSH2 0x8E0 JUMP JUMPDEST SWAP2 POP DUP2 SWAP1 POP SWAP3 SWAP2 POP POP JUMP JUMPDEST PUSH1 0x0 PUSH2 0x9FA DUP3 DUP7 PUSH2 0x9C0 JUMP JUMPDEST PUSH1 0x20 DUP3 ADD SWAP2 POP PUSH2 0xA0A DUP3 DUP6 PUSH2 0x9C0 JUMP JUMPDEST PUSH1 0x20 DUP3 ADD SWAP2 POP PUSH2 0xA1A DUP3 DUP5 PUSH2 0x87B JUMP JUMPDEST SWAP2 POP DUP2 SWAP1 POP SWAP5 SWAP4 POP POP POP POP JUMP JUMPDEST PUSH1 0x0 PUSH1 0x20 DUP3 ADD SWAP1 POP PUSH2 0xA3C PUSH1 0x0 DUP4 ADD DUP5 PUSH2 0x80E JUMP JUMPDEST SWAP3 SWAP2 POP POP JUMP JUMPDEST PUSH1 0x0 PUSH1 0x20 DUP3 ADD SWAP1 POP PUSH2 0xA57 PUSH1 0x0 DUP4 ADD DUP5 PUSH2 0x7F0 JUMP JUMPDEST SWAP3 SWAP2 POP POP JUMP JUMPDEST PUSH1 0x0 PUSH1 0x20 DUP3 ADD SWAP1 POP DUP2 DUP2 SUB PUSH1 0x0 DUP4 ADD MSTORE PUSH2 0xA77 DUP2 DUP5 PUSH2 0x81D JUMP JUMPDEST SWAP1 POP SWAP3 SWAP2 POP POP JUMP JUMPDEST PUSH1 0x0 PUSH1 0x20 DUP3 ADD SWAP1 POP DUP2 DUP2 SUB PUSH1 0x0 DUP4 ADD MSTORE PUSH2 0xA98 DUP2 PUSH2 0x911 JUMP JUMPDEST SWAP1 POP SWAP2 SWAP1 POP JUMP JUMPDEST PUSH1 0x0 PUSH1 0x20 DUP3 ADD SWAP1 POP DUP2 DUP2 SUB PUSH1 0x0 DUP4 ADD MSTORE PUSH2 0xAB8 DUP2 PUSH2 0x934 JUMP JUMPDEST SWAP1 POP SWAP2 SWAP1 POP JUMP JUMPDEST PUSH1 0x0 PUSH1 0x20 DUP3 ADD SWAP1 POP DUP2 DUP2 SUB PUSH1 0x0 DUP4 ADD MSTORE PUSH2 0xAD8 DUP2 PUSH2 0x957 JUMP JUMPDEST SWAP1 POP SWAP2 SWAP1 POP JUMP JUMPDEST PUSH1 0x0 PUSH1 0x20 DUP3 ADD SWAP1 POP DUP2 DUP2 SUB PUSH1 0x0 DUP4 ADD MSTORE PUSH2 0xAF8 DUP2 PUSH2 0x97A JUMP JUMPDEST SWAP1 POP SWAP2 SWAP1 POP JUMP JUMPDEST PUSH1 0x0 PUSH1 0x20 DUP3 ADD SWAP1 POP DUP2 DUP2 SUB PUSH1 0x0 DUP4 ADD MSTORE PUSH2 0xB18 DUP2 PUSH2 0x99D JUMP JUMPDEST SWAP1 POP SWAP2 SWAP1 POP JUMP JUMPDEST PUSH1 0x0 DUP2 SWAP1 POP PUSH1 0x20 DUP3 ADD SWAP1 POP SWAP2 SWAP1 POP JUMP JUMPDEST PUSH1 0x0 DUP2 SWAP1 POP DUP2 PUSH1 0x0 MSTORE PUSH1 0x20 PUSH1 0x0 KECCAK256 SWAP1 POP SWAP2 SWAP1 POP JUMP JUMPDEST PUSH1 0x0 DUP2 MLOAD SWAP1 POP SWAP2 SWAP1 POP JUMP JUMPDEST PUSH1 0x0 DUP2 SLOAD SWAP1 POP SWAP2 SWAP1 POP JUMP JUMPDEST PUSH1 0x0 DUP2 MLOAD SWAP1 POP SWAP2 SWAP1 POP JUMP JUMPDEST PUSH1 0x0 PUSH1 0x20 DUP3 ADD SWAP1 POP SWAP2 SWAP1 POP JUMP JUMPDEST PUSH1 0x0 PUSH1 0x1 DUP3 ADD SWAP1 POP SWAP2 SWAP1 POP JUMP JUMPDEST PUSH1 0x0 DUP3 DUP3 MSTORE PUSH1 0x20 DUP3 ADD SWAP1 POP SWAP3 SWAP2 POP POP JUMP JUMPDEST PUSH1 0x0 DUP2 SWAP1 POP SWAP3 SWAP2 POP POP JUMP JUMPDEST PUSH1 0x0 DUP2 SWAP1 POP SWAP3 SWAP2 POP POP JUMP JUMPDEST PUSH1 0x0 DUP3 DUP3 MSTORE PUSH1 0x20 DUP3 ADD SWAP1 POP SWAP3 SWAP2 POP POP JUMP JUMPDEST PUSH1 0x0 PUSH20 0xFFFFFFFFFFFFFFFFFFFFFFFFFFFFFFFFFFFFFFFF DUP3 AND SWAP1 POP SWAP2 SWAP1 POP JUMP JUMPDEST PUSH1 0x0 PUSH2 0xBE2 DUP3 PUSH2 0xC05 JUMP JUMPDEST SWAP1 POP SWAP2 SWAP1 POP JUMP JUMPDEST PUSH1 0x0 PUSH2 0xBF4 DUP3 PUSH2 0xC05 JUMP JUMPDEST SWAP1 POP SWAP2 SWAP1 POP JUMP JUMPDEST PUSH1 0x0 DUP2 SWAP1 POP SWAP2 SWAP1 POP JUMP JUMPDEST PUSH1 0x0 PUSH20 0xFFFFFFFFFFFFFFFFFFFFFFFFFFFFFFFFFFFFFFFF DUP3 AND SWAP1 POP SWAP2 SWAP1 POP JUMP JUMPDEST PUSH1 0x0 DUP2 SWAP1 POP SWAP2 SWAP1 POP JUMP JUMPDEST PUSH1 0x0 JUMPDEST DUP4 DUP2 LT ISZERO PUSH2 0xC4D JUMPI DUP1 DUP3 ADD MLOAD DUP2 DUP5 ADD MSTORE PUSH1 0x20 DUP2 ADD SWAP1 POP PUSH2 0xC32 JUMP JUMPDEST DUP4 DUP2 GT ISZERO PUSH2 0xC5C JUMPI PUSH1 0x0 DUP5 DUP5 ADD MSTORE JUMPDEST POP POP POP POP JUMP JUMPDEST PUSH1 0x0 PUSH2 0xC75 PUSH2 0xC70 DUP4 PUSH2 0xDD4 JUMP JUMPDEST PUSH2 0xBB7 JUMP JUMPDEST SWAP1 POP SWAP2 SWAP1 POP JUMP JUMPDEST PUSH1 0x0 PUSH2 0xC87 DUP3 PUSH2 0xC25 JUMP JUMPDEST SWAP2 POP PUSH32 0xFFFFFFFFFFFFFFFFFFFFFFFFFFFFFFFFFFFFFFFFFFFFFFFFFFFFFFFFFFFFFFFF DUP3 EQ ISZERO PUSH2 0xCBA JUMPI PUSH2 0xCB9 PUSH2 0xD00 JUMP JUMPDEST JUMPDEST PUSH1 0x1 DUP3 ADD SWAP1 POP SWAP2 SWAP1 POP JUMP JUMPDEST PUSH1 0x0 DUP2 SWAP1 POP SWAP2 SWAP1 POP JUMP JUMPDEST PUSH1 0x0 PUSH2 0xCDA DUP3 PUSH2 0xC25 JUMP JUMPDEST SWAP2 POP PUSH2 0xCE5 DUP4 PUSH2 0xC25 JUMP JUMPDEST SWAP3 POP DUP3 PUSH2 0xCF5 JUMPI PUSH2 0xCF4 PUSH2 0xD2F JUMP JUMPDEST JUMPDEST DUP3 DUP3 MOD SWAP1 POP SWAP3 SWAP2 POP POP JUMP JUMPDEST PUSH32 0x4E487B7100000000000000000000000000000000000000000000000000000000 PUSH1 0x0 MSTORE PUSH1 0x11 PUSH1 0x4 MSTORE PUSH1 0x24 PUSH1 0x0 REVERT JUMPDEST PUSH32 0x4E487B7100000000000000000000000000000000000000000000000000000000 PUSH1 0x0 MSTORE PUSH1 0x12 PUSH1 0x4 MSTORE PUSH1 0x24 PUSH1 0x0 REVERT JUMPDEST PUSH32 0x4E487B7100000000000000000000000000000000000000000000000000000000 PUSH1 0x0 MSTORE PUSH1 0x32 PUSH1 0x4 MSTORE PUSH1 0x24 PUSH1 0x0 REVERT JUMPDEST PUSH32 0x4E487B7100000000000000000000000000000000000000000000000000000000 PUSH1 0x0 MSTORE PUSH1 0x41 PUSH1 0x4 MSTORE PUSH1 0x24 PUSH1 0x0 REVERT JUMPDEST PUSH1 0x0 PUSH2 0xDC8 DUP3 SLOAD PUSH2 0xC62 JUMP JUMPDEST SWAP1 POP SWAP2 SWAP1 POP JUMP JUMPDEST PUSH1 0x0 DUP1 REVERT JUMPDEST PUSH1 0x0 DUP2 PUSH1 0x0 SHR SWAP1 POP SWAP2 SWAP1 POP JUMP JUMPDEST PUSH32 0x596F752063616E206E6F74206163636573730000000000000000000000000000 PUSH1 0x0 DUP3 ADD MSTORE POP JUMP JUMPDEST PUSH32 0x596F7520616C7265616479206A6F696E6564207468697320636F6E7465737400 PUSH1 0x0 DUP3 ADD MSTORE POP JUMP JUMPDEST PUSH32 0x596F752063616E206E6F7420706172746963697061746520617320796F752061 PUSH1 0x0 DUP3 ADD MSTORE PUSH32 0x7265206D616E6167657200000000000000000000000000000000000000000000 PUSH1 0x20 DUP3 ADD MSTORE POP JUMP JUMPDEST PUSH32 0x436F6E74657374206E6F74207374617274207965742100000000000000000000 PUSH1 0x0 DUP3 ADD MSTORE POP JUMP JUMPDEST PUSH32 0x596F75206861766520746F207061792066656573206F66203120657468657220 PUSH1 0x0 DUP3 ADD MSTORE PUSH32 0x666F72206A6F696E696E6720636F6E7465737400000000000000000000000000 PUSH1 0x20 DUP3 ADD MSTORE POP JUMP JUMPDEST PUSH2 0xF03 DUP2 PUSH2 0xBFB JUMP JUMPDEST DUP2 EQ PUSH2 0xF0E JUMPI PUSH1 0x0 DUP1 REVERT JUMPDEST POP JUMP JUMPDEST PUSH2 0xF1A DUP2 PUSH2 0xC25 JUMP JUMPDEST DUP2 EQ PUSH2 0xF25 JUMPI PUSH1 0x0 DUP1 REVERT JUMPDEST POP JUMP INVALID LOG2 PUSH5 0x6970667358 0x22 SLT KECCAK256 SELFBALANCE DUP4 0x4C 0x4C 0x5F PUSH15 0x35BF00CBAD204E4C101D5D1CE61C44 DELEGATECALL 0xB5 POP 0xB9 0xA7 CALLDATACOPY SWAP5 SLT 0xB4 0xB0 KECCAK256 PUSH5 0x736F6C6343 STOP ADDMOD SMOD STOP CALLER "
				},
				"gasEstimates": {
					"creation": {
						"codeDepositCost": "786800",
						"executionCost": "25084",
						"totalCost": "811884"
					},
					"external": {
						"ENTER()": "infinite",
						"getPlayers()": "infinite",
						"manager()": "2511",
						"pickWinner()": "infinite",
						"players(uint256)": "5022"
					},
					"internal": {
						"alreadyEnter()": "infinite",
						"random()": "infinite"
					}
				},
				"methodIdentifiers": {
					"ENTER()": "19b37417",
					"getPlayers()": "8b5b9ccc",
					"manager()": "481c6a75",
					"pickWinner()": "5d495aea",
					"players(uint256)": "f71d96cb"
				}
			},
			"storageLayout": {
				"storage": [
					{
						"astId": 3,
						"contract": "LotteryContract.sol:main",
						"label": "manager",
						"offset": 0,
						"slot": "0",
						"type": "t_address"
					},
					{
						"astId": 6,
						"contract": "LotteryContract.sol:main",
						"label": "players",
						"offset": 0,
						"slot": "1",
						"type": "t_array(t_address_payable)dyn_storage"
					}
				],
				"types": {
					"t_address": {
						"encoding": "inplace",
						"label": "address",
						"numberOfBytes": "20"
					},
					"t_address_payable": {
						"encoding": "inplace",
						"label": "address payable",
						"numberOfBytes": "20"
					},
					"t_array(t_address_payable)dyn_storage": {
						"base": "t_address_payable",
						"encoding": "dynamic_array",
						"label": "address payable[]",
						"numberOfBytes": "32"
					}
				}
			},
			"userdoc": {
				"kind": "user",
				"methods": {},
				"version": 1
			}
		}
	}
}